:020000040000FA
:100000000C940A020C94A3140C9478140C944D14C0
:100010000C9422140C94F7130C94CC130C94A1138D
:100020000C9476130C943B020C943B020C943B0210
:100030000C943B020C943B020C943B020C943B024C
:100040000C943B020C9458150C943B020C943B020C
:100050000C943B020C943B020C943B020C942C132A
:100060000C943B020C94F6120C94CC120C943B02B0
:100070000C943B020C943B020C943B020C943B020C
:100080000C942A150C943B020C943B020C943B02FA
:100090000C9496120C946C120C943B020C943B0240
:1000A0000C943B020C943B020C94FC140C943B0209
:1000B0000C943B020C943B020C943B020C94CE1427
:1000C0000C943B020C943B020C943B020C943B02BC
:1000D0000C943B020C943B020C943B020C943B02AC
:1000E0000C943B020C9486150C9497050C94733871
:1000F0000C945B040C944D040C9403380C94FD3761
:100100000C94FD030C9465380C94C1070C946C0599
:100110000C9401380C9467380C946B380C94FF37AE
:100120000C945D050C9471380C94F6370C9498057A
:100130000C9465050C9460380C947F380C947538D9
:100140000C94C3460C949D040C9479380C9484054B
:100150000C9480050C947C050C9439040C9405389F
:100160000C9461050C9476050C9469380C947B38DA
:100170000C94FB370C9457050C94CC490C949205C5
:100180000C9477380C949C050C949A080C948A056E
:100190000C946F380C9472050C947D380C940738CD
:1001A0000C9406070C94EC040C9469050C946D38BF
:1001B0000C948E050C942A04435255495345204310
:1001C0004F4E54524F4C20563A312E303000204F73
:1001D000464600204F4E00322052504D2061732081
:1001E000737065656400312070756C636573207091
:1001F0006572207265766F6C7574696F6E0034205D
:100200007365742052504D20696E7075740050757E
:100210006C63657320706572207265766F6C75749F
:10022000696F6E0033207365742073706565642098
:10023000696E70757400437572656E742076616CBA
:1002400075653A00474F4F4420425945004C4F577F
:10025000004849474800696E707574206E657720C4
:1002600076616C756500332073657420646572690E
:1002700076617469766500322073657420696E74E6
:10028000656772616C0031207365742070726F70E5
:100290006F7274696F6E616C0030206578697400EC
:1002A000322073657420706964206C6F7700312090
:1002B0007365742070696420686967680020202075
:1002C0002053455455500000002100240027002AE7
:1002D000002D003000330001010000040107010A75
:1002E0000100002200250028002B002E00310034E0
:1002F0000002010000050108010B0100002000239D
:1003000000260029002C002F00320000010000030D
:100310000106010901050505050705080808080289
:100320000202020A0A08080404040401010101018E
:100330000101010303030303030303040707070C7D
:100340000C0C0C0C0C0C0C02020202060606060633
:100350000606060B0B0B0B0B0B0B0B0102102020E0
:100360000808102040102040800201020108040209
:10037000010102040810204080804020100804027F
:1003800001800402018040201008040201080402D8
:1003900001010204081020408001020408102040DE
:1003A0008000000A0B02090C0D0E0807030401006F
:1003B000000000000000000000000000000000003D
:1003C00000000000000000000000000000121110FA
:1003D000000000000000000000000000000000001D
:1003E00000000000000000BD02AE02A002990286DB
:1003F0000277026602560251024D0244023602247E
:10040000020E02FE01E601D701D301CE01B80100C0
:100410008615C34611241FBECFEFD1E2DEBFCDBF8C
:1004200000E00CBF13E0A0E0B2E0E4EBF9E900E08B
:100430000BBF02C007900D92AA32B107D9F727E08F
:10044000AAE2B3E001C01D92A731B207E1F712E0C2
:10045000C9E0D2E000E006C021970109802FFE012B
:100460000E94AF49C830D10780E00807A9F70E9471
:100470005B170C94C84C0C9400004F925F926F92E3
:100480007F928F929F92AF92BF92CF92DF92EF9224
:10049000FF920F931F93CF93DF9300D01F92CDB79E
:1004A000DEB74B015C0129013A016701780120E0C8
:1004B00030E0A9010E94D34687FDA6C020E030E0CD
:1004C000A901C301B2010E94D34687FD9DC020E06F
:1004D00030E0A901C801B6010E94D34687FD94C04F
:1004E00081E02091C8063091C9062130310509F01C
:1004F00080E08093E9068092AE069092AF06A092CB
:10050000B006B092B1064092B2065092B306609225
:10051000B4067092B506C092B606D092B706E092C5
:10052000B806F092B9066091DC067091DD06809104
:10053000DE069091DF060E94D84620E030E04AE7D0
:1005400054E40E94DD4869837A838B839C83809284
:10055000BA069092BB06A092BC06B092BD069B0163
:10056000AC01C301B2010E9439472B013C0140920A
:10057000BE065092BF066092C0067092C1062981E5
:100580003A814B815C81C701B6010E94DD486B0155
:100590007C01C092C206D092C306E092C406F092DB
:1005A000C5068091C6069091C706019769F5A50119
:1005B000940160E070E0CB010E9470486093BA063D
:1005C0007093BB068093BC069093BD06A301920175
:1005D00060E070E0CB010E9470486093BE067093AB
:1005E000BF068093C0069093C106A701960160E004
:1005F00070E0CB010E9470486093C2067093C306FE
:100600008093C4069093C5060F900F900F900F90A3
:10061000DF91CF911F910F91FF90EF90DF90CF90DE
:10062000BF90AF909F908F907F906F905F904F9012
:1006300008958F929F92AF92BF92CF92DF92EF92E6
:10064000FF92CF93C82FC170019709F04DC08091E0
:10065000E806811149C0E091CC06F091CD06C0803A
:10066000D180E280F380C092D406D092D506E09289
:10067000D606F092D706E091CA06F091CB068081AB
:100680009181A281B3818093D8069093D906A093DB
:10069000DA06B093DB068090E4069090E506A09021
:1006A000E606B090E706A5019401C701B6010E94D5
:1006B000854918164CF48092D4069092D506A092E3
:1006C000D606B092D70610C08090E0069090E10662
:1006D000A090E206B090E306A5019401C701B6011F
:1006E0000E94D34687FDE7CFC093E806CF91FF90E5
:1006F000EF90DF90CF90BF90AF909F908F90089534
:10070000CF92DF92EF92FF92DC01A03282E0B80735
:10071000D4F5A53BB10514F0A4EBB0E0409111076E
:1007200028E830E0241B310947FD3395220F331FA1
:10073000220F331F6901330FEE08FF0840911207A3
:1007400028E532E0241B310947FD3395220F331F82
:10075000220F331F032E000C440B550B2C193D099F
:100760004E095F09B7FF02C0B0E0A0E00E94374821
:1007700024EB30E040E050E00E940D48C20ED31E52
:10078000E41EF51ED601E0911007E03380F52091BC
:10079000110788E890E0821B910927FD9395880F47
:1007A000991F880F991FA817B90784F02091120785
:1007B00088E592E0821B910927FD9395880F991F88
:1007C000880F991FA817B9070CF4CD010297880F5D
:1007D000991F4FB7F8942E2F30E0F901EE0FFF1F4D
:1007E000E20FF31FEF5EF94F928381834FBFFF90BB
:1007F000EF90DF90CF9008950895AF92BF92CF927F
:10080000DF92EF92FF920F931F93CF93DF936C01D0
:100810007B018B01040F151FEB015E01AE18BF08B1
:10082000C017D10759F06991D601ED91FC91019063
:10083000F081E02DC6011995892B79F7C501DF916B
:10084000CF911F910F91FF90EF90DF90CF90BF90CD
:10085000AF900895FC01538D448D252F30E0842FF7
:1008600090E0821B930B541710F0CF9608950197D8
:100870000895FC01918D828D981761F0A28DAE0FC5
:10088000BF2FB11D5D968C91928D9F5F9F73928F4C
:1008900090E008958FEF9FEF0895FC01918D828D78
:1008A000981731F0828DE80FF11D858D90E0089545
:1008B0008FEF9FEF0895FC01918D228D892F90E09D
:1008C000805C9F4F821B91098F73992708958EEC4E
:1008D00094E00E945B0421E0892B09F420E0822F40
:1008E00008958BE695E00E945B0421E0892B09F4D2
:1008F00020E0822F0895FC01A48DA80FB92FB11D0F
:10090000A35ABF4F2C91848D90E001968F73992745
:10091000848FA689B7892C93A089B1898C91837023
:1009200080648C93938D848D981306C00288F3891C
:10093000E02D80818F7D80830895EF92FF920F9349
:100940001F93CF93DF93EC0181E0888F9B8D8C8D7B
:1009500098131AC0E889F989808185FF15C09FB76F
:10096000F894EE89FF896083E889F9898081837032
:10097000806480839FBF81E090E0DF91CF911F91E1
:100980000F91FF90EF900895F62E0B8D10E00F5F02
:100990001F4F0F731127E02E8C8D8E110CC00FB6D8
:1009A00007FCFACFE889F989808185FFF5CFCE0170
:1009B0000E947B04F1CFEB8DEC0FFD2FF11DE35A6C
:1009C000FF4FF0829FB7F8940B8FEA89FB898081F3
:1009D0008062CFCF0C949D04CF93DF93EC01888D80
:1009E0008823B9F0AA89BB89E889F9898C9185FDAA
:1009F00003C0808186FD0DC00FB607FCF7CF8C9138
:100A000085FFF2CF808185FFEDCFCE010E947B0470
:100A1000E9CFDF91CF91089580E090E0892B29F014
:100A20000E94710481110E94000080E090E0892BF7
:100A300029F00E94670481110E94000080E090E08C
:100A4000892B49F080E090E0892B29F00E9400007A
:100A500081110E94000080E090E0892B49F080E045
:100A600090E0892B29F00E94000081110C94000075
:100A700008958150823108F05AC0E82FF0E08827AD
:100A8000EB5BFA4F8F4F0C94AF496505690557052D
:100A90005D05610597056C05720576057C05800589
:100AA00084058A058E059705920598059C05809119
:100AB00080008F77809380000895809180008F7DE3
:100AC000F9CF80918000877FF5CF84B58F7784BD83
:100AD000089584B58F7DFBCF8091B0008F77809390
:100AE000B00008958091B0008F7DF9CF8091900083
:100AF0008F77809390000895809190008F7DF9CF3B
:100B000080919000877FF5CF8091A0008F778093B0
:100B1000A00008958091A0008F7DF9CF8091A00062
:100B2000877FF5CF809120018F77809320010895F2
:100B3000809120018F7DF9CF80912001877FF5CFB3
:100B4000CF93DF93282F30E0F901EF55FC4F8491CC
:100B5000F901E55AFC4FD491F901EB5EFC4FC491C9
:100B6000CC23A1F081110E943905EC2FF0E0EE0FAB
:100B7000FF1FE550FD4FA591B491EC91ED2381E06D
:100B800090E009F480E0DF91CF91089580E090E05B
:100B9000FACF1F93CF93DF93282F30E0F901EF5561
:100BA000FC4F8491F901E55AFC4FD491F901EB5EB9
:100BB000FC4FC491CC23A9F0162F81110E94390556
:100BC000EC2FF0E0EE0FFF1FEF51FD4FA591B49118
:100BD0008FB7F894EC91111108C0D095DE23DC9307
:100BE0008FBFDF91CF911F910895DE2BF8CFCF9368
:100BF000DF9390E0FC01E55AFC4F24918B5E9C4F03
:100C0000FC0184918823D1F090E0880F991FFC01AA
:100C1000E953FD4FA591B491FC01EF51FD4FC591F2
:100C2000D49161110EC09FB7F8948C91E22FE0959A
:100C30008E238C932881E223E8839FBFDF91CF919D
:100C400008958FB7F894EC91E22BEC938FBFF6CF19
:100C500090917B00977F90937B0086538064809374
:100C60007C0080917A00806480937A0080917A0081
:100C700086FDFCCF809178009091790008953FB770
:100C8000F8948091560390915703A0915803B09126
:100C9000590326B5A89B05C02F3F19F00196A11D49
:100CA000B11D3FBFBA2FA92F982F8827BC01CD01B6
:100CB000620F711D811D911D42E0660F771F881F15
:100CC000991F4A95D1F708958F929F92AF92BF9244
:100CD000CF92DF92EF92FF924B015C010E943F06A0
:100CE0006B017C010E943F066C197D098E099F09EA
:100CF000683E734081059105A8F321E0821A9108AE
:100D0000A108B10888EEC80E83E0D81EE11CF11CD2
:100D100081149104A104B10429F7FF90EF90DF90B2
:100D2000CF90BF90AF909F908F9008952FB7F89479
:100D30006091520370915303809154039091550335
:100D40002FBF08950F931F930E949606609373051B
:100D50007093740580937505909376058BE695E006
:100D60000E94390497FF1DC00E94960600917305EA
:100D7000109174052091750530917605601B710BFB
:100D8000820B930B00916F051091700520917105F6
:100D9000309172056017710782079307F8F28FEFA1
:100DA0009FEF1F910F9108950F931F930E94960636
:100DB0006093730570937405809375059093760521
:100DC0008BE695E00E944D0497FF1DC00E94960699
:100DD0000091730510917405209175053091760589
:100DE000601B710B820B930B00916F0510917005C6
:100DF0002091710530917205601771078207930782
:100E0000F8F28FEF9FEF1F910F9108950895AF9221
:100E1000BF92CF92DF92EF92FF920F931F93CF93E7
:100E2000DF936B017A01EC01C35BDC4F28813CE06E
:100E3000389F8001399F100D1124A090A106B12C7C
:100E400027FF1FC0FB011182108288818F5F88837A
:100E500088819801280F311D87FD3A95F6012A15E2
:100E60003B051CF488818C30C4F18081918104960B
:100E70008C38904208F473C0F60180819181049609
:100E800070C088819801280F311D87FD3A952A1579
:100E90003B05DCF68881A801480F511D87FD5A9556
:100EA000FA01EE0FFF1FE40FF51FEF5EF94F80818F
:100EB00086FFCBCF8881F801E80FF11D87FDFA95F9
:100EC000CF01EE0FFF1FE80FF91FEF5EF94F808192
:100ED00060E08F730E94C905B8CF8081918128811D
:100EE000A801420F511D27FD5A959A01FA01EE0FF4
:100EF000FF1FE20FF31FEF5EF94F21813281820F56
:100F0000931FF7019183808388819801280F311DF9
:100F100087FD3A95F901EE0FFF1FE20FF31FEF5E19
:100F2000F94F808186FF22C08881080F111D87FD3F
:100F30001A95F801EE0FFF1FE00FF11FEF5EF94F5A
:100F4000808161E08F73DF91CF911F910F91FF90AE
:100F5000EF90DF90CF90BF90AF900C94C9058CE8D4
:100F600090E2F701918380838FEF8883DF91CF91A7
:100F70001F910F91FF90EF90DF90CF90BF90AF90B7
:100F80000895CF92DF92EF92FF920F931F930E94EA
:100F90003F060091FE061091FF0620910007309158
:100FA0000107601B710B820B930B6093AF02709370
:100FB000B0028093B1029093B2020E943F06609308
:100FC000FE067093FF0680930007909301078091BF
:100FD0000A0290910B022091080230910902C09000
:100FE0004903D0904A03E0904B03F0904C038217E2
:100FF000930708F463C050E040E0C701B6010E94C7
:101000003F482093B3023093B4024093B50250930B
:10101000B60281E090E090930B0280930A028091E7
:10102000AF029091B002A091B102B091B202809350
:10103000490390934A03A0934B03B0934C03209130
:10104000AF023091B0024091B1025091B2022850EB
:10105000374041095109ADE7B0E00E942C4824E235
:101060003AEF4FEF5FEF0E940D48275E3F4F4F4F23
:101070005F4F2739310514F026E930E02931310579
:1010800014F429E130E030930902209308028091A2
:10109000AF029091B002A091B102B091B2028093E0
:1010A000450390934603A0934703B09348031F91D1
:1010B0000F91FF90EF90DF90CF90089540914503FE
:1010C0005091460360914703709148030091AF022D
:1010D0001091B0022091B1023091B202440F551F1D
:1010E000661F771F401751076207730728F402969F
:1010F00090930B0280930A0280910A0290910B0256
:10110000019690930B0280930A028091AF02909116
:10111000B002A091B102B091B2028C0D9D1DAE1D26
:10112000BF1D8093490390934A03A0934B03B09350
:101130004C03ADCFCF92DF92EF92FF920E943F0619
:10114000C0900607D0900707E0900807F0900907C5
:101150006C197D098E099F096093A6027093A702FE
:101160008093A8029093A9020E943F06609306070D
:1011700070930707809308079093090780910602F0
:10118000909107022091040230910502C090410322
:10119000D0904203E0904303F090440382179307FA
:1011A00008F451C050E040E0C701B6010E943F483A
:1011B0002093AA023093AB024093AC025093AD024D
:1011C00081E090E090930702809306028091A6024E
:1011D0009091A702A091A802B091A9028093410327
:1011E00090934203A0934303B09344032091A6023B
:1011F0003091A7024091A8025091A902285F3A427B
:1012000041095109AAE8B0E00E942C4828E238EDD3
:101210004FEF5FEF0E940D482E5F3F4F4F4F5F4FE4
:101220002D38310514F02CE830E02230310514F46B
:1012300022E030E03093050220930402FF90EF900B
:10124000DF90CF9008950196909307028093060255
:101250008091A6029091A702A091A802B091A90244
:101260008C0D9D1DAE1DBF1D8093410390934203C5
:10127000A0934303B0934403E1CFFB01019000200E
:10128000E9F73197AF01461B570B0C94FD0368ED4E
:1012900072E08BE695E00C943D098F929F92AF929D
:1012A000BF92EF92FF920F931F93CF93DF93CDB72F
:1012B000DEB7A1970FB6F894DEBF0FBECDBF7C019D
:1012C000FA01CB0119A2223008F42AE08E010F5D49
:1012D0001F4F822E912CB12CA12CBF01A50194018E
:1012E0000E943F48F901CA016A300CF5605DD801DF
:1012F0006E938D01232B242B252B79F790E080E032
:10130000109721F0BD01C7010E943D09A1960FB6BB
:10131000F894DEBF0FBECDBFDF91CF911F910F912B
:10132000FF90EF90BF90AF909F908F900895695C71
:10133000DECFCF93DF93482F50E070E060E02AE0EB
:101340008BE695E00E944D09EC010E9447098C0F45
:101350009D1FDF91CF910895CF92DF92EF92FF9280
:101360000F931F93CF93DF936B01770FEE08FF0866
:10137000F7FE1BC0EC016DE20E949D048C01442726
:101380005527BA014C195D096E097F092AE0CE0183
:101390000E944D09800F911FDF91CF911F910F91F6
:1013A000FF90EF90DF90CF9008952AE0B701A6015B
:1013B000DF91CF911F910F91FF90EF90DF90CF9031
:1013C0000C944D09CF93DF93BC018BE695E00E940E
:1013D000AC09EC010E9447098C0F9D1FDF91CF9152
:1013E0000895CF93DF93BC018BE695E00E943D0901
:1013F000EC010E9447098C0F9D1FDF91CF9108954A
:10140000BC018BE695E00C943D092F923F924F92E0
:101410005F926F927F928F929F92AF92BF92CF9284
:10142000DF92EF92FF921F93CF93DF93EC016A015B
:101430007B01722EAB019601CB01B6010E948A4955
:101440006BED72E0811126C046015701E894B7F8B0
:101450002FEF3FEF4FE75FE7C501B4010E948A49D4
:1014600081110CC02FEF3FEF4FE75FE7C501B401DB
:101470000E94D3466FED72E0181664F02FEF3FEF35
:101480004FE75FE4C701B6010E9485491816B4F41E
:1014900063EE72E0CE01DF91CF911F91FF90EF904C
:1014A000DF90CF90BF90AF909F908F907F906F9084
:1014B0005F904F903F902F900C943D092FEF3FEF9E
:1014C0004FE75FECC701B6010E94D34687FDE0CF2E
:1014D00020E030E0A901C701B6010E94D346312CBB
:1014E000212C87FF09C06DE2CE010E949D041C01E2
:1014F000F7FAF094F7F8F09410E060E070E080E024
:101500009FE3711641F020E030E040E251E40E9498
:10151000DD481F5FF6CFA70196010E9471482B019D
:101520003C010E9456494B015C012AE0BC01A40128
:10153000CE010E944D097C01E20CF31C1123C1F184
:10154000C501B4010E94D8469B01AC01C301B201A0
:101550000E9470484B015C016EE2CE010E949D0426
:10156000E80EF91E115020F120E030E040E251E495
:10157000C501B4010E9439472B013C010E94564924
:101580004B01B12CA12C2AE0B501A401CE010E948F
:101590004D09E80EF91EC501B4010E94D8469B0111
:1015A000AC01C301B2010E9470484B015C01DACF6B
:1015B000C701DF91CF911F91FF90EF90DF90CF9007
:1015C000BF90AF909F908F907F906F905F904F9063
:1015D0003F902F900895CF93DF93AB01BC0122E0A1
:1015E0008BE695E00E94050AEC010E9447098C0FEA
:1015F0009D1FDF91CF910895AB01BC0122E08EECDD
:1016000094E00C94050A0F931F93CF93DF93CAECD9
:10161000D4E08C010A5C1440C8018C0F9D1F0E940D
:10162000F747899384E0CE3CD807B1F78AEC94E081
:10163000DF91CF911F910F9108950F931F93CF9337
:10164000DF938C010E94F747C8ECD4E08883C8017F
:1016500001960E94F7478983CE01DF91CF911F91B8
:101660000F910895CF92DF92EF92FF920F931F9305
:10167000CF93DF93EB017B0124E0E20EF11C8B01A1
:101680006C01C61AD70AC601800F911F0E94F74746
:10169000F80181938F01EE15FF05A9F7CE01DF91C7
:1016A000CF911F910F91FF90EF90DF90CF90089511
:1016B000CF93DF93EB010E94F7478883CE01DF9140
:1016C000CF9108950F931F93CF93DF93EC018881FF
:1016D0009981009759F02A813B812617370730F00E
:1016E00081E0DF91CF911F910F9108958B016F5F82
:1016F0007F4F0E94CE4B009759F0998388831B83BC
:101700000A832C813D81232B59F7FC011082E8CFFD
:1017100080E0E7CFEF92FF920F931F93CF93DF9379
:10172000EC017B018A01BA010E94620B2881398198
:10173000811114C02115310519F0C9010E94454BD2
:10174000198218821D821C821B821A82CE01DF91AF
:10175000CF911F910F91FF90EF9008951D830C83FF
:10176000B701C9010E94C14CF1CF0C94FF47FF9211
:101770000F931F93CF93DF93EC01F62E088119810D
:10178000C8010E94F747F81621F06F2DC8010E948A
:10179000FF47CE01DF91CF911F910F91FF900895E8
:1017A000AF92BF92CF92DF92EF92FF920F931F936F
:1017B000CF93DF931F921F92CDB7DEB78B016B01E2
:1017C00024E0C20ED11C7B015C01A61AB70AC50138
:1017D0008E0D9F1D9A838983F70161917F01CE0150
:1017E00001960E94B70BEC14FD0489F7C8010F9015
:1017F0000F90DF91CF911F910F91FF90EF90DF90AD
:10180000CF90BF90AF900895AF92BF92CF92DF92EA
:10181000EF92FF920F931F93CF93DF931F921F922C
:10182000CDB7DEB78B016B0124E0C20ED11C7B016A
:101830005C01A61AB70AC5018E0D9F1D9A83898384
:10184000F70161917F01CE0101960E94B70BEC1464
:10185000FD0489F7C8010F900F90DF91CF911F9180
:101860000F91FF90EF90DF90CF90BF90AF900895D1
:101870000F931F93CF93DF931F921F92CDB7DEB7C5
:101880008B019A838983FB016081CE0101960E94BE
:10189000B70BC8010F900F90DF91CF911F910F915F
:1018A0000895EF92FF920F931F93CF93DF931F92B0
:1018B0001F92CDB7DEB78C017B019A838983FB0130
:1018C0006081CE0101960E94B70B0F5F1F4F1A83F4
:1018D0000983F7016181CE0101960E94B70BC70110
:1018E0000F900F90DF91CF911F910F91FF90EF908C
:1018F00008958F929F92AF92BF92CF92DF92EF9214
:10190000FF920F931F93CF93DF931F921F92CDB738
:10191000DEB761E080E20E94F70560E080E20E94AD
:10192000C90561E088E00E94F70561E088E00E9457
:10193000C905E091DE04F091DF0422E02083E0910C
:10194000DA04F091DB041082E091DC04F091DD0414
:1019500084E480831092E604E091E204F091E304D1
:1019600096E09083E091E004F091E1048081806151
:101970008083E091E004F091E104808188608083BD
:10198000E091E004F091E104808180688083E0913F
:10199000E004F091E10480818F7D8083E0917B05FC
:1019A000F0917C052083E0917705F0917805108215
:1019B000E0917905F0917A0580E1808310928305AA
:1019C000E0917F05F09180059083E0917D05F09195
:1019D0007E05808180618083E0917D05F0917E05A8
:1019E000808188608083E0917D05F0917E05808113
:1019F00080688083E0917D05F0917E0580818F7DF8
:101A00008083EDE0F4E0659174918CE593E00E94B1
:101A1000CC468CE593E00E94F10938E0E32E36E0F5
:101A2000F32E41E1C42E46E0D42E8701D8014D911A
:101A30008D0150E070E060E02AE08BE695E00E94C6
:101A40004D0982E193E00E94000AC016D10671F7A9
:101A50000E94470980918104EDEBF2E026EC32E030
:101A60004191D7019D917D01491381E02E173F07D8
:101A7000B9F7809381040E944709809181048130E5
:101A800009F0E2C487EE92E00E94000A61E084E07F
:101A90000E94F70561E086E30E94F70560E084E0BC
:101AA0000E94C90560E086E30E94C90560ED77E009
:101AB00080E090E00E9464061092AA031092A403B2
:101AC0001092A30310928C0381E080931C0260E4C7
:101AD00073E08AEF90E00E94580B809140038130C0
:101AE000B1F010E000E060E0C8010E94B50B0F5FAC
:101AF0001F4F0B3F1105B9F781E090E09A8389836E
:101B0000BE016F5F7F4F8AEF90E00E94510C6CE343
:101B100073E090E080E00E94320BC0903C03D090D4
:101B20003D03E0903E03F0903F0320E030E0A90148
:101B3000C701B6010E948549181644F4C0923802C4
:101B4000D0923902E0923A02F0923B026CE373E0E9
:101B500084E090E00E94320BC0903C03D0903D03A3
:101B6000E0903E03F0903F0320E030E0A901C70180
:101B7000B6010E948549181644F4C0923402D092EE
:101B80003502E0923602F09237026CE373E088E0AF
:101B900090E00E94320BC0903C03D0903D03E09057
:101BA0003E03F0903F0320E030E0A901C701B601F9
:101BB0000E948549181644F4C0923002D092310236
:101BC000E0923202F09233026CE373E08CE090E03A
:101BD0000E94320BC0903C03D0903D03E0903E0346
:101BE000F0903F0320E030E0A901C701B6010E9458
:101BF0008549181644F4C0924402D0924502E092FE
:101C00004602F09247026CE373E080E190E00E94AC
:101C1000320BC0903C03D0903D03E0903E03F09027
:101C20003F0320E030E0A901C701B6010E948549C9
:101C3000181644F4C0924002D0924102E09242024F
:101C4000F09243026CE373E084E190E00E94320B77
:101C5000C0903C03D0903D03E0903E03F0903F03E2
:101C600020E030E0A901C701B6010E94854918169D
:101C700044F4C0923C02D0923D02E0923E02F092C7
:101C80003F0260E473E08EE190E00E94580B809187
:101C9000400381118093A50265EA73E088E190E03A
:101CA0000E94580B8091A503882319F081E080934E
:101CB000A5036FE474E088ED90E00E94580B82E287
:101CC00090E00E94030B8091CA049091CB04A091F4
:101CD000CC04B091CD040097A105B10541F08093EB
:101CE000480290934902A0934A02B0934B026DE3DD
:101CF00074E086E290E00E94320B68E374E08AE2CE
:101D000090E00E94320B64E374E08FE290E00E9466
:101D1000320B60E374E083E390E00E94320B6CE2EC
:101D200074E087E390E00E94320B68E274E08BE39A
:101D300090E00E94320B62EA73E08FE390E00E9431
:101D4000580B61E474E080E490E00E94580B8DE44D
:101D500090E00E94030B8091CA049091CB04A09163
:101D6000CC04B091CD040097A105B10541F080935A
:101D7000260290932702A0932802B093290281E5BE
:101D800090E00E94030B8091CA049091CB04A09133
:101D9000CC04B091CD040097A105B10541F080932A
:101DA000220290932302A0932402B09325026AE2B8
:101DB00072E089E490E00E94580B80912A02823000
:101DC00048F01A821982BE016F5F7F4F89E490E06C
:101DD0000E94510C0CE412E0F12CE12CC090200286
:101DE000D0902102C6010E94030B8091CA049091F9
:101DF000CB04A091CC04B091CD04AC01BD01415005
:101E00005109610971094B3251406105710558F45E
:101E1000F701EE0FFF1FEE0FFF1FE00FF11F808392
:101E20009183A283B383F4E0CF0ED11CD092210220
:101E3000C09220022FEFE21AF20A45E0E416F10404
:101E400069F60C5E1F4F82E00838180729F685E511
:101E500090E0909321028093200206EB13E0F09033
:101E60001F028F2D90E00E941D0B8091C80490915D
:101E7000C9049C01215031092F3F334018F4F80167
:101E800091838083F394F394F0921F020E5F1F4FAF
:101E9000F3E00E3C1F0719F782E980931F020BE164
:101EA00014E0E0901D02F0901E02C7010E941D0B7D
:101EB0008091C8049091C904803D27E0920718F4EE
:101EC000D8018D939C93B2E0EB0EF11CF0921E02B0
:101ED000E0921D020E5F1F4FE4E005321E0709F776
:101EE0008CEA90E090931E0280931D0260E473E000
:101EF00086EB90E00E94580B80914003813009F0FE
:101F0000A6C28093130460E473E08AEA90E00E9422
:101F1000580B809140038093A40260E473E087EB48
:101F200090E00E94580B80914003813009F092C2EA
:101F30008093540460E473E083ED90E00E94580BBA
:101F400080915404813009F088C28091400381302F
:101F500009F083C28093550460E473E088EB90E05D
:101F60000E94580B80914003813009F079C2809320
:101F7000140460E473E089EB90E00E94580B8091B8
:101F80004003813009F06FC2809315048FEB90E01D
:101F90000E941D0B8091C8049091C9048130F4E027
:101FA0009F070CF063C2909346048093450481EC34
:101FB00090E00E941D0B8091C8049091C90481306B
:101FC00024E092070CF057C2909348048093470492
:101FD00068E373E083EC90E00E94320BC09038031A
:101FE000D0903903E0903A03F0903B0320E030E0DA
:101FF000A901C701B6010E948549181694F420E092
:1020000030E040E85FE3C701B6010E94D34687FF96
:1020100008C0C0929002D0929102E0929202F09297
:10202000930268E373E087EC90E00E94320BC0906B
:102030003803D0903903E0903A03F0903B0320E05E
:1020400030E0A901C701B6010E948549181694F431
:1020500020E030E040E85FE3C701B6010E94D346CC
:1020600087FF08C0C0928C02D0928D02E0928E024F
:10207000F0928F026CE373E08FEC90E00E94320BE1
:1020800084ED90E00E941D0B8091C8049091C904DA
:102090009C0121503109273B3B4020F4909395024D
:1020A0008093940286ED90E00E941D0B8091C804FD
:1020B0009091C9049C0121503109273B3B4020F4F9
:1020C00090932E0280932D02809115048130C1F4EB
:1020D00063EA72E081EE90E00E94580B62EA72E0DF
:1020E00082EE90E00E94580B61EA72E083EE90E08D
:1020F0000E94580B60EA72E084EE90E00E94580B58
:102100006FE474E088ED90E00E94580B60E473E0A7
:102110008BEE90E00E94580B8091400381118093D8
:10212000AE0210920504109202041092A2061092C0
:10213000A3061092A4061092A50600919402109195
:102140009502B801012E000C880B990B0E94DA460B
:102150006093A6067093A7068093A8069093A9069D
:102160001093C7040093C604C8010E94800360E076
:1021700087E00E94F70560E08CE00E94F70561E0CF
:1021800088E00E94C90580911007803308F052C092
:1021900061E089E00E94F70580911007282F30E068
:1021A000F901EE0FFF1FE20FF31FEF5EF94F908171
:1021B000907C9960908310921107109212072CE086
:1021C000622F0E948F49829FB001112430E020E0ED
:1021D000AB01420F531FFA01EE0FFF1FE40FF51F73
:1021E000EF5EF94F908196FD17C02F5F3F4F2C3067
:1021F000310571F7813009F043C11092800082E00F
:10220000809381001092850010928400B19A809191
:102210006F00826080936F00E09110078E2F90E036
:10222000FC01EE0FFF1FE80FF91FEF5EF94F8081F1
:10223000806480838091C6049091C7040E948003CB
:1022400010925304109252041092510410925004B0
:10225000109204041092030481E08093FB03109217
:10226000FC031092FA0360E085E00E94F70560E04D
:1022700086E00E94F70560E08CE30E94F70560E0CD
:1022800087E30E94F70560E089E30E94F7058AEF83
:1022900090E090933703809336031092E8066091A4
:1022A000DC067091DD068091DE069091DF060E94CB
:1022B000D8469B01AC0160E070E08AE793E40E949D
:1022C000DD486B017C01AC019B016091BE06709101
:1022D000BF068091C0069091C1060E943947609365
:1022E000BE067093BF068093C0069093C106A701F7
:1022F00096016091C2067091C3068091C4069091C8
:10230000C5060E94DD486093C2067093C3068093A1
:10231000C4069093C5068AEF90E0A0E0B0E08093F9
:10232000DC069093DD06A093DE06B093DF06609195
:102330002D0270912E02072E000C880B990B0E9423
:10234000DA466B017C016091940270919502072E30
:10235000000C880B990B0E94DA464B015C01AC0122
:102360009B01C701B6010E94D346181684F48092DF
:10237000E0069092E106A092E206B092E306C092D7
:10238000E406D092E506E092E606F092E7061092A7
:1023900059048AE998E090930F0280930E0280918D
:1023A0006A00837F886080936A00ED9A81EC97E0F1
:1023B00090930D0280930C0280916A008C7F826062
:1023C00080936A00EC9A609144027091450280917A
:1023D0004602909147026093EA067093EB06809361
:1023E000EC069093ED06209140023091410240911D
:1023F0004202509143022093EE063093EF06409341
:10240000F0065093F106E0903C02F0903D020091FE
:102410003E0210913F02E092F206F092F306009322
:10242000F4061093F5060E943D020F900F90DF9185
:10243000CF911F910F91FF90EF90DF90CF90BF90C1
:10244000AF909F908F90089585EF92E01DCB1092F2
:10245000130459CD109254046DCD109255047CCDC7
:102460001092140486CD1092150490CD109246045B
:10247000109245049CCD1092480410924704A8CDB8
:10248000823061F410929000809391001092950038
:102490001092940088BB80937100BECE833069F4A3
:1024A0001092A00082E08093A1001092A5001092EB
:1024B000A40089BB80937200AFCE8111ADCE109283
:1024C000200182E0809321011092250110922401C5
:1024D0008ABB80937300A0CE1F920F920FB60F920B
:1024E00011240BB60F922F933F934F935F936F93EB
:1024F0007F938F939F93AF93BF93EF93FF938EEC54
:1025000094E00E947B04FF91EF91BF91AF919F9166
:102510008F917F916F915F914F913F912F910F908C
:102520000BBE0F900FBE0F901F9018951F920F9229
:102530000FB60F9211240BB60F922F938F939F9388
:10254000EF93FF93E091DE04F091DF048081E0914E
:10255000E404F091E50482FD1DC090818091E704C0
:102560008F5F8F732091E804821741F0E091E704B8
:10257000F0E0E253FB4F958F8093E704FF91EF91DA
:102580009F918F912F910F900BBE0F900FBE0F90C8
:102590001F9018958081F2CF1F920F920FB60F9265
:1025A00011240BB60F922F933F934F935F936F932A
:1025B0007F938F939F93AF93BF93EF93FF938BE69C
:1025C00095E00E947B04FF91EF91BF91AF919F91A5
:1025D0008F917F916F915F914F913F912F910F90CC
:1025E0000BBE0F900FBE0F901F9018951F920F9269
:1025F0000FB60F9211240BB60F922F938F939F93C8
:10260000EF93FF93E0917B05F0917C058081E09151
:102610008105F091820582FD1DC090818091840525
:102620008F5F8F7320918505821741F0E0918405BB
:10263000F0E0E559FA4F958F80938405FF91EF9173
:102640009F918F912F910F900BBE0F900FBE0F9007
:102650001F9018958081F2CF1F920F920FB60F92A4
:1026600011242F933F938F939F93AF93BF938091A8
:10267000520390915303A0915403B09155033091AC
:10268000510323E0230F2D3758F50196A11DB11DED
:10269000209351038093520390935303A0935403C8
:1026A000B09355038091560390915703A09158031E
:1026B000B09159030196A11DB11D809356039093CB
:1026C0005703A0935803B0935903BF91AF919F91C3
:1026D0008F913F912F910F900FBE0F901F901895E3
:1026E00026E8230F0296A11DB11DD2CF1F920F9293
:1026F0000FB60F9211240BB60F922F933F934F9367
:102700005F936F937F938F939F93AF93BF93EF9359
:10271000FF93E0911A02F0911B021995FF91EF913E
:10272000BF91AF919F918F917F916F915F914F91E9
:102730003F912F910F900BBE0F900FBE0F901F90E7
:1027400018951F920F920FB60F9211240BB60F928D
:102750002F933F934F935F936F937F938F939F93A9
:10276000AF93BF93EF93FF93E0911802F09119029A
:102770001995FF91EF91BF91AF919F918F917F91AB
:102780006F915F914F913F912F910F900BBE0F90E2
:102790000FBE0F901F9018951F920F920FB60F92B9
:1027A00011240BB60F922F933F934F935F936F9328
:1027B0007F938F939F93AF93BF93EF93FF93E0919A
:1027C0000E02F0910F021995FF91EF91BF91AF9119
:1027D0009F918F917F916F915F914F913F912F9139
:1027E0000F900BBE0F900FBE0F901F9018951F9269
:1027F0000F920FB60F9211240BB60F922F933F93A7
:102800004F935F936F937F938F939F93AF93BF93F8
:10281000EF93FF93E0910C02F0910D021995FF9157
:10282000EF91BF91AF919F918F917F916F915F9148
:102830004F913F912F910F900BBE0F900FBE0F90B5
:102840001F9018951F920F920FB60F9211240BB67E
:102850000F922F933F934F935F936F937F938F9339
:102860009F93AF93BF93EF93FF93E0911602F09184
:1028700017021995FF91EF91BF91AF919F918F91A1
:102880007F916F915F914F913F912F910F900BBE70
:102890000F900FBE0F901F9018951F920F920FB6BA
:1028A0000F9211240BB60F922F933F934F935F9388
:1028B0006F937F938F939F93AF93BF93EF93FF9308
:1028C000E0911402F09115021995FF91EF91BF91DB
:1028D000AF919F918F917F916F915F914F913F91B8
:1028E0002F910F900BBE0F900FBE0F901F90189559
:1028F0001F920F920FB60F9211240BB60F922F93C7
:102900003F934F935F936F937F938F939F93AF9377
:10291000BF93EF93FF93E0911202F0911302199588
:10292000FF91EF91BF91AF919F918F917F916F91A7
:102930005F914F913F912F910F900BBE0F900FBE63
:102940000F901F9018951F920F920FB60F9211249F
:102950000BB60F922F933F934F935F936F937F9399
:102960008F939F93AF93BF93EF93FF93E0911002E8
:10297000F09111021995FF91EF91BF91AF919F9145
:102980008F917F916F915F914F913F912F910F9018
:102990000BBE0F900FBE0F901F9018951F920F92B5
:1029A0000FB60F9211240BB60F922F933F934F93B4
:1029B0005F936F937F938F939F93AF93BF93EF93A7
:1029C000FF9348E251E064E271E090E080E00E9411
:1029D0000707FF91EF91BF91AF919F918F917F91E9
:1029E0006F915F914F913F912F910F900BBE0F9080
:1029F0000FBE0F901F9018951F920F920FB60F9257
:102A000011240BB60F922F933F934F935F936F93C5
:102A10007F938F939F93AF93BF93EF93FF9348EA76
:102A200050E064EA70E083E090E00E940707FF91C5
:102A3000EF91BF91AF919F918F917F916F915F9136
:102A40004F913F912F910F900BBE0F900FBE0F90A3
:102A50001F9018951F920F920FB60F9211240BB66C
:102A60000F922F933F934F935F936F937F938F9327
:102A70009F93AF93BF93EF93FF9348E950E064E9CE
:102A800070E082E090E00E940707FF91EF91BF9114
:102A9000AF919F918F917F916F915F914F913F91F6
:102AA0002F910F900BBE0F900FBE0F901F90189597
:102AB0001F920F920FB60F9211240BB60F922F9305
:102AC0003F934F935F936F937F938F939F93AF93B6
:102AD000BF93EF93FF9348E850E064E870E081E033
:102AE00090E00E940707FF91EF91BF91AF919F91F6
:102AF0008F917F916F915F914F913F912F910F90A7
:102B00000BBE0F900FBE0F901F9018954F925F92C3
:102B10006F927F928F929F92AF92BF92CF92DF92ED
:102B2000EF92FF921092D1041092D00448EE53E03D
:102B300060E070E04093D2045093D3046093D404D7
:102B40007093D5048AEC92E09093CF048093CE04E6
:102B50002DEC30E03093DB042093DA042CEC30E0F1
:102B60003093DD042093DC0428EC30E03093DF0464
:102B70002093DE0429EC30E03093E1042093E0045C
:102B80002AEC30E03093E3042093E2042EEC30E0B2
:102B90003093E5042093E4041092E7041092E804D3
:102BA0001092E9041092EA0410926E0510926D05DD
:102BB00040936F0550937005609371057093720593
:102BC00090936C0580936B0585EC90E0909378056D
:102BD0008093770584EC90E090937A058093790553
:102BE00080EC90E090937C0580937B0581EC90E0F5
:102BF00090937E0580937D0582EC90E09093800514
:102C000080937F0586EC90E0909382058093810508
:102C10001092840510928505109286051092870502
:102C2000A8E0B6E090E080E041E2FC013E9621E0C1
:102C300030E08630910510F430E020E0E20FF31F21
:102C400040935700E491ED9301968930910569F71F
:102C50008091A106803308F02AC191E0980F9093EB
:102C6000A1068093100790E0FC01EE0FFF1FE80F14
:102C7000F91FEF5EF94F88EB9BE0928381831092FE
:102C80000B0710920A0710920D0710920C07109272
:102C90000F0710920E0750E040E06AED72E08AE004
:102CA00097E00E948A0B8091060790910707A091F8
:102CB0000807B09109078093020790930307A09338
:102CC0000407B09305078091FE069091FF06A0913E
:102CD0000007B09101078093FA069093FB06A0933A
:102CE000FC06B093FD060E943F060E943F060E942C
:102CF00096066093F6067093F7068093F806909315
:102D0000F906C090F206D090F306E090F406F09039
:102D1000F5068090EE069090EF06A090F006B09039
:102D2000F1064090EA065090EB066090EC06709039
:102D3000ED0686EA96E09093CD068093CC068AEA6B
:102D400096E09093CB068093CA0682EA96E0909331
:102D5000CF068093CE061092E8061092E0061092FD
:102D6000E1061092E2061092E30680E090E0AFE701
:102D7000B3E48093E4069093E506A093E606B0934F
:102D8000E70684E690E0A0E0B0E08093DC06909354
:102D9000DD06A093DE06B093DF061092C706109200
:102DA000C60620E030E0A901C301B2010E94D3466B
:102DB00087FD5AC020E030E0A901C501B4010E949E
:102DC000D34687FD51C020E030E0A901C701B6011C
:102DD0000E94D34687FD48C081E090E09093C906E9
:102DE0008093C8068093E9064092AE065092AF06E3
:102DF0006092B0067092B1068092B2069092B306CD
:102E0000A092B406B092B506C092B606D092B706AC
:102E1000E092B806F092B9064092BA065092BB060C
:102E20006092BC067092BD062DEC3CEC4CEC5DE370
:102E3000C501B4010E9439476093BE067093BF0676
:102E40008093C0069093C1062DEC3CEC4CEC5DE306
:102E5000C701B6010E94DD486093C2067093C306A5
:102E60008093C4069093C5060E949606C090DC0627
:102E7000D090DD06E090DE06F090DF066C197D094B
:102E80008E099F096093D0067093D1068093D20675
:102E90009093D306FF90EF90DF90CF90BF90AF90CC
:102EA0009F908F907F906F905F904F9008958FEFDD
:102EB00080931007E4CECF93DF93CDB7DEB76F9743
:102EC0000FB6F894DEBF0FBECDBF789484B5826094
:102ED00084BD84B5816084BD85B5826085BD85B5BE
:102EE000816085BD80916E00816080936E0010923C
:102EF00081008091810082608093810080918100B7
:102F00008160809381008091800081608093800047
:102F10008091B10084608093B1008091B0008160A5
:102F20008093B000809191008260809391008091A5
:102F300091008160809391008091900081608093E6
:102F400090008091A10082608093A1008091A100F7
:102F500081608093A1008091A00081608093A00097
:102F60008091210182608093210180912101816003
:102F700080932101809120018160809320018091C4
:102F80007A00846080937A0080917A0082608093D6
:102F90007A0080917A00816080937A0080917A0033
:102FA000806880937A001092C1000E94790C809111
:102FB000C6049091C7040E948003C090FE06D09082
:102FC000FF06E0900007F0900107C092FA06D09249
:102FD000FB06E092FC06F092FD060E943F062B01E4
:102FE0003C014C145D046E047F0440F44092FA06E8
:102FF0005092FB066092FC067092FD060091B302AF
:103000001091B4022091B5023091B60258016901C5
:10301000E12CF12C00E010E020E034EE4BE054E530
:1030200062E070E080E090E00E94C0492093C2041A
:103030003093C3044093C4045093C5048091C004EA
:103040009091C10420EAC22E26E8D22EEE24E39409
:10305000F12CC81AD90AE108F108D701C60140913C
:10306000AF025091B0026091B1027091B202841728
:103070009507A607B70708F4B1C34091FA06509127
:10308000FB066091FC067091FD06441A550A660A1B
:10309000770A84159505A605B70508F49FC3109215
:1030A000C1041092C0042091AE0230E050E040E034
:1030B0006091C2047091C3048091C4049091C504CE
:1030C0000E943F48ACE3B0E00E942C4820E137E288
:1030D00040E050E00E943F48C090B804D090B9044E
:1030E000E090BA04F090BB04F601EE0FFF1FEE0F64
:1030F000FF1FE455FB4F6091BC047091BD048091AB
:10310000BE049091BF0480809180A280B380681932
:1031100079098A099B092083318342835383620F93
:10312000731F841F951F6093BC047093BD0480932C
:10313000BE049093BF040FEFC01AD00AE00AF00A51
:1031400013E0C116D104E104F10408F058C3C092A1
:10315000B804D092B904E092BA04F092BB0423E020
:1031600030E040E050E00E943F4829873A874B8793
:103170005C872093A8043093A9044093AA04509339
:10318000AB04C0900607D0900707E0900807F090C6
:103190000907C0920207D0920307E0920407F09259
:1031A00005070E943F062B013C014C145D046E0490
:1031B0007F0440F440920207509203076092040794
:1031C000709205070091AA021091AB022091AC0207
:1031D0003091AD0258016901E12CF12C00E010E0C2
:1031E00020E034EE4BE054E562E070E080E090E0F7
:1031F0000E94C0492093A4043093A5044093A604E0
:103200005093A7048091A2049091A30420EA36E889
:1032100041E050E0281B390B41095109DA01C9018D
:103220004091A6025091A7026091A8027091A90254
:1032300084179507A607B70708F4EAC2409102076A
:10324000509103076091040770910507441A550ACD
:10325000660A770A84159505A605B70508F4D8C24D
:103260001092A3041092A2042091A50230E050E035
:1032700040E06091A4047091A5048091A60490910F
:10328000A7040E943F48A0E1BEE00E942C4820E134
:1032900037E240E050E00E943F4880919A049091CC
:1032A0009B04A0919C04B0919D04FC01EE0FFF1FB4
:1032B000EE0FFF1FE257FB4FC0909E04D0909F047B
:1032C000E090A004F090A10480809180A280B3805F
:1032D000C818D908EA08FB08208331834283538346
:1032E000C20ED31EE41EF51EC0929E04D0929F040F
:1032F000E092A004F092A1040196A11DB11D8330BB
:103300009105A105B10508F092C280939A049093AB
:103310009B04A0939C04B0939D04C701B60123E0D5
:1033200030E040E050E00E943F4849015A0180925D
:103330008A0490928B04A0928C04B0928D046985CB
:103340007A858B859C850E94D8462B013C01C7015C
:10335000B60124EB30E040E050E00E943F48CA0153
:10336000B9010E94D8469B01AC01C301B2010E9481
:10337000DD482B013C014092860450928704609204
:103380008804709289040E9496066093F6067093F2
:10339000F7068093F8069093F90600918204109145
:1033A000830420918404309185046B017C01C01A50
:1033B000D10AE20AF30A97018601023311052105B9
:1033C000310508F429C460938204709383048093C8
:1033D000840490938504603E73498440910530F0E5
:1033E00080918104813011F48093800489E30E94EC
:1033F00028061C0190937F0480937E0487E30E943B
:103400002806409176045091770460917804709179
:103410007904FA01EE0FFF1FEE0FFF1FEE59FB4F6D
:1034200000917A0410917B0420917C0430917D04FA
:10343000C080D180E280F3800C191D092E093F095C
:10344000092E000CAA0BBB0B80839183A283B3834C
:10345000800F911FA21FB31F80937A0490937B0467
:10346000A0937C04B0937D044F5F5F4F6F4F7F4FFD
:10347000453051056105710508F0E2C140937604BD
:10348000509377046093780470937904BC01CD0164
:1034900025E030E040E050E00E943F4869017A01B9
:1034A000C0925E04D0925F04E0926004F0926104E6
:1034B000AFEFB0E00E942C482FEF33E040E050E047
:1034C0000E940D4820935D048AE30E9428062FEF96
:1034D00030E0DC010E94B7492FEF33E040E050E0DC
:1034E0000E940D4820935C0490915B0410915A0453
:1034F000273508F4AEC1911109C0111107C060E071
:1035000080E20E94C90581E080935B042091590408
:103510002111B9C1809158048F5F80935804111113
:103520002EC08091A4024091560450915704840FFC
:10353000952F911D092E000CAA0BBB0BC816D9069E
:10354000EA06FB06E0F0809155048130C1F42111B8
:1035500016C080915404813091F42091520430912E
:103560005304232B61F42091500430915104232BF8
:1035700031F4909158049A3010F080935A0480915D
:103580005A04813021F460E080E20E94C9058091F4
:103590004F0481117EC1C501B4010E94D84628E4C0
:1035A00037E847E05BE30E94394760934B04709330
:1035B0004C0480934D0490934E04C0904B04D090E3
:1035C0004C04E0904D04F0904E0420E030E040E6E2
:1035D00050E4C701B6010E9439476093AA06709370
:1035E000AB068093AC069093AD0629853A8530935F
:1035F0004A04209349048090450490904604092C85
:10360000000CAA08BB089101330C440B550B281978
:1036100039094A095B09A4E6B0E00E942C482091D0
:10362000470430914804032E000C440B550B281915
:1036300039094A095B090E940D482536310514F005
:1036400024E630E037FF02C030E020E0309344044D
:10365000209343042093420410914104113059F502
:1036600080903D0490903E04A0903F04B0904004B0
:103670002DEC3CEC4CE45FE3C501B4010E943947FA
:103680009B01AC01C301B2010E94854987FD13C1B2
:103690002AE939E949E95FE3C501B4010E943947E4
:1036A0009B01AC01C301B2010E94D34618160CF471
:1036B00002C110933C0460912704693108F0D2C123
:1036C00010922604109225040091260410912504DE
:1036D00070E090E080E00E94D8464B015C0169E117
:1036E000610F70E090E080E00E94D846A50194014F
:1036F0000E94704820E030E048EC51E40E94DD4830
:1037000069877A878B879C87E02FF0E0EE0FFF1F99
:10371000E55EFB4F60817181072E000C880B990BD1
:103720000E94DA469B01AC0169857A858B859C8570
:103730000E94394769877A878B879C87612F70E061
:1037400090E080E00E94D8469B01AC01C501B40125
:103750000E94704820E030E048EC51E40E94DD48CF
:103760004B015C010F5FE02FF0E0EE0FFF1FE55E05
:10377000FB4F60817181072E000C880B990B0E9412
:10378000DA469B01AC01C501B4010E9439479B0197
:10379000AC0169857A858B859C850E9471480E9461
:1037A0004F4970931A04609319041091A302612F7A
:1037B00070E090E080E00E94DA464B015C01AC01D1
:1037C0009B01C701B6010E94D34687FF64C11092D6
:1037D0001804109217041093160482C11092C204A8
:1037E0001092C3041092C4041092C50480EDE82E18
:1037F00087E0F82EF092C104E092C00454CC1092FD
:10380000B8041092B9041092BA041092BB04A7CC69
:103810001092A4041092A5041092A6041092A7047A
:1038200040ED57E05093A3044093A2041DCD1092A5
:103830009A0410929B0410929C0410929D046DCDEA
:103840001092760410927704109278041092790402
:103850001DCE913061F4223508F058CE111156CEAC
:1038600061E080E20E94C90510925B044FCE911185
:103870004DCE223508F04ACE111148CE61E080E2EB
:103880000E94C90543CE213009F049CE1092580458
:1038900046CE813009F091CE8091490490914A043E
:1038A00068E270E00E949B49072E000C880B990B80
:1038B0000E94DA467ACE8090380490903904A09025
:1038C0003A04B0903B042AE939E949E55FE3C501D0
:1038D000B4010E9439479B01AC01C301B2010E94AF
:1038E000854987FD14C023E333E343E95FE3C50162
:1038F000B4010E9439479B01AC01C301B2010E948F
:10390000D346181624F082E080933C04D4CE8090F5
:10391000340490903504A0903604B090370426E625
:1039200036E646E65FE3C501B4010E9439479B01D4
:10393000AC01C301B2010E94854987FD12C02DEC84
:103940003CEC4CE85FE3C501B4010E9439479B01A0
:10395000AC01C301B2010E94D346181614F083E0F3
:10396000D3CF8090300490903104A0903204B09076
:1039700033042BE734E14EE65FE3C501B4010E9456
:1039800039479B01AC01C301B2010E94854987FD03
:1039900012C023EC35EF48E85FE3C501B4010E9493
:1039A00039479B01AC01C301B2010E94D3461816EE
:1039B00014F084E0A9CF80902C0490902D04A09066
:1039C0002E04B0902F0423E333E343E75FE3C50104
:1039D000B4010E9439479B01AC01C301B2010E94AE
:1039E000854987FD12C026E636E646E85FE3C50155
:1039F000B4010E9439479B01AC01C301B2010E948E
:103A0000D346181614F085E07FCF8090280490905C
:103A10002904A0902A04B0902B0423E333E343E766
:103A20005FE3C501B4010E9439479B01AC01C301AA
:103A3000B2010E94854987FD12C026E636E646E8B7
:103A40005FE3C501B4010E9439479B01AC01C3018A
:103A5000B2010E94D346181614F086E055CF10929A
:103A60003C0429CE87EE860F893138F481E08093BB
:103A7000260489E18093250427CE8EEC860F8931B8
:103A800028F482E08093260482E3F4CF83E08093DD
:103A900026048BE4EFCF0091A202602F70E090E04B
:103AA00080E00E94DA4669877A878B879C87A50128
:103AB0009401C701B6010E94854987FDB5C22985D9
:103AC0003A854B855C85C701B6010E94D34687FFC6
:103AD000ABC281E08093180410931704009316047E
:103AE000009118041091160420E030E048EC52E4F4
:103AF000C701B6010E9439474B015C0130901704A1
:103B0000412F4319550BBA01072E000C880B990B56
:103B10000E94DA466B017C0154E6359EB001112407
:103B2000072E000C880B990B0E94DA469B01AC0112
:103B3000C501B4010E947048A70196010E94DD48AA
:103B400069877A878B879C87E1E0E00FF0E0EE0FD2
:103B5000FF1FEA56FD4F608170E090E080E00E9418
:103B6000DA469B01AC0169857A858B859C850E942C
:103B7000394720E030E048EC52E40E94DD48698794
:103B80007A878B879C8784E6189FB0011124072EC3
:103B9000000C880B990B0E94DA46A50194010E9443
:103BA0007048A70196010E94DD486B017C01E02F5F
:103BB000F0E0EE0FFF1FEA56FD4F608170E090E0ED
:103BC00080E00E94DA469B01AC01C701B6010E9469
:103BD000394720E030E048EC52E40E94DD489B0188
:103BE000AC0169857A858B859C850E9471480E940D
:103BF0005649653608F064E6609327048091150401
:103C0000813051F480911404813031F48091130497
:103C1000813011F4809312040E9496066093F60698
:103C20007093F7068093F8069093F90600910E04BE
:103C300010910F0420911004309111046B017C014C
:103C4000C01AD10AE20AF30A97018601043F114023
:103C50002105310508F41DC160930E0470930F0413
:103C60008093100490931104C0904B04D0904C04A6
:103C7000E0904D04F0904E0420910A0430910B0422
:103C800040910C0450910D04C701B6010E94704888
:103C90004B015C018092060490920704A0920804F4
:103CA000B0920904C0920A04D0920B04E0920C0472
:103CB000F0920D0420E030E040E85FE30E94D3463C
:103CC00087FFE7C180910504813049F480910304A6
:103CD000909104040596909304048093030420E0DB
:103CE00030E040EF51ECC501B4010E94D34687FF9C
:103CF00023C01092E806109205041092020460E0BE
:103D000084E00E94C9050091940210919502B801C7
:103D1000012E000C880B990B0E94DA466093A606D0
:103D20007093A7068093A8069093A9061092590451
:103D30001093C7040093C60480910204813099F463
:103D400020E030E040E050ECC501B4010E94D346D1
:103D500087FFB5C180910304909104040596909368
:103D600004048093030420E030E040E752E4C701FC
:103D7000B6010E94D34687FFB3C180919002909113
:103D80009102A0919202B09193028093FE039093CE
:103D9000FF03A0930004B09301048091410481309B
:103DA00009F0D3C180913C04813009F0C9C18093EE
:103DB000FD038091490490914A04883B5BE095079C
:103DC0000CF0C8C1E091FD0364E1E69FF00111240D
:103DD000E45BFD4F80819181A281B3818093480291
:103DE00090934902A0934A02B0934B0220E030E046
:103DF00040E752E4C701B6010E94D34687FFF4C1F1
:103E00008091FC03813009F0EFC18093FB03109295
:103E1000FC038093FA038091FB03813009F0F9C120
:103E20008091FA03813009F0F4C1609144027091ED
:103E3000450280914602909147026093EA06709392
:103E4000EB068093EC069093ED06209140023091B2
:103E5000410240914202509143022093EE0630937A
:103E6000EF064093F0065093F106E0903C02F0908C
:103E70003D0200913E0210913F02E092F206F09264
:103E8000F3060093F4061093F5060E943D0210928B
:103E9000FA030E9496066B017C01C092F606D0924E
:103EA000F706E092F806F092F9060091F50380918A
:103EB000F6039091F703A091F803B091F903B701CD
:103EC000A601481B590B6A0B7B0BDB01CA01843628
:103ED0009105A105B10518F1011121C020E030E0E4
:103EE00048EC52E46091AA067091AB068091AC0652
:103EF0009091AD060E94854918168CF48091F303C9
:103F00009091F40301969093F4038093F303C0928D
:103F1000F603D092F703E092F803F092F9033090A1
:103F2000F2038090AA069090AB06A090AC06B090E9
:103F3000AD068091F6039091F703A091F803B0913C
:103F4000F903A7019601281B390B4A0B5B0BDA0119
:103F5000C90184369105A105B105E8F031101BC0F7
:103F600020E030E048EC52E4C501B4010E948549EC
:103F700018168CF48091F0039091F10301969093C0
:103F8000F1038093F003C092F603D092F703E0921E
:103F9000F803F092F903013009F06EC18091F30348
:103FA0009091F4039C01215031092830310508F02B
:103FB00070C10093EF031092F4031092F303109179
:103FC000E80331E0331271C18091F0039091F10365
:103FD0009C01215031092830310508F01DC630926E
:103FE000EC031092F1031092F00320E030E048EC73
:103FF00052E4C501B4010E94D34687FF7FC11092ED
:10400000EC031092EF031092EB031092EE03109268
:10401000EA031092ED031092F1031092F003109254
:10402000F4031092F30372C11091A102612F70E0AA
:1040300090E080E00E94DA464B015C0129853A85D8
:104040004B855C85C701B6010E94854987FD0EC07E
:10405000A5019401C701B6010E94D34687FF06C09F
:1040600082E08093180400931704B5CBA501940156
:10407000C701B6010E94854918160CF031CD83E0C6
:1040800080931804109317048091A0028093160463
:1040900027CD20E030E040E050E4C501B4010E94AB
:1040A000854918160CF01BCE80910504813009F06B
:1040B00016CE809103049091040405970CCE20E065
:1040C00030E040E85FEBC501B4010E948549181655
:1040D0000CF049CE809103049091040405973FCEE3
:1040E00020E030E040E752E4C701B6010E94854974
:1040F00087FD13C020E030E042ED52E4C701B60175
:104100000E94D34687FF09C080918C0290918D0256
:10411000A0918E02B0918F0238CE20E030E042EDC7
:1041200052E4C701B6010E94854987FD36CE8091D1
:10413000880290918902A0918A02B0918B0225CECB
:10414000823008F436CE82E032CE811132CE109227
:10415000FD032FCE9C01285B3B40283B3B4068F48D
:10416000E091FD0384E1E89FF0011124E45BFD4F41
:1041700084819581A681B78131CE9C01205737413A
:10418000283B3B4068F4E091FD03B4E1EB9FF00174
:104190001124E45BFD4F80859185A285B3851ECEF9
:1041A0009C0128523342283B3B4068F4E091FD03D8
:1041B00004E1E09FF0011124E45BFD4F84859585C7
:1041C000A685B7850BCE803E9E4209F40FCEE091C6
:1041D000FD0324E1E29FF0011124E45BFD4F80899F
:1041E0009189A289B389FACD20E030E042E852E417
:1041F000C701B6010E94854918160CF00CCE8091BB
:10420000FB03813009F007CE1092FB038093FC037F
:1042100000CE8091FC03813009F03BCE8091FA03FF
:10422000813009F036CE6091380270913902809168
:104230003A0290913B026093EA067093EB068093FA
:10424000EC069093ED0620913402309135024091B6
:104250003602509137022093EE063093EF064093DA
:10426000F0065093F106E0903002F0903102009198
:1042700032021091330201CE0111A1CE8091F303DD
:104280009091F403099708F49ACE81E08093EE03AD
:1042900096CE099708F493CE1092EE031092F40391
:1042A0001092F3030093ED038ACE311009C0809180
:1042B000F0039091F103099718F081E08093EB03EC
:1042C00020E030E048EC52E4C501B4010E94D3463E
:1042D00087FF14C08091EC03813009F490CE809167
:1042E000EF03813009F48BCE8091EB03813009F428
:1042F00086CE8091EE03813009F481CE8091E9036E
:10430000813009F47CCE113009F479CE113079F581
:104310001093E7038091E3039091E403A091E503F8
:10432000B091E603B701A601481B590B6A0B7B0B42
:10433000DB01CA018C3B9240A105B105C0F001111F
:1043400016C0C092E303D092E403E092E503F0923A
:10435000E6038091E20381116BC440923D045092C8
:104360003E0460923F04709240041093E2038091F7
:10437000E903813009F051C080911304813009F0C4
:104380004CC000911404013009F047C060914B0407
:1043900070914C0480914D0490914E040093E7037A
:1043A000C090F606D090F706E090F806F090F90677
:1043B0008090E3039090E403A090E503B090E603BF
:1043C000A7019601281939094A095B0949015A01CF
:1043D0003CEB831632E09306A104B104F0F0209187
:1043E000F50321111AC0C092E303D092E403E092D6
:1043F000E503F092E6031091DC031111BCC40E94A6
:1044000056496093A3028091430490914404909391
:104410009902809398020093DC0385E00E94A00536
:104420008D8B8093F50386E00E94A0058987809399
:10443000F20387E00E94A0058B8F8093D9038CE064
:104440000E94A0058093D8038091E806882309F490
:104450001EC10E9496066D877E878F87988B8091FC
:10446000D0069091D106A091D206B091D3064D8589
:104470005E856F857889481B590B6A0B7B0B809191
:10448000DC069091DD06A091DE06B091DF064817AC
:1044900059076A077B0708F4FAC0E091CA06F09151
:1044A000CB064080518062807380E091CE06F0910F
:1044B000CF06A301920160817181828193810E9464
:1044C00070486B017C012091D8063091D90640914B
:1044D000DA065091DB06C301B2010E947048698B75
:1044E0007A8B8B8B9C8B2091BE063091BF064091BE
:1044F000C0065091C106C701B6010E9439472091FC
:10450000D4063091D5064091D6065091D7060E9428
:1045100071484B015C018092D4069092D506A0921E
:10452000D606B092D7060091E906098F01111CC08A
:104530002091BA063091BB064091BC065091BD0651
:1045400069897A898B899C890E9439479B01AC01D2
:10455000C501B4010E9470486093D4067093D506DB
:104560008093D6069093D7062091D4063091D50635
:104570004091D6065091D7062C8F3D8F4E8F5F8F7E
:104580002090E4063090E5060091E6061091E706DB
:104590009101A8016C8D7D8D8E8D9F8D0E94854926
:1045A00018160CF072C4C101D8018093D406909300
:1045B000D506A093D606B093D706398D332309F4D8
:1045C0007FC42091BA063091BB064091BC06509141
:1045D000BD06C701B6010E9439476B017C012091DD
:1045E000C2063091C3064091C4065091C506698940
:1045F0007A898B899C890E9439479B01AC01609123
:10460000D4067091D5068091D6069091D7060E9467
:104610007048A70196010E9471486B017C019B01C3
:10462000AC01B101C8010E94D34687FD12C02090A1
:10463000E0063090E1060091E2061091E306910158
:10464000A801B601C7010E94D34687FD02C016012A
:104650008701E091CC06F091CD06C101D80180839D
:104660009183A283B3834092D8065092D906609278
:10467000DA067092DB06CD84DE84EF84F888C0927F
:10468000D006D092D106E092D206F092D3060E94D4
:1046900096060E9496062B013C014092F606509227
:1046A000F7066092F8067092F9060091C604109120
:1046B000C70480919402909195021801281A390A32
:1046C0003092D7032092D603C090A606D090A706BA
:1046D000E090A806F090A906B801012E000C880B06
:1046E000990B0E94DA46A70196010E94D34687FFE4
:1046F00022C08091D2039091D303A091D403B091B2
:10470000D503A3019201281B390B4A0B5B0BDA017D
:10471000C9010397A105B10570F00F5F1F4F1093FA
:10472000C7040093C6044092D2035092D303609210
:10473000D4037092D5030091C6041091C704B80148
:10474000012E000C880B990B0E94DA469B01AC01EC
:10475000C701B6010E94D34687FF22C08091D203D1
:104760009091D303A091D403B091D503B301A201DA
:10477000481B590B6A0B7B0BDB01CA010397A10590
:10478000B10570F0015011091093C7040093C604DD
:104790004092D2035092D3036092D4037092D50317
:1047A00080918004813059F51092E806109205043A
:1047B0001092020460E084E00E94C9050091940216
:1047C00010919502B801012E000C880B990B0E94E4
:1047D000DA466093A6067093A7068093A806909386
:1047E000A906109259041093C7040093C6041092AE
:1047F000A2061092A3061092A4061092A506C090DD
:10480000EE03CD86C090AA06D090AB06E090AC0631
:10481000F090AD06009159041D85113071F420E02F
:1048200030E048EC52E4C701B6010E9485491816F1
:1048300024F4011102C01093EF031091EB03113027
:10484000F1F420E030E048EC52E4C701B6010E94E8
:1048500085491816A4F4011112C020E030E048EC9C
:1048600052E46091A2067091A3068091A4069091F3
:10487000A5060E948549181614F41093EC03809144
:10488000EC03813041F520E030E048EC52E4C70110
:10489000B6010E94D34687FD1AC020E030E048EC04
:1048A00052E4C701B6010E9485491816A4F420E01D
:1048B00030E048EC52E46091A2067091A30680912A
:1048C000A4069091A5060E94D346181624F0011163
:1048D00002C01092EC038091EF03813009F076C0A2
:1048E00020E030E048EC52E4C701B6010E94D34614
:1048F00087FD02C00C948D46011146C01092EC0356
:1049000020E030E048EC52E4C701B6010E9485493E
:104910001816A4F58091E803811130C08091E90355
:1049200081112CC0C092A206D092A306E092A406E8
:10493000F092A5061092EF0380911204813009F0E5
:10494000C3C26091190470911A04072E000C880BE1
:10495000990B0E94DA466093A6067093A70680938F
:10496000A8069093A90681E090E00E94190361E0F7
:1049700084E00E94C90581E08093590400915904A4
:104980008091EF03813011F5013001F58091E8034A
:1049900081111CC08091E903811118C020E030E032
:1049A00040E850E46091A2067091A3068091A406AD
:1049B0009091A5060E9470486093A2067093A3068A
:1049C0008093A4069093A5061092EF038091EC03C8
:1049D000813011F5013001F58091E80381111CC08F
:1049E0008091E903811118C020E030E040E850E4F4
:1049F0006091A2067091A3068091A4069091A506ED
:104A00000E9471486093A2067093A3068093A40647
:104A10009093A5061092EC038091EC03813009F08D
:104A200050C001114EC0C090AA06D090AB06E090D5
:104A3000AC06F090AD0620E030E048EC52E4C7014F
:104A4000B6010E9485491816E4F520E030E048ECF4
:104A500052E46091A2067091A3068091A406909101
:104A6000A5060E948549181664F58091E803811116
:104A700028C08091E903811124C080911204813003
:104A800009F041C26091190470911A04072E000CBC
:104A9000880B990B0E94DA466093A6067093A706CE
:104AA0008093A8069093A90681E090E00E941903E4
:104AB00061E084E00E94C90581E08093590410926E
:104AC000EC03C0905904C98A0C2D013009F05CC375
:104AD00000910204C090AA06D090AB06E090AC060C
:104AE000F090AD068091050481113EC001113CC0DB
:104AF000A70196016091A2067091A3068091A40679
:104B00009091A5060E94704820E030E040EF51E40B
:104B10000E948549181614F0113031F51092E806FC
:104B200081E08093050420910304309104043A8FBE
:104B3000298F80911204813009F004C26091190418
:104B400070911A0466557F4F620F731F072E000C79
:104B5000880B990B0E94DA466093A6067093A7060D
:104B60008093A8069093A90680910504882309F4F0
:104B70001AC2813009F054C2A70196016091A206C1
:104B80007091A3068091A4069091A5060E9470489A
:104B900020E030E048E851E40E94D34618160CF4B7
:104BA000CCC211113DC28091EA03882329F0809183
:104BB000EA03813009F034C2109205048091EA03BF
:104BC000813051F41092EA03C092A206D092A3065B
:104BD000E092A406F092A50680911204813009F0BB
:104BE000B0C26091190470911A04072E000C880B52
:104BF000990B0E94DA466093A6067093A7068093ED
:104C0000A8069093A90681E090E00E9419031092F3
:104C100004041092030404C2099708F451CB1092C3
:104C2000EB031092F1031092F0033092EA0348CBA9
:104C3000813009F09CCB8091E10381110BC040923F
:104C400038045092390460923A0470923B041093F5
:104C5000E1038DCB813009F08ACB8091E003811193
:104C60000BC0409234045092350460923604709226
:104C700037041093E0037BCB813019F58091DF037B
:104C800081110CC040923004509231046092320481
:104C90007092330481E08093DF0369CB8091DF035E
:104CA000813091F49091DE0391110EC040922C045A
:104CB00050922D0460922E0470922F048093DE0394
:104CC00056CB813009F053CB8091DF03813009F05E
:104CD0004ECB8091DE03813009F049CB9091DD030A
:104CE000911145CB409228045092290460922A04E5
:104CF00070922B041092E8038093410460E084E0FA
:104D00000E94C9056DE374E086E290E00E94D00B3A
:104D100068E374E08AE290E00E94D00B64E374E000
:104D20008FE290E00E94D00B60E374E083E390E0B8
:104D30000E94D00B6CE274E087E390E00E94D00BFD
:104D400068E274E08BE390E00E94D00B61E474E0D1
:104D500080E490E00E94380C1092E7031092E20386
:104D60001092E1031092E0031092DF031092DE0331
:104D70001092DD03FCCA113009F04FCB2091DB0308
:104D800021110FC00E9456496093A20280914304F2
:104D90009091440490939B0280939A021093DB03BA
:104DA0003CCB213009F039CB2091DA03211110C01E
:104DB0000E9456496093A10280914304909144045B
:104DC00090939D0280939C0281E08093DA0325CB2F
:104DD000213009F022CB0E9456496093A0028091B5
:104DE00043049091440490939F0280939E021092FA
:104DF000E9031092DC031092DB031092DA0306E958
:104E000012E080EAE82E82E0F82E80912F02B801AD
:104E100090E00E94510C80912F028E5F80932F02B0
:104E200063EA72E081EE90E00E94380C62EA72E080
:104E300082EE90E00E94380C61EA72E083EE90E02E
:104E40000E94380C60EA72E084EE90E00E94380C18
:104E50000E5F1F4FE016F106C1F61092E7038AEBD2
:104E600080932F0260E084E00E94C90581E0809376
:104E7000150481E090E09A838983BE016F5F7F4FC4
:104E800089EB90E00E94510CC8CA8090E006909097
:104E9000E106A090E206B090E306A50194016C8DB6
:104EA0007D8D8E8D9F8D0E94D34687FF86CB80920D
:104EB000D4069092D506A092D606B092D7067DCBA6
:104EC000C12CD12C76018BCB2091FE033091FF03B6
:104ED0004091000450910104C701B6010E94394776
:104EE0006B017C016091940270919502072E000C79
:104EF000880B990B0E94DA469B01AC01C701B601F1
:104F00000E94714828CD2091FE033091FF0340910B
:104F1000000450910104C701B6010E9439476B019A
:104F20007C016091940270919502072E000C880B11
:104F3000990B0E94DA469B01AC01C701B6010E94A1
:104F40007148AACD6091940270919502072E000CD1
:104F5000880B990B0E94DA464B015C012DEC3CEC6E
:104F60004CE05FE3C701B6010E9439479B01AC01E9
:104F7000C501B4010E94714820E030E04AE253E4E8
:104F80000E9471484B015C01498D5A8DBA01550F41
:104F9000880B990B0E94DA469B01AC01C501B40154
:104FA0000E947148D9CD01113BC02091A2063091D9
:104FB000A3064091A4065091A506C701B6010E9420
:104FC000704820E030E040EF51E40E948549181617
:104FD0001CF00D85013021F51092E80681E08093E8
:104FE00002040091030410910404809112048130A2
:104FF00009F074C06091190470911A046654710923
:10500000600F711F072E000C880B990B0E94DA4667
:105010006093A6067093A7068093A8069093A906AE
:1050200080910204813009F0AFC0C090AA06D090F0
:10503000AB06E090AC06F090AD062091A206309150
:10504000A3064091A4065091A506C701B6010E948F
:10505000704820E030E048E851E40E94D34618163A
:105060000CF48EC01D8511118FC08091ED03882333
:1050700029F08091ED03813009F086C0109202047E
:105080008091ED03813051F41092ED03C092A2069D
:10509000D092A306E092A406F092A5068091120495
:1050A000813009F0A1C26091190470911A04072E91
:1050B000000C880B990B0E94DA466093A606709349
:1050C000A7068093A8069093A90681E090E00E942D
:1050D0001903109204041092030456C060919402C4
:1050E00070919502072E000C880B990B0E94DA46EE
:1050F0004B015C012DEC3CEC4CE05FE3C701B601D9
:105100000E9439479B01AC01C501B4010E9471485E
:1051100020E030E04CE852E40E9470486B017C01D2
:10512000B801110F880B990B0E94DA469B01AC0164
:10513000C701B6010E9471486BCF112309F437CD26
:105140006FCF2091FE033091FF03409100045091F6
:105150000104C701B6010E9439476B017C016091CF
:10516000940270919502072E000C880B990B0E94F7
:10517000DA469B01AC01C701B6010E9471483BCDE4
:105180000D85002309F475CFC090AA06D090AB0618
:10519000E090AC06F090AD06809105048130F9F402
:1051A000009103041091040480911204813009F0ED
:1051B0003AC26091190470911A0466557F4F600FCE
:1051C000711F072E000C880B990B0E94DA46609322
:1051D000A6067093A7068093A8069093A9068091CF
:1051E00002048130F9F400910304109104048091C9
:1051F0001204813009F046C26091190470911A04BA
:1052000066547109600F711F072E000C880B990BF3
:105210000E94DA466093A6067093A7068093A806BC
:105220009093A90620E030E048EC52E4C701B601B3
:105230000E94D34687FD0AC020E030E04CE054E4F1
:10524000C701B6010E94854918161CF4198911304E
:1052500031F18091A4022091560430915704820FBD
:10526000932F911D092E000CAA0BBB0B40915E04DD
:1052700050915F0460916004709161044817590770
:105280006A077B0708F442C0809155048130F1F52C
:1052900009890130D9F5809154048130B9F5109213
:1052A000E806109205041092020460E084E00E9477
:1052B000C9050091940210919502B801012E000CCD
:1052C000880B990B0E94DA466093A6067093A70696
:1052D0008093A8069093A906109259041093C704CE
:1052E0000093C6041092EC031092EF031092EB03AC
:1052F0001092EE031092EA031092ED031092F10364
:105300001092F0031092F4031092F3031B8D11110D
:1053100037C01092E806109205041092020460E073
:1053200084E00E94C9050091940210919502B80191
:10533000012E000C880B990B0E94DA466093A6069A
:105340007093A7068093A8069093A906109259041B
:105350001093C7040093C6041092EC031092EF035D
:105360001092EB031092EE031092EA031092ED03F9
:105370001092F1031092F0031092F4031092F303D1
:10538000A0902D02B0902E02C0909402D090950271
:10539000C5018C199D096BE070E00E949B499B013F
:1053A000621573050CF49DC11092D1031092D003C5
:1053B0001092CF031092CE03E091D003F091D1036D
:1053C000E090CE03F090CF03A9014E0D5F1D64E67F
:1053D000649FC001659F900D11244CE9942E492DC6
:1053E00081014003B001419F700D1124860F971F6A
:1053F000B9010E949B49DF01AA0FBB1FAA54BC4FF1
:105400000D90BC91A02D6A9FC0016B9F900D7A9F5B
:10541000900D112464E670E00E949B498B0154E6D4
:10542000529DC001539D900D1124B7014603D00138
:10543000479FB00D11248A0F9B1FB9010E949B4901
:10544000EE0FFF1FE854FC4F20813181629FC001A5
:10545000639F900D729F900D112464E670E00E948E
:105460009B49060F171F109357040093560420E022
:1054700030E04CE054E46091A2067091A306809164
:10548000A4069091A5060E948549181664F480E050
:1054900090E0ACE0B4E48093A2069093A306A093BE
:1054A000A406B093A5068091C6049091C7048C15FC
:1054B0009D0524F4D092C704C092C6048091C6040E
:1054C0009091C704A816B90624F4B092C704A0921C
:1054D000C6041091E703113039F58091B203909121
:1054E000B303A091B403B091B50373016201C81A6C
:1054F000D90AEA0AFB0AD701C601843F9140A105F7
:10550000B10590F04092B2035092B3036092B4039D
:105510007092B5038091B10381116DC161E084E0A7
:105520000E94C9051093B103C0904B04D0904C0465
:10553000E0904D04F0904E0420E030E0A901C70156
:10554000B6010E948549181694F48091590481117E
:105550000EC01092B0031092AF031092AE031092DF
:10556000AD031092AC031092AB031092AA0380918A
:10557000A6039091A703A091A803B091A903A3014A
:105580009201281B390B4A0B5B0BDA01C901883CDD
:105590009105A105B10508F479C18091E903811154
:1055A00075C18091E803811171C10D8901112DC16F
:1055B00020E030E0A901C701B6010E94D346811165
:1055C0000C94BC468091B0038F5F8093B003198523
:1055D00011113FC18091AF038F5F8093AF030D899D
:1055E000013009F04BC122C12091FE033091FF032D
:1055F0004091000450910104C701B6010E9439474F
:105600006B017C016091940270919502072E000C51
:10561000880B990B0E94DA469B01AC01C701B601C9
:105620000E9471484ACD6091940270919502072EB4
:10563000000C880B990B0E94DA464B015C012DECA3
:105640003CEC4CE05FE3C701B6010E9439479B0187
:10565000AC01C501B4010E94714820E030E04AE28B
:1056600053E40E9471484B015C01B801110F880B93
:10567000990B0E94DA469B01AC01C501B4010E945E
:105680007148A5CD6091940270919502072E000C8F
:10569000880B990B0E94DA464B015C012DEC3CEC27
:1056A0004CE05FE3C701B6010E9439479B01AC01A2
:1056B000C501B4010E94714820E030E04CE852E49A
:1056C0000E9470484B015C01B801110F880B990BC7
:1056D0000E94DA469B01AC01C501B4010E947148E9
:1056E00099CDCB01880F991F281639065CF481E00B
:1056F00090E09093D1038093D0037093CF03609395
:10570000CE035ACEAC01460F571F241635065CF463
:1057100042E050E05093D1034093D0039093CF03E5
:105720008093CE0349CECB01880F991F880F991F14
:10573000281639065CF483E090E09093D1038093BF
:10574000D0035093CF034093CE0336CE65E0629FE3
:10575000A001639F500D1124241635061CF444E06B
:1057600050E0D8CF66E0629FC001639F900D112486
:10577000281639061CF485E090E0DFCF67E0629FD1
:10578000A001639F500D1124241635061CF446E039
:1057900050E0C0CFC901B3E0880F991FBA95E1F777
:1057A000281639061CF487E090E0C7CF69E0629FB5
:1057B000A001639F500D11242816390634F02416D9
:1057C00035061CF448E050E0A5CF6AE0629FC001B6
:1057D000639F900D11242416350634F028163906DF
:1057E0001CF489E090E0A9CF821593050CF0E4CD7C
:1057F0004AE050E08FCF813009F096CE60E084E03F
:105800000E94C9051092B1038FCE098501110BC00A
:1058100020E030E0A901C701B6010E94D3468823E9
:1058200009F4D8CEDCCE1D89113099F48091B003F3
:105830008150853028F481E08093AE031092B0034C
:105840008091B003863028F081E08093AC03109201
:10585000B0030985013091F48091AF038150853008
:1058600020F40093AD031092AF038091AF03863014
:1058700028F081E08093AB031092AF034092A6031F
:105880005092A7036092A8037092A9038091AA0383
:1058900081111DC08091AE03813021F08091AD0354
:1058A000813021F41092AE031092AD038091AC03CD
:1058B000813011F00C94AF358091AB03813039F415
:1058C0008AE08093AA031092AC031092AB038091FC
:1058D000AA038A3009F08CC08091AD03813049F46D
:1058E0008091A4038F5F8093A4031092AE03109263
:1058F000AD038091AE03813049F48091A4038150BF
:105900008093A4031092AE031092AD038091A40380
:10591000982F8D3008F09CE09093A403811113C060
:105920008091AC03813021F08091AB03813059F438
:1059300084E18093AA031092A3031092AC03109207
:10594000AB031092A4038091A4038130A1F4809151
:10595000AC03813021F08091AB03813061F484E1AC
:105960008093AA0381E08093A3031092AC0310926A
:10597000AB031092A4038091A403823011F00C9425
:10598000CB358091AC03813021F08091AB03813025
:1059900039F482E38093AA031092AC031092AB0314
:1059A0008091A403863011F00C9426368091AC03CC
:1059B000813021F08091AB03813039F41092AC0337
:1059C0001092AB038AE58093AA038091A4038F30E1
:1059D00079F48091AC03813021F08091AB03813068
:1059E00039F41092AC031092AB038FEB8093AA03AF
:1059F0008091AA038F3B09F03EC08091A1038111E1
:105A00000C94AE368091AD03813049F48091A003AF
:105A10008F5F8093A0031092AE031092AD0380912C
:105A2000AE03813049F48091A00381508093A0039C
:105A30001092AE031092AD038091A003682F8430C2
:105A400008F063E06093A0039091AC03913029F0DB
:105A50009091AB03913009F04EC01092AC031092BC
:105A6000AB03833010F00C94A93689ED90E00E94CE
:105A7000B50B1092AA038091AA03893B11F00C94F4
:105A800081388091AE03813039F4809197038F5F24
:105A9000809397031092AE038091AD03813039F467
:105AA000809197038150809397031092AD0380916A
:105AB000AC03813029F08091AB03813009F069C0DB
:105AC0001092AC031092AB038091AE03813039F495
:105AD000809196038F5F809396031092AE0380911E
