:100000000C943F100C9467100C9467100C946710BC
:100010000C9467100C9467100C9467100C94671084
:100020000C9467100C9467100C9467100C94671074
:100030000C9467100C9467100C94E1480C9492494E
:100040000C9467100C9467100C9467100C94671054
:100050000C9467100C9467100C9467100C94671044
:100060000C9467100C9467100C940B480C94E547A3
:100070000C9467100C9467100C9467100C94671024
:100080000C9467100C9467100C9467100C94671014
:100090000C947D480C9457480C9431480C9467108C
:1000A00053657420656E6420706F736974696F6E38
:1000B0000053657420686F6D6520706F7369746993
:1000C0006F6E005265766572736520736572766F28
:1000D0003A200052504D2061732073706565643A78
:1000E000200052504D207365747570005370656523
:1000F000642073657475700054494D45204F555404
:100100000051533A00202044613A00202044743AC0
:10011000004D414C46554354494F4E0053455256AD
:100120004F005470733A002056004355523A200055
:10013000494E20425554544F4E204D4F44554C4546
:100140000053484F52542043495243555400505293
:10015000455353204252414B45006E6F74207573D6
:100160006564006E6F742075736564005365727604
:100170006F20736574757000536572766F207365B8
:1001800074757000736574206869676820737065A2
:100190006564003E736574206869676820737065E4
:1001A000656400736574206D656469756D20737096
:1001B000656564003E736574206D656469756D20C6
:1001C000737065656400736574206C6F772073705D
:1001D000656564003E736574206C6F77207370658D
:1001E00065640020736574207370656564206D75A7
:1001F0006C69706C696572003E736574207370651C
:100200006564206D756C69706C69657200203136AB
:100210003000203132300020383000203430003EB1
:10022000736574207468726F746C65206C65766594
:100230006C730020736574207468726F746C652031
:100240006C6576656C730074707320696E7075747C
:100250003A20003E74707320696E7075743A200005
:100260007365742073656E736F72206F6666736555
:1002700074003E7365742073656E736F72206F66D1
:10028000667365740020637572656E742073656EA5
:10029000736F723A20003E637572656E74207365E9
:1002A0006E736F723A20003E54505320696E707521
:1002B000740054505320696E707574007365742017
:1002C000637572656E742073656E736F72003E7332
:1002D000657420637572656E742073656E736F72DA
:1002E0000044454641554C545320524553544F52B7
:1002F00045440020726573746F72652064656661A1
:10030000756C7473003E726573746F7265206465FA
:100310006661756C7473003E31326B2072706D20B3
:1003200051532074696D65003E396B2072706D20E9
:1003300051532074696D65003E366B2072706D20DC
:1003400051532074696D65003E334B2072706D20EF
:1003500051532074696D65003E30202D20326B2092
:1003600072706D2051532074696D650031326B20BD
:1003700072706D2051532074696D6500396B207265
:10038000706D2051532074696D6500366B2072705A
:100390006D2051532074696D6500334B2072706D70
:1003A0002051532074696D6500302D326B207270BE
:1003B0006D2051532074696D65003E73657420672C
:1003C00065617220323E2051532074696D65003E94
:1003D0007365742067656172203120515320746900
:1003E0006D65003E7365742067656E6572616C2093
:1003F00051532074696D650073657420676561727F
:1004000020323E2051532074696D6500736574205D
:100410006765617220312051532074696D650073E6
:1004200065742067656E6572616C20515320746934
:100430006D65003E53686966746C696768743A203C
:10044000003E456E642052504D20003E5374617250
:10045000742052504D20003E53686966746C696781
:100460006874207365747570200053686966746CD5
:10047000696768743A2000456E642052504D200030
:1004800053746172742052504D2000536869667431
:100490006C696768742073657475702000367468C1
:1004A00020676561723A2000357468206765617263
:1004B0003A200034746820676561723A2000336521
:1004C0006420676561723A2000326E64206765615E
:1004D000723A200031737420676561723A20003EE1
:1004E000446973706C617920676561722072617410
:1004F000696F00446973706C61792067656172206F
:10050000726174696F003E4765617220646973703F
:100510006C61793A20004765617220646973706C80
:1005200061793A20003E73657420676561722072BC
:1005300061746F0073657420676561722072617405
:100540006F0052504D3A20003E7368696674207403
:10055000696D653A200073686966742074696D6519
:100560003A2000717569636B7368697465723A202B
:1005700000207265766F6C7574696F6E3A2000505A
:10058000756C73657320706572002020205345548C
:100590005550003E53706565642073656E736F72CD
:1005A0000053706565642F52504D207365747570EB
:1005B0000053657420504944200053544F52454421
:1005C000004465726976617469766520003E446511
:1005D00072697661746976652000496E7465677228
:1005E000616C20003E496E74656772616C2000503A
:1005F000726F706F7274696F6E616C20003E507222
:100600006F706F7274696F6E616C200068696768E3
:10061000006C6F7700205365742050494420004FD0
:100620004646004F4E0053504545443A2000427222
:10063000616B653A200043616E63656C2F61636393
:10064000656C3A200053657473706565642F64654A
:1006500063656C3A2000000000000000000000000C
:10066000000000000000000000000000000000008A
:10067000000000000000000000000000000000007A
:10068000000000000000000000000000000000006A
:10069000000000000000000000000000000000005A
:1006A000000000000000000000000000000000004A
:1006B000000000000000000000000000000000003A
:1006C000000000000000000000000000000000002A
:1006D000000000000000000000000000000000001A
:1006E000000000000000000000000000000000000A
:1006F00000000000000000000000000000000000FA
:1007000000000000000001E0C0CC1F0C0C3E1819D6
:100710009FE7FDFFBFC007F8C0CC7F8C187F18197A
:100720009FE7FDFFBFE00618C0CC61CC30C398192D
:100730009806001830700C0CC0CCC08C60C19819A1
:100740009806001830300C0CC0CCC00CC0F0181942
:100750009806001830700C0CC0CCC00DE07E1FF95C
:100760009FC7FC183FE00C0CC0CCC00F601F1FF9E6
:100770009FC7FC183F800C0CC0CCC00E30039819EA
:100780009806001831C00CCCC0CCC08C30C1981970
:100790009806001830E00678E1CC61CC18E398198F
:1007A00098060018306007F87F8C7F8C1C7F181922
:1007B0009807FC18307001D83F0C1F0C0C3E18191C
:1007C0009807FC183038000C000000000000000002
:1007D0000000000000000000000000000000000019
:1007E0000000000000000000000000000000000009
:1007F00000000000000000000000000000000000F9
:1008000000000000000000000000000000000000E8
:1008100000000000000000000000000000000000D8
:1008200000000000000000000000000000000000C8
:1008300000000000000000000000000000000000B8
:1008400000000000000000000000000000000000A8
:100850000000000000000000000000000000000098
:100860000000000000000000000000000000000088
:100870000000000000000000000000000000000078
:10088000000000000000000000000000F81FF9FF59
:10089000800000000000000000000003FE1FF9FFC0
:1008A000800000000000000000000007FF1FF9FFAB
:1008B0008000000000000000000000078F1C01C045
:1008C00000000000000000000000000F079C01C0B5
:1008D00000000000000000000000000E039FF1FF78
:1008E00000000000000000000000000E039FF1FF68
:1008F00000000000000000000000000E039FF1FF58
:1009000000000000000000000000000E039C01C079
:1009100000000000000000000000000F079C01C064
:100920000000000000000000000000078F1C01C054
:10093000000000000000000000000007FF1C01C0D4
:10094000000000000000000000000003FE1C01C0C9
:10095000000000000000000000000000F81C01C0C2
:100960000000000000000000000000000000000087
:100970000000000000000000000000000000000077
:100980000000000000000000000000000000000067
:100990000000000000000000000000000000000057
:1009A0000000000000000000000000000000000047
:1009B0000000000000000000000000000000000037
:1009C0000000000000000000000000000000000027
:1009D0000000000000000000000000000000000017
:1009E0000000000000000000000000000000000007
:1009F00000000000000000000000000000000000F7
:100A000000000000000000000000000000000000E6
:100A100000000000000000000000000000000000D6
:100A200000000000000000000000000000000000C6
:100A300000000000000000000000000000000000B6
:100A400000000000000000000000000000000000A6
:100A50000000000000000000000000000000000096
:100A60000000000000000000000000000000000086
:100A70000000000000000000000000000000000076
:100A80000000000000000000000000000000000066
:100A90000000000000000000000000000000000056
:100AA0000000000000000000000000000000000046
:100AB0000000000000000000000000000000000036
:100AC0000000000000000000000000000000000026
:100AD0000000000000000000000000000000000016
:100AE0000000000000000000000000000000000006
:100AF00000000000000000000000000000000000F6
:100B000000000000000001E0C0CC1F0C0C3E1819D2
:100B10009FE7FDFFBFC007F8C0CC7F8C187F181976
:100B20009FE7FDFFBFE00618C0CC61CC30C3981929
:100B30009806001830700C0CC0CCC08C60C198199D
:100B40009806001830300C0CC0CCC00CC0F018193E
:100B50009806001830700C0CC0CCC00DE07E1FF958
:100B60009FC7FC183FE00C0CC0CCC00F601F1FF9E2
:100B70009FC7FC183F800C0CC0CCC00E30039819E6
:100B80009806001831C00CCCC0CCC08C30C198196C
:100B90009806001830E00678E1CC61CC18E398198B
:100BA00098060018306007F87F8C7F8C1C7F18191E
:100BB0009807FC18307001D83F0C1F0C0C3E181918
:100BC0009807FC183038000C0000000000000000FE
:100BD0000000000000000000000000000000000015
:100BE0000000000000000000000000000000000005
:100BF00000000000000000000000000000000000F5
:100C000000000000000000000000000000000000E4
:100C100000000000000000000000000000000000D4
:100C200000000000000000000000000000000000C4
:100C300000000000000000000000000000000000B4
:100C400000000000000000000000000007C0F0E00D
:100C50000000000000000000000000001FF0F0E0B5
:100C60000000000000000000000000003FF8F8E075
:100C70000000000000000000000000003C78F8E0E8
:100C8000000000000000000000000000783CFCE0D4
:100C9000000000000000000000000000701CECE0FC
:100CA000000000000000000000000000701CEEE0EA
:100CB000000000000000000000000000701CE6E0E2
:100CC000000000000000000000000000701CE7E0D1
:100CD000000000000000000000000000783CE3E09D
:100CE0000000000000000000000000003C78E3E08D
:100CF0000000000000000000000000003FF8E1E0FC
:100D00000000000000000000000000001FF0E1E013
:100D100000000000000000000000000007C0E0E04C
:100D200000000000000000000000000000000000C3
:100D300000000000000000000000000000000000B3
:100D400000000000000000000000000000000000A3
:100D50000000000000000000000000000000000093
:100D60000000000000000000000000000000000083
:100D70000000000000000000000000000000000073
:100D80000000000000000000000000000000000063
:100D90000000000000000000000000000000000053
:100DA0000000000000000000000000000000000043
:100DB0000000000000000000000000000000000033
:100DC0000000000000000000000000000000000023
:100DD0000000000000000000000000000000000013
:100DE0000000000000000000000000000000000003
:100DF00000000000000000000000000000000000F3
:100E000000000000000000000000000000000000E2
:100E100000000000000000000000000000000000D2
:100E200000000000000000000000000000000000C2
:100E300000000000000000000000000000000000B2
:100E400000000000000000000000000000000000A2
:100E50000000000000000000000000000000000092
:100E60000000000000000000000030000000000052
:100E700000000000000000000000780000000000FA
:100E800000000000000000000000FC000000000066
:100E900000000000000000000001FF100000000042
:100EA00000000000000000000003FF300000000010
:100EB00000000000000000000007FFB0000000007C
:100EC00000000000000000000007FFF0000000002C
:100ED00000000000000000000003FFF0001FF00011
:100EE00000000000000000000001FFF001FFFF0013
:100EF00000000000000000000000FFF00FFFFFC036
:100F000000000000000000000000FFF03FFFFFF0C5
:100F1000000000000000000000003FF0FFFFFFFEA7
:100F2000000000000000000000007FF1FF83C3FF0D
:100F300000000000000000000000FFF3FC03C0FF01
:100F400080000000000000000000FFF7F003C03F39
:100F5000C0000000000000000000000FE003C00F10
:100F6000E0000000000000000000001F8003C00738
:100F7000F0000000000000000000003F8003C001FE
:100F8000F8000000000000000000007FC0018003A6
:100F9000FC00000000000000000000FFF000000F57
:100FA000FE00000000000000000000FBF000001F39
:100FB000FE00000000000000000001F1F800003F0A
:100FC000BF00000000000000000001F0F000003F42
:100FD0001F00000000000000000003E06600003C6D
:100FE0001F00000000000000000003E00F000018D8
:100FF0000F80000000000000000007C00F8000000C
:101000000F80000000000000000007C00FC00000BB
:1010100007C00000000000000000078007E000009B
:1010200007C000000000000000000F8003F0000077
:1010300003C000000000000000000F8001F8000065
:1010400003C000000000000000000F8000FC000052
:1010500003E000000000000000000F0000FF80001F
:1010600003E000000000000000000FF8007FE00037
:1010700003E000000000000000000FFC003FE00063
:10108000FFE000000000000000000FFC001FF00166
:10109000FFE000000000000000000FFC001FF00156
:1010A000FFE000000000000000000F00001FF00043
:1010B000FFE000000000000000000F00000FE00053
:1010C00003E000000000000000000F000007C00067
:1010D00003E000000000000000000F80000380001B
:1010E00003E000000000000000000F80000000008E
:1010F00003C000000000000000000F80000000009E
:1011000003C0000000000000000007800000000095
:1011100007C0000000000000000007C00000000041
:101120000780000000000000000007C00000000071
:101130000F80000000000000000003E00000000E2F
:101140000F80000000000000000003E07000001F9E
:101150001F00000000000000000001F0F000001F70
:101160001F00000000000000000001F9F000001F57
:10117000BF00000000000000000000FBF000000FB6
:10118000FE00000000000000000000FFE00000077B
:10119000FC000000000000000000007FC00380038E
:1011A000F8000000000000000000003F8003C003C2
:1011B000F8000000000000000000001FC007C0078A
:1011C000F0000000000000000000000FE007C00F6A
:1011D000E00000000000000000000007F807C03F2A
:1011E000C00000000000000000000003FE07C0FF78
:1011F000800000000000000000000001FFC7C7FFE2
:10120000000000000000000000000000FFFFFFFCE5
:101210000000000000000000000000001FFFFFF0C1
:1012200000000000000000000000000007FFFFC0F9
:1012300000000000000000000000000000FFFE00B1
:10124000000000000000000000000000000000009E
:10125000000000000000450636062E06260623067E
:101260001F06150611060C06FD05EF05E405DA0557
:10127000CD05C105BA05B105A10593058A057F0510
:101280007105630556054805420534052505160513
:101290000605F304DF04D404C904BE04B304A8049F
:1012A0009D048B04800477046A0457044B044104B2
:1012B00033041F040C04F803E303CF03BA03A903A8
:1012C0009A038B037C036C035803480338032803F9
:1012D00017030503F302E102CE02BC02B202A70229
:1012E00096028502720260025302470233021F0215
:1012F0001B02170212020D02F801E301D401C6011C
:10130000B401A3019301840178016C0163015A01C6
:101310004E01410130012A01270122011C01110166
:101320000B0105010101F800EC00E200D300C3004D
:10133000B100A000000000000100038007E00FE002
:101340001FE01FE01FE03FE03FC03FC03FC03FC085
:101350003FC07FC07F807F807F807F807F003F0095
:101360001E0004000000000000000FFFFFC01FFF70
:10137000FFE03FFFFFF07FFFFFF83FFFFFF01FFFA1
:10138000FFE00FFFFF800000000000000000003EB3
:101390005B4F5B3E3E6B4F6B3E1C3E7C3E1C183CE5
:1013A0007E3C181C577D571C1C5E7F5E1C00183C41
:1013B0001800FFE7C3E7FF0018241800FFE7DBE78A
:1013C000FF30483A060E2629792926407F05050771
:1013D000407F05253F5A3CE73C5A7F3E1C1C0808CD
:1013E0001C1C3E7F14227F22145F5F005F5F060992
:1013F0007F017F006689956A606060606094A2FFEB
:10140000A29408047E040810207E201008082A1CDC
:1014100008081C2A08081E101010100C1E0C1E0CA8
:1014200030383E3830060E3E0E0600000000000048
:10143000005F00000007000700147F147F14242AB7
:101440007F2A122313086462364956205000080789
:101450000300001C2241000041221C002A1C7F1CAA
:101460002A08083E080800807030000808080808AC
:10147000000060600020100804023E5149453E0013
:10148000427F400072494949462141494D33181471
:10149000127F1027454545393C4A494931412111C0
:1014A00009073649494936464949291E00001400B2
:1014B00000004034000000081422411414141414D5
:1014C000004122140802015909063E415D594E7C33
:1014D0001211127C7F494949363E414141227F41E8
:1014E00041413E7F494949417F090909013E414146
:1014F00051737F0808087F00417F41002040413F31
:10150000017F081422417F404040407F021C027F3F
:101510007F0408107F3E4141413E7F090909063E94
:101520004151215E7F091929462649494932030163
:101530007F01033F4040403F1F2040201F3F403875
:10154000403F631408146303047804036159494D50
:1015500043007F4141410204081020004141417F86
:1015600004020102044040404040000307080020FC
:10157000545478407F2844443838444444283844FC
:1015800044287F385454541800087E090218A4A433
:101590009C787F0804047800447D40002040403D52
:1015A000007F1028440000417F40007C04780478CC
:1015B0007C080404783844444438FC18242418185F
:1015C000242418FC7C0804040848545454240404BB
:1015D0003F44243C4040207C1C2040201C3C4030A8
:1015E000403C44281028444C9090907C4464544CD7
:1015F0004400083641000000770000004136080032
:1016000002010204023C2623263C1EA1A161123ADB
:101610004040207A38545455592155557941225427
:10162000547842215554784020545579400C1E522C
:1016300072123955555559395454545939555454D1
:10164000580000457C410002457D420001457C4038
:101650007D1211127DF0282528F07C54554500207C
:1016600054547C547C0A097F4932494949323A44EE
:1016700044443A324A4848303A4141217A3A424059
:101680002078009DA0A07D3D4242423D3D4040402B
:101690003D3C24FF2424487E4943662B2FFC2F2BFE
:1016A000FF0929F620C0887E09032054547941009F
:1016B00000447D413048484A32384040227A007A1E
:1016C0000A0A727D0D19317D2629292F28262929FC
:1016D000292630484D40203808080808080808081E
:1016E000382F10C8ACBA2F102834FA00007B000045
:1016F00008142A142222142A14085500550055AA49
:1017000055AA55AAFF55FF55FF000000FF00101015
:1017100010FF00141414FF001010FF00FF1010F051
:1017200010F0141414FC001414F700FF0000FF0064
:10173000FF1414F404FC141417101F10101F101FB2
:101740001414141F00101010F0000000001F1010DF
:1017500010101F10101010F010000000FF101010DB
:10176000101010101010FF10000000FF140000FFF8
:1017700000FF00001F10170000FC04F414141710E1
:10178000171414F404F40000FF00F71414141414D4
:101790001414F700F7141414171410101F101F144A
:1017A0001414F4141010F010F000001F101F0000AB
:1017B000001F14000000FC140000F010F01010FFD7
:1017C00010FF141414FF141010101F00000000F07C
:1017D00010FFFFFFFFFFF0F0F0F0F0FFFFFF000051
:1017E000000000FFFF0F0F0F0F0F3844443844FC78
:1017F0004A4A4A347E02020606027E027E0263558F
:101800004941633844443C04407E201E2006027E49
:10181000020299A5E7A5991C2A492A1C4C7201725B
:101820004C304A4D4D303048784830BC625A463DC5
:101830003E494949007E0101017E2A2A2A2A2A447A
:10184000445F444440514A444040444A51400000AF
:10185000FF0103E080FF000008086B6B08361236BA
:101860002436060F090F060000181800000010109B
:10187000003040FF0101001F01011E00191D171259
:10188000003C3C3C3C0000000000000103070F1F2F
:101890003F7F0080C0E0F0F8FCFEDB40A4A62EAF46
:1018A0002000A1C8D300408DAED580A80000600004
:1018B00000000000000000000000000000E0000048
:1018C000000000000000000000000001E000000037
:1018D0000000000000000000000001F00000000017
:1018E00000000000000000000003F0000000000005
:1018F000000000000000000007F0000000000000F1
:101900000000000000000007F800000000000000D8
:101910000000000000000FF800000003C0007E007F
:101920000001E0007F0FF800000003C000FE00008F
:1019300001E000FFEFF800000003C000FE0000011E
:10194000E000FFFFF800000003C000F00000000FFF
:10195000007FFE7FC0000003C000F00000000F0009
:101960003FFE7FF83FF1FBCFFCFEF3BC3DEFE01FF5
:10197000FE7FFF7FFBFFDFFEFEFFBC3DEFE01FC6EB
:10198000FFFF7FFBFFDFFEFEFFBC3DEFE00FE3C785
:10199000FE787BC3DE1EF0FFBC3DEF0007FF87FC37
:1019A000787BC3DE1EF0F83C3DEF0001FFFFF00046
:1019B0007BC3C01EF0F03C3DEF0001F37FE03FFB36
:1019C000C3CFFEF0F03C3DEF0003E33F807FFBC35D
:1019D000DFFEF0F03C3DEF0007E73C00787BC3DE24
:1019E0001EF0F03C3DEF0007FFBE00787BC3DE1E1B
:1019F000F0F03C3DEF0007FFFE00787BC3DE1EF0F9
:101A0000F03C3DEF000FFFFE007FFBFFDFFEF0F03C
:101A10003FFDEFE00FFFFF007FFBFFDFFEF0F03F39
:101A2000FDEFE00FF9FF003E79F9CF9EF0F01F3D8A
:101A3000E7E01FF1FF0000000000000000000000D0
:101A4000001F80FF007FFFFFFFFFFFFFFFFFFFE0A2
:101A50001C007F007FFFFFFFFEB46D888D18E00043
:101A6000001F007FFFFFFFFE95AD7DB577E0000012
:101A70000F007FFFFFFFFEA5AD9D8D19E000000662
:101A8000007FFFFFFFFEB5ADEDB57EE0000000007A
:101A90000000000000000000000000000000000046
:101AA0003000000000000000000000000000000006
:101AB00078000000000000000000000000000000AE
:101AC000FC00000000000000000000000000000119
:101AD000FF100000000000000000000000000003F4
:101AE000FF300000000000000000000000000007C0
:101AF000FFF00000000000000000000000000007F0
:101B0000FFF00000000000000000000000000003E3
:101B1000FFF0001FF00000000000000000000001C6
:101B2000FFF001FFFF0000000000000000000000C7
:101B3000FFF00FFFFFC000000000000000000000E9
:101B4000FFF03FFFFFF00000000000000000000079
:101B50003FF0FFFFFFFE000000000000000000005B
:101B60007FF1FF83C3FF00000000000000000000C1
:101B7000FFF3FC03C0FF8000000000000000000035
:101B8000FFF7F003C03FC0000000000000000000AD
:101B9000000FE003C00FE0000000000000000000A4
:101BA000001F8003C007F0000000000000000000DC
:101BB000003F8003C001F8000000000000000000AA
:101BC000007FC0018003FC00000000000000000056
:101BD00000FFF000000FFE00000000000000000009
:101BE00000FBF000001FFE000000000000000000ED
:101BF00001F1F800003FBF000000000000000000FD
:101C000001F0F000003F1F00000000000000000095
:101C100003E06600003C1F00000000000000000020
:101C200003E00F0000180F8000000000000000001B
:101C300007C00F8000000F800000000000000000BF
:101C400007C00FC0000007C0000000000000000037
:101C5000078007E0000007C000000000000000004F
:101C60000F8003F0000003C000000000000000002F
:101C70000F8001F8000003C0000000000000000019
:101C80000F8000FC000003E00000000000000000E6
:101C90000F0000FF800003E00000000000000000D3
:101CA0000FF8007FE00003E00000000000000000EB
:101CB0000FFC003FE000FFE000000000000000001B
:101CC0000FFC001FF001FFE000000000000000001A
:101CD0000FFC001FF001FFE000000000000000000A
:101CE0000F00001FF000FFE00000000000000000F7
:101CF0000F00000FE00003E0000000000000000003
:101D00000F000007C00003E000000000000000001A
:101D10000F800003800003E00000000000000000CE
:101D20000F800000000003C0000000000000000061
:101D30000F800000000003C0000000000000000051
:101D400007800000000007C0000000000000000045
:101D500007C0000000000780000000000000000035
:101D600007C0000000000F8000000000000000001D
:101D700003E00000000E0F800000000000000000E3
:101D800003E07000001F1F000000000000000000C2
:101D900001F0F000001F1F00000000000000000024
:101DA00001F9F000001FBF0000000000000000006B
:101DB00000FBF000000FFE0000000000000000002B
:101DC00000FFE0000007FC00000000000000000031
:101DD000007FC0038003F800000000000000000046
:101DE000003F8003C003F800000000000000000076
:101DF000001FC007C007F000000000000000000046
:101E0000000FE007C00FE00000000000000000002D
:101E10000007F807C03FC0000000000000000000FD
:101E20000003FE07C0FF800000000000000000006B
:101E30000001FFC7C7FF0000000000000000000015
:101E40000000FFFFFFFC0000000000000000000099
:101E500000001FFFFFF00000000000000000000075
:101E6000000007FFFFC000000000000000000000AD
:101E70000000001FF800000000000000000000004B
:101E80000000000000000000000000000000000F43
:101E9000F00000000000003FF8000000000003FF19
:101EA000FF80000000000FFFFFE0000000003FFF88
:101EB000FFFC00000000FFFFFFFE00000001FFFF2D
:101EC000FFFF80000007FFFFFFFFC000000FFFFFC4
:101ED000FFFFE000001FFFFFFFFFF000003FFFFFDC
:101EE000FFFFF800007FFFFFFFFFFC0000FFFFFF88
:101EF000FFFFFE0000FFFFFFFFFFFF0001FFFFFFEE
:101F0000FFFFFF8003FFFFFFFFFFFF8003FFFFFFD7
:101F1000FFFFFFC007F3FFFFFFF7FBC007EFFFFF67
:101F2000FDEFFBE00FDFFCFFFD6FF3E00FDEFDFFD9
:101F3000FD6FF7F01FBECD0FB952C7F01FBE150FD2
:101F4000398A4FF01FBC326FB9000FF01FC5206FE8
:101F5000BBA0A7F81FFFFFFFFFFFBFF83E3CE0F369
:101F6000E183F8F83C986071C58BF07839F86271BC
:101F7000CF9FE73839FA62608F87EF9C39FA60ECBF
:101F80008F8FCF98391020E0889FEF9C3992226C78
:101F9000C99FE7383C93220C4183F0783E37374E97
:101FA0006183FFF81FFFFFFFFFFFFFF81FFFFFFF29
:101FB000FFFFFFF81FFFFFFFFFFFFFF01FEC515275
:101FC000F14D6FF00FE45932716B6FF00FE359333D
:101FD0003D716FF00FFBDFDFFFFFEFE007FEE975FC
:101FE00059CEFFE007FC90340181FFC003FC513162
:101FF00021D1FFC003FDCA554BDAFF8001FFFFFF6F
:10200000FFFFFF0000FFFFFFFFFFFF0000FFC00119
:102010005487FE00007FC0215487FC00003FC02190
:102020005487F800001FC0015407F000000FFFFFA5
:10203000FFFFE0000007FFFFFFFFC0000001FFFF00
:10204000FFFF80000000FFFFFFFE000000003FFFD9
:10205000FFF8000000000FFFFFE00000000001FF9C
:10206000FF8000000000001FF800000000000001D9
:10207000000000002200FF210000524A6550112498
:102080001FBECFEFCDBFDFE3DEBF2BE2A0E5B8E29E
:1020900001C01D92AA3EB207E1F718E2A0E0B8E243
:1020A000EBE7F9EA02C005900D92A035B107D9F728
:1020B00010E1CEE3D0E104C02197FE010E94045359
:1020C000CD33D107C9F70E94CF4B0C943B540C94ED
:1020D00000008F929F92AF92BF92CF92DF92EF92C9
:1020E000FF92CF932091D22B3091D32B821793075D
:1020F000E8F54B01AA24BB24C82DC52ED62EE72E09
:10210000FF24BC2DA42F2091D82B222361F0829E86
:1021100040011124C92D2C9D60011124BD2D249F47
:10212000F0011124AF2FE091DE2BE090D92BF0903D
:10213000DA2B3091DB2BE31323C09C01220F331FDA
:10214000820F931F8E0D9F1DE091DB2BE80FF92F5F
:10215000F11DC083E091DC2BE80FF92FF11DB08356
:102160002091DD2B820F911DFC01A083CF91FF9068
:10217000EF90DF90CF90BF90AF909F908F90089599
:10218000880F991F880F991F8E0D9F1D472F552768
:1021900066277727222349F030E0249F7001259F8E
:1021A000F00C349FF00C11244F2DE80FF92FF11D86
:1021B0004083CACF0895AF92BF92CF92DF92EF9241
:1021C000FF920F931F93CF93DF936C017B018B01E1
:1021D000040F151FEB015E01AE18BF08C017D10731
:1021E00059F06991D601ED91FC910190F081E02DBB
:1021F000C6010995892B79F7C501DF91CF911F9110
:102200000F91FF90EF90DF90CF90BF90AF90089527
:10221000FC01A485B58511968C91119781FD1BC099
:102220006C9182898F5F8F739389981739F0A28997
:10223000AE0FBF2FB11D59966C93828BE756FF4F9F
:1022400080819181009741F0DC01ED91FC9101903A
:10225000F081E02D09948C910895FC015489458901
:10226000252F30E0842F90E0821B930B541710F041
:10227000CF96089501970895FC0192898389981754
:1022800061F0A389AE0FBF2FB11D59968C91938930
:102290009F5F9F73938B90E008958FEF9FEF08955A
:1022A000FC0192898389981731F08389E80FF11D29
:1022B000818D90E008958FEF9FEF0895FC01928942
:1022C0002389892F90E0805C9F4F821B91098F7337
:1022D00099270895CF93DF93EC01E881F981068077
:1022E000F781E02D0995EC85FD8586818F738683C6
:1022F000EC85FD8585818F7585838B898A8B198A0D
:10230000DF91CF910895CF93DF93FC019489858964
:10231000C485D585981306C08D818F7D8D83DF910F
:10232000CF910895A589AE0FBF2FB11DA75ABF4FFA
:102330002C91858990E001968F739927858B80E495
:102340008C83A485B58512962C93948985899813DE
:10235000E6CFA485B58515968C9115978F7D15963A
:102360008C9387898823D9F2808D80931301178AF3
:10237000D6CFDC011C96ED91FC910FB607FE03C091
:10238000258125FD04C0248125FD0C948311089529
:10239000EF92FF920F931F93CF93DF93EC0181E0B5
:1023A000898B9C898D8998131CC0AC85BD8514963A
:1023B0008C91149785FF15C012966C93AC85BD85E2
:1023C00080E414968C93EC85FD8585818F7D8583D3
:1023D00081E090E0DF91CF911F910F91FF90EF90FE
:1023E00008958091110180FF08C080911301888FAA
:1023F0008E898093130181E08F8BF62E0C8910E07B
:102400000F5F1F4F0F731127E02E8D898E1104C0AF
:10241000CE010E94B911F9CFEC89EC0FFD2FF11D0F
:10242000E75AFF4FF0820C8BEC85FD858581806239
:10243000CECFCF93DF93FC0121892223C9F0EC0199
:102440008091110180FF08C080911301808F8689DF
:102450008093130181E0878BEC85FD85858185FD67
:1024600003C0848186FD04C0CE010E94B911F4CF5F
:10247000DF91CF91089581E00895CF93DF9390E0AD
:10248000FC01EE5CF64120812F3F71F0FC01E45B22
:10249000F641A08130E2A39FD0011124BC5F6130DE
:1024A000710529F411962C93DF91CF9108958655EB
:1024B0009741EC01E881EF3F89F0CD014096E80FAC
:1024C000F92FF11D9FB7F89412962C9380816230FA
:1024D000710539F4886080839FBFE6CFF0E0E0E0CB
:1024E000F1CF877FF8CF8B3208F054C090E0FC0129
:1024F000EE5CF64140814F3F09F44CC0FC01E057CF
:10250000F741E081EE2329F0E13099F010F0E63058
:1025100010F1FC01E45BF641E081A0E2EA9FF001EA
:102520001124FC5F2081242311F1672BF1F44683F1
:102530000895E091010ADC01A655B7415C915C5F0A
:1025400021E030E001C0220F5A95EAF720952E23B2
:102550002093010ADECF20E1E29FF0011124E05A2E
:10256000F54F21812F7E2183D4CF45830895865551
:102570009741DC018C91309771F08F3F61F070963C
:10258000E80FF11D9FB7F8948081672B39F4877F9E
:1025900080839FBF0895F0E0E0E0F4CF8860F8CF3B
:1025A0008B3210F40C943D120895CF92DF92EF928B
:1025B000FF920F931F93CF93DF93EC016A017B018E
:1025C000022F8989882339F0E881F9810288F3890B
:1025D000E02DCE01099598898091E205892B8093A1
:1025E000E2051FB7F89460E070E281EA97E0A70186
:1025F00096010E94925269017A018FEFC81AD80A97
:10260000E80AF80AF694E794D794C794EC85FD8518
:1026100086818D7F8683EC85FD8586818683198AF8
:10262000A09123110A2E000CBB0BA70196010E945A
:10263000D35220E034E040E050E00E94B452EC85F8
:10264000FD85C20ED31EE41EF51EC086D186EC8524
:10265000FD850783EC85FD858681806C8683EC850E
:10266000FD858581806885838E8562E070E00E94AB
:10267000D0128F8561E070E00E9473128F8561E057
:1026800070E00E94D0121FBFDF91CF911F910F9178
:10269000FF90EF90DF90CF900895CF93DF938FB7A7
:1026A000F8942091262A3091272A4091282A509187
:1026B000292AE091BA0A9091B60A90FF06C02F5FCE
:1026C0003F4F4F4F5F4FE091BA0A8FBFA091302A22
:1026D000B091312AC0912E2AD0912F2A0E94B75151
:1026E000EC9F9001ED9F300D1124620F731F811D2F
:1026F000911DDF91CF910895CF92DF92EF92FF92DB
:102700000F931F93CF93DF93CDB7DEB72997CDBF3C
:10271000DEBF8091D92B9091DA2B892B09F480C0F0
:10272000C090DF2BD090E02BE090E12BF090E22BDB
:102730000E944D136C157D058E059F0550F40E9477
:102740004D136093DF2B7093E02B8093E12B9093DC
:10275000E22B0E944D130091DF2B1091E02B209172
:10276000E12B3091E22B601B710B820B930B6C32CF
:10277000714081059105A0F2F8948091D42B90913D
:10278000D52B89839A83E091D92BF091DA2BDF0145
:102790001196808189879091D02BE091E32BF09165
:1027A000E42B8091E52B992309F446C09081982B66
:1027B00098879081809589238F838F818C8388E08F
:1027C0008B8358856F8149853B812C8189819A81D2
:1027D000508347FD252F3A952083262F39F0441F3B
:1027E00000C000006083000000C0F2CF38E04D91CF
:1027F00060830000019761F7E093E32BF093E42BF3
:1028000049873B832C8389839A8378940E944D1354
:102810006093DF2B7093E02B8093E12B9093E22B5E
:102820002996CDBFDEBFDF91CF911F910F91FF9011
:10283000EF90DF90CF9008959081982B98879081AA
:10284000809589238F838F818E8388E08D8358853F
:102850006F8149853D812E8189819A81508347FD11
:10286000252F00C000C0208300C000C000C000C0F1
:1028700000C060830000262F3A9541F0441F0000FD
:1028800000C000C000C000C000C0E8CF38E04D91DB
:1028900000C0608300C0019709F7E093E32BF09339
:1028A000E42B49873D832E83AECF8F929F92AF92C8
:1028B000BF92CF92DF92EF92FF924B015C010E9498
:1028C0004D136B017C01A8EEB3E0A50194010E94B9
:1028D000B751C60ED71EE81EF91EC616D706E80663
:1028E000F90618F40E944D13F8CF0E944D136C1591
:1028F0007D058E059F05C8F3FF90EF90DF90CF9088
:10290000BF90AF909F908F9008952FB7F8946091EB
:10291000222A7091232A8091242A9091252A2FBF60
:1029200008950F931F930E9485146093442A709317
:10293000452A8093462A9093472A8CE39AE20E9484
:10294000501197FF1DC00E9485140091442A1091D8
:10295000452A2091462A3091472A601B710B820B31
:10296000930B0091402A1091412A2091422A3091E4
:10297000432A6017710782079307F8F28FEF9FEFE2
:102980001F910F910895CF92DF92EF92FF92CF9314
:102990000E949114FC0197FD4BC08D32910519F0F6
:1029A000C0970A97F0F5C12CD12C7601C0E0E13038
:1029B000D1F0ED32F105D1F1CF01C0970A9798F42B
:1029C000AAE0B0E0A70196010E94B7516F01FF0F86
:1029D000EE08FF08C60ED71EE81EF91E80E3C81ACF
:1029E000D108E108F1088CE39AE20E943C110E94B0
:1029F0009114FC01C0970A97D0F2E130C1F2CC23C8
:102A000041F0F094E094D094C094C11CD11CE11C1E
:102A1000F11CC701B601CF91FF90EF90DF90CF90EE
:102A200008958CE39AE20E943C11B2CFC1E0DBCF63
:102A3000C12CD12C7601EDCF8F929F92AF92BF9295
:102A4000CF92DF92EF92FF92CF93DF930E94911487
:102A5000FC0197FD7FC08D32910509F066C0812C85
:102A6000912C80E8A82E8FE3B82EC12CD12C7601B2
:102A7000C0E0D0E0E13059F1ED32F10509F462C077
:102A8000EE32F10509F460C0CF01C0970A97F8F45F
:102A9000AAE0B0E0A70196010E94B7516F01FF0FB5
:102AA000EE08FF08C60ED71EE81EF91E80E3C81AFE
:102AB000D108E108F108CC2351F02DEC3CEC4CECB2
:102AC0005DE3C501B4010E94F1504B015C018CE350
:102AD0009AE20E943C110E949114FC01C0970A974F
:102AE00048F2EE32F10591F5CC2331F2DD2341F0CD
:102AF000F094E094D094C094C11CD11CE11CF11C52
:102B0000C701B6010E949250CC2321F0A501940187
:102B10000E94F150DF91CF91FF90EF90DF90CF9026
:102B2000BF90AF909F908F900895C0970A9708F438
:102B300096CFEE32F10509F492CF8CE39AE20E942F
:102B40003C1184CFD1E0C3CFC1E0C1CFE13009F463
:102B500091CFCCCF60E070E0CB01DCCF0895EF9255
:102B6000FF920F931F93CF93DF937C01EB018B01B7
:102B7000040F151FC017D10759F0D701ED91FC9133
:102B80000480F581E02D6881C70109958993F2CF12
:102B9000DF91CF911F910F91FF90EF9008950F93C8
:102BA0001F93CF93DF93EC018B018091C008E881E4
:102BB000F9810480F581E02D86FD13C0612FCE01DF
:102BC0000995182FE881F9810480F581E02D602FA7
:102BD000CE010995082FC801DF91CF911F910F9168
:102BE0000895CE010995082FE881F9810480F581C7
:102BF000E02D612FCE010995182FEDCF00006093D5
:102C0000C4088091C30887FFFCCF8091C408089551
:102C10008F929F92AF92BF92CF92DF92EF92FF92EC
:102C20000F931F93CF93DF93FC018085882319F0C6
:102C300081FF0EC07894DF91CF911F910F91FF908B
:102C4000EF90DF90CF90BF90AF909F908F900895BE
:102C500080FFF1CF82849384A484B584C12CD12CCD
:102C6000760110E09401A501B601C701A0E00E9421
:102C7000F85299F1217030E040E050E060E070E0FF
:102C800080E090E00E94F852D9F0D0E0C0E010332C
:102C900070F4C12FC695C695C69580E2C89FE00125
:102CA0001124C05FDB4F812F8770C80FD11DCF016A
:102CB000810F911DDC0152968C919881892B88831C
:102CC0009401A501B601C70101E00E94DD5249014E
:102CD0005A016B017C011F5FC5CF86849784A08851
:102CE000B188C12CD12C760110E29401A501B60166
:102CF000C701A0E00E94F85209F49DCF217030E096
:102D000040E050E060E070E080E090E00E94F85227
:102D1000D9F0D0E0C0E0103370F4C12FC695C6954D
:102D2000C695B0E2CB9FE0011124C05FDB4F812F3D
:102D30008770C80FD11DCF01810F911DDC01529604
:102D40008C919881892B88839401A501B601C701D4
:102D500001E00E94DD5249015A016B017C011F5FB5
:102D6000C4CFFC016F3F710581F1808581FD2DC0CD
:102D7000603271055CF581E090E002C0880F991F18
:102D80006A95E2F780959095092E000CAA0BBB0B73
:102D9000428553856485758584239523A623B723AF
:102DA00082879387A487B58782859385A485B58517
:102DB000892B8A2B8B2B49F486859785A089B1892D
:102DC000892B8A2B8B2B09F4108608956052710988
:102DD00081E090E002C0880F991F6A95E2F7809524
:102DE0009095092E000CAA0BBB0B46855785608970
:102DF000718984239523A623B72386879787A08B81
:102E0000B18BD2CFFC016F3F7105E9F160337105E1
:102E10001CF082E080870895808581608087603221
:102E20007105C4F481E090E002C0880F991F6A9593
:102E3000E2F7092E000CAA0BBB0B42855385648573
:102E40007585842B952BA62BB72B82879387A48718
:102E5000B58708956052710981E090E002C0880F43
:102E6000991F6A95E2F7092E000CAA0BBB0B468549
:102E7000578560897189842B952BA62BB72B868764
:102E80009787A08BB18B0895E0ECF8E020812E7F2E
:102E90002083FC0117820895E0ECF8E082818E7FA8
:102EA00082830895E0ECF8E0828181608283089556
:102EB0000F9391E090931F2A10921E2A60931C2A70
:102EC00070931D2A40931B2A20931A2A1092192AC4
:102ED0001092182A0093172A880F8093162A23E04D
:102EE00030E044E050E080911B2A882341F0209399
:102EF000142A3093152A8091162A8E7F0BC0809158
:102F00001A2A882351F04093142A5093152A80914D
:102F1000162A81608093A70808C080911B2A81111E
:102F200004C080911A2A882311F380911E2A8823D5
:102F3000E1F380911E2A8330B1F280911A2A88230E
:102F400021F08091182A0F91089580911E2A8230D5
:102F500031F0853031F0813031F480E0F4CF81E020
:102F6000F2CF83E0F0CF84E0EECFE0EAF8E09185A5
:102F70009066918722E030E02093142A3093152A3E
:102F80008093062A1092052A089581E08093052AED
:102F90001092062A93E09093AA089091AB0891FFB3
:102FA00010C01092122AE091032AF091042A099588
:102FB0008093112A85E090E08093142A9093152A3B
:102FC00008951092132A8093102A86E090E0F4CF9F
:102FD0008F929F92AF92BF92CF92DF92EF92FF9229
:102FE000CF93DF9360342DE0720723E082079105D1
:102FF00008F454C0611525E372072CE0820791059F
:1030000008F445C060387F448241910508F046C00D
:10301000C8E7D0E020E432E44FE050E080903C2864
:1030200090903D28A0903E28B0903F28C501B40163
:103030000E94925269017A018AE0C81AD108E10817
:10304000F108C501B40120E432E44FE050E00E94F1
:103050009252DE010E94B75128EE33E040E050E08A
:103060000E949252C21AD30AE40AF50AF694E7942F
:10307000D794C794C092A608DF91CF91FF90EF90AC
:10308000DF90CF90BF90AF909F908F900895CCE24B
:10309000D1E020E83AE146E050E0C0CFC8EED3E00E
:1030A00020EA36E841E050E0B9CF6093012A7093FE
:1030B000022A08956093FF297093002A0895E091F1
:1030C000012AF091022A309741F01092FE291092C5
:1030D000FD2909958091FD29089580E00895E091EA
:1030E000FF29F091002A309759F03091FC29209166
:1030F000FB29321728F01092FC298093FB290994B0
:103100000895E091FC298091FB29E81730F4F0E064
:10311000E558F64D808190E008958FEF9FEF089578
:103120009091FC298091FB292FEF3FEF981748F4ED
:10313000E92FF0E0E558F64D208130E09F5F909355
:10314000FC29C90108958091FB299091FC29891BD4
:10315000990B0895CF92DF92EF92FF920F931F93F6
:10316000CF93DF937C018A01EB016B01C40ED51E66
:10317000CC15DD0551F06991D701ED91FC910190DD
:10318000F081E02DC7010995F3CFC801DF91CF9100
:103190001F910F91FF90EF90DF90CF9008952091B5
:1031A000FD2927FF08C021E030E0FC0122833383A2
:1031B00090E080E008958091FE29E82FF0E0E5504E
:1031C000F74D60838F5F8093FE298093FD2981E016
:1031D00090E00895DC01ED91FC91008CF18DE02DE3
:1031E00061E009940F938091142A9091152A019718
:1031F000A1F480911F2A811112C0062F20E0409176
:10320000FD296BEF78E28091FA280E9458171092FE
:10321000FE291092FD290F91089580E0F8CF81E0FA
:10322000F6CFDC01ED91FC910688F789E02D099439
:10323000FF920F931F93CF93DF93F82ED92FC62FB2
:103240008091A72B9091A82B009709F458C060910A
:10325000AB2B062E000C770B0E9411198091A72B27
:103260009091A82BDC01ED91FC910190F081E02D73
:1032700060E009950F2D1D2FD1E0C1508091A72B43
:103280009091A82BDC01ED91FC91CF3F79F1D7FF14
:103290001CC0028CF38DE02D09956091AB2B062E9E
:1032A000000C770B8091A72B9091A82B0E941119ED
:1032B0008091A72B9091A82BDC01ED91FC910190BE
:1032C000F081E02D60E00995D1E08091A72B9091ED
:1032D000A82BF8016491DC01ED91FC910190F08143
:1032E000E02D0995DF5F0F5F1F4FC7CF028CF38D75
:1032F000E02DDF91CF911F910F91FF900994E09104
:10330000B72BF091B82B90818091BD2B80958923AC
:1033100080830F2D1D2FC15008F43DC0F80164912A
:103320008091A52B9091A62B009751F0DC01ED9197
:10333000FC910480F581E02D09950F5F1F4FEBCFC5
:1033400028E030E090E8E091B32BF091B42B80912D
:10335000BB2B462F4923D9F04081842B8083E091F9
:10336000B52BF091B62B80814091BC2B842B8083B0
:10337000E091B52BF091B62B40818091BC2B8095CC
:1033800084238083969521503109E9F6D6CF408178
:1033900080958423E3CFDF91CF911F910F91FF9010
:1033A00008956093FA281092FE291092FD2908953D
:1033B000DC01ED91FC91048CF58DE02D21E0099468
:1033C0000F938BE799E28093072A9093082A8091C4
:1033D000142A9091152A0197C9F480911F2A81110E
:1033E00017C0FA014138510510F0E0E8F0E0022F73
:1033F000862F2E2F40E070E060E00E945817109258
:10340000FC298093FB2990E00F91089580E0F7CF8D
:1034100081E0F5CFCB01BA010C94E817E0EAF8E0BF
:103420001382168281E08583148611861092142AF5
:103430001092152A08951092FC291092FB291092DF
:10344000FE291092FD298091142A9091152A892B2A
:10345000D9F482E090E08093142A9093152A109278
:10346000132A1092122A1092052A1092062A1092FC
:10347000F9281092102A660F6093AC0881EE8093B1
:10348000A90881E08093A3088FE598E18093032A3F
:103490009093042A8BEF98E28093092A90930A2A4A
:1034A0008FE698E180930E2A90930F2A8BE799E29A
:1034B00080930B2A90930C2A80E880930D2A08951C
:1034C0001092FC291092FB291092FE291092FD29DE
:1034D0008091142A9091152A892B41F562E070E0C1
:1034E00086E10E943D1262E070E087E10E943D1299
:1034F0008091E3058093E30581E090E08093142AB6
:103500009093152A1092182A1092192A10921F2AA5
:1035100010921E2A81EC8093A30860EA76E881E08D
:1035200090E00E94E81781E08093A5080895EF924B
:10353000FF920F931F93CF93DF93EC01EC80FD80FC
:103540006E157F050CF070C057FF04C0240F351FA7
:1035500050E040E08E819F81FA01E20FF31F8E1749
:103560009F071CF49C01241B350B121613060CF04C
:103570005BC0922F842F8695869586958E9DD0016F
:103580008F9DB00D11246A0F7B1FAF8DB8A1A60FC0
:10359000B71F477049F188E0841B482F682F70E0FF
:1035A000FB01EE56F74EE491281708F063C0621B4A
:1035B00071092FEF30E002C0359527956A95E2F743
:1035C000E2230130110539F0B0F10230110561F547
:1035D0008C91E82702C08C91E82BEC93941720F192
:1035E0002C813D81A20FB31FE92FE41BE83078F056
:1035F0000230110521F58E2F9C9190959C932C8182
:103600003D81A20FB31F88508830B0F7E770EE23DA
:1036100059F0F0E0E657F74EE49101301105F9F06A
:1036200010F10230110519F1DF91CF911F910F9127
:10363000FF90EF900895E0958C91E823CECF81E044
:103640000115110509F480E081959E2F8C932C8142
:103650003D81A20FB31F98509830C0F7D7CF8C91FF
:10366000E82BEC93E1CFE0958C91E823FACF8C9195
:10367000E827F7CF0130110509F4ADCFE0F20230B1
:10368000110509F4A5CFAE0DBF1DAECF0F931F934B
:10369000CF93DF9377FF04C0260F371F70E060E001
:1036A000DC011496CD91DC91FB01E20FF31FCE17E4
:1036B000DF071CF49E01261B370B121613064CF570
:1036C000FA0157FD3796A3E0F595E795AA95E1F73E
:1036D000EC9FD001ED9FB00DFC9FB00D11246A0F3F
:1036E0007B1FDC015F96ED91FC91E60FF71F4770A1
:1036F000552781E090E001C0880F4A95EAF7482FEE
:103700000130110559F0A8F02E0F3F1F02301105AE
:10371000E1F0DF91CF911F910F9108952E0F3F1F80
:10372000E217F307B1F38191DF011197842B8C939A
:10373000F7CF80952E0F3F1FE217F30751F39191BA
:10374000DF01119798239C93F7CFE217F30709F352
:103750008191DF01119784278C93F7CF0F931F93EB
:10376000FA01DC0156964C9156974230E9F043300D
:10377000A1F1413061F514964D915C91DA01AE1BD7
:10378000BF0BFD01E21BF30B77FD0BC0DC011696AE
:103790004D915C916417750724F4AB01BF010E9441
:1037A000461B1F910F91089514964D915C91DA017B
:1037B000A61BB70BBD0161507109DC0116964D9136
:1037C0005C91DA01AE1BBF0BFD01E21BF30B77FD31
:1037D000E8CFAF010E94971AE4CF16964D915C9105
:1037E000DA01A61BB70BBD0161507109CDCF0F9354
:1037F0001F93FA01DC0156964C9156974230A9F07E
:10380000433091F1413019F514964D915C91DA01F4
:10381000AE1BBF0BFD013197F7FD04C0AB01BF012B
:103820000E94971A1F910F91089514964D915C91E3
:10383000DA01A61BB70BBD01DC0116964D915C9118
:10384000DA01AE1BBF0BFD013197621B730BF7FD55
:10385000E9CFDC0116964D915C91E417F50714F75A
:10386000AF010E94461BDECF16964D915C91DA01A6
:10387000A61BB70BBD01621B730BCECFFC0177FDFE
:1038800064C080859185681779070CF05EC057FD8C
:103890005CC082859385481759070CF056C086890D
:1038A0008230B1F0833029F1813041F484819581F7
:1038B000841B950BAB01BC016150710921303105AE
:1038C00009F108F443C02230310509F463C00895BA
:1038D00084819581DC01A61BB70BBD016150710984
:1038E00086819781DC01A41BB50BAD0141505109C4
:1038F000E5CF86819781861B970BBA01AC014150B9
:103900005109DCCFCA0157FD0796A3E0959587952D
:10391000AA95E1F7A481B5818A9F90018B9F300D14
:103920009A9F300D1124620F731F078CF0A1E02DB8
:10393000E60FF71F4770552721E030E001C0220F46
:103940004A95EAF78081822B80830895CA0157FD4A
:10395000079633E0959587953A95E1F7A481B5816F
:103960008A9F90018B9F300D9A9F300D1124620F1A
:10397000731F078CF0A1E02DE60FF71F4770552746
:1039800081E090E001C0880F4A95EAF78095908128
:103990008923DACFCA0157FD079623E095958795CD
:1039A0002A95E1F7A481B5818A9F90018B9F300D04
:1039B0009A9F300D1124620F731F078CF0A1E02D28
:1039C000E60FF71F4770552721E030E001C0220FB6
:1039D0004A95EAF780818227B7CF1F93CF93DF9371
:1039E000EC018D8D9E8D009739F1162F69A1062E61
:1039F000000C770B0E9411198D8D9E8DDC01ED91CD
:103A0000FC910190F081E02D60E009958D8D9E8DF7
:103A1000DC01ED91FC910190F081E02D612F099581
:103A20008D8D9E8DDC01ED91FC91028CF38DE02D4E
:103A3000DF91CF911F910994ADA5BEA59C918BA953
:103A4000809589238C938B8D9C8D009751F0DC01A0
:103A5000ED91FC910480F581E02DDF91CF911F91D4
:103A6000099428E030E090E8A9A5BAA589A9462FD5
:103A70004923C1F04C91842B8C93ABA5BCA58C91B0
:103A80004AA9842B8C93ABA5BCA54C918AA980959F
:103A900084238C9396952150310931F7DF91CF9192
:103AA0001F9108954C9180958423E6CFFF920F9348
:103AB0001F93CF93DF938091A72B9091A82B009712
:103AC00009F48DC04091BF2B5091C02B6091C12B48
:103AD0007091C22BDC01ED91FC910488F589E02DF9
:103AE000099565E084E790E20E94181960918E2B99
:103AF00061508AE89BE20E94ED1C2091902B30914E
:103B0000912BC901079697FD079623E09595879518
:103B10002A95E1F720918E2B30918F2B829F800187
:103B2000839F100D929F100D1124C091A92BD0914D
:103B3000AA2B8091A72B9091A82B0C0F1D1F0097EB
:103B400009F494C06091AB2B062E000C770B0E94F9
:103B500011198091A72B9091A82BDC01ED91FC917C
:103B60000190F081E02D60E40995FF24F3948091A9
:103B7000A72B9091A82BDC01ED91FC910C171D0750
:103B800009F455C0F7FE1DC0028CF38DE02D099598
:103B90006091AB2B062E000C770B8091A72B909198
:103BA000A82B0E9411198091A72B9091A82BDC01C2
:103BB000ED91FC910190F081E02D60E40995FF24E6
:103BC000F3948091A72B9091A82B6991DC01ED9142
:103BD000FC910190F081E02D0995F394C8CF80917C
:103BE000A52B9091A62B0097B9F0DC01ED91FC91EB
:103BF0000684F785E02D0091C82B1091C92B2091E8
:103C0000CA2B3091CB2B4091CC2B5091CD2B609176
:103C1000CE2B7091CF2B0995E091B92BF091BA2B57
:103C200090818091BE2B8095892380835ACF028C0E
:103C3000F38DE02D09958091A72B9091A82B0097EB
:103C400009F45AC04091C32B5091C42B6091C52BED
:103C50007091C62BDC01ED91FC910488F589E02D73
:103C6000DF91CF911F910F91FF900994E091B72BB5
:103C7000F091B82B80819091BD2B892B80830C17FC
:103C80001D07C9F269918091A52B9091A62B0097F1
:103C900041F0DC01ED91FC910480F581E02D099566
:103CA000EECF28E030E090E8E091B32BF091B42B18
:103CB0008091BB2B462F4923D9F04081842B8083F0
:103CC000E091B52BF091B62B80814091BC2B842BD9
:103CD0008083E091B52BF091B62B40818091BC2B75
:103CE000809584238083969521503109E9F6C7CFCA
:103CF000408180958423E3CFE091B92BF091BA2BDA
:103D000080819091BE2B892B80838091A52B9091EF
:103D1000A62B009761F0DC01ED91FC910088F18900
:103D2000E02DDF91CF911F910F91FF900994DF91CA
:103D3000CF911F910F91FF900895FF920F931F93C2
:103D4000CF93DF93EC01F62E8D8D9E8D009729F198
:103D50004DA95EA96FA978ADDC01ED91FC910488B5
:103D6000F589E02D099566EAF11067EACE010E9417
:103D7000ED1C8D8D9E8D009799F149AD5AAD6BADBF
:103D80007CADDC01ED91FC910488F589E02DDF919B
:103D9000CF911F910F91FF9009948B8D9C8D00976F
:103DA000B9F0DC01ED91FC910684F785E02D0EADB4
:103DB0001FADDE01A05CBF4F2C9111963C91119676
:103DC0004C9111965C9111966C9111967C9109958C
:103DD000EFA5F8A990818CA9809589238083C3CF12
:103DE000EFA5F8A980819CA9892B80838B8D9C8D60
:103DF000009761F0DC01ED91FC910088F189E02DE4
:103E0000DF91CF911F910F91FF900994DF91CF9196
:103E10001F910F91FF9008950895FC016370668BC8
:103E20008481958126813781613039F0633029F0B2
:103E300080879187228733870895208731878287FB
:103E4000938708952F923F924F925F926F927F9245
:103E50008F929F92AF92BF92CF92DF92EF92FF929A
:103E60000F931F93CF93DF93CDB7DEB76A97CDBF84
:103E7000DEBF898F9A8F69837A834A01D22E0F839E
:103E800018873701BC2CDC0159962D913C915A972B
:103E90002115310509F012C118968D919C91199741
:103EA000681779070CF0D4C11A968D919C91481728
:103EB00059070CF0CDC14C2C512CB6E0CB9E600DB7
:103EC000711D11246B877C87161617060CF0C0C174
:103ED000EA2DF0E0E987FA8793E0EE0FFF1F9A954D
:103EE000E1F7EF87F88BCF01840F951F181619069D
:103EF0000CF0AEC1A98DBA8D58968C91811104C079
:103F0000BFEABD1508F4D394A98DBA8DED91FC914B
:103F100011970284F385E02DCD010995B5E0DB9E74
:103F2000C0011124E981FA81EB83FC83312C212C1F
:103F30009C0126573C4E2F8B388F4A2D50E04D8BDD
:103F40005E8BEF89F88DE20DF31D44918D829E8288
:103F5000D12CC12C69817A81620D731D698B7A8B9A
:103F6000842F90E08B8B9C8BE98DFA8DA081B181A1
:103F700040FF7FC0F1E0BF126CC0AF126AC01C9658
:103F8000ED91FC912F813885A4014C0D5D1D69894F
:103F90007A89898D9A8D0995EB89FC89F595E79544
:103FA0004E2F5FEFC51AD50A6D817E818D899E895E
:103FB000680F791F6D837E8398E0C916D10481F65E
:103FC000AFEF2A1A3A0AEB81FC81E40DF51DEB8371
:103FD000FC83F5E02F16310409F0B3CF2F8138852B
:103FE00026153705B9F0A98DBA8DED91FC91B1E098
:103FF000BB1254C0AB1252C069817A816B5F7F4F94
:104000000088F189E02D830128E030E0A401898D4A
:104010009A8D0995A98DBA8DED91FC91119706881D
:10402000F789E02DCD016A96CDBFDEBFDF91CF913C
:104030001F910F91FF90EF90DF90CF90BF90AF90C6
:104040009F908F907F906F905F904F903F902F90B8
:1040500009941E96ED91FC91EF80F88409851A85EC
:1040600092014D815E816B817C81898D9A8D09954C
:1040700093CF2F8138852615370509F48DCF31E090
:10408000B31207C0A31205C01C96ED91FC919301D9
:104090007BCF1E96ED91FC917301E0CF6B857C8503
:1040A000641975090684F785E02D73010F85188959
:1040B0009201A401898D9A8D0995ACCFF9013496AE
:1040C0009491329745915491D91AB7E0DB9E400DF7
:1040D000511D1124F901259134912B8B3C8BFA0150
:1040E00025903490FA013296749031963491398B40
:1040F000329664903196449041E04C1518F04A1580
:1041000008F07FC0662D062C000C770B6B837C8338
:10411000842D042C000C990B8D839E83A98DBA8D60
:10412000ED91FC9111970284F385E02DCD01099565
:10413000512CD12CC12CEA2DF0E0E987FA872B2DE8
:1041400030E02B873C87A401440D511D47FC5A9554
:104150004F8B588F69817A81660D711D67FC7A9546
:104160006D877E877989C71608F054CF2C2D30E0F3
:104170004D815E81420F531FA985BA854A9FC001B8
:104180004B9F900D5A9F900D1124FC01E80DF91DD5
:10419000EF87F88B852D612C4F89588D420F531F67
:1041A0004D8B5E8B671408F050C044244394480E36
:1041B000877041F4C1010196EB89FC89E20DF31D82
:1041C000D4901C01D7FE19C0A98DBA8DED91FC9138
:1041D000662D70E0B1E0BB1219C0AB1217C02D857F
:1041E0003E85620F731F0484F585E02D2F8138858D
:1041F0004D895E89898D9A8D0995DD0C6394842D96
:10420000D1CF1D821E821B821C8288CF4B815C8194
:10421000640F751FAB85BC856A9FC0016B9F900DB5
:104220007A9F900D112469817A81680F791F068425
:10423000F785E02DEF80F88409851A859D014F856B
:104240005889898D9A8D0995D8CF570CC3948ACFF8
:104250006A96CDBFDEBFDF91CF911F910F91FF9086
:10426000EF90DF90CF90BF90AF909F908F907F9016
:104270006F905F904F903F902F9008958F929F92F4
:10428000AF92CF92EF92FF920F931F93CF93DF9352
:10429000EC01262F898D9A8D009709F051C06A3064
:1042A000D1F41C861D868D8948E0849F90011124DD
:1042B0008E859F85820F931F8E879F8781E090E078
:1042C000DF91CF911F910F91FF90EF90CF90AF9022
:1042D0009F908F9008956D3089F3CC88AD888F8939
:1042E0008823C1F08C859D8536E0C39E800D911D8D
:1042F0001124488559854817590764F44E855F8510
:104300001C861D8638E0A39EC0011124840F951FD2
:104310008E879F87EA88FB88088919894E855F8583
:104320006C857D85CE010E94221F2C898C859D8500
:1043300046E0249F800D911D11248C879D87BECF60
:104340006A3069F41C861D86FC013896E4912D893B
:104350008E859F85E29F800D911D1124ADCF6D301C
:1043600009F4ACCFFC0134963491631708F4A6CF5E
:104370003296E491E61708F4A1CFFC0132968590BD
:104380009490462F431B342F47E0349F800C911CA0
:104390001124F401329634913196E4913323A9F13A
:1043A000EE2399F1CC88F4013596E491AD884F89DC
:1043B000442301F10E2E000CFF0BE30FF11DCE9EE6
:1043C000A001CF9E500D11246C857D85460F571F8F
:1043D00068857985641775076CF44E855F851C8642
:1043E0001D86FC013896E491AE9E400D511D1124AE
:1043F0004E875F87EA88FB88088919894E855F8523
:104400006C857D85CE010E94221FF4013496E491D3
:104410002C898C859D85E29F800D911D11248DCF67
:104420006F927F928F929F92AF92BF92CF92DF92C4
:10443000EF92FF920F931F93CF93DF93EC016B01E9
:104440005A0139014801E881F9810284F385E02DA0
:104450000995E881F9810288F389E02D87019301AC
:10446000A501B601CE010995A501480D591D415080
:104470005109E881F9810288F389E02D9301B601A1
:10448000CE010995E881F9810088F189E02D940138
:10449000A501B601CE010995C60CD71CB601615025
:1044A0007109E881F9810088F189E02D9401A50165
:1044B000CE010995E881F9810688F789E02DCE01C2
:1044C000DF91CF911F910F91FF90EF90DF90CF90F0
:1044D000BF90AF909F908F907F906F9009946F9254
:1044E0007F928F929F92AF92BF92CF92DF92EF9284
:1044F000FF920F931F93CF93DF935C01EB016A014F
:10450000490138018701DC01ED91FC9162177307C5
:1045100019F5641675062CF0962D872D3A01C92ED3
:10452000D82E9601261937092F5F3F4F048CF58D41
:10453000E02DA301BE01C5010995DF91CF911F9127
:104540000F91FF90EF90DF90CF90BF90AF909F9032
:104550008F907F906F9008954615570591F4261718
:10456000370724F0892D4B01C22FD82F9E0128191F
:1045700039092F5F3F4F068CF78DE02DA601B4015E
:10458000DACF0284F385E02D0995D501ED91FC91F8
:104590000488F589E02D83019401A601BE01C501BF
:1045A0000995D501ED91FC910688F789E02DC501AB
:1045B000DF91CF911F910F91FF90EF90DF90CF90FF
:1045C000BF90AF909F908F907F906F900994EF92E3
:1045D000FF920F931F93DC011A960D911C911B976C
:1045E00018962D913C911997ED91FC9100A0F1A1A5
:1045F000E02D7B0150E040E070E060E009951F9104
:104600000F91FF90EF9008954F925F926F927F927B
:104610008F929F92AF92BF92CF92DF92EF92FF92D2
:104620000F931F93CF93DF936C012B015A01390134
:104630004801DC01ED91FC910284F385E02D0995A0
:10464000E201640C751CD601ED91FC91C615D705ED
:104650005CF40088F189E02D87019401A501BE0179
:10466000C60109952196EFCF0688F789E02DC6018E
:10467000DF91CF911F910F91FF90EF90DF90CF903E
:10468000BF90AF909F908F907F906F905F904F9072
:1046900009948F929F92AF92BF92CF92DF92EF9246
:1046A000FF920F931F93CF93DF93EC015B014A01BD
:1046B0006901E881F9810284F385E02D099595016E
:1046C0002C0D3D1D21503109E881F9810488F589BF
:1046D000E02D78018401A401B501CE010995E8819E
:1046E000F9810688F789E02DCE01DF91CF911F91E6
:1046F0000F91FF90EF90DF90CF90BF90AF909F9081
:104700008F9009948F929F92AF92BF92CF92DF9237
:10471000EF92FF920F931F93CF93DF93EC015B0116
:104720004A0169017801E881F9810284F385E02D6D
:104730000995C80CD91C860101501109E881F9813D
:104740000488F589E02D9501A401B501CE010995F4
:10475000E881F9810688F789E02DCE01DF91CF91BC
:104760001F910F91FF90EF90DF90CF90BF90AF908F
:104770009F908F900994EF92FF920F931F93DC010B
:10478000ED91FC9100A0F1A1E02D09951F910F91F1
:10479000FF90EF9008950F931F93DC01ED91FC9132
:1047A000068CF78DE02D09951F910F9108950F93B9
:1047B0001F93DC01ED91FC91048CF58DE02D0995A2
:1047C0001F910F910895DC01ED91FC910084F1851A
:1047D000E02D09943F924F925F926F927F928F9259
:1047E0009F92AF92BF92CF92DF92EF92FF920F9380
:1047F0001F93CF93DF9300D000D0CDB7DEB75C011D
:104800003B016A014901280187E0480E511C93E0F1
:10481000559447949A95E1F7CA018E0D9F1D89839F
:104820009A83F12CE12C312C1B821C828B819C8180
:1048300087709927330C892B61F4EB81FC8183E02D
:10484000F595E7958A95E1F7EE0DFF1DE80DF91D49
:10485000349037FE0AC021E030E0A6016B817C81F4
:10486000660D771DC5010E94E3238B819C81019613
:104870008B839C8308171907C9F69FEFC91AD90AB9
:10488000E40CF51C89819A81C816D90669F624962C
:10489000CDBFDEBFDF91CF911F910F91FF90EF90C1
:1048A000DF90CF90BF90AF909F908F907F906F9050
:1048B0005F904F903F9008952F923F924F925F925A
:1048C0006F927F928F929F92AF92BF92CF92DF9220
:1048D000EF92FF920F931F93CF93DF93CDB7DEB785
:1048E0002697CDBFDEBF3C016A012D833E83EB825C
:1048F000FC825801A41AB50AB7FE03C0B194A19472
:10490000B1088D809E80861A970A97FE03C0919405
:10491000819491088A149B045CF0902F812F0D8163
:104920001E819D838E839C2D8D2D6B01692F782F89
:104930000C151D055CF09D818E816D837E83692F32
:10494000782F902F812F8601C92ED82E1601201A7C
:10495000310A2B012D813E81421A530A57FE03C0B2
:10496000519441945108710137FE03C03FEFE31A9F
:10497000F30AF594E7948D819E81861797075CF57D
:10498000A1E0B0E0A983BA83C016D1064CF1D301EF
:10499000ED91FC910484F585E02D2B813C81A801EB
:1049A0006D817E818A149B041CF04D815E81B8016B
:1049B000C3010995E418F508F7FE0AC02D813E8170
:1049C00089819A81280F391F2D833E83E20CF31CC5
:1049D0000F5F1F4FD9CF2FEF3FEF29833A83D4CFFB
:1049E0002696CDBFDEBFDF91CF911F910F91FF9033
:1049F000EF90DF90CF90BF90AF909F908F907F907F
:104A00006F905F904F903F902F900895089590E0A1
:104A100080E00895DC01ED91FC910088F189E02DA2
:104A200023E030E009940C94A6532091902B309110
:104A3000912BC901079697FD079623E095958795D9
:104A40002A95E1F720918E2B30918F2B829FA00128
:104A5000839F500D929F500D112470E060E0809173
:104A6000A92B9091AA2B0C943454EF92FF920F93A0
:104A70001F930E94152589E0E82EF12C0EE110E02D
:104A800026E633E150E040E063E370E08AE89BE231
:104A90000E94EA2399E1E92EF12C0CE010E024E3D6
:104AA00033E145E050E06CE270E08AE89BE20E946E
:104AB000EA2329E0E22EF12C0EE110E026E633E1B4
:104AC0004BE150E060E370E08AE89BE20E94EA2359
:104AD00039E1E32EF12C0CE010E024E333E140E275
:104AE00050E069E270E08AE89BE20E94EA2324E356
:104AF00033E140E250E065E470E08AE89BE20E9426
:104B0000EA231F910F91FF90EF900C94561DEF92A6
:104B1000FF920F931F930E94152589E0E82EF12C38
:104B20000EE110E026E633E150E040E063E370E0A0
:104B30008AE89BE20E94EA2399E1E92EF12C0CE03D
:104B400010E024E333E145E050E06CE270E08AE8F5
:104B50009BE20E94EA2329E0E22EF12C0EE110E014
:104B600026E633E14BE150E060E370E08AE89BE247
:104B70000E94EA2339E1E32EF12C0CE010E024E35B
:104B800033E140E250E065E470E08AE89BE20E9495
:104B9000EA2349E0E42EF12C0EE110E026E633E1B1
:104BA00046E350E06DE270E08AE89BE20E94EA236F
:104BB0001F910F91FF90EF900C94561DEF92FF9272
:104BC0000F931F930E94152589E1E82EF12C0CE02C
:104BD00010E024E333E145E050E06CE270E08AE865
:104BE0009BE20E94EA2324E333E145E050E068E4DD
:104BF00070E08AE89BE20E94EA2399E0E92EF12C1A
:104C00000EE110E026E633E14BE150E060E370E0B6
:104C10008AE89BE20E94EA2329E1E22EF12C0CE0D3
:104C200010E024E333E140E250E065E470E08AE81C
:104C30009BE20E94EA231F910F91FF90EF900C944A
:104C4000561DEF92FF920F931F930E94152589E046
:104C5000E82EF12C0EE110E026E633E150E040E0D2
:104C600063E370E08AE89BE20E94EA2399E1E92E7F
:104C7000F12C0CE010E024E333E145E050E068E47F
:104C800070E08AE89BE20E94EA2329E0E22EF12C00
:104C90000EE110E026E633E14BE150E060E370E026
:104CA0008AE89BE20E94EA2339E1E32EF12C0CE032
:104CB00010E024E333E140E250E065E470E08AE88C
:104CC0009BE20E94EA2349E0E42EF12C0EE110E081
:104CD00026E633E146E350E06DE270E08AE89BE2CD
:104CE0000E94EA231F910F91FF90EF900C94561DA4
:104CF000EF92FF920F931F930E94152589E0E82EF3
:104D0000F12C0EE110E026E633E150E040E063E3F1
:104D100070E08AE89BE20E94EA2399E1E92EF12CF7
:104D20000CE010E024E333E145E050E068E470E09B
:104D30008AE89BE20E94EA2329E0E22EF12C0EE1B0
:104D400010E026E633E14BE150E060E370E08AE8F2
:104D50009BE20E94EA2339E1E32EF12C0CE010E003
:104D600024E333E140E250E069E270E08AE89BE24C
:104D70000E94EA2349E0E42EF12C0EE110E026E641
:104D800033E146E350E06DE270E08AE89BE20E9486
:104D9000EA231F910F91FF90EF900C94561DEF9214
:104DA000FF920F931F930E94152589E1E82EF12CA5
:104DB0000CE010E024E333E145E050E068E470E00B
:104DC0008AE89BE20E94EA2324E333E140E250E0D8
:104DD00065E470E08AE89BE20E94EA231F910F914C
:104DE000FF90EF900C94561D80919B28811116C066
:104DF0004091D42B5091D52B70E060E08091D92B5D
:104E00009091DA2B0E9434540E947C1381E08093AD
:104E10009B2880919A288093992808958130E9F7FA
:104E20008091332A4091322A50E070E060E0762F82
:104E3000652F542F4427682B80914028482B90E001
:104E400080E00E9469108091332A4091322A50E01C
:104E500070E060E0762F652F542F4427682B8091F7
:104E60004028482B81E090E00E9469108091332A0D
:104E70004091322A50E070E060E0762F652F542F89
:104E80004427682B80914028482B82E090E00E94C4
:104E900069108091332A4091322A50E070E060E03E
:104EA000762F652F542F4427682B80914028482B5C
:104EB00083E090E00E9469108091332A4091322A69
:104EC00050E070E060E0762F652F542F4427682B68
:104ED00080914028482B84E090E00E9469100E9455
:104EE0007C1310929B2895CFFB0101900020E9F7DD
:104EF0003197AF01461B570BDC01ED91FC9102800D
:104F0000F381E02D09948F929F92AF92BF92EF921E
:104F1000FF920F931F93CF93DF93CDB7DEB7A19787
:104F2000CDBFDEBF7C01FA01CB0119A2223008F40B
:104F30002AE08E010F5D1F4F822E912CB12CA12CE7
:104F4000BF01A50194010E949252F901CA016A3081
:104F5000F4F4605DD8016E938D01232B242B252B57
:104F600079F790E080E0109721F0BD01C7010E9421
:104F70007427A196CDBFDEBFDF91CF911F910F9116
:104F8000FF90EF90BF90AF909F908F900895695CD5
:104F9000E1CFCF92DF92EF92FF920F931F93CF93C7
:104FA000DF93EC016A017B01E881F9810190F081D6
:104FB000E02D6DE209958C0144275527BA014C1963
:104FC0005D096E097F092AE0CE010E948327800FC8
:104FD000911FDF91CF911F910F91FF90EF90DF9084
:104FE000CF900895AB01770F660B770B77FD0C948C
:104FF000C9272AE00C9483274F925F926F927F9289
:105000008F929F92AF92BF92CF92DF92EF92FF92D8
:105010006B017C01AC019B010E94795266E679EE3E
:10502000811126C046015701E894B7F82FEF3FEFF2
:105030004FE75FE7C501B4010E94795281110CC0AE
:105040002FEF3FEF4FE75FE7C501B4010E948B50A0
:105050006AE679EE181664F02FEF3FEF4FE75FE452
:10506000C701B6010E947452181694F46EE679EEE8
:105070008AE89BE2FF90EF90DF90CF90BF90AF90D7
:105080009F908F907F906F905F904F900C947427BB
:105090002FEF3FEF4FE75FECC701B6010E948B5047
:1050A00087FDE4CF20E030E0A901C701B6010E94EE
:1050B0008B50B12CA12C87FF0AC06DE28AE89BE2DD
:1050C0000E943E215C01F7FAF094F7F8F0942AE090
:1050D00037ED43EA5BE3C701B6010E94D2512B01D1
:1050E0003C010E9445526B017C010E9490509B0143
:1050F000AC01C301B2010E94D1512B013C012AE055
:10510000B701A6018AE89BE20E9483277C01EA0C92
:10511000FB1C62E779EE8AE89BE20E947427E80EA6
:10512000F91E20E030E040E251E4C301B2010E94E8
:10513000F1502B013C010E9445524B01B12CA12C96
:105140002AE0B501A4018AE89BE20E948327E80EC9
:10515000F91EC501B4010E9490509B01AC01C3012E
:10516000B2010E94D15120E030E040E251E40E94BF
:10517000F1500E944552AB0170E060E02AE08AE8FD
:105180009BE20E9483278E0D9F1DFF90EF90DF9082
:10519000CF90BF90AF909F908F907F906F905F90D7
:1051A0004F9008950C94FC27CF93DF930E94FC2727
:1051B000EC0164E779EE8AE89BE20E9474278C0F89
:1051C0009D1FDF91CF910895BC018AE89BE20C946A
:1051D00074270F931F93CF93DF93EC01462F50E07A
:1051E00070E060E02AE00E9483278C0164E779EE9A
:1051F000CE010E947427800F911FDF91CF911F91E4
:105200000F9108950F931F93CF93DF93EC010E94AA
:10521000F2278C0164E779EECE010E947427800F9B
:10522000911FDF91CF911F910F9108950F931F93BD
:10523000CF93DF93EC010E9474278C0164E779EE31
:10524000CE010E947427800F911FDF91CF911F9193
:105250000F9108950E942F54CF92DF92EF92FF9208
:105260000F93FC01C12CB9E0DB2EBDE3EB2EF12C3A
:10527000C082D182E282F3821482158281E090E0C2
:1052800086839783C0903C28D0903D28E0903E28AC
:10529000F0903F28F694E794D794C79490E04C158B
:1052A0005D056E057F0540F4F694E794D794C794A6
:1052B0009F5F9630A1F797E004600187892F809562
:1052C000A82FA170B0E084E0AA0FBB1F8A95E1F778
:1052D00091629A2B80E0232B09F480E4982B90872D
:1052E0000F91FF90EF90DF90CF9008950F931F9351
:1052F000CF93DF93CDB7DEB72A97CDBFDEBF8C014A
:10530000FC01878181110CC01086118612861386DC
:105310001486158616861786108A118A81E087837F
:105320008091E305F8019681892B8093E30561E084
:1053300070E083810E94D01261E070E0F801848106
:105340000E94D0128091C10884608093C10880912E
:10535000C00881628093C0084091722B5091732BDA
:105360006091742B7091752B0091762B2091782B86
:105370003091792BCE0101960E942C2999858A853E
:105380009093C0088093C1082A96CDBFDEBFDF91FD
:10539000CF911F910F9108955F926F927F928F929C
:1053A0009F92AF92BF92CF92DF92EF92FF920F93B4
:1053B0001F93CF93DF93CDB7DEB76297CDBFDEBF2C
:1053C0003C010B871C872D873E87042F4F87588B06
:1053D000698B7A8B29893A894B855C856D857E85B9
:1053E000CE0101960E942C2959841A85D301189662
:1053F0008C91882319F081FF18C0F8945092C0084E
:105400001093C1086296CDBFDEBFDF91CF911F918F
:105410000F91FF90EF90DF90CF90BF90AF909F9053
:105420008F907F906F905F90089580FFE7CFF3019A
:1054300082849384A484B584C12CD12C7601B0E0FD
:105440009401A501B601C701A0E00E94F852A9F19C
:10545000217030E040E050E060E070E080E090E0FB
:105460000E94F852E9F090E080E0B03370F48B2FA6
:10547000869586958695F0E28F9FC0011124805F06
:105480009B4F2B2F2770820F911DFC0140819301B0
:105490002B0F311DF901428BFC012081287F2083D5
:1054A0009401A501B601C70101E00E94DD52490146
:1054B0005A016B017C01BF5FC3CFD3011E968D9053
:1054C0009D90AD90BC905197C12CD12C7601B0E24B
:1054D0009401A501B601C701A0E00E94F85209F4A9
:1054E0008DCF217030E040E050E060E070E080E07F
:1054F00090E00E94F852E9F090E080E0B03370F460
:105500008B2F869586958695E0E28E9FC0011124AB
:10551000805F9B4F2B2F2770820F911DFC014081D4
:1055200093012B0F311DF901428BFC012081287F53
:1055300020839401A501B601C70101E00E94DD525C
:1055400049015A016B017C01BF5FC2CFCF93DF934A
:10555000EB010E94AF518883CE01DF91CF91089576
:10556000CF93DF930E94152581E080939E2B80933B
:105570009F2B81E090E080939C2B90939D2B8093B8
:105580009A2B90939B2B1092962B1092972B109204
:10559000982B1092992B8091F82881114CC0109271
:1055A0009A2B10929B2BEEE2F3E1659174918FEDB3
:1055B00098E20E9484508FED98E20E94E428809146
:1055C000DE28E0E6F2E1882321F0813071F4EEE597
:1055D000F2E1659174918FED98E20E9484506FED35
:1055E00078E28AE89BE20E94162981E090E08093AD
:1055F0009A2B90939B2B10929C2B10929D2BE0E367
:10560000F3E1659174918FED98E20E9484506FED03
:1056100078E28AE89BE20E941629E2E3F3E16591D1
:1056200074918FED98E20E9484506FED78E28AE8E1
:105630009BE20E9416298091F828813009F050C021
:10564000EEE2F3E1659174918FED98E20E9484504F
:105650008FED98E20E94E4288091DE28E0E6F2E1F6
:10566000882321F0813071F4EEE5F2E165917491C7
:105670008FED98E20E9484506FED78E28AE89BE219
:105680000E94162910929A2B10929B2BC1E0D0E019
:10569000C0939C2BD0939D2BE0E3F3E16591749133
:1056A0008FED98E20E9484506FED78E28AE89BE2E9
:1056B0000E941629C0939A2BD0939B2B10929C2B5F
:1056C00010929D2BE2E3F3E1659174918FED98E2E6
:1056D0000E9484506FED78E28AE89BE20E941629CE
:1056E0008091F828823009F050C0EEE2F3E1659134
:1056F00074918FED98E20E9484508FED98E20E94A1
:10570000E4288091DE28E0E6F2E1882321F0813070
:1057100071F4EEE5F2E1659174918FED98E20E94EB
:1057200084506FED78E28AE89BE20E941629E0E35C
:10573000F3E1659174918FED98E20E9484506FEDD2
:1057400078E28AE89BE20E94162910929A2B109226
:105750009B2BC1E0D0E0C0939C2BD0939D2BE2E328
:10576000F3E1659174918FED98E20E9484506FEDA2
:1057700078E28AE89BE20E941629C0939A2BD09384
:105780009B2B10929C2B10929D2BDF91CF910C9410
:10579000561DCF93DF930E94152581E080939E2BA9
:1057A00080939F2BC1E0D0E0C0939C2BD0939D2B86
:1057B000C0939A2BD0939B2B1092962B1092972BE1
:1057C0001092982B1092992B8091DD288111D4C0D2
:1057D000E6E7F2E1659174918FED98E20E948450C2
:1057E0008FED98E20E94E428E4E6F2E1659174917D
:1057F0008FED98E20E9484506FED78E28AE89BE298
:105800000E9416298091DC28811138C010929A2BB1
:1058100010929B2BC0939C2BD0939D2BEAE6F2E138
:10582000659174918FED98E20E9484506FED78E25B
:105830008AE89BE20E941629C0939A2BD0939B2B57
:1058400010929C2B10929D2BEEE6F2E165917491E3
:105850008FED98E20E9484506FED78E28AE89BE237
:105860000E941629E2E7F2E1659174918FED98E2CA
:105870000E9484508FED98E20E94E4288091DC28F9
:10588000813009F03AC0EAE6F2E1659174918FED5A
:1058900098E20E9484506FED78E28AE89BE20E94D1
:1058A000162910929A2B10929B2BC1E0D0E0C09346
:1058B0009C2BD0939D2BEEE6F2E1659174918FEDD8
:1058C00098E20E9484506FED78E28AE89BE20E94A1
:1058D0001629C0939A2BD0939B2B10929C2B10923D
:1058E0009D2BE2E7F2E1659174918FED98E20E94C1
:1058F00084508FED98E20E94E4288091DC28823069
:1059000009F03AC0EAE6F2E1659174918FED98E210
:105910000E9484506FED78E28AE89BE20E9416298B
:10592000EEE6F2E1659174918FED98E20E94845069
:105930006FED78E28AE89BE20E94162910929A2B7A
:1059400010929B2BC1E0D0E0C0939C2BD0939D2B59
:10595000E2E7F2E1659174918FED98E20E94845044
:105960008FED98E20E94E428C0939A2BD0939B2B52
:1059700010929C2B10929D2B8091DD28813009F094
:10598000D6C0E6E7F2E1659174918FED98E20E944E
:1059900084508FED98E20E94E428E6E6F2E16591FA
:1059A00074918FED98E20E9484506FED78E28AE85E
:1059B0009BE20E9416298091DC2881113AC0109246
:1059C0009A2B10929B2BC1E0D0E0C0939C2BD093DC
:1059D0009D2BEAE6F2E1659174918FED98E20E94C9
:1059E00084506FED78E28AE89BE20E941629C0930A
:1059F0009A2BD0939B2B10929C2B10929D2BEEE612
:105A0000F2E1659174918FED98E20E9484506FED00
:105A100078E28AE89BE20E941629E2E7F2E16591CA
:105A200074918FED98E20E9484508FED98E20E946D
:105A3000E4288091DC28813009F03AC0EAE6F2E1FE
:105A4000659174918FED98E20E9484506FED78E239
:105A50008AE89BE20E94162910929A2B10929B2BA7
:105A6000C1E0D0E0C0939C2BD0939D2BEEE6F2E1F9
:105A7000659174918FED98E20E9484506FED78E209
:105A80008AE89BE20E941629C0939A2BD0939B2B05
:105A900010929C2B10929D2BE2E7F2E1659174919C
:105AA0008FED98E20E9484508FED98E20E94E428E6
:105AB0008091DC28823009F03AC0EAE6F2E1659193
:105AC00074918FED98E20E9484506FED78E28AE83D
:105AD0009BE20E941629EEE6F2E1659174918FED4A
