:020000040000FA
:100000000C9479070C94A1070C94A1070C94A107F8
:100010000C94A1070C94A1070C94A1070C94A107C0
:100020000C94A1070C94A1070C94A1070C94A107B0
:100030000C94A1070C94A1070C94A1070C94A107A0
:100040000C947E330C94A1070C944C330C942633FF
:100050000C94A1070C94A1070C94A1070C94A10780
:100060000C94C8330C94A10753657420656E64200A
:10007000706F736974696F6E0053657420686F6D7B
:100080006520706F736974696F6E00526576657272
:10009000736520736572766F3A200052504D20616F
:1000A000732073706565643A200052504D2073656B
:1000B00074757000537065656420736574757000A5
:1000C00054494D45204F55540051533A0020204487
:1000D000613A00202044743A004D414C4655435447
:1000E000494F4E00534552564F005470733A00200A
:1000F00056004355523A2000494E20425554544F21
:100100004E204D4F44554C450053484F52542043C8
:100110004952435554005052455353204252414B8B
:1001200045006E6F742075736564006E6F74207582
:1001300073656400536572766F2073657475700023
:10014000536572766F2073657475700073657420E3
:100150006869676820737065656400007365742062
:100160006D656469756D2073706565640000736505
:1001700074206C6F77207370656564000020736570
:1001800074207370656564206D756C69706C696549
:1001900072000020313630002031323000203830FB
:1001A00000203430000020736574207468726F740E
:1001B0006C65206C6576656C730074707320696E75
:1001C0007075743A2000007365742073656E736FE8
:1001D00072206F6666736574000020637572656EC9
:1001E000742073656E736F723A2000000054505390
:1001F00020696E7075740073657420637572656E26
:10020000742073656E736F72000044454641554C0F
:10021000545320524553544F524544002072657345
:10022000746F72652064656661756C74730000009C
:100230000000000031326B2072706D205153207429
:10024000696D6500396B2072706D2051532074699F
:100250006D6500366B2072706D2051532074696D8E
:100260006500334B2072706D2051532074696D65A9
:1002700000302D326B2072706D2051532074696DE7
:100280006500000000736574206765617220323E6E
:100290002051532074696D65007365742067656132
:1002A0007220312051532074696D6500736574208C
:1002B00067656E6572616C2051532074696D6500CD
:1002C0000000000053686966746C696768743A20BE
:1002D00000456E642052504D2000537461727420AA
:1002E00052504D200053686966746C6967687420C9
:1002F0007365747570200036746820676561723AA2
:10030000200035746820676561723A200034746893
:1003100020676561723A2000336564206765617209
:100320003A2000326E6420676561723A20003173B2
:100330007420676561723A200000446973706C61D3
:1003400079206765617220726174696F000047658A
:10035000617220646973706C61793A200000736582
:10036000742067656172207261746F0052504D3A5B
:1003700020000073686966742074696D653A200016
:10038000717569636B7368697465723A20002072D5
:1003900065766F6C7574696F6E3A200050756C737A
:1003A000657320706572002020205345545550001D
:1003B0000053706565642F52504D207365747570DD
:1003C0000053657420504944200053544F52454413
:1003D0000044657269766174697665200000496E33
:1003E00074656772616C20000050726F706F727478
:1003F000696F6E616C20000068696768006C6F77D8
:1004000000205365742050494420004F4646004F59
:100410004E0053504545443A20004272616B653AA4
:10042000200043616E63656C2F616363656C3A20E5
:100430000053657473706565642F646563656C3A19
:10044000200000000000000000000000000000008C
:10045000000000000000300000000000000000006C
:100460000000000000007800000000000000000014
:10047000000000000000FC00000000000000000080
:10048000000000000001FF1000000000000000005C
:10049000000000000003FF3000000000000000002A
:1004A000000000000007FFB0000000000000000096
:1004B000000000000007FFF0000000000000000046
:1004C000000000000003FFF0001FF000000000002B
:1004D000000000000001FFF001FFFF00000000002D
:1004E000000000000000FFF00FFFFFC00000000050
:1004F000000000000000FFF03FFFFFF000000000E0
:100500000000000000003FF0FFFFFFFE00000000C1
:100510000000000000007FF1FF83C3FF0000000027
:10052000000000000000FFF3FC03C0FF800000009B
:10053000000000000000FFF7F003C03FC000000013
:10054000000000000000000FE003C00FE00000000A
:10055000000000000000001F8003C007F000000042
:10056000000000000000003F8003C001F800000010
:10057000000000000000007FC0018003FC000000BC
:1005800000000000000000FFF000000FFE0000006F
:1005900000000000000000FBF000001FFE00000053
:1005A00000000000000001F1F800003FBF00000063
:1005B00000000000000001F0F000003F1F000000FC
:1005C00000000000000003E06600003C1F00000087
:1005D00000000000000003E00F0000180F80000082
:1005E00000000000000007C00F8000000F80000026
:1005F00000000000000007C00FC0000007C000009E
:10060000000000000000078007E0000007C00000B5
:100610000000000000000F8003F0000003C0000095
:100620000000000000000F8001F8000003C000007F
:100630000000000000000F8000FC000003E000004C
:100640000000000000000F0000FF800003E0000039
:100650000000000000000FF8007FE00003E0000051
:100660000000000000000FFC003FE000FFE0000081
:100670000000000000000FFC001FF001FFE0000080
:100680000000000000000FFC001FF001FFE0000070
:100690000000000000000F00001FF000FFE000005D
:1006A0000000000000000F00000FE00003E0000069
:1006B0000000000000000F000007C00003E0000081
:1006C0000000000000000F800003800003E0000035
:1006D0000000000000000F800000000003C00000C8
:1006E0000000000000000F800000000003C00000B8
:1006F00000000000000007800000000007C00000AC
:1007000000000000000007C000000000078000009B
:1007100000000000000007C0000000000F80000083
:1007200000000000000003E00000000E0F80000049
:1007300000000000000003E07000001F1F00000028
:1007400000000000000001F0F000001F1F0000008A
:1007500000000000000001F9F000001FBF000000D1
:1007600000000000000000FBF000000FFE00000091
:1007700000000000000000FFE0000007FC00000097
:10078000000000000000007FC0038003F8000000AC
:10079000000000000000003F8003C003F8000000DC
:1007A000000000000000001FC007C007F0000000AC
:1007B000000000000000000FE007C00FE000000094
:1007C0000000000000000007F807C03FC000000064
:1007D0000000000000000003FE07C0FF80000000D2
:1007E0000000000000000001FFC7C7FF000000007C
:1007F0000000000000000000FFFFFFFC0000000000
:1008000000000000000000001FFFFFF000000000DB
:10081000000000000000000007FFFFC00000000013
:10082000000000000000000000FFFE0000000000CB
:1008300000000000000000000000000000000000B8
:100840000000310422041A0412040F040B040104F2
:10085000FD03F803F703E903E803DE03DD03D10337
:10086000CA03C103B103B003A7039C038E03800333
:10087000730372036C035E035D034E034D033A037F
:1008800039032E03230318030D030203F702E502C5
:10089000DA02D102C402C302C202C102C002AC0227
:1008A000990285028402830282027102620253026B
:1008B0004402340233023202310230022F022E028D
:1008C0001C020A020902F701ED01EC01EB01DA0159
:1008D000D901C701C601BA01A601A501A1019D0167
:1008E0009801930192017D017C016E016D015C0113
:1008F0005B014C01400134012B0122011601090169
:10090000F800F200EF00EA00E400D900D300CD00C7
:10091000C900C000B400AA009B008B0079006800E9
:10092000000000000100038007E00FE01FE01FE06F
:100930001FE03FE03FC03FC03FC03FC03FC07FC05F
:100940007F807F807F807F807F003F001E000400CB
:100950000000000000000FFFFFC01FFFFFE03FFF8F
:10096000FFF07FFFFFF83FFFFFF01FFFFFE00FFFEB
:10097000FF800000000000000000003E5B4F5B3E77
:100980003E6B4F6B3E1C3E7C3E1C183C7E3C181C54
:10099000577D571C1C5E7F5E1C00183C1800FFE74B
:1009A000C3E7FF0018241800FFE7DBE7FF30483AF1
:1009B000060E2629792926407F050507407F052553
:1009C0003F5A3CE73C5A7F3E1C1C08081C1C3E7FDB
:1009D00014227F22145F5F005F5F06097F017F00A2
:1009E0006689956A606060606094A2FFA2940804C2
:1009F0007E040810207E201008082A1C08081C2AE3
:100A000008081E101010100C1E0C1E0C30383E383A
:100A100030060E3E0E06000000000000005F0000E1
:100A20000007000700147F147F14242A7F2A122352
:100A30001308646236495620500008070300001C62
:100A40002241000041221C002A1C7F1C2A08083E6B
:100A5000080800807030000808080808000060607E
:100A60000020100804023E5149453E00427F4000EC
:100A700072494949462141494D331814127F1027C4
:100A8000454545393C4A4949314121110907364913
:100A9000494936464949291E0000140000004034E7
:100AA00000000008142241141414141400412214EC
:100AB0000802015909063E415D594E7C1211127C13
:100AC0007F494949363E414141227F4141413E7F74
:100AD000494949417F090909013E414151737F0854
:100AE00008087F00417F41002040413F017F0814FA
:100AF00022417F404040407F021C027F7F0408105B
:100B00007F3E4141413E7F090909063E4151215E38
:100B10007F09192946264949493203017F01033FCC
:100B20004040403F1F2040201F3F4038403F63145B
:100B300008146303047804036159494D43007F415D
:100B400041410204081020004141417F040201029A
:100B500004404040404000030708002054547840BF
:100B60007F284444383844444428384444287F3853
:100B70005454541800087E090218A4A49C787F08D5
:100B800004047800447D40002040403D007F102850
:100B9000440000417F40007C047804787C08040411
:100BA000783844444438FC1824241818242418FCA9
:100BB0007C08040408485454542404043F44243C4E
:100BC0004040207C1C2040201C3C4030403C4428BD
:100BD0001028444C9090907C4464544C4400083657
:100BE00041000000770000004136080002010204C5
:100BF000023C2623263C1EA1A161123A4040207AE5
:100C0000385454555921555579412254547842212C
:100C10005554784020545579400C1E527212395563
:100C20005555593954545459395554545800004560
:100C30007C410002457D420001457C407D1211123D
:100C40007DF0282528F07C545545002054547C54D0
:100C50007C0A097F4932494949323A4444443A328C
:100C60004A4848303A4141217A3A42402078009D32
:100C7000A0A07D3D4242423D3D4040403D3C24FFDE
:100C80002424487E4943662B2FFC2F2BFF0929F68D
:100C900020C0887E090320545479410000447D41DE
:100CA0003048484A32384040227A007A0A0A727D37
:100CB0000D19317D2629292F282629292926304852
:100CC0004D4020380808080808080808382F10C8C0
:100CD000ACBA2F102834FA00007B000008142A1444
:100CE0002222142A14085500550055AA55AA55AABF
:100CF000FF55FF55FF000000FF00101010FF00140B
:100D00001414FF001010FF00FF1010F010F0141466
:100D100014FC001414F700FF0000FF00FF1414F48B
:100D200004FC141417101F10101F101F1414141F8C
:100D300000101010F0000000001F101010101F1005
:100D4000101010F010000000FF1010101010101004
:100D50001010FF10000000FF140000FF00FF000053
:100D60001F10170000FC04F414141710171414F4C7
:100D700004F40000FF00F714141414141414F70002
:100D8000F7141414171410101F101F141414F41453
:100D90001010F010F000001F101F0000001F1400C2
:100DA0000000FC140000F010F01010FF10FF1414ED
:100DB00014FF141010101F00000000F010FFFFFFC0
:100DC000FFFFF0F0F0F0F0FFFFFF0000000000FF79
:100DD000FF0F0F0F0F0F3844443844FC4A4A4A347F
:100DE0007E02020606027E027E0263554941633896
:100DF00044443C04407E201E2006027E020299A547
:100E0000E7A5991C2A492A1C4C7201724C304A4DA4
:100E10004D303048784830BC625A463D3E494949D9
:100E2000007E0101017E2A2A2A2A2A44445F444482
:100E300040514A444040444A51400000FF0103E011
:100E400080FF000008086B6B083612362436060F48
:100E5000090F06000018180000001010003040FFB5
:100E60000101001F01011E00191D1712003C3C3C2E
:100E70003C0000000000000103070F1F3F7F0080BF
:100E8000C0E0F0F8FCFE00000008000201000003D2
:100E90000407000000000000000000000000240023
:100EA00027002A00DB40A4A62EAF2000A1C8D30053
:100EB000408DAED580A82200FF2100010204081059
:100EC00020408001020408102001020408102000C4
:100ED000000000250028002B00040404040404047E
:100EE0000402020202020203030303030300E734C5
:100EF0005C3A11241FBECFEFD8E0DEBFCDBF24E0A7
:100F0000AEEAB1E001C01D92AC32B207E1F711E0E8
:100F1000A0E0B1E0E8E9FCE702C005900D92AE3A2E
:100F2000B107D9F717E0C8E7D7E004C02197FE0161
:100F30000E94083DC737D107C9F70E941B360C94A1
:100F40003F3E0C9400008F929F92AF92BF92CF923F
:100F5000DF92EF92FF92CF93209114043091150409
:100F600082179307E8F54B01AA24BB24C82DC52E90
:100F7000D62EE72EFF24BC2DA42F20911A04222365
:100F800061F0829E40011124C92D2C9D6001112425
:100F9000BD2D249FF0011124AF2FE0912004E0909B
:100FA0001B04F0901C0430911D04E31323C09C012A
:100FB000220F331F820F931F8E0D9F1DE0911D0482
:100FC000E80FF92FF11DC083E0911E04E80FF92FFF
:100FD000F11DB08320911F04820F911DFC01A0839D
:100FE000CF91FF90EF90DF90CF90BF90AF909F9008
:100FF0008F900895880F991F880F991F8E0D9F1D40
:10100000472F552766277727222349F030E0249F72
:101010007001259FF00C349FF00C11244F2DE80F28
:10102000F92FF11D4083CACF089508950895AF9216
:10103000BF92CF92DF92EF92FF920F931F93CF93C5
:10104000DF936C017B018B01040F151FEB015E0127
:10105000AE18BF08C017D10759F06991D601ED91BC
:10106000FC910190F081E02DC6010995892B79F75B
:10107000C501DF91CF911F910F91FF90EF90DF900D
:10108000CF90BF90AF900895FC01538D448D252FD4
:1010900030E0842F90E0821B930B541710F0CF9612
:1010A000089501970895FC01918D828D981761F044
:1010B000A28DAE0FBF2FB11D5D968C91928D9F5F5B
:1010C0009F73928F90E008958FEF9FEF0895FC013A
:1010D000918D828D981731F0828DE80FF11D858DED
:1010E00090E008958FEF9FEF0895FC01918D228D80
:1010F000892F90E0805C9F4F821B91098F73992705
:10110000089585E293E00E94750821E0892B09F497
:1011100020E0822F089580E090E0892B29F00E9442
:10112000810881110C9400000895FC01A48DA80F82
:10113000B92FB11DA35ABF4F2C91848D90E0019619
:101140008F739927848FA689B7892C93A089B18939
:101150008C91837080648C93938D848D981306C0DA
:101160000288F389E02D80818F7D80830895EF923E
:10117000FF920F931F93CF93DF93EC0181E0888F51
:101180009B8D8C8D98131AC0E889F989808185FF21
:1011900015C09FB7F894EE89FF896083E889F989C3
:1011A00080818370806480839FBF81E090E0DF91C5
:1011B000CF911F910F91FF90EF900895F62E0B8D18
:1011C00010E00F5F1F4F0F731127E02E8C8D8E11D3
:1011D0000CC00FB607FCFACFE889F989808185FF3A
:1011E000F5CFCE010E949508F1CFEB8DEC0FFD2FCE
:1011F000F11DE35AFF4FF0829FB7F8940B8FEA89F5
:10120000FB8980818062CFCFCF93DF93EC01888D03
:101210008823B9F0AA89BB89E889F9898C9185FD71
:1012200003C0808186FD0DC00FB607FCF7CF8C91FF
:1012300085FFF2CF808185FFEDCFCE010E9495081A
:10124000E9CFDF91CF91089590E0FC01EA57F14F8B
:101250002491FC01E554F14F3491FC01E752F14F28
:10126000E491EE23C9F0222339F0233001F1A8F4F0
:10127000213019F1223029F1F0E0EE0FFF1FE15388
:10128000F14FA591B4918FB7F894EC91611126C0FC
:1012900030953E233C938FBF08952730A9F0283026
:1012A000C9F0243049F7809180008F7D03C0809180
:1012B00080008F7780938000DFCF84B58F7784BDE7
:1012C000DBCF84B58F7DFBCF8091B0008F7780938B
:1012D000B000D2CF8091B0008F7DF9CF3E2BDACF16
:1012E000CF93DF9390E0FC01E554F14F24918752B6
:1012F000914FFC0184918823D1F090E0880F991FD1
:10130000FC01E656F14FA591B491FC01E153F14F78
:10131000C591D49161110EC09FB7F8948C91E22FC2
:10132000E0958E238C932881E223E8839FBFDF9191
:10133000CF9108958FB7F894EC91E22BEC938FBF87
:10134000F6CF3FB7F89480910C0390910D03A091D4
:101350000E03B0910F0326B5A89B05C02F3F19F0CF
:101360000196A11DB11D3FBFBA2FA92F982F882725
:10137000BC01CD01620F711D811D911D42E0660F00
:10138000771F881F991F4A95D1F70895CF92DF9252
:10139000EF92FF920F931F93CF93DF93CDB7DEB7FA
:1013A00029970FB6F894DEBF0FBECDBF80911B0406
:1013B00090911C04892B09F480C0C0902104D09026
:1013C0002204E0902304F09024040E94A1096C15EB
:1013D0007D058E059F0550F40E94A10960932104AC
:1013E0007093220480932304909324040E94A10903
:1013F00000912104109122042091230430912404AF
:10140000601B710B820B930B6C327140810591054F
:10141000A0F2F89480911604909117049A8389831E
:10142000E0911B04F0911C04DF01119680818987F3
:1014300090911204E0912504F091260480912704F4
:10144000992309F449C09081982B988790818095C1
:1014500089238F838F818C8388E08B8358856F816C
:1014600049853B812C8189819A81508347FD252FB5
:101470003A952083262F39F0441F00C00000608376
:10148000000000C0F2CF38E04D916083000001976A
:1014900061F7F0932604E093250449873B832C836E
:1014A0009A83898378940E94A109609321047093A0
:1014B0002204809323049093240429960FB6F89471
:1014C000DEBF0FBECDBFDF91CF911F910F91FF9077
:1014D000EF90DF90CF9008959081982B988790811E
:1014E000809589238F838F818E8388E08D835885B3
:1014F0006F8149853D812E8189819A81508347FD85
:10150000252F00C000C0208300C000C000C000C064
:1015100000C060830000262F3A9541F0441F000070
:1015200000C000C000C000C000C0E8CF38E04D914E
:1015300000C0608300C0019709F7F0932604E09390
:10154000250449873D832E83ABCF8F929F92AF9224
:10155000BF92CF92DF92EF92FF924B015C010E940B
:10156000A1096B017C010E94A1096C197D098E09FA
:101570009F09683E734081059105A8F321E0821A16
:101580009108A108B10888EEC80E83E0D81EE11CBE
:10159000F11C81149104A104B10429F7FF90EF908C
:1015A000DF90CF90BF90AF909F908F9008952FB70E
:1015B000F894609108037091090380910A03909157
:1015C0000B032FBF08950F931F930E94D70A6093B8
:1015D0002D0370932E0380932F039093300385E2A5
:1015E00093E00E94670897FF1DC00E94D70A0091F0
:1015F0002D0310912E0320912F0330913003601B97
:10160000710B820B930B0091290310912A032091F7
:101610002B0330912C036017710782079307F8F2B0
:101620008FEF9FEF1F910F910895CF92DF92EF926E
:10163000FF92CF930E94E30AFC0197FD4EC08D32CA
:10164000910521F0C0970A9708F040C0C12CD12C19
:101650007601C0E0E130F105D1F0ED32F105D9F1CC
:10166000CF01C0970A9798F4AAE0B0E0A7019601CD
:101670000E94AD3B6F01FF0FEE08FF08C60ED71E9C
:10168000E81EF91E80E3C81AD108E108F10885E2D6
:1016900093E00E9453080E94E30AFC01C0970A9756
:1016A000C8F2E130F105B1F2CC2341F0F094E094BE
:1016B000D094C094C11CD11CE11CF11CC701B6011F
:1016C000CF91FF90EF90DF90CF90089585E293E067
:1016D0000E945308AFCFC1E0DACFC12CD12C7601E4
:1016E000EDCF8F929F92AF92BF92CF92DF92EF9207
:1016F000FF92CF93DF930E94E30AFC0197FD88C01D
:101700008D32910509F04CC0812C912C80E8A82ED7
:101710008FE3B82EC12CD12C7601C0E0D0E0E130AF
:10172000F10559F1ED32F10509F447C0EE32F1054A
:1017300009F445C0CF01C0970A97F8F4AAE0B0E0D9
:10174000A70196010E94AD3B6F01FF0FEE08FF0855
:10175000C60ED71EE81EF91E80E3C81AD108E1089C
:10176000F108CC2351F02DEC3CEC4CEC5DE3C501D1
:10177000B4010E94E73A4B015C0185E293E00E94CC
:1017800053080E94E30AFC01C0970A9740F2EE3228
:10179000F105B9F4CC2319F2CD2FD11118C025C011
:1017A000C0970A9708F4B0CFEE32F10509F4ACCF38
:1017B00085E293E00E9453089ECFD1E0DECFC1E0E6
:1017C000DCCFE130F10509F4AACFDD2341F0F0943C
:1017D000E094D094C094C11CD11CE11CF11CC70141
:1017E000B6010E94883ACC2341F0C701B6010E949D
:1017F000883AA50194010E94E73ADF91CF91FF90CA
:10180000EF90DF90CF90BF90AF909F908F90089512
:1018100060E070E0CB01F1CF2091BD02260F3327AD
:10182000331F21323105ECF42091E102FC0190E0FC
:1018300080E0243069F082E00895A091BD022191FA
:10184000AC0143565D4FA40FB52FB11D2C930196EB
:10185000861798F38091BD02680F6093BD0280E007
:10186000089581E008951092E10281E08093E302FF
:101870001092E20261E082E10E94240961E083E1CA
:101880000E942409E9EBF0E080818E7F80838081D3
:101890008D7F808388E48093B80085E48093BC00CA
:1018A0000895CF93DF9391E090939C028823B9F041
:1018B000C091B800D091BA008091BC008A7B80931F
:1018C000BC0060E082E10E94240960E083E10E94A4
:1018D00024090E94330CD093BA00C093B800DF9162
:1018E000CF910895E091160380911503E81730F425
:1018F000F0E0E958FD4F808190E008958FEF9FEF71
:10190000089590911603809115032FEF3FEF9817DC
:1019100048F4E92FF0E0E958FD4F208130E09F5F67
:1019200090931603C90108958091150390911603B1
:10193000891B990B0895CF92DF92EF92FF920F933C
:101940001F93CF93DF937C01CB018A012091240365
:10195000222389F0EB016B01C40ED51ECC15DD05E9
:1019600069F06991D701ED91FC910190F081E02D32
:10197000C7010995F3CF642F0E940C0CC801DF91B9
:10198000CF911F910F91FF90EF90DF90CF9008952E
:10199000CF93DF931F92CDB7DEB7698320912403E5
:1019A0002223F9F020912103203258F021E030E089
:1019B000FC013383228390E080E00F90DF91CF9190
:1019C000089580912203E82FF0E0E95AFD4F9981B4
:1019D00090838F5F809322038093210381E090E0C6
:1019E000ECCF61E0CE0101960E940C0CF7CFCF92B4
:1019F000DF92EF92FF920F931F93CF93DF93D091DB
:101A0000210381E0D13208F09CC0C09123030E94E1
:101A1000A1096B017C018091E10281116CC082E01F
:101A20008093E10281E08093E3028FEF8093E002F4
:101A300010920503D0930403A7E5B2E0E4EEF2E0D0
:101A400080E0D8138DC01092060380910603CC0F5E
:101A5000C82BC09306038091E202813009F084C054
:101A60001092E2020E94A1096B017C0180910603A1
:101A70008093BB008091980290919902A0919A0264
:101A8000B0919B02892B8A2B8B2BA1F00E94A1097C
:101A9000009198021091990220919A0230919B0234
:101AA0006C197D098E099F09061717072807390742
:101AB00008F442C08091BC0083FDD8CF85EC8093B0
:101AC000BC000E94A1096B017C018091E10282307F
:101AD00009F44CC08091E0028F3F09F469C0809105
:101AE000E002803209F466C08091E002803309F49C
:101AF00063C084E026C08091980290919902A091E1
:101B00009A02B0919B02892B8A2B8B2B09F483CFED
:101B10000E94A109009198021091990220919A02C5
:101B200030919B026C197D098E099F0906171707D2
:101B30002807390708F06FCF809197020E94510C57
:101B400085E0109222031092210310922403DF916A
:101B5000CF911F910F91FF90EF90DF90CF9008955C
:101B60009D9191938F5F6DCF85EEA9CF8091980263
:101B700090919902A0919A02B0919B02892B8A2B95
:101B80008B2B09F4A2CF0E94A10900919802109119
:101B9000990220919A0230919B026C197D098E095D
:101BA0009F09061717072807390708F08ECFC4CFFB
:101BB00080E0C7CF82E0C5CF83E0C3CFEF92FF9232
:101BC0000F931F93CF93DF93EC01EC80FD806E1594
:101BD0007F050CF070C057FF04C0240F351F50E084
:101BE00040E08E819F81FA01E20FF31F8E179F075D
:101BF0001CF49C01241B350B121613060CF05BC061
:101C0000922F842F8695869586958E9DD0018F9DE7
:101C1000B00D11246A0F7B1FAF8DB8A1A60FB71F9F
:101C2000477049F188E0841B482F682F70E0FB0162
:101C3000E258F14FE491281708F063C0621B710964
:101C40002FEF30E002C0359527956A95E2F7E22341
:101C50000130110539F0B0F10230110561F58C91B8
:101C6000E82702C08C91E82BEC93941720F12C818B
:101C70003D81A20FB31FE92FE41BE83078F002305A
:101C8000110521F58E2F9C9190959C932C813D817F
:101C9000A20FB31F88508830B0F7E770EE2359F0D9
:101CA000F0E0EA58F14FE49101301105F9F010F13C
:101CB0000230110519F1DF91CF911F910F91FF9023
:101CC000EF900895E0958C91E823CECF81E0011547
:101CD000110509F480E081959E2F8C932C813D8124
:101CE000A20FB31F98509830C0F7D7CF8C91E82B34
:101CF000EC93E1CFE0958C91E823FACF8C91E82723
:101D0000F7CF0130110509F4ADCFE0F20230110533
:101D100009F4A5CFAE0DBF1DAECF0F931F93CF9388
:101D2000DF9377FF04C0260F371F70E060E0DC010F
:101D30001496CD91DC91FB01E20FF31FCE17DF0764
:101D40001CF49E01261B370B121613064CF5FA01E4
:101D500057FD3796A3E0F595E795AA95E1F7EC9F37
:101D6000D001ED9FB00DFC9FB00D11246A0F7B1FB9
:101D7000DC015F96ED91FC91E60FF71F4770552748
:101D800081E090E001C0880F4A95EAF7482F0130C2
:101D9000110559F0A8F02E0F3F1F02301105E1F098
:101DA000DF91CF911F910F9108952E0F3F1FE217E2
:101DB000F307B1F38191DF011197842B8C93F7CF57
:101DC00080952E0F3F1FE217F30751F39191DF012A
:101DD000119798239C93F7CFE217F30709F38191AA
:101DE000DF01119784278C93F7CF0F931F93FA018C
:101DF000DC0156964C9156974230E9F04330A1F100
:101E0000413061F514964D915C91DA01AE1BBF0B28
:101E1000FD01E21BF30B77FD0BC0DC0116964D9123
:101E20005C916417750724F4AB01BF010E948D0E0D
:101E30001F910F91089514964D915C91DA01A61BA4
:101E4000B70BBD0161507109DC0116964D915C9193
:101E5000DA01AE1BBF0BFD01E21BF30B77FDE8CFF0
:101E6000AF010E94DE0DE4CF16964D915C91DA0130
:101E7000A61BB70BBD0161507109CDCF0F931F9306
:101E8000FA01DC0156964C9156974230A9F0433046
:101E900091F1413019F514964D915C91DA01AE1B28
:101EA000BF0BFD013197F7FD04C0AB01BF010E94DC
:101EB000DE0D1F910F91089514964D915C91DA01FA
:101EC000A61BB70BBD01DC0116964D915C91DA01A2
:101ED000AE1BBF0BFD013197621B730BF7FDE9CF02
:101EE000DC0116964D915C91E417F50714F7AF01EC
:101EF0000E948D0EDECF16964D915C91DA01A61BE5
:101F0000B70BBD01621B730BCECFFC0177FD64C024
:101F100080859185681779070CF05EC057FD5CC01D
:101F200082859385481759070CF056C08689823000
:101F3000B1F0833029F1813041F484819581841B93
:101F4000950BAB01BC01615071092130310509F1DC
:101F500008F443C02230310509F463C00895848138
:101F60009581DC01A61BB70BBD016150710986810B
:101F70009781DC01A41BB50BAD0141505109E5CFA0
:101F800086819781861B970BBA01AC01415051099C
:101F9000DCCFCA0157FD0796A3E095958795AA95D2
:101FA000E1F7A481B5818A9F90018B9F300D9A9FA4
:101FB000300D1124620F731F078CF0A1E02DE60F86
:101FC000F71F4770552721E030E001C0220F4A95E6
:101FD000EAF78081822B80830895CA0157FD079616
:101FE00033E0959587953A95E1F7A481B5818A9F6D
:101FF00090018B9F300D9A9F300D1124620F731F3B
:10200000078CF0A1E02DE60FF71F4770552781E000
:1020100090E001C0880F4A95EAF780959081892366
:10202000DACFCA0157FD079623E0959587952A9543
:10203000E1F7A481B5818A9F90018B9F300D9A9F13
:10204000300D1124620F731F078CF0A1E02DE60FF5
:10205000F71F4770552721E030E001C0220F4A9555
:10206000EAF780818227B7CF08958EBD00000DB4B6
:1020700007FEFDCF8EB50895FF920F931F93CF9368
:10208000DF93F82ED92FC62F8091EF039091F003A4
:10209000009709F452C02091F30331E030932403F8
:1020A000209323031092220310922103DC01ED916F
:1020B000FC910190F081E02D60E009950F2D1D2F1E
:1020C000D1E0FF24F394C1508091EF039091F0038D
:1020D000CF3F61F1D032C8F00E94F70C8091EF033E
:1020E0009091F0032091F303F092240320932303B3
:1020F0001092220310922103DC01ED91FC910190DA
:10210000F081E02D60E00995D1E08091EF0390919E
:10211000F003F8016491DC01ED91FC910190F081F4
:10212000E02D0995DF5F0F5F1F4FCDCFDF91CF917E
:102130001F910F91FF900C94F70CE091FF03F09129
:1021400000049081809105048095892380830F2D60
:102150001D2FC15008F438C0F80184912091ED037F
:102160003091EE03232B29F00E9435100F5F1F4F93
:10217000F0CF28E030E040E8E091FB03F091FC0371
:1021800090910304582F5423D9F05081952B9083BC
:10219000E091FD03F091FE03908150910404952B92
:1021A0009083E091FD03F091FE035081909104042F
:1021B000909595239083469521503109E9F6D6CF25
:1021C000508190959523E3CFDF91CF911F910F918F
:1021D000FF9008951F93CF93DF93EC018D8D9E8D1B
:1021E000009721F1162F29A131E030932403209389
:1021F00023031092220310922103DC01ED91FC9144
:102200000190F081E02D60E009958D8D9E8DDC01BF
:10221000ED91FC910190F081E02D612F09958D8D5C
:102220009E8DDF91CF911F910C94F70CADA5BEA5AB
:102230009C918BA9809589238C938B8D9C8D892B68
:1022400031F0862FDF91CF911F910C94351028E04B
:1022500030E080E8A9A5BAA599A9462F4823C1F086
:102260004C91942B9C93ABA5BCA59C914AA9942B13
:102270009C93ABA5BCA54C919AA9909594239C9353
:1022800086952150310931F7DF91CF911F91089543
:102290004C9190959423E6CF8CBD9DBD0895EF920F
:1022A000FF920F931F93CF93DF938091EF03909151
:1022B000F003892B09F493C020910704309108049E
:1022C0004091090450910A0460E074E284EF90E0C8
:1022D0000E94E63C20513109410951095695479524
:1022E000379527952093B80065E086EB9EE00E9425
:1022F0003C106091D603615082ED93E00E94EA1099
:102300002091D8033091D903C901079697FD07960C
:1023100023E0959587952A95E1F72091D603309192
:10232000D703829F8001839F100D929F100D11246F
:10233000C091F103D091F2038091EF039091F003EB
:102340000C0F1D1F009709F489C02091F30331E0A1
:10235000309324032093230310922203109221032D
:10236000DC01ED91FC910190F081E02D60E4099594
:10237000FF24F394EE24E3948091EF039091F00313
:102380000C171D0709F442C0BFE1BF15D0F40E942D
:10239000F70C8091EF039091F0032091F303E0920A
:1023A0002403209323031092220310922103DC01C3
:1023B000ED91FC910190F081E02D60E40995FF24FE
:1023C000F3948091EF039091F0036991DC01ED911A
:1023D000FC910190F081E02D0995F394CDCF80918F
:1023E000ED039091EE03892B31F0809110049091D0
:1023F00011040E944C11E0910104F09102049081BB
:10240000809106048095892380836ECF0E94F70C0B
:102410008091EF039091F003892B09F460C0209123
:102420000B0430910C0440910D0450910E0460E0B7
:1024300074E284EF90E00E94E63C205131094109AA
:10244000510956954795379527952093B800DF9108
:10245000CF911F910F91FF90EF900895E091FF03AE
:10246000F0910004808190910504892B80830C17E2
:102470001D0771F289912091ED033091EE03232B1A
:1024800019F00E943510F3CF28E030E040E8E091E9
:10249000FB03F091FC0390910304582F5423D9F0CF
:1024A0005081952B9083E091FD03F091FE03908184
:1024B00050910404952B9083E091FD03F091FE036D
:1024C00050819091040490959523908346952150D6
:1024D0003109E9F6CCCF508190959523E3CFE09177
:1024E0000104F0910204808190910604892B80837D
:1024F000AECF1F93CF93DF93EC01162F8D8D9E8D62
:10250000892BB1F12DA93EA94FA958AD60E074E225
:1025100084EF90E00E94E63C2051310941095109C5
:1025200056954795379527952093B80066EA11117F
:1025300067EACE010E94EA108D8D9E8D892B41F1B4
:1025400029AD3AAD4BAD5CAD60E074E284EF90E054
:102550000E94E63C205131094109510956954795A1
:10256000379527952093B800DF91CF911F9108955B
:102570008B8D9C8D892B21F08EAD9FAD0E944C11CF
:10258000EFA5F8A990818CA9809589238083CECF6F
:10259000EFA5F8A980819CA9892B8083E5CF0895B8
:1025A000FC016370668B848195812681378161305F
:1025B00039F0633029F09187808733872287089527
:1025C000318720879387828708952F923F924F9279
:1025D0005F926F927F928F929F92AF92BF92CF92B3
:1025E000DF92EF92FF920F931F93CF93DF93CDB7BC
:1025F000DEB76A970FB6F894DEBF0FBECDBF9A8FD5
:10260000898F7A8369834A01D22E18870F83370115
:10261000BC2CDC0159962D913C915A97211531051E
:1026200009F015C118968D919C9119976817790733
:102630000CF0D7C11A968D919C91481759070CF050
:10264000D0C14C2C512CB6E0CB9E600D711D1124D5
:102650007C876B87161617060CF0C3C1EA2DF0E0D5
:10266000FA87E98793E0EE0FFF1F9A95E1F7F88B61
:10267000EF87CF01840F951F181619060CF0B1C112
:10268000A98DBA8D58968C91811104C0BFEABD15F1
:1026900008F4D394A98DBA8DED91FC911197028421
:1026A000F385E02DCD010995B5E0DB9EC001112435
:1026B000E981FA81FC83EB83312C212C9C012A587F
:1026C000364F388F2F8B4A2D50E05E8B4D8BEF8924
:1026D000F88DE20DF31D44919E828D82D12CC12C88
:1026E00069817A81620D731D7A8B698B842F90E0EA
:1026F0009C8B8B8BE98DFA8DA081B18140FF82C0CC
:10270000F1E0BF126FC0AF126DC01C96ED91FC914D
:102710002F813885A4014C0D5D1D69897A89898DC9
:102720009A8D0995EB89FC89F595E7954E2F5FEF1A
:10273000C51AD50A6D817E818D899E89680F791FA2
:102740007E836D8398E0C916D10481F6AFEF2A1A13
:102750003A0AEB81FC81E40DF51DFC83EB83F5E087
:102760002F16310409F0B3CF2F8138852615370590
:10277000B9F0A98DBA8DED91FC91B1E0BB1257C0B3
:10278000AB1255C069817A816B5F7F4F0088F189F8
:10279000E02D830128E030E0A401898D9A8D099510
:1027A000A98DBA8DED91FC9111970688F789E02DDE
:1027B000CD016A960FB6F894DEBF0FBECDBFDF9194
:1027C000CF911F910F91FF90EF90DF90CF90BF902E
:1027D000AF909F908F907F906F905F904F903F90C1
:1027E0002F9009941E96ED91FC91EF80F884098555
:1027F0001A8592014D815E816B817C81898D9A8DD4
:10280000099590CF2F8138852615370509F48ACF91
:1028100031E0B31207C0A31205C01C96ED91FC91E4
:10282000930178CF1E96ED91FC917301E0CF6B85FB
:102830007C85641975090684F785E02D73010F8581
:1028400018899201A401898D9A8D0995A9CFF90162
:1028500034969491329745915491D91AB7E0DB9E02
:10286000400D511D1124F901259134913C8B2B8B86
:10287000FA0125903490FA01329674903196349191
:10288000398B329664903196449041E04C1518F0A3
:102890004A1508F07FC0662D062C000C770B7C8350
:1028A0006B83842D042C000C990B9E838D83A98D42
:1028B000BA8DED91FC9111970284F385E02DCD0145
:1028C0000995512CD12CC12CEA2DF0E0FA87E9872B
:1028D0002B2D30E03C872B87A401440D511D47FC74
:1028E0005A95588F4F8B69817A81660D711D67FCEF
:1028F0007A957E876D877989C71608F051CF2C2D80
:1029000030E04D815E81420F531FA985BA854A9FF1
:10291000C0014B9F900D5A9F900D1124FC01E80DB2
:10292000F91DF88BEF87852D612C4F89588D420F4B
:10293000531F5E8B4D8B671408F050C044244394A2
:10294000480E877041F4C1010196EB89FC89E20DC4
:10295000F31DD4901C01D7FE19C0A98DBA8DED913D
:10296000FC91662D70E0B1E0BB1219C0AB1217C02C
:102970002D853E85620F731F0484F585E02D2F8120
:1029800038854D895E89898D9A8D0995DD0C639412
:10299000842DD1CF1E821D821C821B8288CF4B8149
:1029A0005C81640F751FAB85BC856A9FC0016B9FFE
:1029B000900D7A9F900D112469817A81680F791F9B
:1029C0000684F785E02DEF80F88409851A859D013E
:1029D0004F855889898D9A8D0995D8CF570CC39406
:1029E0008ACF6A960FB6F894DEBF0FBECDBFDF91D7
:1029F000CF911F910F91FF90EF90DF90CF90BF90FC
:102A0000AF909F908F907F906F905F904F903F908E
:102A10002F9008958F929F92AF92CF92EF92FF9254
:102A20000F931F93CF93DF93EC01262F898D9A8DFF
:102A3000009709F051C06A30D1F41D861C868D893B
:102A400048E0849F900111248E859F85820F931FFB
:102A50009F878E8781E090E0DF91CF911F910F914A
:102A6000FF90EF90CF90AF909F908F9008956D3032
:102A700089F3CC88AD888F898823C1F08C859D85AA
:102A800036E0C39E800D911D112448855985481755
:102A9000590764F44E855F851D861C8638E0A39E29
:102AA000C0011124840F951F9F878E87EA88FB88B9
:102AB000088919894E855F856C857D85CE010E94C8
:102AC000E5122C898C859D8546E0249F800D911D03
:102AD00011249D878C87BECF6A3069F41D861C86C1
:102AE000FC013896E4912D898E859F85E29F800DAB
:102AF000911D1124ADCF6D3009F4ACCFFC0134969B
:102B00003491631708F4A6CF3296E491E61708F4DF
:102B1000A1CFFC01329685909490462F431B342F11
:102B200047E0349F800C911C1124F40132963491BB
:102B30003196E4913323A9F1EE2399F1CC88F40185
:102B40003596E491AD884F89442301F10E2E000C97
:102B5000FF0BE30FF11DCE9EA001CF9E500D11245F
:102B60006C857D85460F571F6885798564177507C5
:102B70006CF44E855F851D861C86FC013896E491B9
:102B8000AE9E400D511D11245F874E87EA88FB8859
:102B9000088919894E855F856C857D85CE010E94E7
:102BA000E512F4013496E4912C898C859D85E29F91
:102BB000800D911D11248DCF6F927F928F929F92E5
:102BC000AF92BF92CF92DF92EF92FF920F931F933B
:102BD000CF93DF93EC016B015A0139014801E88181
:102BE000F9810284F385E02D0995E881F981028855
:102BF000F389E02D87019301A501B601CE01099566
:102C0000A501480D591D41505109E881F9810288FB
:102C1000F389E02D9301B601CE010995E881F98190
:102C20000088F189E02D9401A501B601CE01099536
:102C3000C60CD71CB60161507109E881F981008882
:102C4000F189E02D9401A501CE010995E881F98172
:102C50000688F789E02DCE01DF91CF911F910F916A
:102C6000FF90EF90DF90CF90BF90AF909F908F90AC
:102C70007F906F9009946F927F928F929F92AF9204
:102C8000BF92CF92DF92EF92FF920F931F93CF9359
:102C9000DF935C01EB016A01490138018701DC0126
:102CA000ED91FC916217730719F5641675062CF007
:102CB000962D872D3A01C92ED82E9601261937094F
:102CC0002F5F3F4F048CF58DE02DA301BE01C501A0
:102CD0000995DF91CF911F910F91FF90EF90DF90B9
:102CE000CF90BF90AF909F908F907F906F900895FE
:102CF0004615570591F42617370724F0892D4B0107
:102D0000C22FD82F9E01281939092F5F3F4F068CFB
:102D1000F78DE02DA601B401DACF0284F385E02D12
:102D20000995D501ED91FC910488F589E02D830189
:102D30009401A601BE01C5010995D501ED91FC9153
:102D40000688F789E02DC501DF91CF911F910F9182
:102D5000FF90EF90DF90CF90BF90AF909F908F90BB
:102D60007F906F900994EF92FF920F931F93DC0175
:102D70001A960D911C911B9718962D913C911997BD
:102D8000ED91FC9100A0F1A1E02D7B0150E040E02D
:102D900070E060E009951F910F91FF90EF9008950A
:102DA0004F925F926F927F928F929F92AF92BF925B
:102DB000CF92DF92EF92FF920F931F93CF93DF9307
:102DC0006C012B015A0139014801DC01ED91FC91A4
:102DD0000284F385E02D0995E201640C751CD6018F
:102DE000ED91FC91C615D7055CF40088F189E02DC2
:102DF00087019401A501BE01C60109952196EFCF77
:102E00000688F789E02DC601DF91CF911F910F91C0
:102E1000FF90EF90DF90CF90BF90AF909F908F90FA
:102E20007F906F905F904F9009948F929F92AF9296
:102E3000BF92CF92DF92EF92FF920F931F93CF93A7
:102E4000DF93EC015B014A016901E881F9810284A9
:102E5000F385E02D099595012C0D3D1D215031097B
:102E6000E881F9810488F589E02D78018401A401C5
:102E7000B501CE010995E881F9810688F789E02D31
:102E8000CE01DF91CF911F910F91FF90EF90DF90D6
:102E9000CF90BF90AF909F908F9009948F929F9208
:102EA000AF92BF92CF92DF92EF92FF920F931F9358
:102EB000CF93DF93EC015B014A0169017801E8815E
:102EC000F9810284F385E02D0995C80CD91C86018F
:102ED00001501109E881F9810488F589E02D9501F7
:102EE000A401B501CE010995E881F9810688F78929
:102EF000E02DCE01DF91CF911F910F91FF90EF90C8
:102F0000DF90CF90BF90AF909F908F900994EF92F9
:102F1000FF920F931F93DC01ED91FC9100A0F1A1B2
:102F2000E02D09951F910F91FF90EF9008950F9359
:102F30001F93DC01ED91FC91068CF78DE02D099536
:102F40001F910F9108950F931F93DC01ED91FC9158
:102F5000048CF58DE02D09951F910F910895DC01EA
:102F6000ED91FC910084F185E02D09943F924F9200
:102F70005F926F927F928F929F92AF92BF92CF9209
:102F8000DF92EF92FF920F931F93CF93DF9300D0C6
:102F900000D0CDB7DEB75C013B016A0149012801D1
:102FA00087E0480E511C93E0559447949A95E1F7B9
:102FB000CA018E0D9F1D9A838983F12CE12C312C3F
:102FC0001C821B828B819C8187709927330C892BF3
:102FD00061F4EB81FC8183E0F595E7958A95E1F753
:102FE000EE0DFF1DE80DF91D349037FE0AC021E0FB
:102FF00030E0A6016B817C81660D771DC5010E94C2
:10300000AF178B819C8101969C838B8308171907CE
:10301000C9F69FEFC91AD90AE40CF51C89819A8177
:10302000C816D90669F60F900F900F900F90DF9198
:10303000CF911F910F91FF90EF90DF90CF90BF90B5
:10304000AF909F908F907F906F905F904F903F9048
:1030500008952F923F924F925F926F927F928F923C
:103060009F92AF92BF92CF92DF92EF92FF920F9317
:103070001F93CF93DF9300D000D000D0CDB7DEB741
:103080003C016A013E832D83FC82EB825801A41A25
:10309000B50AB7FE03C0B194A194B1088D809E809B
:1030A000861A970A97FE03C09194819491088A1416
:1030B0009B045CF0902F812F0D811E819D838E8358
:1030C0009C2D8D2D6B01692F782F0C151D055CF043
:1030D0009D818E817E836D83692F782F902F812F24
:1030E0008601C92ED82E1601201A310A2B012D81F6
:1030F0003E81421A530A57FE03C05194419451082D
:10310000710137FE03C03FEFE31AF30AF594E79429
:103110008D819E81861797075CF5A1E0B0E0BA83A8
:10312000A983C016D1064CF1D301ED91FC91048422
:10313000F585E02D2B813C81A8016D817E818A146B
:103140009B041CF04D815E81B801C3010995E41810
:10315000F508F7FE0AC02D813E8189819A81280FEA
:10316000391F3E832D83E20CF31C0F5F1F4FD9CF15
:103170002FEF3FEF3A832983D4CF26960FB6F894EA
:10318000DEBF0FBECDBFDF91CF911F910F91FF909A
:10319000EF90DF90CF90BF90AF909F908F907F90F7
:1031A0006F905F904F903F902F900895089590E01A
:1031B00080E008952091D8033091D903C901079682
:1031C00097FD079623E0959587952A95E1F720913D
:1031D000D6033091D703829FA001839F500D929F09
:1031E000500D112470E060E08091F1039091F203A2
:1031F0000C94383EEF92FF920F931F930E94DA18BF
:1032000089E0E82EF12C0EE110E022E539E050E0F3
:1032100040E063E370E082ED93E00E94B61799E12D
:10322000E92EF12C0CE010E020E239E045E050E01E
:103230006CE270E082ED93E00E94B61729E0E22E86
:10324000F12C0EE110E022E539E04BE150E060E3C3
:1032500070E082ED93E00E94B61739E1E32EF12C85
:103260000CE010E020E239E040E250E069E270E07A
:1032700082ED93E00E94B61720E239E040E250E090
:1032800065E470E082ED93E00E94B6171F910F9104
:10329000FF90EF900C944F11EF92FF920F931F93BA
:1032A0000E94DA1889E0E82EF12C0EE110E022E508
:1032B00039E050E040E063E370E082ED93E00E948B
:1032C000B61799E1E92EF12C0CE010E020E239E08C
:1032D00045E050E06CE270E082ED93E00E94B617AA
:1032E00029E0E22EF12C0EE110E022E539E04BE17D
:1032F00050E060E370E082ED93E00E94B61739E1A0
:10330000E32EF12C0CE010E020E239E040E250E046
:1033100065E470E082ED93E00E94B61749E0E42E88
:10332000F12C0EE110E022E539E046E350E06DE2D9
:1033300070E082ED93E00E94B6171F910F91FF900D
:10334000EF900C944F11EF92FF920F931F930E94F6
:10335000DA1889E1E82EF12C0CE010E020E239E0E7
:1033600045E050E06CE270E082ED93E00E94B61719
:1033700020E239E045E050E068E470E082ED93E05F
:103380000E94B61799E0E92EF12C0EE110E022E53B
:1033900039E04BE150E060E370E082ED93E00E94A1
:1033A000B61729E1E22EF12C0CE010E020E239E022
:1033B00040E250E065E470E082ED93E00E94B617D1
:1033C0001F910F91FF90EF900C944F11EF92FF928D
:1033D0000F931F930E94DA1889E0E82EF12C0EE17A
:1033E00010E022E539E050E040E063E370E082ED78
:1033F00093E00E94B61799E1E92EF12C0CE010E061
:1034000020E239E045E050E068E470E082ED93E0CE
:103410000E94B61729E0E22EF12C0EE110E022E521
:1034200039E04BE150E060E370E082ED93E00E9410
:10343000B61739E1E32EF12C0CE010E020E239E080
:1034400040E250E065E470E082ED93E00E94B61740
:1034500049E0E42EF12C0EE110E022E539E046E3EC
:1034600050E06DE270E082ED93E00E94B6171F918C
:103470000F91FF90EF900C944F11EF92FF920F93EA
:103480001F930E94DA1889E0E82EF12C0EE110E07B
:1034900022E539E050E040E063E370E082ED93E044
:1034A0000E94B61799E1E92EF12C0CE010E020E221
:1034B00039E045E050E068E470E082ED93E00E947E
:1034C000B61729E0E22EF12C0EE110E022E539E0FA
:1034D0004BE150E060E370E082ED93E00E94B617AC
:1034E00039E1E32EF12C0CE010E020E239E040E27B
:1034F00050E069E270E082ED93E00E94B61749E087
:10350000E42EF12C0EE110E022E539E046E350E034
:103510006DE270E082ED93E00E94B6171F910F916B
:10352000FF90EF900C944F11EF92FF920F931F9327
:103530000E94DA1889E1E82EF12C0CE010E020E27C
:1035400039E045E050E068E470E082ED93E00E94ED
:10355000B61720E239E040E250E065E470E082ED29
:1035600093E00E94B6171F910F91FF90EF900C947B
:103570004F1180911302811116C040911604509191
:10358000170470E060E080911B0490911C040E947D
:10359000383E0E94C60981E0809313028091120296
:1035A0008093110208958130E9F7809118034091CA
:1035B000170350E070E060E0762F652F542F44270A
:1035C000682B80913C01482B90E080E00E94A3078B
:1035D000809118034091170350E070E060E0762F6F
:1035E000652F542F4427682B80913C01482B81E0A4
:1035F00090E00E94A307809118034091170350E0C8
:1036000070E060E0762F652F542F4427682B80915F
:103610003C01482B82E090E00E94A30780911803B0
:103620004091170350E070E060E0762F652F542F33
:103630004427682B80913C01482B83E090E00E9456
:10364000A307809118034091170350E070E060E0F9
:10365000762F652F542F4427682B80913C01482BEF
:1036600084E090E00E94A3070E94C6091092130212
:1036700095CF0E94333EFB0101900020E9F731977E
:10368000AF01461B570BDC01ED91FC910280F381E9
:10369000E02D09948F929F92AF92BF92EF92FF928A
:1036A0000F931F93CF93DF93CDB7DEB7A1970FB6DC
:1036B000F894DEBF0FBECDBF7C01FA01CB0119A289
:1036C000223008F42AE08E010F5D1F4F822E912CCC
:1036D000B12CA12CBF01A50194010E94E63CF90187
:1036E000CA016A300CF5605DD8016E938D01232B01
:1036F000242B252B79F790E080E0109721F0BD0175
:10370000C7010E943B1BA1960FB6F894DEBF0FBE07
:10371000CDBFDF91CF911F910F91FF90EF90BF90A0
:10372000AF909F908F900895695CDECFCF92DF922B
:10373000EF92FF920F931F93CF93DF93EC016A01F7
:103740007B01E881F9810190F081E02D6DE209951E
:103750008C0144275527BA014C195D096E097F0970
:103760002AE0CE010E944A1B800F911FDF91CF916A
:103770001F910F91FF90EF90DF90CF900895AB01D4
:10378000770F660B770B77FD0C94961B2AE00C9451
:103790004A1B4F925F926F927F928F929F92AF924D
:1037A000BF92CF92DF92EF92FF920F931F93CF932E
:1037B0006B017C01742EAC019B010E94E13C6BE922
:1037C00071E0811126C046015701E894B7F82FEF48
:1037D0003FEF4FE75FE7C501B4010E94E13C811173
:1037E0000CC02FEF3FEF4FE75FE7C501B4010E9428
:1037F000813A6FE971E0181664F02FEF3FEF4FE761
:103800005FE4C701B6010E94DC3C1816ACF463EA21
:1038100071E082ED93E0CF911F910F91FF90EF90B7
:10382000DF90CF90BF90AF909F908F907F906F90E0
:103830005F904F900C943B1B2FEF3FEF4FE75FECF7
:10384000C701B6010E94813A87FDE1CF20E030E058
:10385000A901C701B6010E94813A10E000E087FF8C
:103860000AC06DE282ED93E00E940A158C01F7FA1E
:10387000F094F7F8F094C0E060E070E080E09FE33F
:103880007C1641F020E030E040E251E40E94343CFC
:10389000CF5FF6CFA70196010E94C83B2B013C01E8
:1038A0000E94AD3C4B015C012AE0BC01A40182ED09
:1038B00093E00E944A1B7C01E00EF11ECC23D1F163
:1038C000C501B4010E94863A9B01AC01C301B2015B
:1038D0000E94C73B4B015C016EE282ED93E00E94C7
:1038E0000A15E80EF91EC15028F120E030E040E250
:1038F00051E4C501B4010E94E73A2B013C010E944A
:10390000AD3C4B01B12CA12C2AE0B501A40182ED04
:1039100093E00E944A1BE80EF91EC501B4010E9403
:10392000863A9B01AC01C301B2010E94C73B4B0127
:103930005C01D9CFC701CF911F910F91FF90EF90FC
:10394000DF90CF90BF90AF909F908F907F906F90BF
:103950005F904F90089542E00C94C91BCF93DF9382
:1039600042E00E94C91BEC0167EA71E082ED93E03E
:103970000E943B1B8C0F9D1FDF91CF910895BC01CE
:1039800082ED93E00C943B1B0F931F93CF93DF9337
:10399000EC01462F50E070E060E02AE00E944A1BF4
:1039A0008C0167EA71E0CE010E943B1B800F911FE2
:1039B000DF91CF911F910F9108950F931F93CF9394
:1039C000DF93EC010E94BF1B8C0167EA71E0CE011E
:1039D0000E943B1B800F911FDF91CF911F910F9190
:1039E00008950F931F93CF93DF93EC010E943B1B2D
:1039F0008C0167EA71E0CE010E943B1B800F911F92
:103A0000DF91CF911F910F91089585ED8093BC00B8
:103A10008091980290919902A0919A02B0919B0294
:103A20000796A11DB11D23E0B695A795979587959B
:103A30002A95D1F72091BC0024FD03C01092E10229
:103A40000895409198025091990260919A02709164
:103A50009B02452B462B472B69F30097A105B10527
:103A600041F02AE22A95F1F700C00197A109B109B6
:103A7000E1CF809197020C94510CCF93DF93EB012F
:103A80000E94A53B8883CE01DF91CF910895CF930B
:103A9000DF930E94DA1881E08093E6038093E703C6
:103AA00081E090E09093E5038093E4039093E30337
:103AB0008093E2031092DF031092DE031092E10381
:103AC0001092E0038091560281114CC01092E303E2
:103AD0001092E203EAE1F9E0659174918DE392E0DE
:103AE0000E947A3A8DE392E00E94BF1C80913C02D2
:103AF000ECE4F8E0882321F0813071F4EAE4F8E0A6
:103B0000659174918DE392E00E947A3A6DE372E0E0
:103B100082ED93E00E94F11C81E090E09093E3033A
:103B20008093E2031092E5031092E403ECE1F9E0E4
:103B3000659174918DE392E00E947A3A6DE372E0B0
:103B400082ED93E00E94F11CEEE1F9E06591749141
:103B50008DE392E00E947A3A6DE372E082ED93E0A9
:103B60000E94F11C80915602813009F050C0EAE1B8
:103B7000F9E0659174918DE392E00E947A3A8DE3C9
:103B800092E00E94BF1C80913C02ECE4F8E08823A4
:103B900021F0813071F4EAE4F8E0659174918DE3ED
:103BA00092E00E947A3A6DE372E082ED93E00E9427
:103BB000F11C1092E3031092E203C1E0D0E0D09335
:103BC000E503C093E403ECE1F9E0659174918DE3C2
:103BD00092E00E947A3A6DE372E082ED93E00E94F7
:103BE000F11CD093E303C093E2031092E50310921B
:103BF000E403EEE1F9E0659174918DE392E00E94B7
:103C00007A3A6DE372E082ED93E00E94F11C8091BC
:103C10005602823009F050C0EAE1F9E065917491F2
:103C20008DE392E00E947A3A8DE392E00E94BF1CFD
:103C300080913C02ECE4F8E0882321F0813071F4BB
:103C4000EAE4F8E0659174918DE392E00E947A3A9B
:103C50006DE372E082ED93E00E94F11CECE1F9E08B
:103C6000659174918DE392E00E947A3A6DE372E07F
:103C700082ED93E00E94F11C1092E3031092E203A4
:103C8000C1E0D0E0D093E503C093E403EEE1F9E0B6
:103C9000659174918DE392E00E947A3A6DE372E04F
:103CA00082ED93E00E94F11CD093E303C093E20302
:103CB0001092E5031092E403DF91CF910C944F1121
:103CC000CF93DF930E94DA1881E08093E60380931C
:103CD000E703C1E0D0E0D093E503C093E403D093C1
:103CE000E303C093E2031092DF031092DE0310920D
:103CF000E1031092E003E8E6F8E0659174918DE34A
:103D000092E00E947A3A6DE372E082ED93E00E94C5
:103D1000F11C80913B02873008F026C1811108C058
:103D20001092E3031092E203D093E503C093E403FF
:103D3000C2E6D8E0FE01659174918DE392E00E94A5
:103D40007A3A8DE392E00E94BF1CE0E5F8E06591CD
:103D500074918DE392E00E947A3A6DE372E082ED15
:103D600093E00E94F11C81E090E09093E303809344
:103D7000E2031092E5031092E40320913B0221300C
:103D800041F41092E3031092E2039093E5038093D1
:103D9000E403FE01659174918DE392E00E947A3A0A
:103DA0008DE392E00E94BF1CE2E5F8E0659174911A
:103DB0008DE392E00E947A3A6DE372E082ED93E047
:103DC0000E94F11C81E090E09093E3038093E20372
:103DD0001092E5031092E40320913B02223041F45B
:103DE0001092E3031092E2039093E5038093E403BF
:103DF000E4E6F8E0659174918DE392E00E947A3AEE
:103E00006DE372E082ED93E00E94F11C81E090E0AE
:103E10009093E3038093E2031092E5031092E4038E
:103E200020913B02233041F41092E3031092E2030D
:103E30009093E5038093E403E0E7F8E065917491E3
:103E40008DE392E00E947A3A6DE372E082ED93E0B6
:103E50000E94F11C81E090E09093E3038093E203E1
:103E60001092E5031092E40320913B02243041F4C8
:103E70001092E3031092E2039093E5038093E4032E
:103E8000E6E7F8E0659174918DE392E00E947A3A5A
:103E90006DE372E082ED93E00E94F11C81E090E01E
:103EA0009093E3038093E2031092E5031092E403FE
:103EB00020913B02253041F41092E3031092E2037B
:103EC0009093E5038093E403EAE7F8E06591749149
:103ED0008DE392E00E947A3A8DE392E00E94BF1C4B
:103EE00080913A02EAE4F8E0813011F0ECE4F8E085
:103EF000659174918DE392E00E947A3A6DE372E0ED
:103F000082ED93E00E94F11C81E090E09093E30346
:103F10008093E2031092E5031092E40320913B02A8
:103F2000263041F41092E3031092E2039093E503EC
:103F30008093E403EEE7F8E0659174918DE392E0FD
:103F40000E947A3A8DE392E00E94BF1C81E090E0EB
:103F50009093E3038093E2031092E5031092E4034D
:103F6000DF91CF910C944F11873041F41092E3030D
:103F70001092E203D093E503C093E403EEE8F8E087
:103F8000659174918DE392E00E947A3A6DE372E05C
:103F900082ED93E00E94F11C81E090E09093E303B6
:103FA0008093E2031092E5031092E40320913B0218
:103FB000283041F41092E3031092E2039093E5035A
:103FC0008093E403E0ECF8E0659174918DE392E076
:103FD0000E947A3A6DE372E082ED93E00E94F11C58
:103FE00081E090E09093E3038093E2031092E50375
:103FF0001092E40320913B02293041F41092E30334
:104000001092E2039093E5038093E403E6ECF8E07A
:10401000659174918DE392E00E947A3A6DE372E0CB
:1040200082ED93E00E94F11C81E090E09093E30325
:104030008093E2031092E5031092E40320913B0287
:104040002A3041F41092E3031092E2039093E503C7
:104050008093E403E8ECF8E0659174918DE392E0DD
:104060000E947A3A6DE372E082ED93E00E94F11CC7
:1040700081E090E09093E3038093E2031092E503E4
:104080001092E40320913B022B3041F41092E303A1
:104090001092E2039093E5038093E403E6EFF8E0E7
:1040A000659174918DE392E00E947A3A6DE372E03B
:1040B00082ED93E00E94F11C81E090E09093E30395
:1040C0008093E2031092E5031092E40320913B02F7
:1040D0002C3041F41092E3031092E2039093E50335
:1040E0008093E403EAEFF8E0659174918DE392E048
:1040F0000E947A3A6DE372E082ED93E00E94F11C37
:1041000025CFEF92FF920F931F9380913902813058
:1041100009F098C08091380281112BC00E94DA18F2
:1041200085E08093E6038093E70381E090E090933D
:10413000E5038093E4039093E3038093E2031092FA
:10414000DF031092DE031092E1031092E003ECED26
:10415000F8E0659174918DE392E00E947A3A8DE3E4
:1041600092E00E94BF1C1F910F91FF90EF900C9462
:104170004F11813009F094C28091370281111CC027
:104180000E94DA1885E08093E6038093E70381E0DC
:1041900090E09093E5038093E4039093E30380938E
:1041A000E2031092DF031092DE031092E1031092FB
:1041B000E003EEEDF8E0CDCF813009F071C28091DF
:1041C000360281111CC00E94DA1885E08093E60354
:1041D0008093E70381E090E09093E5038093E4030C
:1041E0009093E3038093E2031092DF031092DE03C7
:1041F0001092E1031092E003E0EEF8E0AACF8130E4
:1042000009F04EC28091350281114AC20E94DA182B
:1042100085E08093E6038093E70381E090E090934C
:10422000E5038093E4039093E3038093E203109209
:10423000DF031092DE031092E1031092E003E2EE3E
:10424000F8E087CF80913402813009F051C080912D
:104250003302811106C01F910F91FF90EF900C94D3
:10426000941A813009F01CC280913202811106C07B
:104270001F910F91FF90EF900C943D1A813009F03F
:104280000FC280913102811106C01F910F91FF90E2
:10429000EF900C94E619813009F002C2809130024F
:1042A000811106C01F910F91FF90EF900C94A319FC
:1042B000813051F480912F02811106C01F910F911E
:1042C000FF90EF900C944C1980913002813009F0EE
:1042D000E7C180912F02813009F0E2C180912E0266
:1042E0008111DEC11F910F91FF90EF900C94FA188D
:1042F00020912C0230912D02121613060CF04CC0A6
:1043000090912B02913009F047C090913A02913080
:1043100009F042C0811140C080912A02813009F425
:104320009ACF823009F4A4CF833009F4AECF843021
:1043300009F4B8CF853009F4C1CF863099F28111E4
:10434000AFC10E94DA1899E0E92EF12C0EE110E0DD
:1043500022E539E04BE150E060E370E082ED93E06C
:104360000E94B61729E1E22EF12C0CE010E020E2C9
:1043700039E040E250E069E270E082ED93E00E94B3
:10438000B61720E239E040E250E065E470E082EDEB
:1043900093E00E94B617E7CE80912902813071F434
:1043A0000E94DA1880E4E82EF12C00E810E022E404
:1043B00034E050E040E070E060E0E9CF8091280216
:1043C00081113FC10E94DA1881E08093E603809357
:1043D000E70381E090E09093E5038093E4039093FA
:1043E000E3038093E2031092DF031092DE03109246
:1043F000E1031092E003E2E4F8E0659174918DE34B
:1044000092E00E947A3A8DE392E00E94BF1C809174
:104410002702EAE4F8E0813021F081110EC0ECE4DB
:10442000F8E0659174918DE392E00E947A3A6DE331
:1044300072E082ED93E00E94F11CE4E4F8E0659103
:1044400074918DE392E00E947A3A8DE392E00E94AB
:10445000BF1C80912602EAE4F8E0813021F081114E
:104460000EC0ECE4F8E0659174918DE392E00E9457
:104470007A3A6DE372E082ED93E00E94F11CE6E48B
:10448000F8E0659174918DE392E00E947A3A8DE3B1
:1044900092E00E94BF1C80912502EAE4F8E081309E
:1044A00021F081110EC0ECE4F8E0659174918DE388
:1044B00092E00E947A3A6DE372E082ED93E00E940E
:1044C000F11C81E08093E6038093E70381E090E0B4
:1044D0009093E5038093E4039093E3038093E203D6
:1044E000E8E4F8E0659174918DE392E00E947A3AF5
:1044F0008DE392E00E94BF1C609123027091240220
:1045000082ED93E00E94BF1BECE0F9E065917491AD
:104510008DE392E00E947A3A8DE392E00E94BF1C04
:104520006091220282ED93E00E94C41CE0E1F9E078
:10453000659174918DE392E00E947A3A8DE392E066
:104540000E94BF1C80912102EAE4F8E0813021F052
:1045500081110CC0ECE4F8E0659174918DE392E078
:104560000E947A3A8DE392E00E94BF1CEEE0F9E0EF
:10457000659174918DE392E00E947A3A8DE392E026
:104580000E94BF1C60911F027091200282ED93E097
:104590000E94DD1CE4E7F8E0659174918DE392E000
:1045A0000E947A3A8DE392E00E94BF1C60911D0246
:1045B00070911E0282ED93E00E94BF1B8BEA91E096
:1045C0000E94BF1CE6E0F9E0659174918DE392E0F2
:1045D0000E947A3A8DE392E00E94BF1C60911C0217
:1045E00082ED93E00E94C41CE2E0F9E065917491D1
:1045F0008DE392E00E947A3A8DE392E00E94BF1C24
:10460000609118027091190280911A0290911B0218
:104610000E94AB1C8AEA91E00E94BF1C2EE93FEE8B
:1046200047EA5DE3609114027091150280911602D1
:10463000909117020E94E73A0E94AB1CE4E0F9E077
:1046400088CD813069F50E94DA1882E08093E60314
:104650008093E70381E090E09093E5038093E40387
:104660009093E3038093E2038AE090E09093DF036A
:104670008093DE0389E190E09093E1038093E0036F
:10468000E2E1F9E0659174918DE392E00E947A3A5B
:104690008DE392E01F910F91FF90EF900C94BF1C5F
:1046A0001F910F91FF90EF900895CF92DF92EF92BC
:1046B000FF920F931F93CF93DF93909110028091FD
:1046C0001202891718F48F5F8093120280911202F0
:1046D000981718F481508093120285E293E00E94AB
:1046E000750845970CF49BC085E293E00E9453083F
:1046F00080930F028D3609F01DC785E293E00E947A
:10470000530880930E0285E293E00E945308809341
:104710003B0285E293E00E94530880930D0285E2FC
:1047200093E00E94530880930C0285E293E00E947C
:10473000530880930B0285E293E00E945308809314
:104740000A0285E293E00E9453088093090285E201
:1047500093E00E9453088093080285E293E00E9450
:1047600053088093070285E293E00E9453088093E8
:10477000060285E293E00E9453088093050285E2D9
:1047800093E00E9453088093560285E293E00E94D2
:1047900053088093040285E293E00E94530885E267
:1047A00093E00E9453088093030285E293E00E9405
:1047B0005308BC01990F880B990B0E94883A6093AB
:1047C00018027093190280931A0290931B0285E2DB
:1047D00093E00E945308BC01990F880B990B0E942B
:1047E000883A609314027093150280931602909396
:1047F000170285E293E00E94530880931C0285E231
:1048000093E00E9453088093220285E293E00E9485
:10481000530885E293E00E945308809328020E9487
:10482000D70A6B017C01C092C203D092C303E0920D
:10483000C403F092C503C09112028091B20190911D
:10484000B301A091B401B091B501A7019601281B55
:10485000390B4A0B5B0BDA01C90184369105A105BE
:10486000B10510F40C949F2CC63011F00C949F2CC1
:104870008091040281110AC0C092B201D092B301AA
:10488000E092B401F092B5010E94B91A8091AE0194
:104890009091AF01A091B001B091B101C81AD90AAD
:1048A000EA0AFB0A3AEFC316D104E104F10408F462
:1048B00038C680910E02811107C0C0910302C11158
:1048C0000C94C92D0E94812080910E02883299F4A7
:1048D0000E94DA1890E4E92EF12C00E810E022E4BE
:1048E00034E050E040E070E060E082ED93E00E9450
:1048F000B6170E944F118091230290912402892BB8
:1049000009F0FFC580910E028A3011F40E94601EEA
:1049100080910E02843109F0D6C10E94DA1881E03C
:104920008093E6038093E703C1E0D0E0D093E503F2
:10493000C093E403D093E303C093E2031092DF0338
:104940001092DE031092E1031092E00380910D02B9
:10495000811184C0E2E6F8E0659174918DE392E004
:104960000E947A3A8DE392E00E94BF1CE0E5F8E0F5
:10497000659174918DE392E00E947A3A6DE372E062
:1049800082ED93E00E94F11C80910C02811108C01D
:104990001092E3031092E203D093E503C093E40383
:1049A000E6E5F8E0659174918DE392E00E947A3A31
:1049B0006DE372E082ED93E00E94F11C81E090E0F3
:1049C0009093E3038093E2031092E5031092E403D3
:1049D00020910C02213041F41092E3031092E20383
:1049E0009093E5038093E403EAE5F8E06591749120
:1049F0008DE392E00E947A3A6DE372E082ED93E0FB
:104A00000E94F11C81E090E09093E3038093E20325
:104A10001092E5031092E40320910C02223041F43D
:104A20001092E3031092E2039093E5038093E40372
:104A3000EEE5F8E0659174918DE392E00E947A3A98
:104A40008DE392E00E94BF1C81E090E09093E3032D
:104A50008093E2031092E5031092E40380910D022B
:104A6000813009F086C0E2E6F8E0659174918DE34B
:104A700092E00E947A3A8DE392E00E94BF1CE2E548
:104A8000F8E0659174918DE392E00E947A3A6DE3CB
:104A900072E082ED93E00E94F11C80910C02811182
:104AA0000AC01092E3031092E20381E090E0909339
:104AB000E5038093E403E6E5F8E0659174918DE306
:104AC00092E00E947A3A6DE372E082ED93E00E94F8
:104AD000F11C81E090E09093E3038093E203109255
:104AE000E5031092E40320910C02213041F410926E
:104AF000E3031092E2039093E5038093E403EAE575
:104B0000F8E0659174918DE392E00E947A3A6DE34A
:104B100072E082ED93E00E94F11C81E090E09093BE
:104B2000E3038093E2031092E5031092E4032091E3
:104B30000C02223041F41092E3031092E2039093AE
:104B4000E5038093E403EEE5F8E0659174918DE36D
:104B500092E00E947A3A8DE392E00E94BF1C81E0CD
:104B600090E09093E3038093E2031092E5031092A8
:104B7000E40380910D02823011F0853091F510929E
:104B8000DF031092DE0389E190E09093E1038093CC
:104B9000E003E6E5F8E0659174918DE392E00E9410
:104BA0007A3A8DE392E00E94BF1C80910D02823020
:104BB00051F46091FC017091FD018091FE01909192
:104BC000FF010E94AB1C80910D02853051F4609171
:104BD000F0017091F1018091F2019091F3010E9436
:104BE000AB1C80910D02833011F0863091F510924C
:104BF000DF031092DE0389E190E09093E10380935C
:104C0000E003EAE5F8E0659174918DE392E00E949B
:104C10007A3A8DE392E00E94BF1C80910D028330AE
:104C200051F46091F8017091F9018091FA0190912D
:104C3000FB010E94AB1C80910D02863051F4609103
:104C4000EC017091ED018091EE019091EF010E94D5
:104C5000AB1C80910D02843011F0873091F51092D9
:104C6000DF031092DE0389E190E09093E1038093EB
:104C7000E003EEE5F8E0659174918DE392E00E9427
:104C80007A3A8DE392E00E94BF1C80910D0284303D
:104C900051F46091F4017091F5018091F6019091C9
:104CA000F7010E94AB1C80910D02873051F4609196
:104CB000E8017091E9018091EA019091EB010E9475
:104CC000AB1C0E944F1180910E028E3109F03CC046
:104CD0000E94DA18C1E0C093E603C093E70381E0C5
:104CE00090E09093E5038093E4039093E303809333
:104CF000E20389E190E09093DF038093DE038EE18D
:104D000090E09093E1038093E003E0E6F8E06591A2
:104D100074918DE392E00E947A3A8DE392E00E94D2
:104D2000BF1C0E944F1168EE73E080E090E00E948B
:104D3000A50A80913B029EEF980F923010F00C94E0
:104D4000272E8AE080930E0280910E02863411F4A1
:104D500010920E0280910E02823309F098C00E94D8
:104D6000DA1881E08093E6038093E70381E090E026
:104D70009093E5038093E4039093E3038093E2032D
:104D80001092DF031092DE038AE090E09093E1033B
:104D90008093E0038091080281110C944C2E1092B4
:104DA000E3031092E203E4E1F9E0659174918DE38D
:104DB00092E00E947A3A6DE372E082ED93E00E9405
:104DC000F11C81E090E09093E3038093E203109262
:104DD000E5031092E40320910802213041F410927F
:104DE000E3031092E2039093E5038093E403E6E18A
:104DF000F9E0659174918DE392E00E947A3A6DE357
:104E000072E082ED93E00E94F11C81E090E09093CB
:104E1000E3038093E2031092E5031092E4032091F0
:104E20000802223041F41092E3031092E2039093BF
:104E3000E5038093E403E8E1F9E0659174918DE383
:104E400092E00E947A3A8DE392E00E94BF1C80912A
:104E5000E501ECE4F8E0882321F0813061F4EAE434
:104E6000F8E0659174918DE392E00E947A3A8DE3C7
:104E700092E00E94BF1C81E090E09093E303809356
:104E8000E2031092E5031092E4030E944F11809117
:104E90000E02833309F089C00E94DA1881E0809302
:104EA000E6038093E70381E090E09093E50380932D
:104EB000E4039093E3038093E2031092DF031092E4
:104EC000DE038AE090E09093E1038093E003809119
:104ED0000802811132C0E8E4F8E0659174918DE335
:104EE00092E00E947A3A6DE372E082ED93E00E94D4
:104EF000F11CEAE6F8E0659174918DE392E00E947E
:104F00007A3A6DE372E082ED93E00E94F11CECE6E8
:104F1000F8E0659174918DE392E00E947A3A8DE316
:104F200092E00E94BF1C4091E70150E070E060E019
:104F30002AE082ED93E00E944A1B809108028130B2
:104F400091F5E4E7F8E0659174918DE392E00E94B9
:104F50007A3A6DE372E082ED93E00E94F11CEAE69A
:104F6000F8E0659174918DE392E00E947A3A6DE3E6
:104F700072E082ED93E00E94F11CECE6F8E06591AE
:104F800074918DE392E00E947A3A8DE392E00E9460
:104F9000BF1C4091E60150E070E060E02AE082ED45
:104FA00093E00E944A1B0E944F1180910E028C33A5
:104FB00009F057C00E94DA1881E08093E6038093DD
:104FC000E703C1E0D0E0D093E503C093E403D093BE
:104FD000E303C093E2031092DF031092DE038AE042
:104FE00090E09093E1038093E00380910A028111A5
:104FF00058C61092E3031092E203EEE9F8E06591DF
:1050000074918DE392E00E947A3A6DE372E082ED52
:1050100093E00E94F11CD093E303C093E20310924B
:10502000E5031092E403E0EAF8E0659174918DE302
:1050300092E00E947A3A6DE372E082ED93E00E9482
:10504000F11CE2EAF8E0659174918DE392E00E9430
:105050007A3A6DE372E082ED93E00E94F11C0E94C7
:105060004F1180910E028D3309F073C00E94DA183F
:1050700081E08093E6038093E703C1E0D0E0D09322
:10508000E503C093E403D093E303C093E2031092DB
:10509000DF031092DE038AE090E09093E1038093B7
:1050A000E00380910902811169C61092E303109216
:1050B000E203EAEAF8E0659174918DE392E00E94E0
:1050C0007A3A6DE372E082ED93E00E94F11CD09396
:1050D000E303C093E2031092E5031092E403ECEAC9
:1050E000F8E0659174918DE392E00E947A3A6DE365
:1050F00072E082ED93E00E94F11CEEEAF8E0659127
:1051000074918DE392E00E947A3A6DE372E082ED51
:1051100093E00E94F11CE0EBF8E0659174918DE35F
:1051200092E00E947A3A6DE372E082ED93E00E9491
:10513000F11CE2EBF8E0659174918DE392E00E943E
:105140007A3A6DE372E082ED93E00E94F11C0E94D6
:105150004F1180910E028E33C1F50E94DA1881E062
:105160008093E6038093E70381E090E09093E5036A
:105170008093E4039093E3038093E2031092DF03B0
:105180001092DE0389E190E09093E1038093E003C5
:1051900080910A02E091090245E0849FC001112438
:1051A000E80FF92FF11DEE0FFF1FEE0FFF1FE0506C
:1051B000FF4F408151816281738177FFF2C682ED9A
:1051C00093E00E94961B0E944F1180910E028A3537
:1051D00009F0A1C00E94DA1881E08093E603809371
:1051E000E70381E090E09093E5038093E4039093DC
:1051F000E3038093E2031092DF031092DE038AE060
:1052000090E09093E1038093E003E2E8F8E0659199
:1052100074918DE392E00E947A3A8DE392E00E94CD
:10522000BF1C6091DC017091DD018091DE019091E5
:10523000DF010E94AE1CE4E8F8E0659174918DE313
:1052400092E00E947A3A8DE392E00E94BF1C609146
:10525000D8017091D9018091DA019091DB010E940F
:10526000AE1CE6E8F8E0659174918DE392E00E944F
:105270007A3A8DE392E00E94BF1C6091D401709154
:10528000D5018091D6019091D7010E94AE1CE8E82B
:10529000F8E0659174918DE392E00E947A3A8DE393
:1052A00092E00E94BF1C6091D0017091D101809169
:1052B000D2019091D3010E94AE1CEAE8F8E065911A
:1052C00074918DE392E00E947A3A8DE392E00E941D
:1052D000BF1C6091CC017091CD018091CE01909165
:1052E000CF010E94AE1CECE8F8E0659174918DE36B
:1052F00092E00E947A3A8DE392E00E94BF1C609196
:10530000C8017091C9018091CA019091CB010E949E
:10531000AE1C0E944F1180910E028E3609F04BC0D8
:105320000E94DA1881E08093E6038093E703C1E0EE
:10533000D0E0D093E503C093E403D093E303C0939C
:10534000E2031092DF031092DE031092E103109249
:10535000E003EEE8F8E0659174918DE392E00E943D
:105360007A3A6DE372E082ED93E00E94F11C809145
:105370000B0281111CC61092E3031092E203D0933A
:10538000E503C093E403E0E9F8E0659174918DE3EF
:1053900092E00E947A3A6DE372E082ED93E00E941F
:1053A000F11CD093E303C093E2031092E503109243
:1053B000E4030E944F1180910E028F3699F50E94EE
:1053C000DA1881E08093E6038093E70381E090E0C0
:1053D0009093E5038093E4039093E3038093E203C7
:1053E0001092DF031092DE0384E190E09093E103DA
:1053F0008093E003E0E9F8E0659174918DE392E039
:105400000E947A3A6DE372E082ED93E00E94F11C13
:105410006091E3017091E40182ED93E00E94BF1B73
:105420000E944F1180910E02803799F50E94DA1880
:1054300081E08093E6038093E70381E090E090931E
:10544000E5038093E4039093E3038093E2031092D7
:10545000DF031092DE0384E190E09093E1038093F8
:10546000E003E2E9F8E0659174918DE392E00E9437
:105470007A3A6DE372E082ED93E00E94F11C609154
:10548000E0017091E10182ED93E00E94BF1B0E9458
:105490004F1180910E028C3809F0C6C50E94DA18AF
:1054A00081E08093E6038093E70381E090E09093AE
:1054B000E5038093E4039093E3038093E2038AE09F
:1054C00090E09093DF038093DE038EE190E0909371
:1054D000E1038093E003E2ECF8E0659174918DE3E1
:1054E00092E00E947A3A8DE392E00E94BF1C0E94F3
:1054F0004F1160ED77E080E090E00E94A50A1092E5
:105500000E028091C2039091C303A091C403B09195
:10551000C5038093AE019093AF01A093B001B09307
:10552000B101DF91CF911F910F91FF90EF90DF902C
:10553000CF900895813409F0A1C085E293E00E94E4
:105540005308C82F8093020285E293E00E9453081B
:105550008C0F9927991F8E36910511F4C093100274
:1055600085E293E00E9453088093270285E293E04E
:105570000E9453088093260285E293E00E9453081C
:105580008093250285E293E00E94530880932102D4
:1055900085E293E00E94530880932A0285E293E01B
:1055A0000E9453088093290285E293E00E945308E9
:1055B00080933402682F85E293E00E94C41C85E248
:1055C00093E00E94530880932B02682F85E293E0BA
:1055D0000E94C41C85E293E00E94530880933A0223
:1055E000682F85E293E00E94C41C69EA71E085E2BD
:1055F00093E00E94F11C85E293E00E94530880939F
:10560000390285E293E00E9453088093380285E2D4
:1056100093E00E9453088093370285E293E00E9452
:1056200053088093360285E293E00E9453088093EA
:10563000350285E293E00E9453088093010285E2DF
:1056400093E00E945308809300020E94150B709310
:105650002402609323020E94150B70931E02609334
:105660001D020E94150B70932D0260932C020E9464
:10567000150B7093200260931F02D1C8813639F454
:1056800085E293E00E94530880933A02C8C88436AA
:10569000F1F50E94710B6093FC017093FD01809302
:1056A000FE019093FF010E94710B6093F8017093CB
:1056B000F9018093FA019093FB010E94710B6093B2
:1056C000F4017093F5018093F6019093F7010E9425
:1056D000710B6093F0017093F1018093F20190934C
:1056E000F3010E94710B6093EC017093ED018093C4
:1056F000EE019093EF010E94710B6093E8017093AB
:10570000E9018093EA019093EB010C940F24863613
:10571000A1F485E293E00E9453088093E70185E2BB
:1057200093E00E9453088093E60185E293E00E9493
:1057300053088093E5010C940F248A3621F40E94CB
:10574000150B0C940F248F3661F40E94150B709387
:10575000E4016093E30185E293E00E94DD1C0C9478
:105760000F24823741F485E293E00E94530880932E
:10577000E2010C940F24843739F40E94150B7093C6
:10578000E1016093E001E7CF8937F1F50E94710BE9
:105790006093DC017093DD018093DE019093DF0163
:1057A0000E94710B6093D8017093D9018093DA0144
:1057B0009093DB010E94710B6093D4017093D5012B
:1057C0008093D6019093D7010E94710B6093D00112
:1057D0007093D1018093D2019093D3010E94710BF9
:1057E0006093CC017093CD018093CE019093CF0153
:1057F0000E94710B6093C8017093C9018093CA0124
:105800009093CB010C940F248135D9F40E94710B35
:1058100020910A02C091090245E0249F90011124C1
:10582000C20FD32FD11DCC0FDD1FCC0FDD1FC050F9
:10583000DF4F0E94A63C688379838A839B830C9404
:105840000F24873431F585E293E00E94530880935A
:10585000330285E293E00E9453088093320285E28E
:1058600093E00E9453088093310285E293E00E9406
:1058700053088093300285E293E00E94530880939E
:105880002F0285E293E00E94530880932E020C942D
:105890000F248A3581F485E293E00E9453089093A7
:1058A000C7018093C60185E293E00E94530880936C
:1058B00001020C940F248D3401F50E94710B60934A
:1058C000C2017093C3018093C4019093C5010E94EB
:1058D000710B6093BE017093BF018093C0019093E0
:1058E000C1010E94710B6093BA017093BB01809358
:1058F000BC019093BD010C940F248234A1F485E285
:1059000093E00E94530880933C020E94150B709311
:10591000B9016093B8010E94150B7093B7016093B1
:10592000B6010C940F24883511F00C940F2485E2F5
:1059300093E00E945308809300020C940F24C63019
:1059400010F00C9446248091040281110C9446249A
:105950008091110281112FC0C11110C04091160415
:105960005091170470E060E080911B0490911C043A
:105970000E94383E0E94C6090C944624C13011F0A2
:105980000C94462480911F034091440150E070E044
:1059900060E0762F652F542F4427682B80911E03DB
:1059A000482B90E080E00E94A3070E94C609C093A4
:1059B00011020C9446248130A9F4C23009F0D9C0F8
:1059C0008091430140911D0350E070E060E0762F2C
:1059D000652F542F4427682B80914201482B81E08A
:1059E00090E0E1CF8230A9F4C33009F0BAC08091D1
:1059F00041014091400150E070E060E0762F652F5A
:105A0000542F4427682B80911C03482B82E090E0A0
:105A1000CACF8330A9F4C43009F09BC080913F0104
:105A200040913E0150E070E060E0762F652F542FEA
:105A30004427682B80911B03482B83E090E0B3CF71
:105A40008430A9F4C53009F07CC080913D014091BB
:105A50001A0350E070E060E0762F652F542F442742
:105A6000682B80911903482B84E090E09CCF86300E
:105A700009F051C0C53011F00C94462480911F03E9
:105A80004091440150E070E060E0762F652F542F84
:105A90004427682B80911E03482B90E080E00E94F1
:105AA000A307809143014091420150E070E060E023
:105AB000762F652F542F4427682B80911D03482B88
:105AC00081E090E00E94A307809141014091400154
:105AD00050E070E060E0762F652F542F4427682B4C
