:100000000C941E100C9446100C9446100C94461040
:100010000C9446100C9446100C9446100C94461008
:100020000C9446100C9446100C9446100C944610F8
:100030000C9446100C9446100C9488460C94394746
:100040000C9446100C9446100C9446100C944610D8
:100050000C9446100C9446100C9446100C944610C8
:100060000C9446100C9446100C94B2450C948C459C
:100070000C9446100C9446100C9446100C944610A8
:100080000C9446100C9446100C9446100C94461098
:100090000C9424460C94FE450C94D8450C944610C0
:1000A00054494D45204F55540051533A00202044A7
:1000B000613A00202044743A004D414C4655435467
:1000C000494F4E00534552564F005470733A00202A
:1000D00056004355523A2000494E20425554544F41
:1000E0004E204D4F44554C450053484F52542043E9
:1000F0004952435554005052455353204252414BAC
:10010000450053657420736572766F20656E6420B8
:10011000706F732E003E53657420736572766F2086
:10012000656E6420706F732E005365742073657262
:10013000766F20686F6D6520706F732E003E53657B
:100140007420736572766F20686F6D6520706F73B1
:100150002E00736574206869676820737065656434
:10016000003E736574206869676820737065656414
:1001700000736574206D656469756D2073706565C5
:1001800064003E736574206D656469756D207370DD
:1001900065656400736574206C6F772073706565A6
:1001A00064003E736574206C6F77207370656564BE
:1001B0000020736574207370656564206D756C69CB
:1001C000706C696572003E73657420737065656458
:1001D000206D756C69706C69657200203136300075
:1001E000203132300020383000203430003E73653A
:1001F00074207468726F746C65206C6576656C73BE
:100200000020736574207468726F746C65206C656F
:1002100076656C730074707320696E7075743A2023
:10022000003E74707320696E7075743A20007365B7
:10023000742073656E736F72206F666673657400E9
:100240003E7365742073656E736F72206F6666739C
:1002500065740020637572656E742073656E736FCC
:10026000723A20003E637572656E742073656E731A
:100270006F723A20003E54505320696E70757400BE
:1002800054505320696E70757400736574206375E3
:1002900072656E742073656E736F72003E73657461
:1002A00020637572656E742073656E736F7200449F
:1002B000454641554C545320524553544F524544A2
:1002C0000020726573746F72652064656661756C79
:1002D0007473003E726573746F7265206465666145
:1002E000756C7473003E31326B2072706D20515307
:1002F0002074696D65003E396B2072706D2051531A
:100300002074696D65003E366B2072706D2051530C
:100310002074696D65003E334B2072706D2051531F
:100320002074696D65003E30202D20326B20727084
:100330006D2051532074696D650031326B207270ED
:100340006D2051532074696D6500396B2072706D9A
:100350002051532074696D6500366B2072706D20DA
:1003600051532074696D6500334B2072706D2051BC
:10037000532074696D6500302D326B2072706D20D2
:1003800051532074696D65003E7365742067656123
:100390007220323E2051532074696D65003E7365B2
:1003A00074206765617220312051532074696D6536
:1003B000003E7365742067656E6572616C205153F1
:1003C0002074696D65007365742067656172203201
:1003D0003E2051532074696D650073657420676514
:1003E000617220312051532074696D65007365740A
:1003F0002067656E6572616C2051532074696D656C
:10040000003E53686966746C696768743A20003E00
:10041000456E642052504D20003E5374617274202A
:1004200052504D20003E53686966746C6967687469
:10043000207365747570200053686966746C696711
:1004400068743A2000456E642052504D2000537469
:100450006172742052504D200053686966746C6953
:10046000676874207365747570200036746820673F
:100470006561723A200035746820676561723A20C0
:100480000034746820676561723A20003365642027
:10049000676561723A2000326E6420676561723A66
:1004A000200031737420676561723A20003E446910
:1004B00073706C6179206765617220726174696F15
:1004C00000446973706C61792067656172207261A4
:1004D00074696F003E4765617220646973706C6176
:1004E000793A20004765617220646973706C6179A4
:1004F0003A20003E736574206765617220726174F2
:100500006F007365742067656172207261746F009B
:1005100052504D3A20003E73686966742074696DCC
:10052000653A200073686966742074696D653A20C5
:1005300000717569636B7368697465723A20002095
:100540007265766F6C7574696F6E3A200050756CC9
:1005500073657320706572002020205345545550F8
:10056000003E53706565642073656E736F7200534F
:10057000706565642073656E736F720053657420D7
:10058000504944200053544F524544004465726919
:1005900076617469766520003E446572697661749F
:1005A0006976652000496E74656772616C20003E53
:1005B000496E74656772616C200050726F706F7263
:1005C00074696F6E616C20003E50726F706F727450
:1005D000696F6E616C200068696768006C6F7700F6
:1005E000205365742050494420004F4646004F4E2A
:1005F0000053504545443A20004272616B653A20F1
:100600000043616E63656C2F616363656C3A200023
:1006100053657473706565642F646563656C3A2017
:1006200000000000000000000000000000000000CA
:1006300000000000000000000000000000000000BA
:1006400000000000000000000000000000000000AA
:10065000000000000000000000000000000000009A
:10066000000000000000000000000000000000008A
:10067000000000000000000000000000000000007A
:10068000000000000000000000000000000000006A
:10069000000000000000000000000000000000005A
:1006A000000000000000000000000000000000004A
:1006B000000000000000000000000000000000003A
:1006C000000000000000000000000000000000002A
:1006D0000001E0C0CC1F0C0C3E18199FE7FDFFBFC6
:1006E000C007F8C0CC7F8C187F18199FE7FDFFBFAB
:1006F000E00618C0CC61CC30C398199806001830B9
:10070000700C0CC0CCC08C60C198199806001830D1
:10071000300C0CC0CCC00CC0F01819980600183072
:10072000700C0CC0CCC00DE07E1FF99FC7FC183FB9
:10073000E00C0CC0CCC00F601F1FF99FC7FC183F16
:10074000800C0CC0CCC00E300398199806001831EC
:10075000C00CCCC0CCC08C30C198199806001830A1
:10076000E00678E1CC61CC18E398199806001830BF
:100770006007F87F8C7F8C1C7F18199807FC183055
:100780007001D83F0C1F0C0C3E18199807FC18304C
:1007900038000C0000000000000000000000000015
:1007A0000000000000000000000000000000000049
:1007B0000000000000000000000000000000000039
:1007C0000000000000000000000000000000000029
:1007D0000000000000000000000000000000000019
:1007E0000000000000000000000000000000000009
:1007F00000000000000000000000000000000000F9
:1008000000000000000000000000000000000000E8
:1008100000000000000000000000000000000000D8
:1008200000000000000000000000000000000000C8
:1008300000000000000000000000000000000000B8
:1008400000000000000000000000000000000000A8
:1008500000000000000000F81FF9FF800000000009
:1008600000000000000003FE1FF9FF8000000000F0
:1008700000000000000007FF1FF9FF8000000000DB
:10088000000000000000078F1C01C00000000000F5
:100890000000000000000F079C01C00000000000E5
:1008A0000000000000000E039FF1FF0000000000A8
:1008B0000000000000000E039FF1FF000000000098
:1008C0000000000000000E039FF1FF000000000088
:1008D0000000000000000E039C01C00000000000AA
:1008E0000000000000000F079C01C0000000000095
:1008F000000000000000078F1C01C0000000000085
:1009000000000000000007FF1C01C0000000000004
:1009100000000000000003FE1C01C00000000000F9
:1009200000000000000000F81C01C00000000000F2
:1009300000000000000000000000000000000000B7
:1009400000000000000000000000000000000000A7
:100950000000000000000000000000000000000097
:100960000000000000000000000000000000000087
:100970000000000000000000000000000000000077
:100980000000000000000000000000000000000067
:100990000000000000000000000000000000000057
:1009A0000000000000000000000000000000000047
:1009B0000000000000000000000000000000000037
:1009C0000000000000000000000000000000000027
:1009D0000000000000000000000000000000000017
:1009E0000000000000000000000000000000000007
:1009F00000000000000000000000000000000000F7
:100A000000000000000000000000000000000000E6
:100A100000000000000000000000000000000000D6
:100A200000000000000000000000000000000000C6
:100A300000000000000000000000000000000000B6
:100A400000000000000000000000000000000000A6
:100A50000000000000000000000000000000000096
:100A60000000000000000000000000000000000086
:100A70000000000000000000000000000000000076
:100A80000000000000000000000000000000000066
:100A90000000000000000000000000000000000056
:100AA0000000000000000000000000000000000046
:100AB0000000000000000000000000000000000036
:100AC0000000000000000000000000000000000026
:100AD0000001E0C0CC1F0C0C3E18199FE7FDFFBFC2
:100AE000C007F8C0CC7F8C187F18199FE7FDFFBFA7
:100AF000E00618C0CC61CC30C398199806001830B5
:100B0000700C0CC0CCC08C60C198199806001830CD
:100B1000300C0CC0CCC00CC0F0181998060018306E
:100B2000700C0CC0CCC00DE07E1FF99FC7FC183FB5
:100B3000E00C0CC0CCC00F601F1FF99FC7FC183F12
:100B4000800C0CC0CCC00E300398199806001831E8
:100B5000C00CCCC0CCC08C30C1981998060018309D
:100B6000E00678E1CC61CC18E398199806001830BB
:100B70006007F87F8C7F8C1C7F18199807FC183051
:100B80007001D83F0C1F0C0C3E18199807FC183048
:100B900038000C0000000000000000000000000011
:100BA0000000000000000000000000000000000045
:100BB0000000000000000000000000000000000035
:100BC0000000000000000000000000000000000025
:100BD0000000000000000000000000000000000015
:100BE0000000000000000000000000000000000005
:100BF00000000000000000000000000000000000F5
:100C000000000000000000000000000000000000E4
:100C10000000000000000007C0F0E000000000003D
:100C2000000000000000001FF0F0E00000000000E5
:100C3000000000000000003FF8F8E00000000000A5
:100C4000000000000000003C78F8E0000000000018
:100C500000000000000000783CFCE0000000000004
:100C600000000000000000701CECE000000000002C
:100C700000000000000000701CEEE000000000001A
:100C800000000000000000701CE6E0000000000012
:100C900000000000000000701CE7E0000000000001
:100CA00000000000000000783CE3E00000000000CD
:100CB000000000000000003C78E3E00000000000BD
:100CC000000000000000003FF8E1E000000000002C
:100CD000000000000000001FF0E1E0000000000044
:100CE0000000000000000007C0E0E000000000007D
:100CF00000000000000000000000000000000000F4
:100D000000000000000000000000000000000000E3
:100D100000000000000000000000000000000000D3
:100D200000000000000000000000000000000000C3
:100D300000000000000000000000000000000000B3
:100D400000000000000000000000000000000000A3
:100D50000000000000000000000000000000000093
:100D60000000000000000000000000000000000083
:100D70000000000000000000000000000000000073
:100D80000000000000000000000000000000000063
:100D90000000000000000000000000000000000053
:100DA0000000000000000000000000000000000043
:100DB0000000000000000000000000000000000033
:100DC0000000000000000000000000000000000023
:100DD0000000000000000000000000000000000013
:100DE0000000000000000000000000000000000003
:100DF00000000000000000000000000000000000F3
:100E000000000000000000000000000000000000E2
:100E100000000000000000000000000000000000D2
:100E200000000000000000000000000000000000C2
:100E30000000000000300000000000000000000082
:100E4000000000000078000000000000000000002A
:100E50000000000000FC0000000000000000000096
:100E60000000000001FF1000000000000000000072
:100E70000000000003FF3000000000000000000040
:100E80000000000007FFB0000000000000000000AC
:100E90000000000007FFF00000000000000000005C
:100EA0000000000003FFF0001FF000000000000041
:100EB0000000000001FFF001FFFF00000000000043
:100EC0000000000000FFF00FFFFFC0000000000066
:100ED0000000000000FFF03FFFFFF00000000000F6
:100EE00000000000003FF0FFFFFFFE0000000000D8
:100EF00000000000007FF1FF83C3FF00000000003E
:100F00000000000000FFF3FC03C0FF8000000000B1
:100F10000000000000FFF7F003C03FC00000000029
:100F20000000000000000FE003C00FE00000000020
:100F30000000000000001F8003C007F00000000058
:100F40000000000000003F8003C001F80000000026
:100F50000000000000007FC0018003FC00000000D2
:100F6000000000000000FFF000000FFE0000000085
:100F7000000000000000FBF000001FFE0000000069
:100F8000000000000001F1F800003FBF0000000079
:100F9000000000000001F0F000003F1F0000000012
:100FA000000000000003E06600003C1F000000009D
:100FB000000000000003E00F0000180F8000000098
:100FC000000000000007C00F8000000F800000003C
:100FD000000000000007C00FC0000007C0000000B4
:100FE0000000000000078007E0000007C0000000CC
:100FF00000000000000F8003F0000003C0000000AC
:1010000000000000000F8001F8000003C000000095
:1010100000000000000F8000FC000003E000000062
:1010200000000000000F0000FF800003E00000004F
:1010300000000000000FF8007FE00003E000000067
:1010400000000000000FFC003FE000FFE000000097
:1010500000000000000FFC001FF001FFE000000096
:1010600000000000000FFC001FF001FFE000000086
:1010700000000000000F00001FF000FFE000000073
:1010800000000000000F00000FE00003E00000007F
:1010900000000000000F000007C00003E000000097
:1010A00000000000000F800003800003E00000004B
:1010B00000000000000F800000000003C0000000DE
:1010C00000000000000F800000000003C0000000CE
:1010D000000000000007800000000007C0000000C2
:1010E000000000000007C0000000000780000000B2
:1010F000000000000007C0000000000F800000009A
:10110000000000000003E00000000E0F800000005F
:10111000000000000003E07000001F1F000000003E
:10112000000000000001F0F000001F1F00000000A0
:10113000000000000001F9F000001FBF00000000E7
:10114000000000000000FBF000000FFE00000000A7
:10115000000000000000FFE0000007FC00000000AD
:101160000000000000007FC0038003F800000000C2
:101170000000000000003F8003C003F800000000F2
:101180000000000000001FC007C007F000000000C2
:101190000000000000000FE007C00FE000000000AA
:1011A00000000000000007F807C03FC0000000007A
:1011B00000000000000003FE07C0FF8000000000E8
:1011C00000000000000001FFC7C7FF000000000092
:1011D00000000000000000FFFFFFFC000000000016
:1011E000000000000000001FFFFFF00000000000F2
:1011F0000000000000000007FFFFC000000000002A
:101200000000000000000000FFFE000000000000E1
:1012100000000000000000000000000000000000CE
:101220000010060106F905F105EE05EA05E005DC0A
:1012300005D705C805BA05AF05A50598058C058530
:10124000057C056F05610558054D053F05310524F1
:1012500005160510050205F304E404D404C104AD29
:1012600004A20497048C04810476046B0459044E90
:101270000445043804250419040F040104ED03DABD
:1012800003C603B1039D0388037703680359034A28
:10129000033A03260316030603F602E502D302C14E
:1012A00002AF029C028A028002750264025302406D
:1012B000022E02210215020102ED01E901E501E021
:1012C00001DB01C601B101A201940182017101613A
:1012D0000152013D01290115010201F600E900D882
:1012E00000D200CF00CA00C400B900B300AD00A90D
:1012F00000A000000000000100038007E00FE01FD5
:10130000E01FE01FE03FE03FC03FC03FC03FC03FA5
:10131000C07FC07F807F807F807F807F003F001EF6
:101320000004000000000000000FFFFFC01FFFFFCF
:10133000E03FFFFFF07FFFFFF83FFFFFF01FFFFFE1
:10134000E00FFFFF800000000000000000003E5B97
:101350004F5B3E3E6B4F6B3E1C3E7C3E1C183C7E02
:101360003C181C577D571C1C5E7F5E1C00183C18E7
:1013700000FFE7C3E7FF0018241800FFE7DBE7FFE3
:1013800030483A060E2629792926407F0505074070
:101390007F05253F5A3CE73C5A7F3E1C1C08081C31
:1013A0001C3E7F14227F22145F5F005F5F06097F6F
:1013B000017F006689956A606060606094A2FFA208
:1013C0009408047E040810207E201008082A1C08B7
:1013D000081C2A08081E101010100C1E0C1E0C30C1
:1013E000383E3830060E3E0E0600000000000000B9
:1013F0005F00000007000700147F147F14242A7F79
:101400002A12231308646236495620500008070345
:1014100000001C2241000041221C002A1C7F1C2AC3
:1014200008083E0808008070300008080808080016
:101430000060600020100804023E5149453E004211
:101440007F400072494949462141494D33181412E1
:101450007F1027454545393C4A4949314121110909
:10146000073649494936464949291E0000140000FB
:101470000040340000000814224114141414140015
:101480004122140802015909063E415D594E7C1261
:1014900011127C7F494949363E414141227F4141F9
:1014A000413E7F494949417F090909013E41415176
:1014B000737F0808087F00417F41002040413F01C1
:1014C0007F081422417F404040407F021C027F7F02
:1014D0000408107F3E4141413E7F090909063E4113
:1014E00051215E7F09192946264949493203017F66
:1014F00001033F4040403F1F2040201F3F403840F5
:101500003F631408146303047804036159494D438D
:10151000007F4141410204081020004141417F0405
:1015200002010204404040404000030708002054EC
:101530005478407F2844443838444444283844444C
:10154000287F385454541800087E090218A4A49C1B
:10155000787F0804047800447D40002040403D002E
:101560007F1028440000417F40007C047804787C90
:10157000080404783844444438FC182424181824F7
:101580002418FC7C08040408485454542404043FE0
:1015900044243C4040207C1C2040201C3C403040E7
:1015A0003C44281028444C9090907C4464544C4413
:1015B00000083641000000770000004136080002B4
:1015C000010204023C2623263C1EA1A161123A40DE
:1015D00040207A3854545559215555794122545454
:1015E0007842215554784020545579400C1E52724F
:1015F000123955555559395454545939555454582C
:101600000000457C410002457D420001457C407D53
:101610001211127DF0282528F07C545545002054E5
:10162000547C547C0A097F4932494949323A44443E
:10163000443A324A4848303A4141217A3A424020BD
:1016400078009DA0A07D3D4242423D3D4040403D4E
:101650003C24FF2424487E4943662B2FFC2F2BFF7C
:101660000929F620C0887E090320545479410000DE
:10167000447D413048484A32384040227A007A0A54
:101680000A727D0D19317D2629292F28262929291D
:101690002630484D4020380808080808080808384F
:1016A0002F10C8ACBA2F102834FA00007B000008B5
:1016B000142A142222142A14085500550055AA553C
:1016C000AA55AAFF55FF55FF000000FF001010109B
:1016D000FF00141414FF001010FF00FF1010F01092
:1016E000F0141414FC001414F700FF0000FF00FFB6
:1016F0001414F404FC141417101F10101F101F14DE
:1017000014141F00101010F0000000001F10101023
:10171000101F10101010F010000000FF101010101B
:101720001010101010FF10000000FF140000FF0048
:10173000FF00001F10170000FC04F414141710170A
:101740001414F404F40000FF00F714141414141417
:1017500014F700F7141414171410101F101F14148A
:1017600014F4141010F010F000001F101F000000FF
:101770001F14000000FC140000F010F01010FF1007
:10178000FF141414FF141010101F00000000F010BC
:10179000FFFFFFFFFFF0F0F0F0F0FFFFFF000000A1
:1017A0000000FFFF0F0F0F0F0F3844443844FC4A6E
:1017B0004A4A347E02020606027E027E02635549D0
:1017C00041633844443C04407E201E2006027E02D1
:1017D0000299A5E7A5991C2A492A1C4C7201724C52
:1017E000304A4D4D303048784830BC625A463D3E14
:1017F000494949007E0101017E2A2A2A2A2A4444B5
:101800005F444440514A444040444A51400000FF34
:101810000103E080FF000008086B6B0836123624D5
:1018200036060F090F0600001818000000101000FF
:101830003040FF0101001F01011E00191D17120099
:101840003C3C3C3C0000000000000103070F1F3F30
:101850007F0080C0E0F0F8FCFEDB40A4A62EAF20A5
:1018600000A1C8D300408DAED580A8000060000064
:10187000000000000000000000000000E000000088
:101880000000000000000000000001E00000000077
:1018900000000000000000000001F0000000000057
:1018A000000000000000000003F000000000000045
:1018B0000000000000000007F00000000000000031
:1018C00000000000000007F8000000000000000019
:1018D00000000000000FF800000003C0007E0000C0
:1018E00001E0007F0FF800000003C000FE000001CF
:1018F000E000FFEFF800000003C000FE000001E080
:1019000000FFFFF800000003C000F00000000F001F
:101910007FFE7FC0000003C000F00000000F003F0A
:10192000FE7FF83FF1FBCFFCFEF3BC3DEFE01FFE76
:101930007FFF7FFBFFDFFEFEFFBC3DEFE01FC6FF2A
:10194000FF7FFBFFDFFEFEFFBC3DEFE00FE3C7FEC6
:10195000787BC3DE1EF0FFBC3DEF0007FF87FC78FD
:101960007BC3DE1EF0F83C3DEF0001FFFFF0007B83
:10197000C3C01EF0F03C3DEF0001F37FE03FFBC32E
:10198000CFFEF0F03C3DEF0003E33F807FFBC3DF81
:10199000FEF0F03C3DEF0007E73C00787BC3DE1E25
:1019A000F0F03C3DEF0007FFBE00787BC3DE1EF089
:1019B000F03C3DEF0007FFFE00787BC3DE1EF0F039
:1019C0003C3DEF000FFFFE007FFBFFDFFEF0F03F2E
:1019D000FDEFE00FFFFF007FFBFFDFFEF0F03FFDBC
:1019E000EFE00FF9FF003E79F9CF9EF0F01F3DE7E1
:1019F000E01FF1FF000000000000000000000000F8
:101A00001F80FF007FFFFFFFFFFFFFFFFFFFE01CC6
:101A1000007F007FFFFFFFFEB46D888D18E000009F
:101A20001F007FFFFFFFFE95AD7DB577E000000F43
:101A3000007FFFFFFFFEA5AD9D8D19E000000600B1
:101A40007FFFFFFFFEB5ADEDB57EE00000000000BA
:101A50000000000000000000000000000000003056
:101A600000000000000000000000000000000078FE
:101A7000000000000000000000000000000000FC6A
:101A8000000000000000000000000000000001FF56
:101A9000100000000000000000000000000003FF34
:101AA000300000000000000000000000000007FF00
:101AB000F00000000000000000000000000007FF30
:101AC000F00000000000000000000000000003FF24
:101AD000F0001FF00000000000000000000001FF07
:101AE000F001FFFF0000000000000000000000FF08
:101AF000F00FFFFFC000000000000000000000FF2A
:101B0000F03FFFFFF0000000000000000000003F79
:101B1000F0FFFFFFFE000000000000000000007F5B
:101B2000F1FF83C3FF00000000000000000000FF81
:101B3000F3FC03C0FF80000000000000000000FF75
:101B4000F7F003C03FC000000000000000000000EC
:101B50000FE003C00FE000000000000000000000E4
:101B60001F8003C007F0000000000000000000001C
:101B70003F8003C001F800000000000000000000EA
:101B80007FC0018003FC0000000000000000000096
:101B9000FFF000000FFE0000000000000000000049
:101BA000FBF000001FFE000000000000000000012C
:101BB000F1F800003FBF000000000000000000013D
:101BC000F0F000003F1F00000000000000000003D4
:101BD000E06600003C1F0000000000000000000361
:101BE000E00F0000180F8000000000000000000758
:101BF000C00F8000000F8000000000000000000700
:101C0000C00FC0000007C000000000000000000777
:101C10008007E0000007C000000000000000000F87
:101C20008003F0000003C000000000000000000F6F
:101C30008001F8000003C000000000000000000F59
:101C40008000FC000003E000000000000000000F26
:101C50000000FF800003E000000000000000000F13
:101C6000F8007FE00003E000000000000000000F2B
:101C7000FC003FE000FFE000000000000000000F5B
:101C8000FC001FF001FFE000000000000000000F5A
:101C9000FC001FF001FFE000000000000000000F4A
:101CA00000001FF000FFE000000000000000000F37
:101CB00000000FE00003E000000000000000000F43
:101CC000000007C00003E000000000000000000F5B
:101CD000800003800003E000000000000000000F0F
:101CE000800000000003C000000000000000000FA2
:101CF000800000000003C00000000000000000079A
:101D0000800000000007C000000000000000000785
:101D1000C000000000078000000000000000000775
:101D2000C0000000000F8000000000000000000361
:101D3000E00000000E0F8000000000000000000323
:101D4000E07000001F1F0000000000000000000104
:101D5000F0F000001F1F0000000000000000000164
:101D6000F9F000001FBF00000000000000000000AC
:101D7000FBF000000FFE000000000000000000006B
:101D8000FFE0000007FC0000000000000000000071
:101D90007FC0038003F80000000000000000000086
:101DA0003F8003C003F800000000000000000000B6
:101DB0001FC007C007F00000000000000000000086
:101DC0000FE007C00FE0000000000000000000006E
:101DD00007F807C03FC0000000000000000000003E
:101DE00003FE07C0FF8000000000000000000000AC
:101DF00001FFC7C7FF000000000000000000000056
:101E000000FFFFFFFC0000000000000000000000D9
:101E1000001FFFFFF00000000000000000000000B5
:101E20000007FFFFC00000000000000000000000ED
:101E300000001FF80000000000000000000000008B
:101E400000000000000000000000000000000FF093
:101E50000000000000003FF8000000000003FFFF4A
:101E600080000000000FFFFFE0000000003FFFFFC8
:101E7000FC00000000FFFFFFFE00000001FFFFFF6D
:101E8000FF80000007FFFFFFFFC000000FFFFFFF04
:101E9000FFE000001FFFFFFFFFF000003FFFFFFF1C
:101EA000FFF800007FFFFFFFFFFC0000FFFFFFFFC8
:101EB000FFFE0000FFFFFFFFFFFF0001FFFFFFFF2E
:101EC000FFFF8003FFFFFFFFFFFF8003FFFFFFFF18
:101ED000FFFFC007F3FFFFFFF7FBC007EFFFFFFDAA
:101EE000EFFBE00FDFFCFFFD6FF3E00FDEFDFFFD1A
:101EF0006FF7F01FBECD0FB952C7F01FBE150F39D7
:101F00008A4FF01FBC326FB9000FF01FC5206FBBA6
:101F1000A0A7F81FFFFFFFFFFFBFF83E3CE0F3E183
:101F200083F8F83C986071C58BF07839F86271CF0E
:101F30009FE73839FA62608F87EF9C39FA60EC8F3F
:101F40008FCF98391020E0889FEF9C3992226CC97E
:101F50009FE7383C93220C4183F0783E37374E613F
:101F600083FFF81FFFFFFFFFFFFFF81FFFFFFFFFCB
:101F7000FFFFF81FFFFFFFFFFFFFF01FEC5152F1C3
:101F80004D6FF00FE45932716B6FF00FE359333D31
:101F9000716FF00FFBDFDFFFFFEFE007FEE9755920
:101FA000CEFFE007FC90340181FFC003FC513121DA
:101FB000D1FFC003FDCA554BDAFF8001FFFFFFFFD1
:101FC000FFFF0000FFFFFFFFFFFF0000FFC0015405
:101FD00087FE00007FC0215487FC00003FC02154D1
:101FE00087F800001FC0015407F000000FFFFFFF3B
:101FF000FFE0000007FFFFFFFFC0000001FFFFFF41
:10200000FF80000000FFFFFFFE000000003FFFFF19
:10201000F8000000000FFFFFE00000000001FFFFDC
:102020008000000000001FF8000000000000010018
:102030000000002200FF2100F9470C4E11241FBEB2
:10204000CFEFCDBFDFE3DEBF2BE2A0E5B8E201C0FA
:102050001D92A53EB207E1F718E2A0E0B8E2E9EC74
:10206000F4EA02C005900D92A035B107D9F710E14E
:10207000CDE1D0E104C02197FE010E94AB50CC31EC
:10208000D107C9F70E9476490C94E2510C940000E4
:102090008F929F92AF92BF92CF92DF92EF92FF9278
:1020A000CF932091CD2B3091CE2B82179307E8F55B
:1020B0004B01AA24BB24C82DC52ED62EE72EFF2403
:1020C000BC2DA42F2091D32B222361F0829E4001AE
:1020D0001124C92D2C9D60011124BD2D249FF001D8
:1020E0001124AF2FE091D92BE090D42BF090D52B79
:1020F0003091D62BE31323C09C01220F331F820F94
:10210000931F8E0D9F1DE091D62BE80FF92FF11D27
:10211000C083E091D72BE80FF92FF11DB0832091F8
:10212000D82B820F911DFC01A083CF91FF90EF90DF
:10213000DF90CF90BF90AF909F908F900895880FC1
:10214000991F880F991F8E0D9F1D472F55276627B2
:102150007727222349F030E0249F7001259FF00C5F
:10216000349FF00C11244F2DE80FF92FF11D4083FF
:10217000CACF0895AF92BF92CF92DF92EF92FF92B3
:102180000F931F93CF93DF936C017B018B01040F9F
:10219000151FEB015E01AE18BF08C017D10759F03B
:1021A0006991D601ED91FC910190F081E02DC6017D
:1021B0000995892B79F7C501DF91CF911F910F9177
:1021C000FF90EF90DF90CF90BF90AF900895FC010B
:1021D000A485B58511968C91119781FD1BC06C91DA
:1021E00082898F5F8F739389981739F0A289AE0F18
:1021F000BF2FB11D59966C93828BE756FF4F80819C
:102200009181009741F0DC01ED91FC910190F0810A
:10221000E02D09948C910895FC0154894589252F5E
:1022200030E0842F90E0821B930B541710F0CF9670
:10223000089501970895FC0192898389981761F0A8
:10224000A389AE0FBF2FB11D59968C9193899F5FC3
:102250009F73938B90E008958FEF9FEF0895FC019B
:1022600092898389981731F08389E80FF11D818D58
:1022700090E008958FEF9FEF0895FC0192892389E4
:10228000892F90E0805C9F4F821B91098F73992763
:102290000895CF93DF93EC01E881F9810680F781FF
:1022A000E02D0995EC85FD8586818F738683EC850D
:1022B000FD8585818F7585838B898A8B198ADF914E
:1022C000CF910895CF93DF93FC0194898589C485CC
:1022D000D585981306C08D818F7D8D83DF91CF9139
:1022E0000895A589AE0FBF2FB11DA75ABF4F2C91DE
:1022F000858990E001968F739927858B80E48C8384
:10230000A485B58512962C93948985899813E6CF78
:10231000A485B58515968C9115978F7D15968C9310
:1023200087898823D9F2808D80931301178AD6CFAD
:10233000DC011C96ED91FC910FB607FE03C02581D0
:1023400025FD04C0248125FD0C9462110895EF92AF
:10235000FF920F931F93CF93DF93EC0181E0898B62
:102360009C898D8998131CC0AC85BD8514968C9171
:10237000149785FF15C012966C93AC85BD8580E4DB
:1023800014968C93EC85FD8585818F7D858381E016
:1023900090E0DF91CF911F910F91FF90EF90089502
:1023A0008091110180FF08C080911301888F8E8970
:1023B0008093130181E08F8BF62E0C8910E00F5F64
:1023C0001F4F0F731127E02E8D898E1104C0CE018F
:1023D0000E949811F9CFEC89EC0FFD2FF11DE75AFF
:1023E000FF4FF0820C8BEC85FD8585818062CECF1E
:1023F000CF93DF93FC0121892223C9F0EC01809166
:10240000110180FF08C080911301808F868980931D
:10241000130181E0878BEC85FD85858185FD03C0F7
:10242000848186FD04C0CE010E949811F4CFDF9113
:10243000CF91089581E00895CF93DF9390E0FC0160
:10244000E058FB4120812F3F71F0FC01E656FB4133
:10245000A08130E2A39FD0011124BC5F61307105DF
:1024600029F411962C93DF91CF91089588509C41C7
:10247000EC01E881EF3F89F0CD014096E80FF92F9C
:10248000F11D9FB7F89412962C93808162307105EC
:1024900039F4886080839FBFE6CFF0E0E0E0F1CFC1
:1024A000877FF8CF8B3208F054C090E0FC01E058F1
:1024B000FB4140814F3F09F44CC0FC01E252FC411A
:1024C000E081EE2329F0E13099F010F0E63010F1D0
:1024D000FC01E656FB41E081A0E2EA9FF0011124F5
:1024E000FC5F2081242311F1672BF1F446830895CA
:1024F000E091010ADC01A850BC415C915C5F21E0E5
:1025000030E001C0220F5A95EAF720952E23209340
:10251000010ADECF20E1E29FF0011124E05AF54FDD
:1025200021812F7E2183D4CF4583089588509C41FB
:10253000DC018C91309771F08F3F61F07096E80F5D
:10254000F11D9FB7F8948081672B39F4877F8083D2
:102550009FBF0895F0E0E0E0F4CF8860F8CF8B32C1
:1025600010F40C941C120895CF92DF92EF92FF9218
:102570000F931F93CF93DF93EC016A017B01022F2E
:102580008989882339F0E881F9810288F389E02D6F
:10259000CE01099598898091E205892B8093E20507
:1025A0001FB7F89460E070E281EA97E0A701960116
:1025B0000E94395069017A018FEFC81AD80AE80AD7
:1025C000F80AF694E794D794C794EC85FD85868144
:1025D0008D7F8683EC85FD8586818683198AA0910F
:1025E00023110A2E000CBB0BA70196010E947A5002
:1025F00020E034E040E050E00E945B50EC85FD8537
:10260000C20ED31EE41EF51EC086D186EC85FD8564
:102610000783EC85FD858681806C8683EC85FD854E
:102620008581806885838E8562E070E00E94AF12AC
:102630008F8561E070E00E9452128F8561E070E04A
:102640000E94AF121FBFDF91CF911F910F91FF909A
:10265000EF90DF90CF900895CF93DF938FB7F894EA
:102660002091212A3091222A4091232A5091242A14
:10267000E091BA0A9091B60A90FF06C02F5F3F4FD3
:102680004F4F5F4FE091BA0A8FBFA0912B2AB091B4
:102690002C2AC091292AD0912A2A0E945E4FEC9FB1
:1026A0009001ED9F300D1124620F731F811D911D4C
:1026B000DF91CF910895CF92DF92EF92FF920F9327
:1026C0001F93CF93DF93CDB7DEB72997CDBFDEBF82
:1026D0008091D42B9091D52B892B09F480C0C09088
:1026E000DA2BD090DB2BE090DC2BF090DD2B0E94DE
:1026F0002C136C157D058E059F0550F40E942C133C
:102700006093DA2B7093DB2B8093DC2B9093DD2B83
:102710000E942C130091DA2B1091DB2B2091DC2BE3
:102720003091DD2B601B710B820B930B6C3271406F
:1027300081059105A0F2F8948091CF2B9091D02B38
:1027400089839A83E091D42BF091D52BDF011196E8
:10275000808189879091CB2BE091DE2BF091DF2B4C
:102760008091E02B992309F446C09081982B98879B
:102770009081809589238F838F818C8388E08B83E0
:1027800058856F8149853B812C8189819A8150834D
:1027900047FD252F3A952083262F39F0441F00C08E
:1027A00000006083000000C0F2CF38E04D916083EC
:1027B0000000019761F7E093DE2BF093DF2B498750
:1027C0003B832C8389839A8378940E942C13609393
:1027D000DA2B7093DB2B8093DC2B9093DD2B2996E7
:1027E000CDBFDEBFDF91CF911F910F91FF90EF9092
:1027F000DF90CF9008959081982B98879081809555
:1028000089238F838F818E8388E08D8358856F81A4
:1028100049853D812E8189819A81508347FD252FED
:1028200000C000C0208300C000C000C000C000C0C5
:1028300060830000262F3A9541F0441F000000C03D
:1028400000C000C000C000C0E8CF38E04D9100C01B
:10285000608300C0019709F7E093DE2BF093DF2B34
:1028600049873D832E83AECF8F929F92AF92BF92C6
:10287000CF92DF92EF92FF924B015C010E942C13EA
:102880006B017C01A8EEB3E0A50194010E945E4FAC
:10289000C60ED71EE81EF91EC616D706E806F906AC
:1028A00018F40E942C13F8CF0E942C136C157D0590
:1028B0008E059F05C8F3FF90EF90DF90CF90BF90FB
:1028C000AF909F908F9008952FB7F89460911D2A34
:1028D00070911E2A80911F2A9091202A2FBF08955F
:1028E0000F931F930E94641460933F2A7093402AB1
:1028F0008093412A9093422A87E39AE20E942F1103
:1029000097FF1DC00E94641400913F2A1091402A35
:102910002091412A3091422A601B710B820B930B4C
:1029200000913B2A10913C2A20913D2A30913E2A69
:102930006017710782079307F8F28FEF9FEF1F91DF
:102940000F910895CF92DF92EF92FF92CF930E9462
:102950007014FC0197FD4BC08D32910519F0C097A2
:102960000A97F0F5C12CD12C7601C0E0E130D1F00E
:10297000ED32F105D1F1CF01C0970A9798F4AAE0A2
:10298000B0E0A70196010E945E4F6F01FF0FEE08B5
:10299000FF08C60ED71EE81EF91E80E3C81AD1082C
:1029A000E108F10887E39AE20E941B110E9470146B
:1029B000FC01C0970A97D0F2E130C1F2CC2341F07C
:1029C000F094E094D094C094C11CD11CE11CF11C83
:1029D000C701B601CF91FF90EF90DF90CF9008959F
:1029E00087E39AE20E941B11B2CFC1E0DBCFC12C7A
:1029F000D12C7601EDCF8F929F92AF92BF92CF9262
:102A0000DF92EF92FF92CF93DF930E947014FC014C
:102A100097FD7FC08D32910509F066C0812C912C05
:102A200080E8A82E8FE3B82EC12CD12C7601C0E00F
:102A3000D0E0E13059F1ED32F10509F462C0EE3237
:102A4000F10509F460C0CF01C0970A97F8F4AAE035
:102A5000B0E0A70196010E945E4F6F01FF0FEE08E4
:102A6000FF08C60ED71EE81EF91E80E3C81AD1085B
:102A7000E108F108CC2351F02DEC3CEC4CEC5DE38B
:102A8000C501B4010E94984E4B015C0187E39AE2B4
:102A90000E941B110E947014FC01C0970A9748F213
:102AA000EE32F10591F5CC2331F2DD2341F0F094C3
:102AB000E094D094C094C11CD11CE11CF11CC7014E
:102AC000B6010E94394ECC2321F0A50194010E9449
:102AD000984EDF91CF91FF90EF90DF90CF90BF9015
:102AE000AF909F908F900895C0970A9708F496CF63
:102AF000EE32F10509F492CF87E39AE20E941B11AE
:102B000084CFD1E0C3CFC1E0C1CFE13009F491CF90
:102B1000CCCF60E070E0CB01DCCF0895EF92FF9264
:102B20000F931F93CF93DF937C01EB018B01040F75
:102B3000151FC017D10759F0D701ED91FC91048002
:102B4000F581E02D6881C70109958993F2CFDF9166
:102B5000CF911F910F91FF90EF9008950F931F93C6
:102B6000CF93DF93EC018B018091C008E881F9815C
:102B70000480F581E02D86FD13C0612FCE010995FB
:102B8000182FE881F9810480F581E02D602FCE01B6
:102B90000995082FC801DF91CF911F910F910895DA
:102BA000CE010995082FE881F9810480F581E02D97
:102BB000612FCE010995182FEDCF00006093C40856
:102BC0008091C30887FFFCCF8091C40808958F923D
:102BD0009F92AF92BF92CF92DF92EF92FF920F93AC
:102BE0001F93CF93DF93FC018085882319F081FF29
:102BF0000EC07894DF91CF911F910F91FF90EF90CD
:102C0000DF90CF90BF90AF909F908F90089580FFFE
:102C1000F1CF82849384A484B584C12CD12C760115
:102C200010E09401A501B601C701A0E00E949F50E9
:102C300099F1217030E040E050E060E070E080E029
:102C400090E00E949F50D9F0D0E0C0E0103370F4C3
:102C5000C12FC695C695C69580E2C89FE001112494
:102C6000C05FDB4F812F8770C80FD11DCF01810F4F
:102C7000911DDC0152968C919881892B8883940157
:102C8000A501B601C70101E00E94845049015A0123
:102C90006B017C011F5FC5CF86849784A088B188B3
:102CA000C12CD12C760110E29401A501B601C70117
:102CB000A0E00E949F5009F49DCF217030E040E0D9
:102CC00050E060E070E080E090E00E949F50D9F01A
:102CD000D0E0C0E0103370F4C12FC695C695C695FC
:102CE000B0E2CB9FE0011124C05FDB4F812F8770E2
:102CF000C80FD11DCF01810F911DDC0152968C911F
:102D00009881892B88839401A501B601C70101E050
:102D10000E94845049015A016B017C011F5FC4CF9E
:102D2000FC016F3F710581F1808581FD2DC060320E
:102D300071055CF581E090E002C0880F991F6A95EB
:102D4000E2F780959095092E000CAA0BBB0B4285EB
:102D500053856485758584239523A623B7238287AD
:102D60009387A487B58782859385A485B585892BAC
:102D70008A2B8B2B49F486859785A089B189892B6D
:102D80008A2B8B2B09F4108608956052710981E01B
:102D900090E002C0880F991F6A95E2F780959095A0
:102DA000092E000CAA0BBB0B4685578560897189DB
:102DB00084239523A623B72386879787A08BB18B7F
:102DC000D2CFFC016F3F7105E9F1603371051CF052
:102DD00082E08087089580858160808760327105F8
:102DE000C4F481E090E002C0880F991F6A95E2F771
:102DF000092E000CAA0BBB0B428553856485758593
:102E0000842B952BA62BB72B82879387A487B58716
:102E100008956052710981E090E002C0880F991F07
:102E20006A95E2F7092E000CAA0BBB0B4685578565
:102E300060897189842B952BA62BB72B8687978762
:102E4000A08BB18B0895E0ECF8E020812E7F2083E9
:102E5000FC0117820895E0ECF8E082818E7F828386
:102E60000895E0ECF8E082818160828308950F93F9
:102E700091E090931A2A1092192A6093172A70935E
:102E8000182A4093162A2093152A1092142A109279
:102E9000132A0093122A880F8093112A23E030E02E
:102EA00044E050E08091162A882341F020930F2AB5
:102EB0003093102A8091112A8E7F0BC08091152AA1
:102EC000882351F040930F2A5093102A8091112AA1
:102ED00081608093A70808C08091162A811104C0E0
:102EE0008091152A882311F38091192A8823E1F310
:102EF0008091192A8330B1F28091152A882321F01C
:102F00008091132A0F9108958091192A823031F00F
:102F1000853031F0813031F480E0F4CF81E0F2CFC0
:102F200083E0F0CF84E0EECFE0EAF8E091859066B0
:102F3000918722E030E020930F2A3093102A80936B
:102F4000012A1092002A089581E08093002A1092AD
:102F5000012A93E09093AA089091AB0891FF10C0CA
:102F600010920D2AE091FE29F091FF290995809396
:102F70000C2A85E090E080930F2A9093102A089500
:102F800010920E2A80930B2A86E090E0F4CF8F9265
:102F90009F92AF92BF92CF92DF92EF92FF92CF9328
:102FA000DF9360342DE0720723E08207910508F477
:102FB00054C0611525E372072CE08207910508F4DF
:102FC00045C060387F448241910508F046C0C8E79B
:102FD000D0E020E432E44FE050E080903C28909034
:102FE0003D28A0903E28B0903F28C501B4010E9422
:102FF000395069017A018AE0C81AD108E108F1085C
:10300000C501B40120E432E44FE050E00E943950A1
:10301000DE010E945E4F28EE33E040E050E00E9467
:103020003950C21AD30AE40AF50AF694E794D79401
:10303000C794C092A608DF91CF91FF90EF90DF90E8
:10304000CF90BF90AF909F908F900895CCE2D1E049
:1030500020E83AE146E050E0C0CFC8EED3E020EAF5
:1030600036E841E050E0B9CF6093FC297093FD2928
:1030700008956093FA297093FB290895E091FC2943
:10308000F091FD29309741F01092F9291092F8291A
:1030900009958091F829089580E00895E091FA2932
:1030A000F091FB29309759F03091F7292091F629BA
:1030B000321728F01092F7298093F6290994089581
:1030C000E091F7298091F629E81730F4F0E0EA580A
:1030D000F64D808190E008958FEF9FEF08959091D5
:1030E000F7298091F6292FEF3FEF981748F4E92F41
:1030F000F0E0EA58F64D208130E09F5F9093F72989
:10310000C90108958091F6299091F729891B990B9F
:103110000895CF92DF92EF92FF920F931F93CF9378
:10312000DF937C018A01EB016B01C40ED51ECC1527
:10313000DD0551F06991D701ED91FC910190F0818D
:10314000E02DC7010995F3CFC801DF91CF911F9101
:103150000F91FF90EF90DF90CF9008952091F82984
:1031600027FF08C021E030E0FC012283338390E098
:1031700080E008958091F929E82FF0E0EA50F74DBA
:1031800060838F5F8093F9298093F82981E090E034
:103190000895DC01ED91FC91008CF18DE02D61E052
:1031A00009940F9380910F2A9091102A0197A1F40E
:1031B00080911A2A811112C0062F20E04091F8292F
:1031C00066EF78E28091F5280E9437171092F9296E
:1031D0001092F8290F91089580E0F8CF81E0F6CFA2
:1031E000DC01ED91FC910688F789E02D0994FF92AE
:1031F0000F931F93CF93DF93F82ED92FC62F809173
:10320000A22B9091A32B009709F458C06091A62B94
:10321000062E000C770B0E94F0188091A22B909143
:10322000A32BDC01ED91FC910190F081E02D60E099
:1032300009950F2D1D2FD1E0C1508091A22B9091A7
:10324000A32BDC01ED91FC91CF3F79F1D7FF1CC09E
:10325000028CF38DE02D09956091A62B062E000CB3
:10326000770B8091A22B9091A32B0E94F018809154
:10327000A22B9091A32BDC01ED91FC910190F081A8
:10328000E02D60E00995D1E08091A22B9091A32BD5
:10329000F8016491DC01ED91FC910190F081E02D49
:1032A0000995DF5F0F5F1F4FC7CF028CF38DE02DB5
:1032B000DF91CF911F910F91FF900994E091B22B74
:1032C000F091B32B90818091B82B809589238083D6
:1032D0000F2D1D2FC15008F43DC0F801649180915D
:1032E000A02B9091A12B009751F0DC01ED91FC9166
:1032F0000480F581E02D09950F5F1F4FEBCF28E08B
:1033000030E090E8E091AE2BF091AF2B8091B62B9E
:10331000462F4923D9F04081842B8083E091B02B44
:10332000F091B12B80814091B72B842B8083E09169
:10333000B02BF091B12B40818091B72B80958423E5
:103340008083969521503109E9F6D6CF408180954A
:103350008423E3CFDF91CF911F910F91FF900895C8
:103360006093F5281092F9291092F8290895DC014C
:10337000ED91FC91048CF58DE02D21E009940F93E3
:1033800086E799E28093022A9093032A80910F2A7C
:103390009091102A0197C9F480911A2A811117C0BF
:1033A000FA014138510510F0E0E8F0E0022F862FD5
:1033B0002E2F40E070E060E00E9437171092F7294E
:1033C0008093F62990E00F91089580E0F7CF81E097
:1033D000F5CFCB01BA010C94C717E0EAF8E01382ED
:1033E000168281E085831486118610920F2A10922E
:1033F000102A08951092F7291092F6291092F929AF
:103400001092F82980910F2A9091102A892BD9F4D3
:1034100082E090E080930F2A9093102A10920E2A57
:1034200010920D2A1092002A1092012A1092F4286C
:1034300010920B2A660F6093AC0881EE8093A90866
:1034400081E08093A3088EE398E18093FE29909316
:10345000FF2986EF98E28093042A9093052A8EE450
:1034600098E18093092A90930A2A86E799E280934B
:10347000062A9093072A80E88093082A08951092DC
:10348000F7291092F6291092F9291092F8298091C3
:103490000F2A9091102A892B41F562E070E086E1B5
:1034A0000E941C1262E070E087E10E941C12809171
:1034B000E3058093E30581E090E080930F2A9093E9
:1034C000102A1092132A1092142A10921A2A10927B
:1034D000192A81EC8093A30860EA76E881E090E005
:1034E0000E94C71781E08093A5080895EF92FF928C
:1034F0000F931F93CF93DF93EC01EC80FD806E154B
:103500007F050CF070C057FF04C0240F351F50E03A
:1035100040E08E819F81FA01E20FF31F8E179F0713
:103520001CF49C01241B350B121613060CF05BC017
:10353000922F842F8695869586958E9DD0018F9D9E
:10354000B00D11246A0F7B1FAF8DB8A1A60FB71F56
:10355000477049F188E0841B482F682F70E0FB0119
:10356000EF5AF74EE491281708F063C0621B710907
:103570002FEF30E002C0359527956A95E2F7E223F8
:103580000130110539F0B0F10230110561F58C916F
:10359000E82702C08C91E82BEC93941720F12C8142
:1035A0003D81A20FB31FE92FE41BE83078F0023011
:1035B000110521F58E2F9C9190959C932C813D8136
:1035C000A20FB31F88508830B0F7E770EE2359F090
:1035D000F0E0E75BF74EE49101301105F9F010F1EE
:1035E0000230110519F1DF91CF911F910F91FF90DA
:1035F000EF900895E0958C91E823CECF81E00115FE
:10360000110509F480E081959E2F8C932C813D81DA
:10361000A20FB31F98509830C0F7D7CF8C91E82BEA
:10362000EC93E1CFE0958C91E823FACF8C91E827D9
:10363000F7CF0130110509F4ADCFE0F202301105EA
:1036400009F4A5CFAE0DBF1DAECF0F931F93CF933F
:10365000DF9377FF04C0260F371F70E060E0DC01C6
:103660001496CD91DC91FB01E20FF31FCE17DF071B
:103670001CF49E01261B370B121613064CF5FA019B
:1036800057FD3796A3E0F595E795AA95E1F7EC9FEE
:10369000D001ED9FB00DFC9FB00D11246A0F7B1F70
:1036A000DC015F96ED91FC91E60FF71F47705527FF
:1036B00081E090E001C0880F4A95EAF7482F013079
:1036C000110559F0A8F02E0F3F1F02301105E1F04F
:1036D000DF91CF911F910F9108952E0F3F1FE21799
:1036E000F307B1F38191DF011197842B8C93F7CF0E
:1036F00080952E0F3F1FE217F30751F39191DF01E1
:10370000119798239C93F7CFE217F30709F3819160
:10371000DF01119784278C93F7CF0F931F93FA0142
:10372000DC0156964C9156974230E9F04330A1F1B6
:10373000413061F514964D915C91DA01AE1BBF0BDF
:10374000FD01E21BF30B77FD0BC0DC0116964D91DA
:103750005C916417750724F4AB01BF010E94251B1F
:103760001F910F91089514964D915C91DA01A61B5B
:10377000B70BBD0161507109DC0116964D915C914A
:10378000DA01AE1BBF0BFD01E21BF30B77FDE8CFA7
:10379000AF010E94761AE4CF16964D915C91DA0142
:1037A000A61BB70BBD0161507109CDCF0F931F93BD
:1037B000FA01DC0156964C9156974230A9F04330FD
:1037C00091F1413019F514964D915C91DA01AE1BDF
:1037D000BF0BFD013197F7FD04C0AB01BF010E9493
:1037E000761A1F910F91089514964D915C91DA010C
:1037F000A61BB70BBD01DC0116964D915C91DA0159
:10380000AE1BBF0BFD013197621B730BF7FDE9CFB8
:10381000DC0116964D915C91E417F50714F7AF01A2
:103820000E94251BDECF16964D915C91DA01A61BF6
:10383000B70BBD01621B730BCECFFC0177FD64C0DB
:1038400080859185681779070CF05EC057FD5CC0D4
:1038500082859385481759070CF056C086898230B7
:10386000B1F0833029F1813041F484819581841B4A
:10387000950BAB01BC01615071092130310509F193
:1038800008F443C02230310509F463C008958481EF
:103890009581DC01A61BB70BBD01615071098681C2
:1038A0009781DC01A41BB50BAD0141505109E5CF57
:1038B00086819781861B970BBA01AC014150510953
:1038C000DCCFCA0157FD0796A3E095958795AA9589
:1038D000E1F7A481B5818A9F90018B9F300D9A9F5B
:1038E000300D1124620F731F078CF0A1E02DE60F3D
:1038F000F71F4770552721E030E001C0220F4A959D
:10390000EAF78081822B80830895CA0157FD0796CC
:1039100033E0959587953A95E1F7A481B5818A9F23
:1039200090018B9F300D9A9F300D1124620F731FF1
:10393000078CF0A1E02DE60FF71F4770552781E0B7
:1039400090E001C0880F4A95EAF78095908189231D
:10395000DACFCA0157FD079623E0959587952A95FA
:10396000E1F7A481B5818A9F90018B9F300D9A9FCA
:10397000300D1124620F731F078CF0A1E02DE60FAC
:10398000F71F4770552721E030E001C0220F4A950C
:10399000EAF780818227B7CF1F93CF93DF93EC01A3
:1039A0008D8D9E8D009739F1162F69A1062E000C82
:1039B000770B0E94F0188D8D9E8DDC01ED91FC91AE
:1039C0000190F081E02D60E009958D8D9E8DDC01E8
:1039D000ED91FC910190F081E02D612F09958D8D85
:1039E0009E8DDC01ED91FC91028CF38DE02DDF9139
:1039F000CF911F910994ADA5BEA59C918BA98095EF
:103A000089238C938B8D9C8D009751F0DC01ED9177
:103A1000FC910480F581E02DDF91CF911F910994F5
:103A200028E030E090E8A9A5BAA589A9462F492346
:103A3000C1F04C91842B8C93ABA5BCA58C914AA969
:103A4000842B8C93ABA5BCA54C918AA9809584232B
:103A50008C9396952150310931F7DF91CF911F91C9
:103A600008954C9180958423E6CFFF920F931F9386
:103A7000CF93DF938091A22B9091A32B009709F411
:103A80008DC04091BA2B5091BB2B6091BC2B709193
:103A9000BD2BDC01ED91FC910488F589E02D0995A1
:103AA00065E083E390E20E94F7186091892B6150F2
:103AB00085E89BE20E94CC1C20918B2B30918C2BB3
:103AC000C901079697FD079623E0959587952A9556
:103AD000E1F72091892B30918A2B829F8001839F6F
:103AE000100D929F100D1124C091A42BD091A52BE5
:103AF0008091A22B9091A32B0C0F1D1F009709F40E
:103B000094C06091A62B062E000C770B0E94F01833
:103B10008091A22B9091A32BDC01ED91FC9101905F
:103B2000F081E02D60E40995FF24F3948091A22BAD
:103B30009091A32BDC01ED91FC910C171D0709F46A
:103B400055C0F7FE1DC0028CF38DE02D09956091E4
:103B5000A62B062E000C770B8091A22B9091A32B05
:103B60000E94F0188091A22B9091A32BDC01ED9183
:103B7000FC910190F081E02D60E40995FF24F3941D
:103B80008091A22B9091A32B6991DC01ED91FC9186
:103B90000190F081E02D0995F394C8CF8091A02B7E
:103BA0009091A12B0097B9F0DC01ED91FC91068476
:103BB000F785E02D0091C32B1091C42B2091C52BCC
:103BC0003091C62B4091C72B5091C82B6091C92BC7
:103BD0007091CA2B0995E091B42BF091B52B90818F
:103BE0008091B92B8095892380835ACF028CF38DE5
:103BF000E02D09958091A22B9091A32B009709F4B9
:103C00005AC04091BE2B5091BF2B6091C02B709138
:103C1000C12BDC01ED91FC910488F589E02DDF9149
:103C2000CF911F910F91FF900994E091B22BF091E9
:103C3000B32B80819091B82B892B80830C171D07A3
:103C4000C9F269918091A02B9091A12B009741F02E
:103C5000DC01ED91FC910480F581E02D0995EECF1A
:103C600028E030E090E8E091AE2BF091AF2B80910E
:103C7000B62B462F4923D9F04081842B8083E091D5
:103C8000B02BF091B12B80814091B72B842B808396
:103C9000E091B02BF091B12B40818091B72B8095B2
:103CA00084238083969521503109E9F6C7CF40815E
:103CB00080958423E3CFE091B42BF091B52B8081E4
:103CC0009091B92B892B80838091A02B9091A12B6F
:103CD000009761F0DC01ED91FC910088F189E02D05
:103CE000DF91CF911F910F91FF900994DF91CF91B8
:103CF0001F910F91FF900895FF920F931F93CF9301
:103D0000DF93EC01F62E8D8D9E8D009729F14DA944
:103D10005EA96FA978ADDC01ED91FC910488F5896D
:103D2000E02D099566EAF11067EACE010E94CC1CED
:103D30008D8D9E8D009799F149AD5AAD6BAD7CADDF
:103D4000DC01ED91FC910488F589E02DDF91CF91A4
:103D50001F910F91FF9009948B8D9C8D0097B9F066
:103D6000DC01ED91FC910684F785E02D0EAD1FADD1
:103D7000DE01A05CBF4F2C9111963C9111964C91A5
:103D800011965C9111966C9111967C910995EFA515
:103D9000F8A990818CA9809589238083C3CFEFA552
:103DA000F8A980819CA9892B80838B8D9C8D00979D
:103DB00061F0DC01ED91FC910088F189E02DDF914B
:103DC000CF911F910F91FF900994DF91CF911F9197
:103DD0000F91FF9008950895FC016370668B8481B4
:103DE000958126813781613039F0633029F08087F1
:103DF0009187228733870895208731878287938729
:103E000008952F923F924F925F926F927F928F927E
:103E10009F92AF92BF92CF92DF92EF92FF920F9359
:103E20001F93CF93DF93CDB7DEB76A97CDBFDEBFC9
:103E3000898F9A8F69837A834A01D22E0F831887DC
:103E40003701BC2CDC0159962D913C915A972115D4
:103E5000310509F012C118968D919C911997681738
:103E600079070CF0D4C11A968D919C914817590787
:103E70000CF0CDC14C2C512CB6E0CB9E600D711DC9
:103E800011246B877C87161617060CF0C0C1EA2D2B
:103E9000F0E0E987FA8793E0EE0FFF1F9A95E1F7CC
:103EA000EF87F88BCF01840F951F181619060CF0B9
:103EB000AEC1A98DBA8D58968C91811104C0BFEA0C
:103EC000BD1508F4D394A98DBA8DED91FC9111978D
:103ED0000284F385E02DCD010995B5E0DB9EC0019C
:103EE0001124E981FA81EB83FC83312C212C9C0184
:103EF000275B3C4E2F8B388F4A2D50E04D8B5E8BCD
:103F0000EF89F88DE20DF31D44918D829E82D12CB4
:103F1000C12C69817A81620D731D698B7A8B842F24
:103F200090E08B8B9C8BE98DFA8DA081B18140FF55
:103F30007FC0F1E0BF126CC0AF126AC01C96ED9159
:103F4000FC912F813885A4014C0D5D1D69897A890A
:103F5000898D9A8D0995EB89FC89F595E7954E2F0A
:103F60005FEFC51AD50A6D817E818D899E89680FA4
:103F7000791F6D837E8398E0C916D10481F6AFEF77
:103F80002A1A3A0AEB81FC81E40DF51DEB83FC83D0
:103F9000F5E02F16310409F0B3CF2F8138852615AF
:103FA0003705B9F0A98DBA8DED91FC91B1E0BB1246
:103FB00054C0AB1252C069817A816B5F7F4F008819
:103FC000F189E02D830128E030E0A401898D9A8DEC
:103FD0000995A98DBA8DED91FC9111970688F78905
:103FE000E02DCD016A96CDBFDEBFDF91CF911F914D
:103FF0000F91FF90EF90DF90CF90BF90AF909F9088
:104000008F907F906F905F904F903F902F9009948A
:104010001E96ED91FC91EF80F88409851A85920136
:104020004D815E816B817C81898D9A8D099593CFBD
:104030002F8138852615370509F48DCF31E0B3126D
:1040400007C0A31205C01C96ED91FC9193017BCF94
:104050001E96ED91FC917301E0CF6B857C85641910
:1040600075090684F785E02D73010F851889920183
:10407000A401898D9A8D0995ACCFF901349694915C
:10408000329745915491D91AB7E0DB9E400D511DEE
:104090001124F901259134912B8B3C8BFA01259049
:1040A0003490FA013296749031963491398B32966D
:1040B00064903196449041E04C1518F04A1508F090
:1040C0007FC0662D062C000C770B6B837C83842DC0
:1040D000042C000C990B8D839E83A98DBA8DED91D4
:1040E000FC9111970284F385E02DCD010995512CA7
:1040F000D12CC12CEA2DF0E0E987FA872B2D30E096
:104100002B873C87A401440D511D47FC5A954F8BCA
:10411000588F69817A81660D711D67FC7A956D876C
:104120007E877989C71608F054CF2C2D30E04D8159
:104130005E81420F531FA985BA854A9FC0014B9FDC
:10414000900D5A9F900D1124FC01E80DF91DEF8789
:10415000F88B852D612C4F89588D420F531F4D8B45
:104160005E8B671408F050C044244394480E877057
:1041700041F4C1010196EB89FC89E20DF31DD49055
:104180001C01D7FE19C0A98DBA8DED91FC91662D49
:1041900070E0B1E0BB1219C0AB1217C02D853E858F
:1041A000620F731F0484F585E02D2F8138854D89BA
:1041B0005E89898D9A8D0995DD0C6394842DD1CF0C
:1041C0001D821E821B821C8288CF4B815C81640F02
:1041D000751FAB85BC856A9FC0016B9F900D7A9F50
:1041E000900D112469817A81680F791F0684F78503
:1041F000E02DEF80F88409851A859D014F85588947
:10420000898D9A8D0995D8CF570CC3948ACF6A9619
:10421000CDBFDEBFDF91CF911F910F91FF90EF9047
:10422000DF90CF90BF90AF909F908F907F906F90D6
:104230005F904F903F902F9008958F929F92AF92F2
:10424000CF92EF92FF920F931F93CF93DF93EC01E6
:10425000262F898D9A8D009709F051C06A30D1F4CC
:104260001C861D868D8948E0849F900111248E85CF
:104270009F85820F931F8E879F8781E090E0DF915B
:10428000CF911F910F91FF90EF90CF90AF909F90A3
:104290008F9008956D3089F3CC88AD888F898823FD
:1042A000C1F08C859D8536E0C39E800D911D112443
:1042B000488559854817590764F44E855F851C86E3
:1042C0001D8638E0A39EC0011124840F951F8E87A0
:1042D0009F87EA88FB88088919894E855F856C85E8
:1042E0007D85CE010E94011F2C898C859D8546E02D
:1042F000249F800D911D11248C879D87BECF6A302D
:1043000069F41C861D86FC013896E4912D898E8502
:104310009F85E29F800D911D1124ADCF6D3009F472
:10432000ACCFFC0134963491631708F4A6CF3296D3
:10433000E491E61708F4A1CFFC01329685909490A1
:10434000462F431B342F47E0349F800C911C1124CF
:10435000F401329634913196E4913323A9F1EE239E
:1043600099F1CC88F4013596E491AD884F894423C6
:1043700001F10E2E000CFF0BE30FF11DCE9EA001EC
:10438000CF9E500D11246C857D85460F571F688583
:104390007985641775076CF44E855F851C861D86CC
:1043A000FC013896E491AE9E400D511D11244E87BC
:1043B0005F87EA88FB88088919894E855F856C8547
:1043C0007D85CE010E94011FF4013496E4912C8971
:1043D0008C859D85E29F800D911D11248DCF6F925C
:1043E0007F928F929F92AF92BF92CF92DF92EF9285
:1043F000FF920F931F93CF93DF93EC016B015A0150
:1044000039014801E881F9810284F385E02D09959D
:10441000E881F9810288F389E02D87019301A501E4
:10442000B601CE010995A501480D591D415051090C
:10443000E881F9810288F389E02D9301B601CE016C
:104440000995E881F9810088F189E02D9401A501A1
:10445000B601CE010995C60CD71CB6016150710991
:10446000E881F9810088F189E02D9401A501CE0150
:104470000995E881F9810688F789E02DCE01DF9161
:10448000CF911F910F91FF90EF90DF90CF90BF9051
:10449000AF909F908F907F906F9009946F927F92D2
:1044A0008F929F92AF92BF92CF92DF92EF92FF9244
:1044B0000F931F93CF93DF935C01EB016A014901D6
:1044C00038018701DC01ED91FC916217730719F542
:1044D000641675062CF0962D872D3A01C92ED82E1C
:1044E0009601261937092F5F3F4F048CF58DE02D7B
:1044F000A301BE01C5010995DF91CF911F910F91D5
:10450000FF90EF90DF90CF90BF90AF909F908F90F3
:104510007F906F9008954615570591F42617370739
:1045200024F0892D4B01C22FD82F9E01281939095B
:104530002F5F3F4F068CF78DE02DA601B401DACF37
:104540000284F385E02D0995D501ED91FC91048855
:10455000F589E02D83019401A601BE01C5010995ED
:10456000D501ED91FC910688F789E02DC501DF9119
:10457000CF911F910F91FF90EF90DF90CF90BF9060
:10458000AF909F908F907F906F900994EF92FF92E1
:104590000F931F93DC011A960D911C911B9718968F
:1045A0002D913C911997ED91FC9100A0F1A1E02D86
:1045B0007B0150E040E070E060E009951F910F91B1
:1045C000FF90EF9008954F925F926F927F928F923B
:1045D0009F92AF92BF92CF92DF92EF92FF920F9392
:1045E0001F93CF93DF936C012B015A0139014801CE
:1045F000DC01ED91FC910284F385E02D0995E20147
:10460000640C751CD601ED91FC91C615D7055CF4C0
:104610000088F189E02D87019401A501BE01C60142
:1046200009952196EFCF0688F789E02DC601DF9125
:10463000CF911F910F91FF90EF90DF90CF90BF909F
:10464000AF909F908F907F906F905F904F90099464
:104650008F929F92AF92BF92CF92DF92EF92FF9292
:104660000F931F93CF93DF93EC015B014A01690124
:10467000E881F9810284F385E02D099595012C0DDF
:104680003D1D21503109E881F9810488F589E02D2B
:1046900078018401A401B501CE010995E881F98171
:1046A0000688F789E02DCE01DF91CF911F910F9100
:1046B000FF90EF90DF90CF90BF90AF909F908F9042
:1046C00009948F929F92AF92BF92CF92DF92EF9216
:1046D000FF920F931F93CF93DF93EC015B014A018D
:1046E00069017801E881F9810284F385E02D09955B
:1046F000C80CD91C860101501109E881F981048890
:10470000F589E02D9501A401B501CE010995E88157
:10471000F9810688F789E02DCE01DF91CF911F91B5
:104720000F91FF90EF90DF90CF90BF90AF909F9050
:104730008F900994EF92FF920F931F93DC01ED91FC
:10474000FC9100A0F1A1E02D09951F910F91FF9020
:10475000EF9008950F931F93DC01ED91FC91068C6F
:10476000F78DE02D09951F910F9108950F931F93D9
:10477000DC01ED91FC91048CF58DE02D09951F91E4
:104780000F910895DC01ED91FC910084F185E02DFD
:1047900009943F924F925F926F927F928F929F9275
:1047A000AF92BF92CF92DF92EF92FF920F931F933F
:1047B000CF93DF9300D000D0CDB7DEB75C013B01D3
:1047C0006A014901280187E0480E511C93E0559485
:1047D00047949A95E1F7CA018E0D9F1D89839A83AC
:1047E000F12CE12C312C1B821C828B819C818770E7
:1047F0009927330C892B61F4EB81FC8183E0F595DB
:10480000E7958A95E1F7EE0DFF1DE80DF91D34904F
:1048100037FE0AC021E030E0A6016B817C81660D85
:10482000771DC5010E94C2238B819C8101968B83D9
:104830009C8308171907C9F69FEFC91AD90AE40C17
:10484000F51C89819A81C816D90669F62496CDBFD0
:10485000DEBFDF91CF911F910F91FF90EF90DF901E
:10486000CF90BF90AF909F908F907F906F905F9010
:104870004F903F9008952F923F924F925F926F9288
:104880007F928F929F92AF92BF92CF92DF92EF92E0
:10489000FF920F931F93CF93DF93CDB7DEB7269789
:1048A000CDBFDEBF3C016A012D833E83EB82FC82DB
:1048B0005801A41AB50AB7FE03C0B194A194B10877
:1048C0008D809E80861A970A97FE03C091948194EA
:1048D00091088A149B045CF0902F812F0D811E811A
:1048E0009D838E839C2D8D2D6B01692F782F0C1548
:1048F0001D055CF09D818E816D837E83692F782FED
:10490000902F812F8601C92ED82E1601201A310A28
:104910002B012D813E81421A530A57FE03C0519448
:1049200041945108710137FE03C03FEFE31AF30AC7
:10493000F594E7948D819E81861797075CF5A1E039
:10494000B0E0A983BA83C016D1064CF1D301ED9132
:10495000FC910484F585E02D2B813C81A8016D81BB
:104960007E818A149B041CF04D815E81B801C301D5
:104970000995E418F508F7FE0AC02D813E8189816A
:104980009A81280F391F2D833E83E20CF31C0F5FA1
:104990001F4FD9CF2FEF3FEF29833A83D4CF2696ED
:1049A000CDBFDEBFDF91CF911F910F91FF90EF90B0
:1049B000DF90CF90BF90AF909F908F907F906F903F
:1049C0005F904F903F902F900895089590E080E081
:1049D0000895DC01ED91FC910088F189E02D23E040
:1049E00030E009940C944D5120918B2B30918C2BFD
:1049F000C901079697FD079623E0959587952A9517
:104A0000E1F72091892B30918A2B829FA001839F0F
:104A1000500D929F500D112470E060E08091A42B06
:104A20009091A52B0C94DB51EF92FF920F931F9363
:104A30000E94F42489E0E82EF12C0EE110E025E23A
:104A400033E150E040E063E370E085E89BE20E94E0
:104A5000C92399E1E92EF12C0CE010E023EF32E1BB
:104A600045E050E06CE270E085E89BE20E94C923DB
:104A700029E0E22EF12C0EE110E025E233E14BE1DA
:104A800050E060E370E085E89BE20E94C92339E1D1
:104A9000E32EF12C0CE010E023EF32E140E250E095
:104AA00069E270E085E89BE20E94C92323EF32E1CE
:104AB00040E250E065E470E085E89BE20E94C92393
:104AC0001F910F91FF90EF900C94351DEF92FF9284
:104AD0000F931F930E94F42489E0E82EF12C0EE13D
:104AE00010E025E233E150E040E063E370E085E868
:104AF0009BE20E94C92399E1E92EF12C0CE010E021
:104B000023EF32E145E050E06CE270E085E89BE2A3
:104B10000E94C92329E0E22EF12C0EE110E025E2EB
:104B200033E14BE150E060E370E085E89BE20E94F6
:104B3000C92339E1E32EF12C0CE010E023EF32E140
:104B400040E250E065E470E085E89BE20E94C92302
:104B500049E0E42EF12C0EE110E025E233E146E3DA
:104B600050E06DE270E085E89BE20E94C9231F914E
:104B70000F91FF90EF900C94351DEF92FF920F93E1
:104B80001F930E94F42489E1E82EF12C0CE010E040
:104B900023EF32E145E050E06CE270E085E89BE213
:104BA0000E94C92323EF32E145E050E068E470E061
:104BB00085E89BE20E94C92399E0E92EF12C0EE1E1
:104BC00010E025E233E14BE150E060E370E085E87E
:104BD0009BE20E94C92329E1E22EF12C0CE010E0B7
:104BE00023EF32E140E250E065E470E085E89BE2CB
:104BF0000E94C9231F910F91FF90EF900C94351DD7
:104C0000EF92FF920F931F930E94F42489E0E82E05
:104C1000F12C0EE110E025E233E150E040E063E3E7
:104C200070E085E89BE20E94C92399E1E92EF12C0E
:104C30000CE010E023EF32E145E050E068E470E082
:104C400085E89BE20E94C92329E0E22EF12C0EE1C7
:104C500010E025E233E14BE150E060E370E085E8ED
:104C60009BE20E94C92339E1E32EF12C0CE010E015
:104C700023EF32E140E250E065E470E085E89BE23A
:104C80000E94C92349E0E42EF12C0EE110E025E258
:104C900033E146E350E06DE270E085E89BE20E947C
:104CA000C9231F910F91FF90EF900C94351DEF9247
:104CB000FF920F931F930E94F42489E0E82EF12CB9
:104CC0000EE110E025E233E150E040E063E370E004
:104CD00085E89BE20E94C92399E1E92EF12C0CE0C2
:104CE00010E023EF32E145E050E068E470E085E851
:104CF0009BE20E94C92329E0E22EF12C0EE110E094
:104D000025E233E14BE150E060E370E085E89BE2AF
:104D10000E94C92339E1E32EF12C0CE010E023EFCF
:104D200032E140E250E069E270E085E89BE20E94F7
:104D3000C92349E0E42EF12C0EE110E025E233E135
:104D400046E350E06DE270E085E89BE20E94C923F3
:104D50001F910F91FF90EF900C94351DEF92FF92F1
:104D60000F931F930E94F42489E1E82EF12C0CE0AC
:104D700010E023EF32E145E050E068E470E085E8C0
:104D80009BE20E94C92323EF32E140E250E065E458
:104D900070E085E89BE20E94C9231F910F91FF906C
:104DA000EF900C94351D80919828811116C0409188
:104DB000CF2B5091D02B70E060E08091D42B90915C
:104DC000D52B0E94DB510E945B1381E080939828D1
:104DD000809197288093962808958130E9F78091F3
:104DE0002E2A40912D2A50E070E060E0762F652F4A
:104DF000542F4427682B80914028482B90E080E076
:104E00000E94481080912E2A40912D2A50E070E097
:104E100060E0762F652F542F4427682B809140281F
:104E2000482B81E090E00E94481080912E2A40910A
:104E30002D2A50E070E060E0762F652F542F442734
:104E4000682B80914028482B82E090E00E94481017
:104E500080912E2A40912D2A50E070E060E0762F5C
:104E6000652F542F4427682B80914028482B83E0DE
:104E700090E00E94481080912E2A40912D2A50E007
:104E800070E060E0762F652F542F4427682B8091C7
:104E90004028482B84E090E00E9448100E945B1359
:104EA0001092982895CFFB0101900020E9F73197E7
:104EB000AF01461B570BDC01ED91FC910280F381A1
:104EC000E02D09948F929F92AF92BF92EF92FF9242
:104ED0000F931F93CF93DF93CDB7DEB7A197CDBFCD
:104EE000DEBF7C01FA01CB0119A2223008F42AE0CE
:104EF0008E010F5D1F4F822E912CB12CA12CBF0172
:104F0000A50194010E943950F901CA016A30F4F4F4
:104F1000605DD8016E938D01232B242B252B79F70F
:104F200090E080E0109721F0BD01C7010E94532757
:104F3000A196CDBFDEBFDF91CF911F910F91FF9062
:104F4000EF90BF90AF909F908F900895695CE1CFF4
:104F5000CF92DF92EF92FF920F931F93CF93DF9345
:104F6000EC016A017B01E881F9810190F081E02D7B
:104F70006DE209958C0144275527BA014C195D094A
:104F80006E097F092AE0CE010E946227800F911FDF
:104F9000DF91CF911F910F91FF90EF90DF90CF9015
:104FA0000895AB01770F660B770B77FD0C94A8275C
:104FB0002AE00C9462274F925F926F927F928F92B9
:104FC0009F92AF92BF92CF92DF92EF92FF926B01CE
:104FD0007C01AC019B010E94205064EB74EE8111B6
:104FE00026C046015701E894B7F82FEF3FEF4FE78F
:104FF0005FE7C501B4010E94205081110CC02FEF62
:105000003FEF4FE75FE7C501B4010E94324E68EB06
:1050100074EE181664F02FEF3FEF4FE75FE4C7011F
:10502000B6010E941B50181694F46CEB74EE85E8E0
:105030009BE2FF90EF90DF90CF90BF90AF909F905A
:105040008F907F906F905F904F900C9453272FEF2D
:105050003FEF4FE75FECC701B6010E94324E87FD7C
:10506000E4CF20E030E0A901C701B6010E94324E32
:10507000B12CA12C87FF0AC06DE285E89BE20E945B
:105080001D215C01F7FAF094F7F8F0942AE037ED6F
:1050900043EA5BE3C701B6010E94794F2B013C0153
:1050A0000E94EC4F6B017C010E94374E9B01AC01CA
:1050B000C301B2010E94784F2B013C012AE0B701E5
:1050C000A60185E89BE20E9462277C01EA0CFB1C9A
:1050D00060EC74EE85E89BE20E945327E80EF91E0F
:1050E00020E030E040E251E4C301B2010E94984E5A
:1050F0002B013C010E94EC4F4B01B12CA12C2AE06A
:10510000B501A40185E89BE20E946227E80EF91E22
:10511000C501B4010E94374E9B01AC01C301B2012D
:105120000E94784F20E030E040E251E40E94984E27
:105130000E94EC4FAB0170E060E02AE085E89BE262
:105140000E9462278E0D9F1DFF90EF90DF90CF9001
:10515000BF90AF909F908F907F906F905F904F9097
:1051600008950C94DB27CF93DF930E94DB27EC019B
:1051700062EC74EE85E89BE20E9453278C0F9D1F22
:10518000DF91CF910895BC0185E89BE20C945327F1
:105190000F931F93CF93DF93EC01462F50E070E005
:1051A00060E02AE00E9462278C0162EC74EECE017E
:1051B0000E945327800F911FDF91CF911F910F9174
:1051C00008950F931F93CF93DF93EC010E94D12793
:1051D0008C0162EC74EECE010E945327800F911F68
:1051E000DF91CF911F910F9108950F931F93CF934C
:1051F000DF93EC010E9453278C0162EC74EECE0128
:105200000E945327800F911FDF91CF911F910F9123
:1052100008950E94D651CF92DF92EF92FF920F93A2
:10522000FC01C12CB9E0DB2EBDE3EB2EF12CC082DA
:10523000D182E282F3821482158281E090E086833B
:105240009783C0903C28D0903D28E0903E28F09075
:105250003F28F694E794D794C79490E04C155D05E9
:105260006E057F0540F4F694E794D794C7949F5F4A
:105270009630A1F797E004600187892F8095A82FC9
:10528000A170B0E084E0AA0FBB1F8A95E1F791629C
:105290009A2B80E0232B09F480E4982B90870F91C0
:1052A000FF90EF90DF90CF9008950F931F93CF93CF
:1052B000DF93CDB7DEB72A97CDBFDEBF8C01FC01EF
:1052C000878181110CC01086118612861386148680
:1052D000158616861786108A118A81E08783809149
:1052E000E305F8019681892B8093E30561E070E086
:1052F00083810E94AF1261E070E0F80184810E9416
:10530000AF128091C10884608093C1088091C00869
:1053100081628093C00840916D2B50916E2B6091FB
:105320006F2B7091702B0091712B2091732B30910A
:10533000742BCE0101960E940B2999858A85909342
:10534000C0088093C1082A96CDBFDEBFDF91CF9100
:105350001F910F9108955F926F927F928F929F920B
:10536000AF92BF92CF92DF92EF92FF920F931F9373
:10537000CF93DF93CDB7DEB76297CDBFDEBF3C01E1
:105380000B871C872D873E87042F4F87588B698B8F
:105390007A8B29893A894B855C856D857E85CE011E
:1053A00001960E940B2959841A85D30118968C9175
:1053B000882319F081FF18C0F8945092C008109308
:1053C000C1086296CDBFDEBFDF91CF911F910F91D3
:1053D000FF90EF90DF90CF90BF90AF909F908F9015
:1053E0007F906F905F90089580FFE7CFF3018284F4
:1053F0009384A484B584C12CD12C7601B0E09401AF
:10540000A501B601C701A0E00E949F50A9F121703B
:1054100030E040E050E060E070E080E090E00E942A
:105420009F50E9F090E080E0B03370F48B2F8695C8
:1054300086958695F0E28F9FC0011124805F9B4F77
:105440002B2F2770820F911DFC01408193012B0FA0
:10545000311DF901428BFC012081287F20839401BA
:10546000A501B601C70101E00E94845049015A011B
:105470006B017C01BF5FC3CFD3011E968D909D90C1
:10548000AD90BC905197C12CD12C7601B0E2940123
:10549000A501B601C701A0E00E949F5009F48DCF7D
:1054A000217030E040E050E060E070E080E090E0AB
:1054B0000E949F50E9F090E080E0B03370F48B2FB1
:1054C000869586958695E0E28E9FC0011124805FC7
:1054D0009B4F2B2F2770820F911DFC014081930160
:1054E0002B0F311DF901428BFC012081287F208385
:1054F0009401A501B601C70101E00E948450490151
:105500005A016B017C01BF5FC2CFCF93DF93EB01E8
:105510000E94564F8883CE01DF91CF910895CF939B
:10552000DF930E94F42481E08093992B80939A2B3F
:10553000C1E0D0E0C093972BD093982BC093952BCC
:10554000D093962B1092912B1092922B1092932B1A
:105550001092942B8091F3288111D4C0E1E4F2E100
:10556000659174918AED98E20E942B4E8AED98E243
:105570000E94C328EFE2F2E1659174918AED98E20E
:105580000E942B4E6AED78E285E89BE20E94F528A6
:105590008091D928811138C01092952B1092962BAA
:1055A000C093972BD093982BE5E3F2E1659174912A
:1055B0008AED98E20E942B4E6AED78E285E89BE244
:1055C0000E94F528C093952BD093962B1092972B81
:1055D0001092982BE9E3F2E1659174918AED98E2DB
:1055E0000E942B4E6AED78E285E89BE20E94F52846
:1055F000EDE3F2E1659174918AED98E20E942B4E01
:105600008AED98E20E94C3288091D928813009F060
:105610003AC0E5E3F2E1659174918AED98E20E9467
:105620002B4E6AED78E285E89BE20E94F528109205
:10563000952B1092962BC1E0D0E0C093972BD0937E
:10564000982BE9E3F2E1659174918AED98E20E946A
:105650002B4E6AED78E285E89BE20E94F528C09324
:10566000952BD093962B1092972B1092982BEDE3BD
:10567000F2E1659174918AED98E20E942B4E8AEDD9
:1056800098E20E94C3288091D928823009F03AC05C
:10569000E5E3F2E1659174918AED98E20E942B4E68
:1056A0006AED78E285E89BE20E94F528E9E3F2E101
:1056B000659174918AED98E20E942B4E6AED78E232
:1056C00085E89BE20E94F5281092952B1092962B6C
:1056D000C1E0D0E0C093972BD093982BEDE3F2E19B
:1056E000659174918AED98E20E942B4E8AED98E2C2
:1056F0000E94C328C093952BD093962B1092972B82
:105700001092982B8091F328813009F0D6C0E1E403
:10571000F2E1659174918AED98E20E942B4E8AED38
:1057200098E20E94C328E1E3F2E1659174918AED69
:1057300098E20E942B4E6AED78E285E89BE20E9497
:10574000F5288091D92881113AC01092952B10929A
:10575000962BC1E0D0E0C093972BD093982BE5E334
:10576000F2E1659174918AED98E20E942B4E6AED08
:1057700078E285E89BE20E94F528C093952BD093B0
:10578000962B1092972B1092982BE9E3F2E16591FA
:1057900074918AED98E20E942B4E6AED78E285E8DA
:1057A0009BE20E94F528EDE3F2E1659174918AEDA8
:1057B00098E20E942B4E8AED98E20E94C3288091C5
:1057C000D928813009F03AC0E5E3F2E1659174919E
:1057D0008AED98E20E942B4E6AED78E285E89BE222
:1057E0000E94F5281092952B1092962BC1E0D0E0E4
:1057F000C093972BD093982BE9E3F2E165917491D4
:105800008AED98E20E942B4E6AED78E285E89BE2F1
:105810000E94F528C093952BD093962B1092972B2E
:105820001092982BEDE3F2E1659174918AED98E284
:105830000E942B4E8AED98E20E94C3288091D928BD
:10584000823009F03AC0E5E3F2E1659174918AEDA6
:1058500098E20E942B4E6AED78E285E89BE20E9476
:10586000F528E9E3F2E1659174918AED98E20E94EE
:105870002B4E6AED78E285E89BE20E94F5281092B3
:10588000952B1092962BC1E0D0E0C093972BD0932C
:10589000982BEDE3F2E1659174918AED98E20E9414
:1058A0002B4E8AED98E20E94C328C093952BD0938B
:1058B000962B1092972B1092982B8091F328823080
:1058C00011F0853091F51092912B1092922B89E175
:1058D00090E08093932B9093942BE5E3F2E1659114
:1058E00074918AED98E20E942B4E8AED98E20E9414
:1058F000C3288091F328823051F46091D5287091AB
:10590000D6288091D7289091D8280E94B1288091DC
:10591000F328853051F46091D1287091D22880917C
:10592000D3289091D4280E94B1288091F328833005
:1059300011F0863091F51092912B1092922B89E103
:1059400090E08093932B9093942BE9E3F2E165919F
:1059500074918AED98E20E942B4E8AED98E20E94A3
:10596000C3288091F328833051F46091CD28709141
:10597000CE288091CF289091D0280E94B128809184
:10598000F328863051F46091C9287091CA2880911B
:10599000CB289091CC280E94B1288091F3288430A4
:1059A00011F0873091F51092912B1092922B89E192
:1059B00090E08093932B9093942BEDE3F2E165912B
:1059C00074918AED98E20E942B4E8AED98E20E9433
:1059D000C3288091F328843051F46091C5287091D8
:1059E000C6288091C7289091C8280E94B12880912C
:1059F000F328873051F46091C1287091C2288091BA
:105A0000C3289091C4280E94B128DF91CF910C94B3
:105A1000351D0F931F93CF93DF930E94F42481E0F1
:105A20008093992B80939A2B01E010E00093972BA1
:105A30001093982B0093952B1093962B1092912BEB
:105A40001092922B1092932B1092942BE7E4F2E198
:105A5000659174918AED98E20E942B4E6AED78E28E
:105A600085E89BE20E94F5288091C02881119AC0A8
:105A70001092952B1092962B0093972B1093982BA6
:105A8000C1E4D2E1FE01659174918AED98E20E9431
:105A90002B4E8AED98E20E94C328EFE2F2E1659175
:105AA00074918AED98E20E942B4E6AED78E285E8C7
:105AB0009BE20E94F5280093952B1093962B109251
:105AC000972B1092982BFE01659174918AED98E2C4
:105AD0000E942B4E8AED98E20E94C328E1E3F2E196
