:020000040000FA
:100000000C9445020C94C0150C9495150C946A152B
:100010000C943F150C9414150C94E9140C94BE1414
:100020000C9493140C9476020C9476020C94760241
:100030000C9476020C9476020C9476020C94760260
:100040000C9476020C9475160C9476020C9476023D
:100050000C9476020C9476020C9476020C9449145B
:100060000C9476020C9413140C94E9130C947602FD
:100070000C9476020C9476020C9476020C94760220
:100080000C9447160C9476020C9476020C9476022B
:100090000C94B3130C9489130C9476020C9476028E
:1000A0000C9476020C9476020C9419160C94760239
:1000B0000C9476020C9476020C9476020C94EB1558
:1000C0000C9476020C9476020C9476020C947602D0
:1000D0000C9476020C9476020C9476020C947602C0
:1000E0000C9476020C9459060C946D3B0C94C40449
:1000F0000C94DF3B0C94D54B0C94653B0C945F0641
:100100000C9461090C9463060C9455060C94DD3B29
:100110000C9447060C9428060C946B3B0C94D33B30
:100120000C94D53B0C94713B0C9422050C941E0648
:100130000C9433060C9430060C94E93B0C94E53B8C
:100140000C9488080C94F1040C94693B0C9464059D
:100150000C945E060C9439060C94673B0C94A31621
:100160000C946F3B0C944B060C942C060C94EE4EA6
:100170000C94E13B0C94B3050C9414050C942406E8
:100180000C94603B0C94DB3B0C94E33B0C94D13B14
:100190000C9400050C94E73B0C9443060C94CF3B65
:1001A0000C94CD070C9451060C94CA3B0C94D73B8D
:1001B0000C94D93B0C943D06332073657420736511
:1001C00072766F20656E6420706F736974696F6EEC
:1001D0002000322073657420736572766F20686F1B
:1001E0006D6520706F736974696F6E2000312072C5
:1001F00065766572736520736572766F3A20003597
:1002000020536572766F20736574757000466F7247
:10021000206F7074696F6E7320747970653A7365BE
:100220007475700043525549534520434F4E545204
:100230004F4C20563A312E303300204F4646002096
:100240004F4E00322052504D20617320737065650F
:100250006400312070756C63657320706572207264
:1002600065766F6C7574696F6E00342073657420E9
:1002700052504D20696E7075740050756C636573D3
:1002800020706572207265766F6C7574696F6E0090
:10029000332073657420737065656420696E7075B2
:1002A0007400437572656E742076616C75653A00F2
:1002B000474F4F4420425945004C4F57004849474B
:1002C0004800696E707574206E65772076616C7574
:1002D00065003320736574206465726976617469A2
:1002E000766500322073657420696E74656772618B
:1002F0006C0031207365742070726F706F72746956
:100300006F6E616C0030206578697400322073650F
:100310007420706964206C6F7700312073657420DD
:100320007069642068696768002020202053455464
:1003300055500000002100240027002A002D003025
:1003400000330001010000040107010A010000223E
:1003500000250028002B002E00310034000201008F
:1003600000050108010B01000020002300260029E0
:10037000002C002F003200000100000301060109DB
:100380000105050505070508080808020202020A1A
:100390000A08080404040401010101010101010328
:1003A00003030303030303040707070C0C0C0C0CE3
:1003B0000C0C0C0202020206060606060606060BD6
:1003C0000B0B0B0B0B0B0B0102102020080810204D
:1003D00040102040800201020108040201010204D1
:1003E0000810204080804020100804020180040290
:1003F00001804020100804020108040201010204E7
:100400000810204080010204081020408000000AEB
:100410000B02090C0D0E0807030401000000000088
:1004200000000000000000000000000000000000CC
:100430000000000000000000001211100000000089
:1004400000000000000000000000000000000000AC
:1004500000000029031A030C030503F202E302D291
:1004600002C202BD02B902B002A20290027A026A7E
:1004700002520243023F023A0224020D02FF01ED42
:1004800001D201B80100A316D54B11241FBECFEF36
:10049000D1E2DEBFCDBF00E00CBF13E0A0E0B2E0D0
:1004A000E8EFF3EA00E00BBF02C007900D92A23321
:1004B000B107D9F727E0A2E3B3E001C01D92A5324E
:1004C000B207E1F712E0C4E4D2E000E006C02197F1
:1004D0000109802FFE010E94D14EC334D10780E074
:1004E0000807A9F70E9478180C94EA510C940000B0
:1004F0004F925F926F927F928F929F92AF92BF9234
:10050000CF92DF92EF92FF92CF93DF936B017C014A
:1005100049015A010E94974E87FF67C0C092EE06BC
:10052000D092EF06E092F006F092F1068092F20689
:100530009092F306A092F406B092F5068091F6062A
:10054000882309F452C0C091DA06D091DB064880B6
:1005500059806A807B80A3019201C501B4010E9489
:10056000E54B87FF25C088829982AA82BB82809052
:10057000E2069090E306A090E406B090E506C090F5
:10058000F206D090F306E090F406F090F506A7018D
:100590009601C501B4010E94974E1816B4F4C0929A
:1005A000E206D092E306E092E406F092E5061DC072
:1005B000A3019201C701B6010E94974E1816BCF61E
:1005C000C882D982EA82FB82D2CFC090EE06D09058
:1005D000EF06E090F006F090F106A7019601C50144
:1005E000B4010E94E54B87FDDACFDF91CF91FF90F8
:1005F000EF90DF90CF90BF90AF909F908F907F90C3
:100600006F905F904F9008954F925F926F927F929C
:100610008F929F92AF92BF92CF92DF92EF92FF9212
:100620000F931F93CF93DF9300D01F92CDB7DEB708
:100630004B015C0129013A016701780120E030E0BB
:10064000A9010E94E54B87FDA6C020E030E0A9018A
:10065000C301B2010E94E54B87FD9DC020E030E060
:10066000A901C801B6010E94E54B87FD94C081E055
:100670002091D6063091D7062130310509F080E06F
:100680008093F7068092BC069092BD06A092BE06AB
:10069000B092BF064092C0065092C1066092C20658
:1006A0007092C306C092C406D092C506E092C606F8
:1006B000F092C7066091EA067091EB068091EC0615
:1006C0009091ED060E94EA4B20E030E04AE754E4C6
:1006D0000E94EF4D69837A838B839C838092C80646
:1006E0009092C906A092CA06B092CB069B01AC01BB
:1006F000C301B2010E944B4C2B013C014092CC063D
:100700005092CD066092CE067092CF0629813A8132
:100710004B815C81C701B6010E94EF4D6B017C01EA
:10072000C092D006D092D106E092D206F092D306C3
:100730008091D4069091D506019769F5A5019401A1
:1007400060E070E0CB010E94824D6093C806709318
:10075000C9068093CA069093CB06A301920160E07C
:1007600070E0CB010E94824D6093CC067093CD0661
:100770008093CE069093CF06A701960160E070E0CB
:10078000CB010E94824D6093D0067093D106809376
:10079000D2069093D3060F900F900F900F90DF9199
:1007A000CF911F910F91FF90EF90DF90CF90BF906E
:1007B000AF909F908F907F906F905F904F90089533
:1007C0008F929F92AF92BF92CF92DF92EF92FF9261
:1007D000CF93C82FC170019709F04DC08091F606E4
:1007E000811149C0E091DA06F091DB06C080D1802A
:1007F000E280F380C092E206D092E306E092E40643
:10080000F092E506E091D806F091D90680819181B9
:10081000A281B3818093E6069093E706A093E80651
:10082000B093E9068090F2069090F306A090F4064B
:10083000B090F506A5019401C701B6010E94974E3C
:1008400018164CF48092E2069092E306A092E40619
:10085000B092E50610C08090EE069090EF06A09052
:10086000F006B090F106A5019401C701B6010E94FF
:10087000E54B87FDE7CFC093F606CF91FF90EF9051
:10088000DF90CF90BF90AF909F908F900895CF92C0
:10089000DF92EF92FF92DC01A03282E0B807D4F53C
:1008A000A53BB10514F0A4EBB0E040911F0728E888
:1008B00030E0241B310947FD3395220F331F220FEF
:1008C000331F6901330FEE08FF084091200728E528
:1008D00032E0241B310947FD3395220F331F220FCD
:1008E000331F032E000C440B550B2C193D094E09E8
:1008F0005F09B7FF02C0B0E0A0E00E94494D24EBC1
:1009000030E040E050E00E941F4DC20ED31EE41EB6
:10091000F51ED601E0911E07E03380F520911F07F8
:1009200088E890E0821B910927FD9395880F991F15
:10093000880F991FA817B90784F02091200788E530
:1009400092E0821B910927FD9395880F991F880FCC
:10095000991FA817B9070CF4CD010297880F991FAA
:100960004FB7F8942E2F30E0F901EE0FFF1FE20F82
:10097000F31FE15EF94F928381834FBFFF90EF90A9
:10098000DF90CF9008950895AF92BF92CF92DF92FB
:10099000EF92FF920F931F93CF93DF936C017B0134
:1009A0008B01040F151FEB015E01AE18BF08C017C5
:1009B000D10759F06991D601ED91FC910190F08138
:1009C000E02DC6011995892B79F7C501DF91CF91EB
:1009D0001F910F91FF90EF90DF90CF90BF90AF905D
:1009E0000895FC01538D448D252F30E0842F90E035
:1009F000821B930B541710F0CF960895019708951A
:100A0000FC01918D828D981761F0A28DAE0FBF2FE2
:100A1000B11D5D968C91928D9F5F9F73928F90E038
:100A200008958FEF9FEF0895FC01918D828D9817A7
:100A300031F0828DE80FF11D858D90E008958FEFE4
:100A40009FEF0895FC01918D228D892F90E0805CAD
:100A50009F4F821B91098F73992708958CED94E025
:100A60000E94220521E0892B09F420E0822F0895BD
:100A700089E795E00E94220521E0892B09F420E016
:100A8000822F0895FC01A48DA80FB92FB11DA35A80
:100A9000BF4F2C91848D90E001968F739927848F9E
:100AA000A689B7892C93A089B1898C9183708064C1
:100AB0008C93938D848D981306C00288F389E02D62
:100AC00080818F7D80830895EF92FF920F931F9313
:100AD000CF93DF93EC0181E0888F9B8D8C8D9813F1
:100AE0001AC0E889F989808185FF15C09FB7F894FD
:100AF000EE89FF896083E889F98980818370806449
:100B000080839FBF81E090E0DF91CF911F910F9193
:100B1000FF90EF900895F62E0B8D10E00F5F1F4FA2
:100B20000F731127E02E8C8D8E110CC00FB607FCB1
:100B3000FACFE889F989808185FFF5CFCE010E943F
:100B40004205F1CFEB8DEC0FFD2FF11DE35AFF4F66
:100B5000F0829FB7F8940B8FEA89FB8980818062CD
:100B6000CFCF0C946405CF93DF93EC01888D88235D
:100B7000B9F0AA89BB89E889F9898C9185FD03C000
:100B8000808186FD0DC00FB607FCF7CF8C9185FFE5
:100B9000F2CF808185FFEDCFCE010E944205E9CFE3
:100BA000DF91CF91089580E090E0892B29F00E9499
:100BB000380581110E94000080E090E0892B29F027
:100BC0000E942E0581110E94000080E090E0892B98
:100BD00049F080E090E0892B29F00E94000081110B
:100BE0000E94000080E090E0892B49F080E090E0D6
:100BF000892B29F00E94000081110C9400000895B7
:100C00008150823108F05AC0E82FF0E08827E45F75
:100C1000F94F8F4F0C94D14E2C0630061E06240639
:100C200028065E06330639063D06430647064B0690
:100C3000510655065E0659065F06630680918000E0
:100C40008F77809380000895809180008F7DF9CF09
:100C500080918000877FF5CF84B58F7784BD08951C
:100C600084B58F7DFBCF8091B0008F778093B000EB
:100C700008958091B0008F7DF9CF809190008F779B
:100C8000809390000895809190008F7DF9CF80919E
:100C90009000877FF5CF8091A0008F778093A00090
:100CA00008958091A0008F7DF9CF8091A000877F6B
:100CB000F5CF809120018F77809320010895809156
:100CC00020018F7DF9CF80912001877FF5CFCF93D1
:100CD000DF93282F30E0F901E35FFB4F8491F901A6
:100CE000E953FC4FD491F901EF57FC4FC491CC2349
:100CF000A1F081110E940006EC2FF0E0EE0FFF1F23
:100D0000E959FC4FA591B491EC91ED2381E090E07D
:100D100009F480E0DF91CF91089580E090E0FACF70
:100D20001F93CF93DF93282F30E0F901E35FFB4F50
:100D30008491F901E953FC4FD491F901EF57FC4F2D
:100D4000C491CC23A9F0162F81110E940006EC2F2C
:100D5000F0E0EE0FFF1FE35BFC4FA591B4918FB75E
:100D6000F894EC91111108C0D095DE23DC938FBF6D
:100D7000DF91CF911F910895DE2BF8CFCF93DF93B2
:100D800090E0FC01E953FC4F24918F579C4FFC01EC
:100D900084918823D1F090E0880F991FFC01ED5CCD
:100DA000FC4FA591B491FC01E35BFC4FC591D4913C
:100DB00061110EC09FB7F8948C91E22FE0958E23BD
:100DC0008C932881E223E8839FBFDF91CF91089520
:100DD0008FB7F894EC91E22BEC938FBFF6CF909104
:100DE0007B00977F90937B008653806480937C0088
:100DF00080917A00806480937A0080917A0086FDE9
:100E0000FCCF809178009091790008953FB7F894D5
:100E100080915E0390915F03A0916003B0916103A4
:100E200026B5A89B05C02F3F19F00196A11DB11D45
:100E30003FBFBA2FA92F982F8827BC01CD01620F81
:100E4000711D811D911D42E0660F771F881F991F3C
:100E50004A95D1F708958F929F92AF92BF92CF9209
:100E6000DF92EF92FF924B015C010E9406076B013B
:100E70007C010E9406076C197D098E099F09683E56
:100E8000734081059105A8F321E0821A9108A10819
:100E9000B10888EEC80E83E0D81EE11CF11C811455
:100EA0009104A104B10429F7FF90EF90DF90CF9057
:100EB000BF90AF909F908F9008952FB7F894609156
:100EC0005A0370915B0380915C0390915D032FBF87
:100ED00008950F931F930E945D076093810570939F
:100EE0008205809383059093840589E795E00E94AD
:100EF000000597FF1DC00E945D07009181051091BC
:100F000082052091830530918405601B710B820B53
:100F1000930B00917D0510917E0520917F05309106
:100F200080056017710782079307F8F28FEF9FEF34
:100F30001F910F9108950F931F930E945D07609377
:100F4000810570938205809383059093840589E7DA
:100F500095E00E94140597FF1DC00E945D07009157
:100F60008105109182052091830530918405601BD5
:100F7000710B820B930B00917D0510917E052091E2
:100F80007F05309180056017710782079307F8F29B
:100F90008FEF9FEF1F910F9108950895AF92BF9229
:100FA000CF92DF92EF92FF920F931F93CF93DF9335
:100FB0006B017A01EC01CB5ADC4F28813CE0389F71
:100FC0008001399F100D1124A090AF06B12C27FF8E
:100FD0001FC0FB011182108288818F5F8883888106
:100FE0009801280F311D87FD3A95F6012A153B051A
:100FF0001CF488818C30C4F1808191810496803406
:101000009C4908F473C0F60180819181049670C0F8
:1010100088819801280F311D87FD3A952A153B05D7
:10102000DCF68881A801480F511D87FD5A95FA0109
:10103000EE0FFF1FE40FF51FE15EF94F808186FF81
:10104000CBCF8881F801E80FF11D87FDFA95CF011C
:10105000EE0FFF1FE80FF91FE15EF94F808160E09E
:101060008F730E949006B8CF808191812881A8015A
:10107000420F511D27FD5A959A01FA01EE0FFF1FED
:10108000E20FF31FE15EF94F21813281820F931F3E
:10109000F7019183808388819801280F311D87FD96
:1010A0003A95F901EE0FFF1FE20FF31FE15EF94FD2
:1010B000808186FF22C08881080F111D87FD1A9547
:1010C000F801EE0FFF1FE00FF11FE15EF94F808185
:1010D00061E08F73DF91CF911F910F91FF90EF909F
:1010E000DF90CF90BF90AF900C94900680E49CE985
:1010F000F701918380838FEF8883DF91CF911F91D8
:101100000F91FF90EF90DF90CF90BF90AF90089538
:10111000CF92DF92EF92FF920F931F930E940607E8
:1011200000910C0710910D0720910E0730910F07C9
:10113000601B710B820B930B6093AB027093AC023C
:101140008093AD029093AE020E94060760930C0755
:1011500070930D0780930E0790930F0780910A02FA
:1011600090910B022091080230910902C090510326
:10117000D0905203E0905303F090540382179307EA
:1011800008F463C050E040E0C701B6010E94514D31
:101190002093AF023093B0024093B1025093B20259
:1011A00081E090E090930B0280930A028091AB0261
:1011B0009091AC02A091AD02B091AE028093510328
:1011C00090935203A0935303B09354032091AB0226
:1011D0003091AC024091AD025091AE0228503740A0
:1011E00041095109ADE7B0E00E943E4D24E23AEFDB
:1011F0004FEF5FEF0E941F4D275E3F4F4F4F5F4FF6
:101200002739310514F026E930E02931310514F48D
:1012100029E130E030930902209308028091AB026B
:101220009091AC02A091AD02B091AE0280934D03BB
:1012300090934E03A0934F03B09350031F910F91CF
:10124000FF90EF90DF90CF90089540914D03509123
:101250004E0360914F03709150030091AB021091C7
:10126000AC022091AD023091AE02440F551F661FB3
:10127000771F401751076207730728F4029690936F
:101280000B0280930A0280910A0290910B02019650
:1012900090930B0280930A028091AB029091AC0272
:1012A000A091AD02B091AE028C0D9D1DAE1DBF1D73
:1012B0008093510390935203A0935303B09354032C
:1012C000ADCFCF92DF92EF92FF920E940607C090BF
:1012D0001407D0901507E0901607F09017076C19C7
:1012E0007D098E099F096093A2027093A3028093E7
:1012F000A4029093A5020E940607609314077093BE
:101300001507809316079093170780910602909116
:1013100007022091040230910502C0904903D09049
:101320004A03E0904B03F0904C038217930708F4B4
:1013300051C050E040E0C701B6010E94514D2093DA
:10134000A6023093A7024093A8025093A90281E01D
:1013500090E090930702809306028091A202909100
:10136000A302A091A402B091A50280934903909397
:101370004A03A0934B03B0934C032091A2023091F7
:10138000A3024091A4025091A502285F3A4241096C
:101390005109AAE8B0E00E943E4D28E238ED4FEF37
:1013A0005FEF0E941F4D2E5F3F4F4F4F5F4F2D3815
:1013B000310514F02CE830E02230310514F422E03D
:1013C00030E03093050220930402FF90EF90DF900D
:1013D000CF90089501969093070280930602809122
:1013E000A2029091A302A091A402B091A5028C0D3B
:1013F0009D1DAE1DBF1D8093490390934A03A0938A
:101400004B03B0934C03E1CFFB0101900020E9F7BF
:101410003197AF01461B570B0C94C40468ED72E082
:1014200089E795E00C94040A8F929F92AF92BF9245
:10143000EF92FF920F931F93CF93DF93CDB7DEB759
:10144000A1970FB6F894DEBF0FBECDBF7C01FA01A5
:10145000CB0119A2223008F42AE08E010F5D1F4F44
:10146000822E912CB12CA12CBF01A50194010E94C8
:10147000514DF901CA016A300CF5605DD8016E93D7
:101480008D01232B242B252B79F790E080E01097FA
:1014900021F0BD01C7010E94040AA1960FB6F8947D
:1014A000DEBF0FBECDBFDF91CF911F910F91FF9097
:1014B000EF90BF90AF909F908F900895695CDECFC2
:1014C000CF93DF93482F50E070E060E02AE089E797
:1014D00095E00E94140AEC010E940E0A8C0F9D1FD9
:1014E000DF91CF910895CF92DF92EF92FF920F9309
:1014F0001F93CF93DF936B01770FEE08FF08F7FE82
:101500001BC0EC016DE20E9464058C014427552745
:10151000BA014C195D096E097F092AE0CE010E94CB
:10152000140A800F911FDF91CF911F910F91FF90AF
:10153000EF90DF90CF9008952AE0B701A601DF91E8
:10154000CF911F910F91FF90EF90DF90CF900C946F
:10155000140ACF93DF93BC0189E795E00E94730AD8
:10156000EC010E940E0A8C0F9D1FDF91CF91089510
:10157000CF93DF93BC0189E795E00E94040AEC0158
:101580000E940E0A8C0F9D1FDF91CF910895BC0120
:1015900089E795E00C94040A2F923F924F925F9254
:1015A0006F927F928F929F92AF92BF92CF92DF9273
:1015B000EF92FF921F93CF93DF93EC016A017B01BF
:1015C000722EAB019601CB01B6010E949C4E6BEDD1
:1015D00072E0811126C046015701E894B7F82FEF59
:1015E0003FEF4FE75FE7C501B4010E949C4E8111B8
:1015F0000CC02FEF3FEF4FE75FE7C501B4010E943A
:10160000E54B6FED72E0181664F02FEF3FEF4FE7F8
:101610005FE4C701B6010E94974E1816B4F463EE5A
:1016200072E0CE01DF91CF911F91FF90EF90DF909C
:10163000CF90BF90AF909F908F907F906F905F9072
:101640004F903F902F900C94040A2FEF3FEF4FE7FD
:101650005FECC701B6010E94E54B87FDE0CF20E0BB
:1016600030E0A901C701B6010E94E54B312C212CC5
:1016700087FF09C06DE2CE010E9464051C01F7FAE4
:10168000F094F7F8F09410E060E070E080E09FE301
:10169000711641F020E030E040E251E40E94EF4D4D
:1016A0001F5FF6CFA70196010E94834D2B013C01DD
:1016B0000E94684E4B015C012AE0BC01A401CE01EE
:1016C0000E94140A7C01E20CF31C1123C1F1C50134
:1016D000B4010E94EA4B9B01AC01C301B2010E941C
:1016E000824D4B015C016EE2CE010E946405E80E62
:1016F000F91E115020F120E030E040E251E4C50134
:10170000B4010E944B4C2B013C010E94684E4B01DE
:10171000B12CA12C2AE0B501A401CE010E94140A2B
:10172000E80EF91EC501B4010E94EA4B9B01AC0111
:10173000C301B2010E94824D4B015C01DACFC701A7
:10174000DF91CF911F91FF90EF90DF90CF90BF90EE
:10175000AF909F908F907F906F905F904F903F9051
:101760002F900895CF93DF93AB01BC0122E089E76E
:1017700095E00E94CC0AEC010E940E0A8C0F9D1F7E
:10178000DF91CF910895AB01BC0122E08CED94E094
:101790000C94CC0A0F931F93CF93DF93C8EDD4E042
:1017A0008C01085D1440C8018C0F9D1F0E94094DDB
:1017B000899384E0CC3DD807B1F788ED94E0DF91C0
:1017C000CF911F910F9108950F931F93CF93DF93A4
:1017D0008C010E94094DC6EDD4E08883C8010196B2
:1017E0000E94094D8983CE01DF91CF911F910F9106
:1017F0000895CF92DF92EF92FF920F931F93CF93B2
:10180000DF93EB017B0124E0E20EF11C8B016C0104
:10181000C61AD70AC601800F911F0E94094DF80110
:1018200081938F01EE15FF05A9F7CE01DF91CF91CE
:101830001F910F91FF90EF90DF90CF900895CF937D
:10184000DF93EB010E94094D8883CE01DF91CF9198
:1018500008950F931F93CF93DF93EC0188819981B3
:10186000009759F02A813B812617370730F081E035
:10187000DF91CF911F910F9108958B016F5F7F4F83
:101880000E94F050009759F0998388831B830A8344
:101890002C813D81232B59F7FC011082E8CF80E099
:1018A000E7CFEF92FF920F931F93CF93DF93EC015B
:1018B0007B018A01BA010E94290C2881398181119A
:1018C00014C02115310519F0C9010E946750198211
:1018D00018821D821C821B821A82CE01DF91CF9159
:1018E0001F910F91FF90EF9008951D830C83B70116
:1018F000C9010E94E351F1CF0C94114DFF920F9357
:101900001F93CF93DF93EC01F62E08811981C80154
:101910000E94094DF81621F06F2DC8010E94114D4B
:10192000CE01DF91CF911F910F91FF900895AF925B
:10193000BF92CF92DF92EF92FF920F931F93CF93BC
:10194000DF931F921F92CDB7DEB78B016B0124E0AE
:10195000C20ED11C7B015C01A61AB70AC5018E0D0F
:101960009F1D9A838983F70161917F01CE010196C2
:101970000E947E0CEC14FD0489F7C8010F900F90B3
:10198000DF91CF911F910F91FF90EF90DF90CF905B
:10199000BF90AF900895AF92BF92CF92DF92EF9237
:1019A000FF920F931F93CF93DF931F921F92CDB798
:1019B000DEB78B016B0124E0C20ED11C7B015C0100
:1019C000A61AB70AC5018E0D9F1D9A838983F70158
:1019D00061917F01CE0101960E947E0CEC14FD0402
:1019E00089F7C8010F900F90DF91CF911F910F9150
:1019F000FF90EF90DF90CF90BF90AF9008950F933E
:101A00001F93CF93DF931F921F92CDB7DEB78B0149
:101A10009A838983FB016081CE0101960E947E0C2E
:101A2000C8010F900F90DF91CF911F910F910895F2
:101A3000EF92FF920F931F93CF93DF931F921F920A
:101A4000CDB7DEB78C017B019A838983FB0160816E
:101A5000CE0101960E947E0C0F5F1F4F1A830983EF
:101A6000F7016181CE0101960E947E0CC7010F90A3
:101A70000F90DF91CF911F910F91FF90EF900895FC
:101A80008F929F92AF92BF92CF92DF92EF92FF928E
:101A90000F931F93CF93DF931F921F92CDB7DEB7A3
:101AA00061E080E20E94BE0660E080E20E94900653
:101AB00061E088E00E94BE0661E088E00E94900636
:101AC000E091EC04F091ED0422E02083E091E80441
:101AD000F091E9041082E091EA04F091EB0484E4CF
:101AE00080831092F404E091F004F091F10496E008
:101AF0009083E091EE04F091EF0480818061808317
:101B0000E091EE04F091EF04808188608083E091A1
:101B1000EE04F091EF04808180688083E091EE0410
:101B2000F091EF0480818F7D8083E0918905F091B1
:101B30008A052083E0918505F09186051082E09169
:101B40008705F091880580E1808310929105E091EE
:101B50008D05F0918E059083E0918B05F0918C05B9
:101B6000808180618083E0918B05F0918C0580817C
:101B700088608083E0918B05F0918C05808180687E
:101B80008083E0918B05F0918C0580818F7D80832F
:101B9000E9E7F4E06591749185E693E00E94DE4BFD
:101BA00085E693E00E94B80A36E1E32E36E0F32E94
:101BB0008701D8014D918D0150E070E060E02AE08E
:101BC00089E795E00E94140A85E193E00E94C70A24
:101BD000B6E00F311B0769F70E940E0A80918C0452
:101BE000EDEBF2E02191D7019D917D01291381E078
:101BF000B2E0E63CFB07B1F780938C040E940E0A2A
:101C000080918C04813009F000C587EE92E00E943B
:101C1000C70AEBE7F4E06591749185E693E00E94D2
:101C2000DE4B85E693E00E94B80A61E084E00E9402
:101C3000BE0661E086E30E94BE0660E084E00E948A
:101C4000900660E086E30E94900660ED77E080E019
:101C500090E00E942B071092B5031092AF031092F0
:101C6000AE031092950381E080931C0268E473E058
:101C70008AEF90E00E941F0C809148038130B1F000
:101C800010E000E060E0C8010E947C0C0F5F1F4F75
:101C90000B3F1105B9F781E090E09A838983BE017B
:101CA0006F5F7F4F8AEF90E00E94180D64E473E04D
:101CB00090E080E00E94F90BC0904403D09045036F
:101CC000E0904603F090470320E030E0A901C7010F
:101CD000B6010E94974E181644F4C0923602D09274
:101CE0003702E0923802F092390264E473E084E053
:101CF00090E00E94F90BC0904403D0904503E0901F
:101D00004603F090470320E030E0A901C701B60187
:101D10000E94974E181644F4C0923202D0923302B9
:101D2000E0923402F092350264E473E088E090E0DF
:101D30000E94F90BC0904403D0904503E090460305
:101D4000F090470320E030E0A901C701B6010E94EE
:101D5000974E181644F4C0922E02D0922F02E092B1
:101D60003002F092310264E473E08CE090E00E9473
:101D7000F90BC0904403D0904503E0904603F090E7
:101D8000470320E030E0A901C701B6010E94974E49
:101D9000181644F4C0924202D0924302E0924402E8
:101DA000F092450264E473E080E190E00E94F90B58
:101DB000C0904403D0904503E0904603F090470361
:101DC00020E030E0A901C701B6010E94974E181625
:101DD00044F4C0923E02D0923F02E0924002F09260
:101DE000410264E473E084E190E00E94F90BC0904A
:101DF0004403D0904503E0904603F090470320E071
:101E000030E0A901C701B6010E94974E181644F4AC
:101E1000C0923A02D0923B02E0923C02F0923D0224
:101E200068E473E08EE190E00E941F0C809148030B
:101E300081118093A10260EB73E088E190E00E9441
:101E40001F0C8091B003882319F081E08093B003C8
:101E50006AE574E088ED90E00E941F0C82E290E059
:101E60000E94CA0B8091D8049091D904A091DA0401
:101E7000B091DB040097A105B10541F080934602C3
:101E800090934702A0934802B093490268E474E03B
:101E900086E290E00E94F90B63E474E08AE290E04D
:101EA0000E94F90B6FE374E08FE290E00E94F90B5F
:101EB0006BE374E083E390E00E94F90B67E374E066
:101EC00087E390E00E94F90B63E374E08BE390E01A
:101ED0000E94F90B6DEA73E08FE390E00E941F0C03
:101EE0006CE474E080E490E00E941F0C8DE490E0CC
:101EF0000E94CA0B8091D8049091D904A091DA0471
:101F0000B091DB040097A105B10541F08093260252
:101F100090932702A0932802B093290281E590E0D4
:101F20000E94CA0B8091D8049091D904A091DA0440
:101F3000B091DB040097A105B10541F08093220226
:101F400090932302A0932402B09325026AE272E0E8
:101F500089E490E00E941F0C80912A02823048F0B0
:101F60001A821982BE016F5F7F4F89E490E00E9460
:101F7000180D0AE412E0F12CE12CC0902002D09060
:101F80002102C6010E94CA0B8091D8049091D90405
:101F9000A091DA04B091DB04AC01BD0141505109BC
:101FA000610971094B3251406105710558F4F7011F
:101FB000EE0FFF1FEE0FFF1FE00FF11F80839183D5
:101FC000A283B383F4E0CF0ED11CD0922102C09241
:101FD00020022FEFE21AF20A45E0E416F10469F656
:101FE0000C5E1F4F82E00638180729F685E590E061
:101FF000909321028093200201EC13E099EDC92E09
:1020000093E0D92EF0901F028F2D90E00E94E40BF8
:102010008091D6049091D7049C01215031092F3F23
:10202000334018F4F80191838083F394F394F09291
:102030001F020E5F1F4FC016D10621F782E9809361
:102040001F0206E214E080E3C82E84E0D82EE09060
:102050001D02F0901E02C7010E94E40B8091D6047D
:102060009091D704803DF7E09F0718F4D8018D9335
:102070009C93B2E0EB0EF11CF0921E02E0921D0266
:102080000E5F1F4FC016D10611F78CEA90E09093B7
:102090001E0280931D0268E473E086EB90E00E94CC
:1020A0001F0C80914803813009F0B4C280931E0454
:1020B00068E473E08AEA90E00E941F0C8091480374
:1020C0008093A00268E473E087EB90E00E941F0C0D
:1020D00080914803813009F0A0C280935F0468E4D6
:1020E00073E083ED90E00E941F0C80915F048130CB
:1020F00009F096C280914803813009F091C2809323
:10210000600468E473E088EB90E00E941F0C80910B
:102110004803813009F087C280931F0468E473E0AC
:1021200089EB90E00E941F0C80914803813009F0F8
:102130007DC2809320048FEB90E00E94E40B80919D
:10214000D6049091D7048130E4E09E070CF071C270
:10215000909351048093500481EC90E00E94E40B32
:102160008091D6049091D7048130F4E09F070CF061
:1021700065C2909353048093520460E473E083EC4F
:1021800090E00E94F90BC0904003D0904103E09092
:102190004203F090430320E030E0A901C701B601FB
:1021A0000E94974E181694F420E030E040E85FE378
:1021B000C701B6010E94E54B87FF08C0C0928E029E
:1021C000D0928F02E0929002F092910260E473E06C
:1021D00087EC90E00E94F90BC0904003D09041033F
:1021E000E0904203F090430320E030E0A901C701F2
:1021F000B6010E94974E181694F420E030E040E8B3
:102200005FE3C701B6010E94E54B87FF08C0C0929B
:102210008A02D0928B02E0928C02F0928D0264E4EA
:1022200073E08FEC90E00E94F90B84ED90E00E9447
:10223000E40B8091D6049091D7049C012150310980
:10224000273B3B4020F49093B6028093B50286ED85
:1022500090E00E94E40B8091D6049091D7049C01F9
:1022600021503109273B3B4020F49093B4028093E6
:10227000B302809120048130C1F46FE972E081EEF5
:1022800090E00E941F0C6EE972E082EE90E00E94E6
:102290001F0C6DE972E083EE90E00E941F0C6CE968
:1022A00072E084EE90E00E941F0C6AE574E088ED15
:1022B00090E00E941F0C68E473E08BEE90E00E94B7
:1022C0001F0C8091480381118093AA0268E473E097
:1022D0008CEE90E00E941F0C809148038111809346
:1022E000D5041092100410920D041092B0061092B2
:1022F000B1061092B2061092B3060091B502109189
:10230000B602B801012E000C880B990B0E94EC4B11
:102310006093B4067093B5068093B6069093B706A3
:102320001093D4040093D3048091D50481118BC100
:102330001093D2040093D1048091D1049091D204DF
:102340000E94470460E087E00E94BE0660E08CE0E7
:102350000E94BE0661E088E00E94900680911E0700
:10236000803308F052C061E089E00E94BE0680918F
:102370001E07282F30E0F901EE0FFF1FE20FF31FB9
:10238000E15EF94F9081907C9960908310921F07D5
:10239000109220072CE0622F0E94B14E829FB00164
:1023A000112430E020E0AB01420F531FFA01EE0F81
:1023B000FF1FE40FF51FE15EF94F908196FD17C0F6
:1023C0002F5F3F4F2C30310571F7813009F044C148
:1023D0001092800082E0809381001092850010921C
:1023E0008400B19A80916F00826080936F00E091C9
:1023F0001E078E2F90E0FC01EE0FFF1FE80FF91F64
:10240000E15EF94F8081806480832091D304309114
:10241000D4048091D50481114BC13093D204209310
:10242000D1048091D1049091D2040E94470410926B
:102430005E0410925D0410925C0410925B04109292
:102440000F0410920E0481E080930604109207049A
:102450001092050460E085E00E94BE0660E086E020
:102460000E94BE0660E08CE30E94BE0660E087E347
:102470000E94BE0660E089E30E94BE068AEF90E0FB
:1024800090933F0380933E031092F6066091EA0614
:102490007091EB068091EC069091ED060E94EA4B5C
:1024A0009B01AC0160E070E08AE793E40E94EF4D8D
:1024B0006B017C01AC019B016091CC067091CD0653
:1024C0008091CE069091CF060E944B4C6093CC0633
:1024D0007093CD068093CE069093CF06A701960108
:1024E0006091D0067091D1068091D2069091D3066A
:1024F0000E94EF4D6093D0067093D1068093D20670
:102500009093D3068AEF90E0A0E0B0E08093EA06D3
:102510009093EB06A093EC06B093ED066091B302A6
:102520007091B402072E000C880B990B0E94EC4BA3
:102530006B017C016091B5027091B602072E000C10
:10254000880B990B0E94EC4BA70196010E94780220
:102550001092640481E699E090930F0280930E023A
:1025600080916A00837F886080936A00ED9A88E892
:1025700098E090930D0280930C0280916A008C7F0A
:10258000826080936A00EC9A6091420270914302EB
:1025900080914402909145026093F8067093F90689
:1025A0008093FA069093FB0620913E0230913F0201
:1025B00040914002509141022093FC063093FD0669
:1025C0004093FE065093FF06E0903A02F0903B02E3
:1025D00000913C0210913D02E0920007F092010749
:1025E00000930207109303070E9404030F900F90BB
:1025F000DF91CF911F910F91FF90EF90DF90CF90DF
:10260000BF90AF909F908F90089585EF92E00E94C9
:10261000B80AFFCA10921E044BCD10925F045FCD22
:10262000109260046ECD10921F0478CD1092200499
:1026300082CD10925104109250048ECD109253040A
:10264000109252049ACD8091B3029091B40290936B
:10265000D2048093D10470CE823061F41092900045
:1026600080939100109295001092940088BB809303
:102670007100BDCE833069F41092A00082E0809397
:10268000A1001092A5001092A40089BB8093720053
:10269000AECE8111ACCE1092200182E08093210158
:1026A00010922501109224018ABB809373009FCE63
:1026B0008090B5029090B602092C000CAA08BB08C5
:1026C000C090B302D090B4020D2C000CEE08FF08AD
:1026D000032E000C440B550B281939094A095B09D4
:1026E000C501B4016C197D098E099F090E94A14E94
:1026F000A7019601281939094A095B090E941F4D53
:10270000C20ED31EE41EF51ED092D204C092D10494
:1027100088CE1F920F920FB60F9211240BB60F9214
:102720002F933F934F935F936F937F938F939F93D9
:10273000AF93BF93EF93FF938CED94E00E9442051B
:10274000FF91EF91BF91AF919F918F917F916F9189
:102750005F914F913F912F910F900BBE0F900FBE45
:102760000F901F9018951F920F920FB60F92112481
:102770000BB60F922F938F939F93EF93FF93E0915C
:10278000EC04F091ED048081E091F204F091F30407
:1027900082FD1DC090818091F5048F5F8F73209121
:1027A000F604821741F0E091F504F0E0E452FB4FAB
:1027B000958F8093F504FF91EF919F918F912F91C9
:1027C0000F900BBE0F900FBE0F901F901895808139
:1027D000F2CF1F920F920FB60F9211240BB60F92E9
:1027E0002F933F934F935F936F937F938F939F9319
:1027F000AF93BF93EF93FF9389E795E00E94420563
:10280000FF91EF91BF91AF919F918F917F916F91C8
:102810005F914F913F912F910F900BBE0F900FBE84
:102820000F901F9018951F920F920FB60F921124C0
:102830000BB60F922F938F939F93EF93FF93E0919B
:102840008905F0918A058081E0918F05F0919005CE
:1028500082FD1DC09081809192058F5F8F732091C2
:102860009305821741F0E0919205F0E0E758FA4FA6
:10287000958F80939205FF91EF919F918F912F916A
:102880000F900BBE0F900FBE0F901F901895808178
:10289000F2CF1F920F920FB60F9211242F933F93F6
:1028A0008F939F93AF93BF9380915A0390915B0353
:1028B000A0915C03B0915D033091590323E0230F95
:1028C0002D3758F50196A11DB11D20935903809312
:1028D0005A0390935B03A0935C03B0935D038091D4
:1028E0005E0390915F03A0916003B0916103019634
:1028F000A11DB11D80935E0390935F03A0936003BD
:10290000B0936103BF91AF919F918F913F912F91B0
:102910000F900FBE0F901F90189526E8230F029678
:10292000A11DB11DD2CF1F920F920FB60F9211248D
:102930000BB60F922F933F934F935F936F937F93B9
:102940008F939F93AF93BF93EF93FF93E0911A02FE
:10295000F0911B021995FF91EF91BF91AF919F915B
:102960008F917F916F915F914F913F912F910F9038
:102970000BBE0F900FBE0F901F9018951F920F92D5
:102980000FB60F9211240BB60F922F933F934F93D4
:102990005F936F937F938F939F93AF93BF93EF93C7
:1029A000FF93E0911802F09119021995FF91EF91B0
:1029B000BF91AF919F918F917F916F915F914F9157
:1029C0003F912F910F900BBE0F900FBE0F901F9055
:1029D00018951F920F920FB60F9211240BB60F92FB
:1029E0002F933F934F935F936F937F938F939F9317
:1029F000AF93BF93EF93FF93E0910E02F0910F021C
:102A00001995FF91EF91BF91AF919F918F917F9118
:102A10006F915F914F913F912F910F900BBE0F904F
:102A20000FBE0F901F9018951F920F920FB60F9226
:102A300011240BB60F922F933F934F935F936F9395
:102A40007F938F939F93AF93BF93EF93FF93E09107
:102A50000C02F0910D021995FF91EF91BF91AF918A
:102A60009F918F917F916F915F914F913F912F91A6
:102A70000F900BBE0F900FBE0F901F9018951F92D6
:102A80000F920FB60F9211240BB60F922F933F9314
:102A90004F935F936F937F938F939F93AF93BF9366
:102AA000EF93FF93E0911602F09117021995FF91B1
:102AB000EF91BF91AF919F918F917F916F915F91B6
:102AC0004F913F912F910F900BBE0F900FBE0F9023
:102AD0001F9018951F920F920FB60F9211240BB6EC
:102AE0000F922F933F934F935F936F937F938F93A7
:102AF0009F93AF93BF93EF93FF93E0911402F091F4
:102B000015021995FF91EF91BF91AF919F918F9110
:102B10007F916F915F914F913F912F910F900BBEDD
:102B20000F900FBE0F901F9018951F920F920FB627
:102B30000F9211240BB60F922F933F934F935F93F5
:102B40006F937F938F939F93AF93BF93EF93FF9375
:102B5000E0911202F09113021995FF91EF91BF914C
:102B6000AF919F918F917F916F915F914F913F9125
:102B70002F910F900BBE0F900FBE0F901F901895C6
:102B80001F920F920FB60F9211240BB60F922F9334
:102B90003F934F935F936F937F938F939F93AF93E5
:102BA000BF93EF93FF93E0911002F09111021995FA
:102BB000FF91EF91BF91AF919F918F917F916F9115
:102BC0005F914F913F912F910F900BBE0F900FBED1
:102BD0000F901F9018951F920F920FB60F9211240D
:102BE0000BB60F922F933F934F935F936F937F9307
:102BF0008F939F93AF93BF93EF93FF9348E251E07E
:102C000064E271E090E080E00E94CE07FF91EF91D6
:102C1000BF91AF919F918F917F916F915F914F91F4
:102C20003F912F910F900BBE0F900FBE0F901F90F2
:102C300018951F920F920FB60F9211240BB60F9298
:102C40002F933F934F935F936F937F938F939F93B4
:102C5000AF93BF93EF93FF9348EA50E064EA70E0CC
:102C600083E090E00E94CE07FF91EF91BF91AF917A
:102C70009F918F917F916F915F914F913F912F9194
:102C80000F900BBE0F900FBE0F901F9018951F92C4
:102C90000F920FB60F9211240BB60F922F933F9302
:102CA0004F935F936F937F938F939F93AF93BF9354
:102CB000EF93FF9348E950E064E970E082E090E030
:102CC0000E94CE07FF91EF91BF91AF919F918F919D
:102CD0007F916F915F914F913F912F910F900BBE1C
:102CE0000F900FBE0F901F9018951F920F920FB666
:102CF0000F9211240BB60F922F933F934F935F9334
:102D00006F937F938F939F93AF93BF93EF93FF93B3
:102D100048E850E064E870E081E090E00E94CE076F
:102D2000FF91EF91BF91AF919F918F917F916F91A3
:102D30005F914F913F912F910F900BBE0F900FBE5F
:102D40000F901F9018954F925F926F927F928F9283
:102D50009F92AF92BF92CF92DF92EF92FF9210922A
:102D6000DF041092DE0448EE53E060E070E0409330
:102D7000E0045093E1046093E2047093E3048AEC6E
:102D800092E09093DD048093DC042DEC30E03093EE
:102D9000E9042093E8042CEC30E03093EB0420931A
:102DA000EA0428EC30E03093ED042093EC0429ECA5
:102DB00030E03093EF042093EE042AEC30E03093BF
:102DC000F1042093F0042EEC30E03093F3042093D0
:102DD000F2041092F5041092F6041092F704109287
:102DE000F80410927C0510927B0540937D0550936A
:102DF0007E0560937F057093800590937A0580939C
:102E0000790585EC90E0909386058093850584ECA8
:102E100090E0909388058093870580EC90E09093F4
:102E20008A058093890581EC90E090938C058093CE
:102E30008B0582EC90E090938E0580938D0586EC57
:102E400090E09093900580938F05109292051092D8
:102E500093051092940510929505A6E1B6E090E0D6
:102E600080E041E2FC013E9621E030E086309105B1
:102E700010F430E020E0E20FF31F40935700E4919C
:102E8000ED9301968930910569F78091AF06803303
:102E900008F02AC191E0980F9093AF0680931E0727
:102EA00090E0FC01EE0FFF1FE80FF91FE15EF94F04
:102EB00088EB9BE092838183109219071092180788
:102EC00010921B0710921A0710921D0710921C07F0
:102ED00050E040E06AED72E088E197E00E94510C1A
:102EE0008091140790911507A0911607B0911707CC
:102EF0008093100790931107A0931207B0931307C4
:102F000080910C0790910D07A0910E07B0910F07CB
:102F10008093080790930907A0930A07B0930B07C3
:102F20000E9406070E9406070E945D07609304073F
:102F3000709305078093060790930707C0900007DA
:102F4000D0900107E0900207F09003078090FC0604
:102F50009090FD06A090FE06B090FF064090F80607
:102F60005090F9066090FA067090FB0684EB96E0AC
:102F70009093DB068093DA0688EB96E09093D9066F
:102F80008093D80680EB96E09093DD068093DC0674
:102F90001092F6061092EE061092EF061092F006CE
:102FA0001092F10680E090E0AFE7B3E48093F20680
:102FB0009093F306A093F406B093F50684E690E0B0
:102FC000A0E0B0E08093EA069093EB06A093EC06B5
:102FD000B093ED061092D5061092D40620E030E0B2
:102FE000A901C301B2010E94E54B87FD5AC020E050
:102FF00030E0A901C501B4010E94E54B87FD51C035
:1030000020E030E0A901C701B6010E94E54B87FD31
:1030100048C081E090E09093D7068093D6068093D5
:10302000F7064092BC065092BD066092BE067092B2
:10303000BF068092C0069092C106A092C206B092CE
:10304000C306C092C406D092C506E092C606F092AE
:10305000C7064092C8065092C9066092CA0670928E
:10306000CB062DEC3CEC4CEC5DE3C501B4010E94B9
:103070004B4C6093CC067093CD068093CE06909314
:10308000CF062DEC3CEC4CEC5DE3C701B6010E9491
:10309000EF4D6093D0067093D1068093D206909343
:1030A000D3060E945D07C090EA06D090EB06E09040
:1030B000EC06F090ED066C197D098E099F0960936E
:1030C000DE067093DF068093E0069093E106FF90A2
:1030D000EF90DF90CF90BF90AF909F908F907F90B8
:1030E0006F905F904F9008958FEF80931E07E4CE0E
:1030F000CF93DF93CDB7DEB76E970FB6F894DEBFF0
:103100000FBECDBF789484B5826084BD84B58160E4
:1031100084BD85B5826085BD85B5816085BD8091A2
:103120006E00816080936E0010928100809181001A
:103130008260809381008091810081608093810012
:10314000809180008160809380008091B1008460D4
:103150008093B1008091B00081608093B000809135
:1031600091008260809391008091910081608093B2
:103170009100809190008160809390008091A100E7
:1031800082608093A1008091A10081608093A10062
:103190008091A00081608093A000809121018260D5
:1031A0008093210180912101816080932101809190
:1031B000200181608093200180917A008460809357
:1031C0007A0080917A00826080937A0080917A0000
:1031D000816080937A0080917A00806880937A0081
:1031E0001092C1000E94400D2091D3043091D4046C
:1031F0008091D50481111BC43093D2042093D10453
:103200008091D1049091D2040E944704C0900C0791
:10321000D0900D07E0900E07F0900F07C0920807BE
:10322000D0920907E0920A07F0920B070E94060766
:103230002B013C014C145D046E047F0440F4409269
:1032400008075092090760920A0770920B070091D5
:10325000AF021091B0022091B1023091B202580138
:103260006901E12CF12C00E010E020E034EE4BE0AD
:1032700054E562E070E080E090E00E94E24E20932E
:10328000CD043093CE044093CF045093D00480916A
:10329000CB049091CC04F0EACF2EF6E8DF2EEE249A
:1032A000E394F12CC81AD90AE108F108D701C60144
:1032B0004091AB025091AC026091AD027091AE02B0
:1032C00084179507A607B70708F4E2C340910807DB
:1032D0005091090760910A0770910B07441A550A2B
:1032E000660A770A84159505A605B70508F4D0C3C4
:1032F0001092CC041092CB042091AA0230E050E04E
:1033000040E06091CD047091CE048091CF04909103
:10331000D0040E94514DACE3B0E00E943E4D20E14C
:1033200037E240E050E00E94514DC090C304D0907D
:10333000C404E090C504F090C604F601EE0FFF1F30
:10334000EE0FFF1FE954FB4F6091C7047091C80452
:103350008091C9049091CA0480809180A280B3803A
:10336000681979098A099B09208331834283538331
:10337000620F731F841F951F6093C7047093C80466
:103380008093C9049093CA042FEFC21AD20AE20AAA
:10339000F20A33E0C316D104E104F10408F089C352
:1033A000C092C304D092C404E092C504F092C60453
:1033B00023E030E040E050E00E94514D29873A87F9
:1033C0004B875C872093B3043093B4044093B504D7
:1033D0005093B604C0901407D0901507E0901607DC
:1033E000F0901707C0921007D0921107E0921207D1
:1033F000F09213070E9406072B013C014C145D0458
:103400006E047F0440F440921007509211076092BE
:103410001207709213070091A6021091A702209143
:10342000A8023091A90258016901E12CF12C00E0B9
:1034300010E020E034EE4BE054E562E070E080E024
:1034400090E00E94E24E2093AF043093B00440938A
:10345000B1045093B2048091AD049091AE0440EA5F
:1034600056E861E070E0481B590B61097109DB0106
:10347000CA014091A2025091A3026091A4027091EE
:10348000A50284179507A607B70708F41BC3409148
:103490001007509111076091120770911307441A99
:1034A000550A660A770A84159505A605B70508F436
:1034B00009C31092AE041092AD042091A10230E035
:1034C00050E040E06091AF047091B0048091B1048D
:1034D0009091B2040E94514DA0E1BEE00E943E4D89
:1034E00020E137E240E050E00E94514D8091A50478
:1034F0009091A604A091A704B091A804FC01EE0F3E
:10350000FF1FEE0FFF1FE756FB4FC090A904D0909E
:10351000AA04E090AB04F090AC0480809180A2807B
:10352000B380C818D908EA08FB0820833183428396
:103530005383C20ED31EE41EF51EC092A904D0927E
:10354000AA04E092AB04F092AC040196A11DB11D57
:1035500083309105A105B10508F0C3C28093A5048D
:103560009093A604A093A704B093A804C701B60142
:1035700023E030E040E050E00E94514D49015A0103
:103580008092950490929604A0929704B092980429
:1035900069857A858B859C850E94EA4B2B013C01CD
:1035A000C701B60124EB30E040E050E00E94514DED
:1035B000CA01B9010E94EA4B9B01AC01C301B201EF
:1035C0000E94EF4D2B013C014092910450929204D5
:1035D00060929304709294040E945D0760930407C4
:1035E00070930507809306079093070700918D0459
:1035F00010918E0420918F04309190046B017C0116
:10360000C01AD10AE20AF30A9701860102331105B2
:103610002105310508F45AC460938D0470938E041B
:1036200080938F0490939004603E73498440910589
:1036300030F080918C04813011F480938B0489E305
:103640000E94EF061C0190938A048093890487E30B
:103650000E94EF064091810450918204609183049E
:1036600070918404FA01EE0FFF1FEE0FFF1FE35964
:10367000FB4F0091850410918604209187043091BE
:103680008804C080D180E280F3800C191D092E09C6
:103690003F09092E000CAA0BBB0B80839183A283E8
:1036A000B383800F911FA21FB31F80938504909353
:1036B0008604A0938704B09388044F5F5F4F6F4FD9
:1036C0007F4F453051056105710508F013C24093E5
:1036D0008104509382046093830470938404BC013A
:1036E000CD0125E030E040E050E00E94514D6901FD
:1036F0007A01C0926904D0926A04E0926B04F0925D
:103700006C04AFEFB0E00E943E4D2FEF33E040E09D
:1037100050E00E941F4D209368048AE30E94EF0648
:103720002FEF30E0DC010E94D94E2FEF33E040E074
:1037300050E00E941F4D2093670490916604109101
:103740006504213608F4DFC1911109C0111107C0C9
:1037500060E080E20E94900681E080936604209100
:1037600064042111EAC1809163048F5F8093630434
:1037700011112EC08091A002409161045091620409
:10378000840F952F911D092E000CAA0BBB0BC81698
:10379000D906EA06FB06E0F0809160048130C1F4AE
:1037A000211116C080915F04813091F420915D0455
:1037B00030915E04232B61F420915B0430915C0412
:1037C000232B31F4909163049A3010F080936504B8
:1037D00080916504813021F460E080E20E949006CF
:1037E00080915A048111AFC1C501B4010E94EA4B16
:1037F00028E437E847E05BE30E944B4C60935604B3
:10380000709357048093580490935904C0905604C1
:10381000D0905704E0905804F090590420E030E034
:1038200040E650E4C701B6010E944B4C6093B806D5
:103830007093B9068093BA069093BB0649855A8562
:103840005093550440935404809050049090510438
:10385000092C000CAA08BB089101330C440B550B32
:10386000281939094A095B09A4E6B0E00E943E4DD7
:103870002091520430915304032E000C440B550B3D
:10388000281939094A095B090E941F4D253631055F
:1038900014F024E630E037FF02C030E020E030933F
:1038A0004F0420934E0420934D0410914C0411308A
:1038B00059F58090480490904904A0904A04B09033
:1038C0004B042DEC3CEC4CE45FE3C501B4010E94D9
:1038D0004B4C9B01AC01C301B2010E94974E87FD86
:1038E00044C12AE939E949E95FE3C501B4010E940D
:1038F0004B4C9B01AC01C301B2010E94E54B181671
:103900000CF433C11093470460913204693108F01C
:1039100003C21092310410923004009131041091CE
:10392000300470E090E080E00E94EA4B4B015C01C3
:1039300069E1610F70E090E080E00E94EA4BA50130
:1039400094010E94824D20E030E048EC51E40E9456
:10395000EF4D69877A878B879C87E02FF0E0EE0F29
:10396000FF1FEA5DFB4F60817181072E000C880B01
:10397000990B0E94EC4B9B01AC0169857A858B8584
:103980009C850E944B4C69877A878B879C87612F27
:1039900070E090E080E00E94EA4B9B01AC01C50121
:1039A000B4010E94824D20E030E048EC51E40E94D6
:1039B000EF4D4B015C010F5FE02FF0E0EE0FFF1FBA
:1039C000EA5DFB4F60817181072E000C880B990B1B
:1039D0000E94EC4B9B01AC01C501B4010E944B4C11
:1039E0009B01AC0169857A858B859C850E94834DFE
:1039F0000E94614E709325046093240410919F02ED
:103A0000612F70E090E080E00E94EC4B4B015C0184
:103A1000AC019B01C701B6010E94E54B87FF95C130
:103A2000109223041092220410932104B3C18090B9
:103A3000B5029090B602092C000CAA08BB08C090F1
:103A4000B302D090B4020D2C000CEE08FF08032E38
:103A5000000C440B550B281939094A095B09C501AB
:103A6000B4016C197D098E099F090E94A14EA7011E
:103A70009601281939094A095B090E941F4DC20E97
:103A8000D31EE41EF51ED092D204C092D104B8CB4E
:103A90001092CD041092CE041092CF041092D00454
:103AA000E0EDEE2EE7E0FE2EF092CC04E092CB04A7
:103AB00023CC1092C3041092C4041092C504109237
:103AC000C60476CC1092AF041092B0041092B104E8
:103AD0001092B20460ED77E07093AE046093AD0491
:103AE000ECCC1092A5041092A6041092A704109298
:103AF000A8043CCD10928104109282041092830499
:103B000010928404ECCD913061F42C3508F027CE6E
:103B1000111125CE61E080E20E94900610926604A9
:103B20001ECE91111CCE2C3508F019CE111117CED6
:103B300061E080E20E94900612CE213009F018CE9A
:103B40001092630415CE813009F060CE8091540448
:103B50009091550468E270E00E94BD4E072E000C63
:103B6000880B990B0E94EC4B49CE809043049090B7
:103B70004404A0904504B09046042AE939E949E597
:103B80005FE3C501B4010E944B4C9B01AC01C30132
:103B9000B2010E94974E87FD14C023E333E343E94B
:103BA0005FE3C501B4010E944B4C9B01AC01C30112
:103BB000B2010E94E54B181624F082E0809347047E
:103BC000A3CE80903F0490904004A0904104B09018
:103BD000420426E636E646E65FE3C501B4010E94EC
:103BE0004B4C9B01AC01C301B2010E94974E87FD73
:103BF00012C02DEC3CEC4CE85FE3C501B4010E941F
:103C00004B4C9B01AC01C301B2010E94E54B18165D
:103C100014F083E0D3CF80903B0490903C04A090BC
:103C20003D04B0903E042BE734E14EE65FE3C5016E
:103C3000B4010E944B4C9B01AC01C301B2010E9434
:103C4000974E87FD12C023EC35EF48E85FE3C501CE
:103C5000B4010E944B4C9B01AC01C301B2010E9414
:103C6000E54B181614F084E0A9CF809037049090AB
:103C70003804A0903904B0903A0423E333E343E7D7
:103C80005FE3C501B4010E944B4C9B01AC01C30131
:103C9000B2010E94974E87FD12C026E636E646E83E
:103CA0005FE3C501B4010E944B4C9B01AC01C30111
:103CB000B2010E94E54B181614F085E07FCF80908A
:103CC000330490903404A0903504B090360423E37C
:103CD00033E343E75FE3C501B4010E944B4C9B0112
:103CE000AC01C301B2010E94974E87FD12C026E6C7
:103CF00036E646E85FE3C501B4010E944B4C9B01E8
:103D0000AC01C301B2010E94E54B181614F086E025
:103D100055CF10924704F8CD87EE860F893138F4DD
:103D200081E08093310489E180933004F6CD8EECFC
:103D3000860F893128F482E08093310482E3F4CF46
:103D400083E0809331048BE4EFCF00919E02602FDB
:103D500070E090E080E00E94EC4B69877A878B8767
:103D60009C87A5019401C701B6010E94974E87FD6B
:103D7000BDC229853A854B855C85C701B6010E9485
:103D8000E54B87FFB3C281E08093230410932204A4
:103D900000932104009123041091210420E030E0DD
:103DA00048EC52E4C701B6010E944B4C4B015C0148
:103DB00030902204812F8319990BBC01072E000C2F
:103DC000880B990B0E94EC4B6B017C0194E6399EA9
:103DD000B0011124072E000C880B990B0E94EC4BAC
:103DE0009B01AC01C501B4010E94824DA70196015F
:103DF0000E94EF4D69877A878B879C87E1E0E00F0F
:103E0000F0E0EE0FFF1FEE56FD4F608170E090E096
:103E100080E00E94EC4B9B01AC0169857A858B8523
:103E20009C850E944B4C20E030E048EC52E40E941C
:103E3000EF4D69877A878B879C87A4E61A9FB0012C
:103E40001124072E000C880B990B0E94EC4BA50146
:103E500094010E94824DA70196010E94EF4D6B01D3
:103E60007C01E02FF0E0EE0FFF1FEE56FD4F60816A
:103E700070E090E080E00E94EC4B9B01AC01C70138
:103E8000B6010E944B4C20E030E048EC52E40E9426
:103E9000EF4D9B01AC0169857A858B859C850E94DD
:103EA000834D0E94684E653608F064E660933204E4
:103EB00080912004813051F480911F04813031F4CD
:103EC00080911E04813011F480931D040E945D07CF
:103ED0006093040770930507809306079093070784
:103EE0000091190410911A0420911B0430911C04B4
:103EF0006B017C01C01AD10AE20AF30A970186011C
:103F0000043F11402105310508F425C160931904CF
:103F100070931A0480931B0490931C04C090560461
:103F2000D0905704E0905804F09059042091150463
:103F3000309116044091170450911804C701B6013E
:103F40000E94824D4B015C018092110490921204F8
:103F5000A0921304B0921404C0921504D0921604D7
:103F6000E0921704F092180420E030E040E85FE3AC
:103F70000E94E54B87FFEFC180911004813049F426
:103F800080910E0490910F04059690930F048093F6
:103F90000E0420E030E040EF51ECC501B4010E9476
:103FA000E54B87FF2BC01092F6061092100410927A
:103FB0000D0460E084E00E9490060091B50210912B
:103FC000B602B801012E000C880B990B0E94EC4B35
:103FD0006093B4067093B5068093B6069093B706C7
:103FE000109264041093D4040093D3048091D504F8
:103FF0008111C7C11093D2040093D10480910D04A4
:10400000813099F420E030E040E050ECC501B4018B
:104010000E94E54B87FFBEC180910E0490910F0472
:10402000059690930F0480930E0420E030E040E763
:1040300052E4C701B6010E94E54B87FFBCC18091E5
:104040008E0290918F02A0919002B0919102809384
:10405000090490930A04A0930B04B0930C0480917C
:104060004C04813009F0DCC180914704813009F0B3
:10407000D2C1809308048091540490915504883BE8
:104080005BE095070CF0D1C1E091080464E1E69F84
:10409000F0011124E65BFD4F80819181A281B38103
:1040A0008093460290934702A0934802B09349023E
:1040B00020E030E040E752E4C701B6010E94E54B42
:1040C00087FFFDC180910704813009F0F8C180931A
:1040D0000604109207048093050480910604813041
:1040E00009F002C280910504813009F0FDC16091A0
:1040F0004202709143028091440290914502609384
:10410000F8067093F9068093FA069093FB062091C7
:104110003E0230913F024091400250914102209373
:10412000FC063093FD064093FE065093FF06E09098
:104130003A02F0903B0200913C0210913D02E09265
:104140000007F092010700930207109303070E94F3
:104150000403109205040E945D076B017C01C0926C
:104160000407D0920507E0920607F0920707009136
:1041700000048091010490910204A0910304B09185
:104180000404A7019601281B390B4A0B5B0BDA01CB
:10419000C90184369105A105B10518F1011121C0AD
:1041A00020E030E048EC52E46091B8067091B90626
:1041B0008091BA069091BB060E94974E18168CF417
:1041C0008091FE039091FF0301969093FF038093EB
:1041D000FE03C0920104D0920204E0920304F09224
:1041E00004043090FD038090B8069090B906A0902A
:1041F000BA06B090BB068091010490910204A09190
:104200000304B0910404B701A601481B590B6A0BC3
:104210007B0BDB01CA0184369105A105B105E8F0ED
:1042200031101BC020E030E048EC52E4C501B4017D
:104230000E94974E18168CF48091FB039091FC031A
:1042400001969093FC038093FB03C0920104D092EB
:104250000204E0920304F0920404013009F077C1F3
:104260008091FE039091FF039C0121503109283079
:10427000310508F079C10093FA031092FF03109200
:10428000FE031091F30351E035127AC18091FB03D4
:104290009091FC039C01215031092830310508F030
:1042A00042C63092F7031092FC031092FB0320E009
:1042B00030E048EC52E4C501B4010E94E54B87FFB1
:1042C00088C11092F7031092FA031092F60310922D
:1042D000F9031092F5031092F8031092FC03109268
:1042E000FB031092FF031092FE037BC110919D020D
:1042F000612F70E090E080E00E94EC4B4B015C018C
:1043000029853A854B855C85C701B6010E94974E89
:1043100087FD0EC0A5019401C701B6010E94E54BBF
:1043200087FF06C082E080932304009322047CCBA5
:10433000A5019401C701B6010E94974E18160CF012
:1043400029CD83E0809323041093220480919C0262
:10435000809321041FCD20E030E040E050E4C5010F
:10436000B4010E94974E18160CF013CE80911004E1
:10437000813009F00ECE80910E0490910F040597C4
:1043800004CE8091B3029091B4029093D2048093B2
:10439000D10434CE20E030E040E85FEBC501B40149
:1043A0000E94974E18160CF040CE80910E0490910A
:1043B0000F04059736CE20E030E040E752E4C70115
:1043C000B6010E94974E87FD13C020E030E042ED19
:1043D00052E4C701B6010E94E54B87FF09C08091F6
:1043E0008A0290918B02A0918C02B0918D022FCE07
:1043F00020E030E042ED52E4C701B6010E94974E42
:1044000087FD2DCE8091860290918702A09188022F
:10441000B09189021CCE823008F42DCE82E029CEE4
:10442000811129CE1092080426CE9C01285B3B40C6
:10443000283B3B4068F4E091080484E1E89FF001E8
:104440001124E65BFD4F84819581A681B78128CE3A
:104450009C0120573741283B3B4068F4E091080419
:10446000B4E1EB9FF0011124E65BFD4F808591855F
:10447000A285B38515CE9C0128523342283B3B4090
:1044800068F4E091080424E1E29FF0011124E65B66
:10449000FD4F84859585A685B78502CE803E9E42D8
:1044A00009F406CEE091080444E1E49FF0011124F0
:1044B000E65BFD4F80899189A289B389F1CD20E027
:1044C00030E042E852E4C701B6010E94974E181648
:1044D0000CF003CE80910604813009F0FECD1092DD
:1044E000060480930704F7CD80910704813009F01A
:1044F00032CE80910504813009F02DCE60913602D4
:104500007091370280913802909139026093F806D9
:104510007093F9068093FA069093FB06209132027D
:104520003091330240913402509135022093FC06C1
:104530003093FD064093FE065093FF06E0902E0256
:10454000F0902F020091300210913102F8CD01114C
:1045500098CE8091FE039091FF03099708F491CEC5
:1045600081E08093F9038DCE099708F48ACE1092EA
:10457000F9031092FF031092FE030093F80381CE1B
:10458000311009C08091FB039091FC03099718F04A
:1045900081E08093F60320E030E048EC52E4C5016E
:1045A000B4010E94E54B87FF14C08091F70381306E
:1045B00009F487CE8091FA03813009F482CE80918C
:1045C000F603813009F47DCE8091F903813009F43E
:1045D00078CE8091F403813009F473CE113009F460
:1045E00070CE113079F51093F2038091EE03909123
:1045F000EF03A091F003B091F103A7019601281BEE
:10460000390B4A0B5B0BDA01C9018C3B9240A105C7
:10461000B105C0F0011116C0C092EE03D092EF03B5
:10462000E092F003F092F1038091ED03811187C4D1
:10463000409248045092490460924A0470924B049C
:104640001093ED038091F403813009F051C0809103
:104650001E04813009F04CC000911F04013009F0A4
:1046600047C060915604709157048091580490910E
:1046700059040093F203C0900407D0900507E0901E
:104680000607F09007078090EE039090EF03A0904C
:10469000F003B090F103A7019601281939094A09DE
:1046A0005B0949015A013CEB831632E09306A104F1
:1046B000B104F0F02091000421111AC0C092EE0361
:1046C000D092EF03E092F003F092F1031091E70330
:1046D0001111D8C40E94684E60939F0280914E04CD
:1046E00090914F0490939502809394020093E70376
:1046F00085E00E9467068D8B8093000486E00E940F
:104700006706898B8093FD0387E00E946706898F87
:104710008093E4038CE00E9467068093E30380911A
:10472000F606882309F41AC10E945D0769877A8713
:104730008B879C878091DE069091DF06A091E00632
:10474000B091E10649855A856B857C85481B590BDC
:104750006A0B7B0B8091EA069091EB06A091EC0628
:10476000B091ED06481759076A077B0708F4F6C0B1
:10477000E091D806F091D906408051806280738024
:10478000E091DC06F091DD06A30192016081718168
:10479000828193810E94824D6B017C012091E6060B
:1047A0003091E7064091E8065091E906C301B20155
:1047B0000E94824D6D877E878F87988B2091CC06D3
:1047C0003091CD064091CE065091CF06C701B6017B
:1047D0000E944B4C2091E2063091E3064091E406A2
:1047E0005091E5060E94834D4B015C018092E206E8
:1047F0009092E306A092E406B092E5064091F70697
:104800004A8F41111CC02091C8063091C9064091C1
:10481000CA065091CB066D857E858F8598890E944A
:104820004B4C9B01AC01C501B4010E94824D6093C9
:10483000E2067093E3068093E4069093E5066091A8
:10484000E2067091E3068091E4069091E5066B8F95
:104850007C8F8D8F9E8F2090F2063090F306009112
:10486000F4061091F5069101A8010E94974E1816C2
:104870000CF092C4C101D8018093E2069093E30644
:10488000A093E406B093E5067A8D772309F49FC4DC
:104890002091C8063091C9064091CA065091CB06B6
:1048A000C701B6010E944B4C6B017C012091D006E0
:1048B0003091D1064091D2065091D3066D857E8508
:1048C0008F8598890E944B4C9B01AC016091E20658
:1048D0007091E3068091E4069091E5060E94824D76
:1048E000A70196010E94834D6B017C019B01AC01E5
:1048F000B101C8010E94E54B87FD12C02090EE0671
:104900003090EF060091F0061091F1069101A80198
:10491000B601C7010E94E54B87FD02C01601870161
:10492000E091DA06F091DB06C101D8018083918322
:10493000A283B3834092E6065092E7066092E806AF
:104940007092E906C984DA84EB84FC84C092DE06A6
:10495000D092DF06E092E006F092E1060E945D0749
:104960000E945D0769877A878B879C87609304071D
:10497000709305078093060790930707E090D30490
:10498000F090D404C090B502D090B60217012C1854
:104990003D083092E2032092E1038090B4069090AB
:1049A000B506A090B606B090B706B7010F2C000C64
:1049B000880B990B0E94EC4BA50194010E94E54BDA
:1049C00087FF29C08091DD039091DE03A091DF0372
:1049D000B091E00329853A854B855C85281B390B0E
:1049E0004A0B5B0BDA01C9010397A105B10598F0E9
:1049F0003FEFE31AF30AF092D404E092D30449851E
:104A00005A856B857C854093DD035093DE0360936C
:104A1000DF037093E003E090D504ED86E090D304CB
:104A2000F090D404B7010F2C000C880B990B0E9456
:104A3000EC4B9B01AC01C501B4010E94E54B87FF23
:104A400029C08091DD039091DE03A091DF03B09136
:104A5000E00329853A854B855C85281B390B4A0B79
:104A60005B0BDA01C9010397A105B10598F031E0AC
:104A7000E31AF108F092D404E092D30449855A85F0
:104A80006B857C854093DD035093DE036093DF03E9
:104A90007093E0032091D3043091D404ED84E110AD
:104AA0009AC33093D2042093D10480918B04813037
:104AB00091F51092F6061092100410920D0460E029
:104AC00084E00E9490060091B5021091B602B801F0
:104AD000012E000C880B990B0E94EC4B6093B406DE
:104AE0007093B5068093B6069093B706109264044F
:104AF0001093D4040093D304FD84F11099C3109350
:104B0000D2040093D1041092B0061092B106109214
:104B1000B2061092B3069090F903C090B806D090F8
:104B2000B906E090BA06F090BB060091640421E05B
:104B300092120EC020E030E048EC52E4C701B6010A
:104B40000E94974E181624F4011102C09092FA03A5
:104B50001091F6031130F1F420E030E048EC52E41B
:104B6000C701B6010E94974E1816A4F4011112C095
:104B700020E030E048EC52E46091B0067091B1065C
:104B80008091B2069091B3060E94974E181614F4C5
:104B90001093F7038091F703813041F520E030E076
:104BA00048EC52E4C701B6010E94E54B87FD1AC0EC
:104BB00020E030E048EC52E4C701B6010E94974E75
:104BC0001816A4F420E030E048EC52E46091B006FE
:104BD0007091B1068091B2069091B3060E94E54BA8
:104BE000181624F0011102C01092F7038091FA0305
:104BF000813009F076C020E030E048EC52E4C70193
:104C0000B6010E94E54B87FD02C00C949F4B011139
:104C100046C01092F70320E030E048EC52E4C701B0
:104C2000B6010E94974E1816A4F58091F3038111E6
:104C300030C08091F40381112CC0C092B006D09294
:104C4000B106E092B206F092B3061092FA03809198
:104C50001D04813009F0F5C260912404709125048F
:104C6000072E000C880B990B0E94EC4B6093B40646
:104C70007093B5068093B6069093B70681E090E0F6
:104C80000E94E00361E084E00E94900681E080934E
:104C90006404009164048091FA03813011F50130BD
:104CA00001F58091F30381111CC08091F4038111FF
:104CB00018C020E030E040E850E46091B006709108
:104CC000B1068091B2069091B3060E94824D609326
:104CD000B0067093B1068093B2069093B30610921B
:104CE000FA038091F703813011F5013001F58091CD
:104CF000F30381111CC08091F403811118C020E0DE
:104D000030E040E850E46091B0067091B1068091C7
:104D1000B2069091B3060E94834D6093B0067093E3
:104D2000B1068093B2069093B3061092F703809178
:104D3000F703813009F050C001114EC0C090B80691
:104D4000D090B906E090BA06F090BB0620E030E0C3
:104D500048EC52E4C701B6010E94974E1816E4F5DC
:104D600020E030E048EC52E46091B0067091B1066A
:104D70008091B2069091B3060E94974E181664F582
:104D80008091F303811128C08091F403811124C024
:104D900080911D04813009F073C2609124047091E8
:104DA0002504072E000C880B990B0E94EC4B609396
:104DB000B4067093B5068093B6069093B70681E06B
:104DC00090E00E94E00361E084E00E94900681E0B0
:104DD000809364041092F7038090640431E083129E
:104DE0008CC300910D04C090B806D090B906E09035
:104DF000BA06F090BB068091100481113CC00111ED
:104E00003AC0A70196016091B0067091B1068091F9
:104E1000B2069091B3060E94824D20E030E040EF50
:104E200051E40E94974E181614F0113021F510929B
:104E3000F60681E080931004A0900E04B0900F0459
:104E400080911D04813009F03AC260912404709170
:104E5000250466557F4F6A0D7B1D072E000C880BBD
:104E6000990B0E94EC4B6093B4067093B506809347
:104E7000B6069093B70680911004882309F44EC2B9
:104E8000813009F088C2A70196016091B006709147
:104E9000B1068091B2069091B3060E94824D20E047
:104EA00030E048E851E40E94E54B18160CF4FFC2CC
:104EB000111171C28091F503882329F08091F503C7
:104EC000813009F068C2109210048091F50381309E
:104ED00051F41092F503C092B006D092B106E09260
:104EE000B206F092B30680911D04813009F0E3C24E
:104EF0006091240470912504072E000C880B990BF7
:104F00000E94EC4B6093B4067093B5068093B6068E
:104F10009093B70681E090E00E94E00310920F04A6
:104F200010920E0438C2099708F435CB1092F6039C
:104F30001092FC031092FB033092F5032CCB8130CE
:104F400009F080CB8091EC0381110BC040924304A7
:104F50005092440460924504709246041093EC030E
:104F600071CB813009F06ECB8091EB0381110BC0C6
:104F700040923F0450924004609241047092420477
:104F80001093EB035FCB813019F58091EA03811117
:104F90000CC040923B0450923C0460923D047092DD
:104FA0003E0481E08093EA034DCB8091EA03813097
:104FB00091F49091E90391110EC040923704509200
:104FC00038046092390470923A048093E9033ACB32
:104FD000813009F037CB8091EA03813009F032CB80
:104FE0008091E903813009F02DCB9091E803911174
:104FF00029CB40923304509234046092350470926D
:1050000036041092F30380934C0460E084E00E9425
:10501000900668E474E086E290E00E94970C63E4F6
:1050200074E08AE290E00E94970C6FE374E08FE2F4
:1050300090E00E94970C6BE374E083E390E00E94A1
:10504000970C67E374E087E390E00E94970C63E3BA
:1050500074E08BE390E00E94970C6CE474E080E4D1
:1050600090E00E94FF0C1092F2031092ED03109258
:10507000EC031092EB031092EA031092E9031092F2
:10508000E803E0CA113009F033CB2091E603211187
:105090000FC00E94684E60939E0280914E049091D2
:1050A0004F0490939702809396021093E60320CBCF
:1050B000213009F01DCB2091E503211110C00E9481
:1050C000684E60939D0280914E0490914F0490939E
:1050D00099028093980281E08093E50309CB213007
:1050E00009F006CB0E94684E60939C0280914E04AA
:1050F00090914F0490939B0280939A021092F40334
:105100001092E7031092E6031092E50302E912E021
:105110007CE9E72E72E0F72E80912D02B80190E035
:105120000E94180D80912D028E5F80932D026FE9F1
:1051300072E081EE90E00E94FF0C6EE972E082EE78
:1051400090E00E94FF0C6DE972E083EE90E00E9417
:10515000FF0C6CE972E084EE90E00E94FF0C0E5FA1
:105160001F4FE016F106C1F61092F2038AEB80930E
:105170002D0260E084E00E94900681E0809320048C
:1051800081E090E09A838983BE016F5F7F4F89EB56
:1051900090E00E94180DACCA8090EE069090EF0649
:1051A000A090F006B090F106A50194016B8D7C8D66
:1051B0008D8D9E8D0E94E54B87FF66CB8092E20627
:1051C0009092E306A092E406B092E5065DCBC12C76
:1051D000D12C76016BCB0D2C000CEE08FF088090D3
:1051E000B3029090B402092C000CAA08BB08032E4D
:1051F000000C440B550B2C193D094E095F09C701E2
:10520000B601681979098A099B090E94A14EA50176
:1052100094012C193D094E095F090E941F4D820E11
:10522000931EA41EB51E9092D2048092D1043DCC50
:105230008091B3029091B4029093D2048093D104F0
:1052400062CC2091090430910A0440910B045091E2
:105250000C04C701B6010E944B4C6B017C016091AC
:10526000B5027091B602072E000C880B990B0E94B4
:10527000EC4B9B01AC01C701B6010E94834DF6CCFB
:105280002091090430910A0440910B0450910C04C0
:10529000C701B6010E944B4C6B017C016091B502C5
:1052A0007091B602072E000C880B990B0E94EC4BF4
:1052B0009B01AC01C701B6010E94834D78CD60917E
:1052C000B5027091B602072E000C880B990B0E9454
:1052D000EC4B2B013C012DEC3CEC4CE05FE3C701B7
:1052E000B6010E944B4C9B01AC01C301B2010E946C
:1052F000834D20E030E04AE253E40E94834D2B01CD
:105300003C01B501BB0C880B990B0E94EC4B9B0137
:10531000AC01C301B2010E94834DA5CD01113BC078
:105320002091B0063091B1064091B2065091B3067B
:10533000C701B6010E94824D20E030E040EF51E409
:105340000E94974E18161CF041E0941224C010924F
:10535000F60681E080930D0400910E0410910F0475
:1053600080911D04813009F073C060912404709114
:10537000250466547109600F711F072E000C880BFD
:10538000990B0E94EC4B6093B4067093B506809322
:10539000B6069093B70680910D04813009F0ADC038
:1053A000C090B806D090B906E090BA06F090BB065F
:1053B0002091B0063091B1064091B2065091B306EB
:1053C000C701B6010E94824D20E030E048E851E478
:1053D0000E94E54B18160CF48DC091108EC0809180
:1053E000F803882329F08091F803813009F085C003
:1053F00010920D048091F803813051F41092F8035B
:10540000C092B006D092B106E092B206F092B30616
:1054100080911D04813009F0B8C26091240470911C
:105420002504072E000C880B990B0E94EC4B60930F
:10543000B4067093B5068093B6069093B70681E0E4
:1054400090E00E94E00310920F0410920E0455C0E9
:105450006091B5027091B602072E000C880B990B73
:105460000E94EC4B2B013C012DEC3CEC4CE05FE34B
:10547000C701B6010E944B4C9B01AC01C301B201B4
:105480000E94834D20E030E04CE852E40E94824DBF
:105490006B017C01B801110F880B990B0E94EC4B3A
:1054A0009B01AC01C701B6010E94834D6CCF112353
:1054B00009F404CD70CF2091090430910A04409181
:1054C0000B0450910C04C701B6010E944B4C6B01B8
:1054D0007C016091B5027091B602072E000C880B1A
:1054E000990B0E94EC4B9B01AC01C701B6010E94D5
:1054F000834D08CD992009F476CFC090B806D0909E
:10550000B906E090BA06F090BB0680911004813095
:10551000F9F400910E0410910F0480911D04813064
:1055200009F052C2609124047091250466557F4FA2
:10553000600F711F072E000C880B990B0E94EC4B1B
:105540006093B4067093B5068093B6069093B70641
:1055500080910D048130F9F400910E0410910F0434
:1055600080911D04813009F05EC260912404709125
:10557000250466547109600F711F072E000C880BFB
:10558000990B0E94EC4B6093B4067093B506809320
:10559000B6069093B70620E030E048EC52E4C7012D
:1055A000B6010E94E54B87FD0AC020E030E04CE0E8
:1055B00054E4C701B6010E94974E18161CF451E03E
:1055C000851641F18091A00220916104309162041E
:1055D000820F932F911D092E000CAA0BBB0B40913B
:1055E000690450916A0460916B0470916C044817CF
:1055F00059076A077B0708F44BC08091600481302B
:1056000009F046C061E0861243C080915F0481309A
:1056100009F03EC01092F6061092100410920D048C
:1056200060E084E00E9490060091B5021091B602FD
:10563000B801012E000C880B990B0E94EC4B609373
:10564000B4067093B5068093B6069093B706109291
:1056500064041093D4040093D304CD84C11012C207
:105660001093D2040093D1041092F7031092FA031E
:105670001092F6031092F9031092F5031092F803BA
:105680001092FC031092FB031092FF031092FE0392
:10569000D98CD11037C01092F606109210041092D7
:1056A0000D0460E084E00E9490060091B502109124
:1056B000B602B801012E000C880B990B0E94EC4B2E
:1056C0006093B4067093B5068093B6069093B706C0
:1056D000109264041093D4040093D3041092F7033F
:1056E0001092FA031092F6031092F9031092F50348
:1056F0001092F8031092FC031092FB031092FF0328
:105700001092FE030091B3021091B4028090B50292
:105710009090B602C801881999096BE070E00E9468
:10572000BD4EFB01621573050CF4B5C11092DC038C
:105730001092DB031092DA031092D9032091DB035D
:105740003091DC03C090D903D090DA03AF014C0D47
:105750005D1D64E6E62EE49EC001E59E900D1124D9
:105760007CE9B72E6B2DA1016403D001659FB00DBC
:1057700011248A0F9B1FBF010E94BD4ED901AA0FA1
:10578000BB1FAF53BC4F0D90BC91A02D6A9FC001B1
:105790006B9F900D7A9F900D112464E670E00E943B
:1057A000BD4E7B0174E6729DC001739D900D112466
:1057B0006B2DA6016403D001659FB00D11248A0FE3
:1057C0009B1FBF010E94BD4E220F331FF901ED53F5
:1057D000FC4F20813181629FC001639F900D729FB9
:1057E000900D112464E670E00E94BD4EE60EF71E97
:1057F000F0926204E092610420E030E04CE054E476
:105800006091B0067091B1068091B2069091B30696
:105810000E94974E181664F480E090E0ACE0B4E487
:105820008093B0069093B106A093B206B093B306EE
:105830008091D3049091D4048815990524F4909212
:10584000D4048092D3042091D3043091D404CD8425
:10585000C110ABC1021713070CF4AAC13093D204D4
:105860002093D1041091F203113069F58091BD03AA
:105870009091BE03A091BF03B091C003C984DA84A4
:10588000EB84FC84C81AD90AEA0AFB0AD701C601CC
:10589000843F9140A105B105B0F0C984DA84EB845E
:1058A000FC84C092BD03D092BE03E092BF03F0928D
:1058B000C0038091BC038111ADC161E084E00E940E
:1058C00090061093BC03C0905604D0905704E0900B
:1058D0005804F090590420E030E0A901C701B60156
:1058E0000E94974E181694F48091640481110EC0A2
:1058F0001092BB031092BA031092B9031092B8032E
:105900001092B7031092B6031092B5038091B103C1
:105910009091B203A091B303B091B40329853A8565
:105920004B855C85281B390B4A0B5B0BDA01C901DF
:10593000883C9105A105B10508F4BBC18091F40331
:105940008111B7C18091F3038111B3C13D89311138
:105950006BC120E030E0A901C701B6010E94E54B10
:1059600081110C94CE4B8091BB038F5F8093BB035E
:10597000C988C1107DC18091BA038F5F8093BA033B
:105980007D89713009F089C160C12091090430918D
:105990000A0440910B0450910C04C701B6010E9407
:1059A0004B4C6B017C016091B5027091B602072EE1
:1059B000000C880B990B0E94EC4B9B01AC01C701BA
:1059C000B6010E94834D33CD6091B5027091B6024D
:1059D000072E000C880B990B0E94EC4B2B013C010D
:1059E0002DEC3CEC4CE05FE3C701B6010E944B4C50
:1059F0009B01AC01C301B2010E94834D20E030E065
:105A00004AE253E40E94834D2B013C01B801110F7F
:105A1000880B990B0E94EC4B9B01AC01C301B201B6
:105A20000E94834D8DCD6091B5027091B602072E14
:105A3000000C880B990B0E94EC4B2B013C012DECC8
:105A40003CEC4CE05FE3C701B6010E944B4C9B016C
:105A5000AC01C301B2010E94834D20E030E04CE86C
:105A600052E40E94824D2B013C01B801110F880BBA
:105A7000990B0E94EC4B9B01AC01C301B2010E9447
:105A8000834D81CD8091B3029091B4029093D20462
:105A90008093D104E9CDCB01880F991F28163906D0
:105AA0005CF481E090E09093DC038093DB03F0935F
:105AB000DA03E093D90342CE9C012E0F3F1F22163A
:105AC00033065CF422E030E03093DC032093DB0308
:105AD0009093DA038093D90331CECF01880F991FB9
