:100000000C946B010C94ED120C94C2120C94971288
:100010000C946C120C9441120C9416120C94EB116B
:100020000C94C0110C949C010C949C010C949C01A8
:100030000C949C010C949C010C949C010C949C01CC
:100040000C949C010C94A2130C949C010C949C01A4
:100050000C949C010C949C010C949C010C947611C2
:100060000C949C010C9440110C9416110C949C015E
:100070000C949C010C949C010C949C010C949C018C
:100080000C9474130C949C010C949C010C949C0192
:100090000C94E0100C94B6100C949C010C949C01F0
:1000A0000C949C010C949C010C9446130C949C01A0
:1000B0000C949C010C949C010C949C010C941813BE
:1000C0000C949C010C949C010C949C010C949C013C
:1000D0000C949C010C949C010C949C010C949C012C
:1000E0000C949C010C94BD060C94A5360C942736F8
:1000F0000C94B1360C94E0040C94B7040C9429369B
:100100000C945D030C94A9360C948F360C942B360A
:100110000C949A360C9498360C94BD040C94E40418
:100120000C94AD030C94EA040C9499030C94FD0315
:100130000C9422360C94D0130C94AD360C94A1364A
:100140000C94C9040C94CC040C942F360C94020625
:100150000C949C360C94AB360C94C5040C94D604C9
:100160000C94DC040C944C040C94F2040C94FC04E9
:100170000C94EE040C94F7040C94A3360C948A03AC
:100180000C94D2040C942D360C9496070C94C10454
:100190000C9496360C94AF360C94DD430C943636A2
:1001A0000C9434360C94F8040C94A7360C94BB03CE
:1001B0000C94943600002100240027002A002D0012
:1001C0003000330001010000040107010A010000B2
:1001D0002200250028002B002E00310034000201EF
:1001E0000000050108010B0100002000230026008B
:1001F00029002C002F00320000010000030106013D
:10020000090105050505070508080808020202029C
:100210000A0A0808040404040101010101010101A2
:100220000303030303030303040707070C0C0C0C6D
:100230000C0C0C0C02020202060606060606060656
:100240000B0B0B0B0B0B0B0B0102102020080810E3
:100250002040102040800201020108040201010236
:10026000040810204080804020100804020180040F
:10027000020180402010080402010804020101026A
:100280000408102040800102040810204080000073
:100290000A0B02090C0D0E08070304010000000000
:1002A000000000000000000000000000000000004E
:1002B000000000000000000000001211100000000B
:1002C000000000000000000000000000000000002E
:1002D00000000000D01311241FBECFEFD1E2DEBF1B
:1002E000CDBF00E00CBF13E0A0E0B2E0E8E7F9E822
:1002F00000E00BBF02C007900D92AA31B107D9F7F9
:1003000026E0AAE1B3E001C01D92AD3DB207E1F7DE
:1003100011E0CBE6D1E000E006C021970109802F73
:10032000FE010E94C043CA36D10780E00807A9F742
:100330000E9491150C94BA440C9400004F925F9265
:100340006F927F928F929F92AF92BF92CF92DF92E5
:10035000EF92FF920F931F93CF93DF9300D01F92E2
:10036000CDB7DEB74B015C0129013A016701780185
:1003700020E030E0A9010E94CA4187FDA6C020E02C
:1003800030E0A901C301B2010E94CA4187FD9DC0AE
:1003900020E030E0A901C801B6010E94CA4187FDF2
:1003A00094C081E020919806309199062130310562
:1003B00009F080E08093B90680927E0690927F06D5
:1003C000A0928006B09281064092820650928306E7
:1003D0006092840670928506C0928606D092870647
:1003E000E0928806F09289066091AC067091AD06A5
:1003F0008091AE069091AF060E94774220E030E0F7
:100400004AE754E40E94CF4169837A838B839C83BB
:1004100080928A0690928B06A0928C06B0928D06EE
:100420009B01AC01C301B2010E942E432B013C0190
:1004300040928E0650928F066092900670929106BE
:1004400029813A814B815C81C701B6010E94CF416D
:100450006B017C01C0929206D0929306E0929406C2
:10046000F09295068091960690919706019769F50E
:10047000A501940160E070E0CB010E945D416093B2
:100480008A0670938B0680938C0690938D06A30149
:10049000920160E070E0CB010E945D4160938E06A6
:1004A00070938F068093900690939106A701960112
:1004B00060E070E0CB010E945D4160939206709312
:1004C000930680939406909395060F900F900F904B
:1004D0000F90DF91CF911F910F91FF90EF90DF90E0
:1004E000CF90BF90AF909F908F907F906F905F90D4
:1004F0004F9008958F929F92AF92BF92CF92DF92CA
:10050000EF92FF92CF93C82FC170019709F04DC0B1
:100510008091B806811149C0E0919C06F0919D063A
:10052000C080D180E280F380C092A406D092A5065C
:10053000E092A606F092A706E0919A06F0919B063B
:1005400080819181A281B3818093A8069093A906AE
:10055000A093AA06B093AB068090B4069090B5061F
:10056000A090B606B090B706A5019401C701B601E8
:100570000E94294318164CF48092A4069092A50676
:10058000A092A606B092A70610C08090B0069090E8
:10059000B106A090B206B090B306A5019401C701C0
:1005A000B6010E94CA4187FDE7CFC093B806CF913C
:1005B000FF90EF90DF90CF90BF90AF909F908F9083
:1005C0000895CF92DF92EF92FF92DC01A03282E099
:1005D000B807D4F5A53BB10514F0A4EBB0E0409109
:1005E000DB0628E830E0241B310947FD3395220F54
:1005F000331F220F331F6901330FEE08FF084091AC
:10060000DC0628E532E0241B310947FD3395220F33
:10061000331F220F331F032E000C440B550B2C19D4
:100620003D094E095F09B7FF02C0B0E0A0E00E949B
:10063000244124EB30E040E050E00E94FA40C20E3A
:10064000D31EE41EF51ED601E091DA06E03380F5F4
:100650002091DB0688E890E0821B910927FD9395A5
:10066000880F991F880F991FA817B90784F0209148
:10067000DC0688E592E0821B910927FD9395880F9F
:10068000991F880F991FA817B9070CF4CD0102977D
:10069000880F991F4FB7F8942E2F30E0F901EE0F15
:1006A000FF1FE20FF31FEF51FA4F928381834FBF79
:1006B000FF90EF90DF90CF900895AF92BF92CF92CE
:1006C000DF92EF92FF920F931F93CF93DF936C0112
:1006D0007B018B01040F151FEB015E01AE18BF08F3
:1006E000C017D10759F06991D601ED91FC910190A5
:1006F000F081E02DC6011995892B79F7C501DF91AD
:10070000CF911F910F91FF90EF90DF90CF90BF900E
:10071000AF900895FC01538D448D252F30E0842F38
:1007200090E0821B930B541710F0CF960895019719
:100730000895FC01918D828D981761F0A28DAE0F06
:10074000BF2FB11D5D968C91928D9F5F9F73928F8D
:1007500090E008958FEF9FEF0895FC01918D828DB9
:10076000981731F0828DE80FF11D858D90E0089586
:100770008FEF9FEF0895FC01918D228D892F90E0DE
:10078000805C9F4F821B91098F73992708958EE992
:1007900094E00E94BB0321E0892B09F420E0822F22
:1007A00008958BE395E00E94BB0321E0892B09F4B7
:1007B00020E0822F0895FC01A48DA80FB92FB11D50
:1007C000A35ABF4F2C91848D90E001968F73992787
:1007D000848FA689B7892C93A089B1898C91837065
:1007E00080648C93938D848D981306C00288F3895E
:1007F000E02D80818F7D80830895EF92FF920F938B
:100800001F93CF93DF93EC0181E0888F9B8D8C8DBC
:1008100098131AC0E889F989808185FF15C09FB7B0
:10082000F894EE89FF896083E889F9898081837073
:10083000806480839FBF81E090E0DF91CF911F9122
:100840000F91FF90EF900895F62E0B8D10E00F5F43
:100850001F4F0F731127E02E8C8D8E110CC00FB619
:1008600007FCFACFE889F989808185FFF5CFCE01B1
:100870000E94DB03F1CFEB8DEC0FFD2FF11DE35A4E
:10088000FF4FF0829FB7F8940B8FEA89FB89808134
:100890008062CFCF0C94FD03CF93DF93EC01888D62
:1008A0008823B9F0AA89BB89E889F9898C9185FDEB
:1008B00003C0808186FD0DC00FB607FCF7CF8C9179
:1008C00085FFF2CF808185FFEDCFCE010E94DB0353
:1008D000E9CFDF91CF91089580E090E0892B29F056
:1008E0000E94D10381110E94000080E090E0892BDA
:1008F00029F00E94C70381110E94000080E090E06F
:10090000892B49F080E090E0892B29F00E940000BB
:1009100081110E94000080E090E0892B49F080E086
:1009200090E0892B29F00E94000081110C940000B6
:1009300008958150823108F05AC0E82FF0E08827EE
:10094000EB55FB4F8F4F0C94C043C504C904B7044B
:10095000BD04C104F704CC04D204D604DC04E004D2
:10096000E404EA04EE04F704F204F804FC048091C1
:1009700080008F77809380000895809180008F7D24
:10098000F9CF80918000877FF5CF84B58F7784BDC4
:10099000089584B58F7DFBCF8091B0008F778093D1
:1009A000B00008958091B0008F7DF9CF80919000C4
:1009B0008F77809390000895809190008F7DF9CF7C
:1009C00080919000877FF5CF8091A0008F778093F2
:1009D000A00008958091A0008F7DF9CF8091A000A4
:1009E000877FF5CF809120018F7780932001089534
:1009F000809120018F7DF9CF80912001877FF5CFF5
:100A0000CF93DF93282F30E0F901E257FD4F849117
:100A1000F901E85BFD4FD491F901EE5FFD4FC49100
:100A2000CC23A1F081110E949904EC2FF0E0EE0F8D
:100A3000FF1FE851FE4FA591B491EC91ED2381E0A9
:100A400090E009F480E0DF91CF91089580E090E09C
:100A5000FACF1F93CF93DF93282F30E0F901E257AD
:100A6000FD4F8491F901E85BFD4FD491F901EE5FF0
:100A7000FD4FC491CC23A9F0162F81110E94990437
:100A8000EC2FF0E0EE0FFF1FE253FE4FA591B49163
:100A90008FB7F894EC91111108C0D095DE23DC9348
:100AA0008FBFDF91CF911F910895DE2BF8CFCF93A9
:100AB000DF9390E0FC01E85BFD4F24918E5F9D4F3A
:100AC000FC0184918823D1F090E0880F991FFC01EC
:100AD000EC54FE4FA591B491FC01E253FE4FC59139
:100AE000D49161110EC09FB7F8948C91E22FE095DC
:100AF0008E238C932881E223E8839FBFDF91CF91DF
:100B000008958FB7F894EC91E22BEC938FBFF6CF5A
:100B100090917B00977F90937B00865380648093B5
:100B20007C0080917A00806480937A0080917A00C2
:100B300086FDFCCF809178009091790008953FB7B1
:100B4000F8948091460390914703A0914803B09197
:100B5000490326B5A89B05C02F3F19F00196A11D9A
:100B6000B11D3FBFBA2FA92F982F8827BC01CD01F7
:100B7000620F711D811D911D42E0660F771F881F56
:100B8000991F4A95D1F708958F929F92AF92BF9285
:100B9000CF92DF92EF92FF924B015C010E949F0582
:100BA0006B017C010E949F056C197D098E099F09CC
:100BB000683E734081059105A8F321E0821A9108EF
:100BC000A108B10888EEC80E83E0D81EE11CF11C14
:100BD00081149104A104B10429F7FF90EF90DF90F4
:100BE000CF90BF90AF909F908F9008952FB7F894BB
:100BF00060914203709143038091440390914503B7
:100C00002FBF08950895AF92BF92CF92DF92EF92D7
:100C1000FF920F931F93CF93DF936B017A01EC0147
:100C2000C35CDC4F28813CE0389F8001399F100D68
:100C30001124A0907106B12C27FF1FC0FB01118267
:100C4000108288818F5F888388819801280F311DE9
:100C500087FD3A95F6012A153B051CF488818C30F6
:100C6000C4F180819181049680349C4908F473C05A
:100C7000F60180819181049670C088819801280FC7
:100C8000311D87FD3A952A153B05DCF68881A801C0
:100C9000480F511D87FD5A95FA01EE0FFF1FE40F13
:100CA000F51FEF51FA4F808186FFCBCF8881F80185
:100CB000E80FF11D87FDFA95CF01EE0FFF1FE80F3A
:100CC000F91FEF51FA4F808160E08F730E94290570
:100CD000B8CF808191812881A801420F511D27FD45
:100CE0005A959A01FA01EE0FFF1FE20FF31FEF5121
:100CF000FA4F21813281820F931FF7019183808304
:100D000088819801280F311D87FD3A95F901EE0F72
:100D1000FF1FE20FF31FEF51FA4F808186FF22C0C1
:100D20008881080F111D87FD1A95F801EE0FFF1F2E
:100D3000E00FF11FEF51FA4F808161E08F73DF9177
:100D4000CF911F910F91FF90EF90DF90CF90BF90C8
:100D5000AF900C94290580E49CE9F701918380838E
:100D60008FEF8883DF91CF911F910F91FF90EF90CC
:100D7000DF90CF90BF90AF900895CF92DF92EF9227
:100D8000FF920F931F930E949F050091CE06109132
:100D9000CF062091D0063091D106601B710B820BDB
:100DA000930B6093AE027093AF028093B002909366
:100DB000B1020E949F056093CE067093CF06809388
:100DC000D0069093D10680910A0290910B02209157
:100DD000080230910902C0903903D0903A03E090A4
:100DE0003B03F0903C038217930708F463C050E084
:100DF00040E0C701B6010E942C412093B20230931B
:100E0000B3024093B4025093B50281E090E0909316
:100E10000B0280930A028091AE029091AF02A091E2
:100E2000B002B091B1028093390390933A03A0933A
:100E30003B03B0933C032091AE023091AF0240914E
:100E4000B0025091B1022850374041095109ADE735
:100E5000B0E00E94194124E23AEF4FEF5FEF0E94A9
:100E6000FA40275E3F4F4F4F5F4F2739310514F04F
:100E700026E930E02931310514F429E130E03093DE
:100E80000902209308028091AE029091AF02A091D6
:100E9000B002B091B1028093350390933603A093D2
:100EA0003703B09338031F910F91FF90EF90DF90BD
:100EB000CF900895409135035091360360913703E8
:100EC000709138030091AE021091AF022091B002F0
:100ED0003091B102440F551F661F771F401751070D
:100EE0006207730728F4029690930B0280930A021C
:100EF00080910A0290910B02019690930B028093CD
:100F00000A028091AE029091AF02A091B002B0911E
:100F1000B1028C0D9D1DAE1DBF1D809339039093B2
:100F20003A03A0933B03B0933C03ADCFCF92DF9243
:100F3000EF92FF920E949F05C090D606D090D706F0
:100F4000E090D806F090D9066C197D098E099F09AA
:100F50006093A6027093A7028093A8029093A902BF
:100F60000E949F056093D6067093D7068093D8069B
:100F70009093D90680910602909107022091040275
:100F800030910502C0903103D0903203E0903303DA
:100F9000F09034038217930708F451C050E040E00A
:100FA000C701B6010E942C412093AA023093AB02E4
:100FB0004093AC025093AD0281E090E09093070221
:100FC000809306028091A6029091A702A091A802A8
:100FD000B091A9028093310390933203A09333031D
:100FE000B09334032091A6023091A7024091A80249
:100FF0005091A902285F3A4241095109AAE8B0E09C
:101000000E94194128E238ED4FEF5FEF0E94FA404D
:101010002E5F3F4F4F4F5F4F2D38310514F02CE8B6
:1010200030E02230310514F422E030E03093050244
:1010300020930402FF90EF90DF90CF9008950196E7
:1010400090930702809306028091A6029091A702D6
:10105000A091A802B091A9028C0D9D1DAE1DBF1DCF
:101060008093310390933203A0933303B0933403FE
:10107000E1CF0F931F93CF93DF93CAE9D4E08C01A4
:101080000A591440C8018C0F9D1F0E94E4408993A7
:1010900084E0CE39D807B1F78AE994E0DF91CF91A7
:1010A0001F910F9108950F931F93CF93DF938C019E
:1010B0000E94E440C8E9D4E08883C80101960E94F8
:1010C000E4408983CE01DF91CF911F910F91089564
:1010D000CF92DF92EF92FF920F931F93CF93DF9304
:1010E000EB017B0124E0E20EF11C8B016C01C61ABE
:1010F000D70AC601800F911F0E94E440F801819336
:101100008F01EE15FF05A9F7CE01DF91CF911F9159
:101110000F91FF90EF90DF90CF900895CF93DF93E2
:10112000EB010E94E4408883CE01DF91CF910895C6
:10113000FB0101900020E9F73197AF01461B570BE7
:101140000C945D038F929F92AF92BF92EF92FF92A9
:101150000F931F93CF93DF93CDB7DEB7A1970FB651
:10116000F894DEBF0FBECDBF7C01FA01CB0119A2FE
:10117000223008F42AE08E010F5D1F4F822E912C41
:10118000B12CA12CBF01A50194010E942C41F901B1
:10119000CA016A300CF5605DD8016E938D01232B76
:1011A000242B252B79F790E080E0109721F0BD01EA
:1011B000C7010E949808A1960FB6F894DEBF0FBE33
:1011C000CDBFDF91CF911F910F91FF90EF90BF9016
:1011D000AF909F908F900895695CDECFCF92DF92A1
:1011E000EF92FF920F931F93CF93DF936B01770FD3
:1011F000EE08FF08F7FE1BC0EC016DE20E94FD0344
:101200008C0144275527BA014C195D096E097F09E5
:101210002AE0CE010E94A208800F911FDF91CF919A
:101220001F910F91FF90EF90DF90CF9008952AE0EB
:10123000B701A601DF91CF911F910F91FF90EF9021
:10124000DF90CF900C94A208BC018BE395E00C9446
:10125000980861ED72E08BE395E00C949808CF93C9
:10126000DF93BC018BE395E00E94EE08EC010E9445
:1012700029098C0F9D1FDF91CF9108954F925F92A6
:101280006F927F928F929F92AF92BF92CF92DF9296
:10129000EF92FF926B017C01AC019B010E949B438A
:1012A00064ED72E0811126C046015701E894B7F859
:1012B0002FEF3FEF4FE75FE7C501B4010E949B436B
:1012C00081110CC02FEF3FEF4FE75FE7C501B4017D
:1012D0000E94CA4168ED72E0181664F02FEF3FEFEC
:1012E0004FE75FE4C701B6010E942943181694F442
:1012F0006CED72E08EE994E0FF90EF90DF90CF907C
:10130000BF90AF909F908F907F906F905F904F9025
:101310000C9498082FEF3FEF4FE75FECC701B60141
:101320000E94CA4187FDE4CF20E030E0A901C70157
:10133000B6010E94CA41B12CA12C87FF0AC06DE200
:101340008EE994E00E94FD035C01F7FAF094F7F84F
:10135000F0942AE037ED43EA5BE3C701B6010E944F
:101360005E412B013C010E9448426B017C010E94BE
:1013700077429B01AC01C301B2010E945D412B0188
:101380003C012AE0B701A6018EE994E00E94A20880
:101390007C01EA0CFB1C6EE28EE994E00E94FD03E6
:1013A000E80EF91E20E030E040E251E4C301B20152
:1013B0000E942E432B013C010E9448424B01B12C5C
:1013C000A12C2AE0B501A4018EE994E00E94A208B4
:1013D000E80EF91EC501B4010E9477429B01AC01E1
:1013E000C301B2010E945D4120E030E040E251E4DF
:1013F0000E942E430E944842AB0170E060E02AE068
:101400008EE994E00E94A2088E0D9F1DFF90EF9040
:10141000DF90CF90BF90AF909F908F907F906F9014
:101420005F904F900895CF93DF9363ED72E08BE36D
:1014300095E00E949808EC010E9429098C0F9D1FDD
:10144000DF91CF9108950C94EC40FF920F931F937E
:10145000CF93DF93EC01F62E08811981C8010E9419
:10146000E440F81621F06F2DC8010E94EC40CE0137
:10147000DF91CF911F910F91FF900895AF92BF928E
:10148000CF92DF92EF92FF920F931F93CF93DF9350
:101490001F921F92CDB7DEB78B016B0124E0C20E05
:1014A000D11C7B015C01A61AB70AC5018E0D9F1DD8
:1014B0009A838983F70161917F01CE0101960E9491
:1014C000250AEC14FD0489F7C8010F900F90DF91F5
:1014D000CF911F910F91FF90EF90DF90CF90BF9031
:1014E000AF900895AF92BF92CF92DF92EF92FF92AA
:1014F0000F931F93CF93DF931F921F92CDB7DEB749
:101500008B016B0124E0C20ED11C7B015C01A61A89
:10151000B70AC5018E0D9F1D9A838983F7016191DA
:101520007F01CE0101960E94250AEC14FD0489F783
:10153000C8010F900F90DF91CF911F910F91FF90F5
:10154000EF90DF90CF90BF90AF9008950F931F93CF
:10155000CF93DF931F921F92CDB7DEB78B019A8393
:101560008983FB016081CE0101960E94250AC80192
:101570000F900F90DF91CF911F910F910895EF92EF
:10158000FF920F931F93CF93DF931F921F92CDB7BC
:10159000DEB78C017B019A838983FB016081CE01D8
:1015A00001960E94250A0F5F1F4F1A830983F701D6
:1015B0006181CE0101960E94250AC7010F900F900C
:1015C000DF91CF911F910F91FF90EF9008958F922F
:1015D0009F92AF92BF92CF92DF92EF92FF920F93C2
:1015E0001F93CF93DF931F921F92CDB7DEB761E0B9
:1015F00080E20E94570560E080E20E94290561E0D8
:1016000088E00E94570561E088E00E942905E0918A
:10161000AE04F091AF0422E02083E091AA04F0919F
:10162000AB041082E091AC04F091AD0484E48083BB
:101630001092B604E091B204F091B30496E0908366
:10164000E091B004F091B104808180618083E091E9
:10165000B004F091B104808188608083E091B0048F
:10166000F091B104808180688083E091B004F091B2
:10167000B10480818F7D8083E0914B05F0914C0512
:101680002083E0914705F09148051082E0914905DB
:10169000F0914A0580E1808310925305E0914F0557
:1016A000F09150059083E0914D05F0914E058081B9
:1016B00080618083E0914D05F0914E0580818860C6
:1016C0008083E0914D05F0914E0580818068808394
:1016D000E0914D05F0914E0580818F7D808338ED3E
:1016E000E32E35E0F32E41EEC42E45E0D42E8701E3
:1016F000D8014D918D0150E070E060E02AE08BE36D
:1017000095E00E94A2088BE093E00E942409C01695
:10171000D10671F70E94290980915104E6EBF2E0AD
:101720002191D7019D917D01291381E0B2E0EF3B2A
:10173000FB07B1F7809351040E942909809151045D
:10174000813009F0CBC480EE92E00E94240961E070
:1017500084E00E94570561E086E30E94570560E03F
:1017600084E00E94290560E086E30E94290560ED7F
:1017700077E080E090E00E94C40510927A03109216
:1017800074031092730310925C0381E080931C0237
:1017900060E373E08AEF90E00E948E08809130034E
:1017A0008130B1F010E000E060E0C8010E94230A3F
:1017B0000F5F1F4F0B3F1105B9F781E090E09A834F
:1017C0008983BE016F5F7F4F8AEF90E00E94BF0A5E
:1017D0006CE273E090E080E00E946808C0902C0307
:1017E000D0902D03E0902E03F0902F0320E030E006
:1017F000A901C701B6010E942943181644F4C092FA
:101800003802D0923902E0923A02F0923B026CE246
:1018100073E084E090E00E946808C0902C03D090B0
:101820002D03E0902E03F0902F0320E030E0A9017B
:10183000C701B6010E942943181644F4C09234022D
:10184000D0923502E0923602F09237026CE273E0F9
:1018500088E090E00E946808C0902C03D0902D038F
:10186000E0902E03F0902F0320E030E0A901C701A3
:10187000B6010E942943181644F4C0923002D09257
:101880003102E0923202F09233026CE273E08CE0BB
:1018900090E00E946808C0902C03D0902D03E09047
:1018A0002E03F0902F0320E030E0A901C701B6011C
:1018B0000E942943181644F4C0924402D092450273
:1018C000E0924602F09247026CE273E080E190E021
:1018D0000E946808C0902C03D0902D03E0902E0346
:1018E000F0902F0320E030E0A901C701B6010E946B
:1018F0002943181644F4C0924002D0924102E0926B
:101900004202F09243026CE273E084E190E00E94B4
:101910006808C0902C03D0902D03E0902E03F09027
:101920002F0320E030E0A901C701B6010E9429433E
:10193000181644F4C0923C02D0923D02E0923E025E
:10194000F0923F0260E373E08EE190E00E948E0827
:101950008091300381118093A50265E773E088E1EF
:1019600090E00E948E0880917503882319F081E031
:101970008093750382E290E00E94390880919A0476
:1019800090919B04A0919C04B0919D040097A105A7
:10199000B10541F08093480290934902A0934A0216
:1019A000B0934B026DE074E086E290E00E9468081C
:1019B00068E074E08AE290E00E94680864E074E005
:1019C0008FE290E00E94680860E074E083E390E0BA
:1019D0000E9468086CEF73E087E390E00E9468085B
:1019E00068EF73E08BE390E00E94680862E773E0C1
:1019F0008FE390E00E948E0861E174E080E490E063
:101A00000E948E088DE490E00E94390880919A042B
:101A100090919B04A0919C04B0919D040097A10516
:101A2000B10541F08093260290932702A0932802EB
:101A3000B093290281E590E00E94390880919A04D0
:101A400090919B04A0919C04B0919D040097A105E6
:101A5000B10541F08093220290932302A0932402C7
:101A6000B09325026AE272E089E490E00E948E0859
:101A700080912A02823048F01A821982BE016F5F7B
:101A80007F4F89E490E00E94BF0A0CE412E0F12C41
:101A9000E12CC0902002D0902102C6010E9439089A
:101AA00080919A0490919B04A0919C04B0919D0414
:101AB000AC01BD0141505109610971094B325140DE
:101AC0006105710558F4F701EE0FFF1FEE0FFF1FC0
:101AD000E00FF11F80839183A283B383F4E0CF0EE4
:101AE000D11CD0922102C09220022FEFE21AF20AFA
:101AF00045E0E416F10469F60C5E1F4F82E00838F9
:101B0000180729F685E590E0909321028093200242
:101B100006E813E0F0901F028F2D90E00E9453081A
:101B200080919804909199049C01215031092F3F94
:101B3000334018F4F80191838083F394F394F09286
:101B40001F020E5F1F4FF3E00E391F0719F782E9DE
:101B500080931F020BEE13E0E0901D02F0901E0236
:101B6000C7010E9453088091980490919904803D88
:101B700027E0920718F4D8018D939C93B2E0EB0E06
:101B8000F11CF0921E02E0921D020E5F1F4FE3E077
:101B9000053F1E0709F78CEA90E090931E028093A0
:101BA0001D0260E373E086EB90E00E948E08809156
:101BB0003003813009F095C28093E30360E373E062
:101BC0008AEA90E00E948E08809130038093A402FC
:101BD00060E373E087EB90E00E948E088091300311
:101BE000813009F081C28093240460E373E083EDC7
:101BF00090E00E948E0880912404813009F077C221
:101C000080913003813009F072C28093250460E333
:101C100073E088EB90E00E948E0880913003813061
:101C200009F068C28093E40360E373E089EB90E01D
:101C30000E948E0880913003813009F05EC280934B
:101C4000E5038FEB90E00E945308809198049091F7
:101C500099048130F4E09F070CF052C2909316046F
:101C60008093150481EC90E00E94530880919804C1
:101C700090919904813024E092070CF046C2909331
:101C800018048093170468E273E083EC90E00E94EC
:101C90006808C0902803D0902903E0902A03F090B0
:101CA0002B0320E030E0A901C701B6010E942943BF
:101CB000181694F420E030E040E85FE3C701B60175
:101CC0000E94CA4187FF08C0C0929002D092910240
:101CD000E0929202F092930268E273E087EC90E067
:101CE0000E946808C0902803D0902903E0902A033E
:101CF000F0902B0320E030E0A901C701B6010E945B
:101D00002943181694F420E030E040E85FE3C7016F
:101D1000B6010E94CA4187FF08C0C0928C02D092CF
:101D20008D02E0928E02F0928F026CE273E08FECF3
:101D300090E00E94680884ED90E00E945308809132
:101D40009804909199049C0121503109273B3B4014
:101D500020F4909395028093940286ED90E00E9487
:101D6000530880919804909199049C012150310965
:101D7000273B3B4020F490932E0280932D028091CC
:101D8000E5038130C1F463EA72E081EE90E00E94E5
:101D90008E0862EA72E082EE90E00E948E0861EAAC
:101DA00072E083EE90E00E948E0860EA72E084EEBA
:101DB00090E00E948E081092D5031092D2031092E8
:101DC00072061092730610927406109275060091B6
:101DD000940210919502B801012E000C880B990B0A
:101DE0000E94794260937606709377068093780616
:101DF000909379061093970400939604C8010E946B
:101E0000E10260E087E00E94570560E08CE00E94FC
:101E1000570561E088E00E9429058091DA06803349
:101E200008F052C061E089E00E9457058091DA060F
:101E3000282F30E0F901EE0FFF1FE20FF31FEF51E3
:101E4000FA4F9081907C996090831092DB061092FB
:101E5000DC062CE0622F0E94A043829FB001112477
:101E600030E020E0AB01420F531FFA01EE0FFF1FDD
:101E7000E40FF51FEF51FA4F908196FD17C02F5FC9
:101E80003F4F2C30310571F7813009F043C110927A
:101E9000800082E08093810010928500109284007F
:101EA000B19A80916F00826080936F00E091DA06B2
:101EB0008E2F90E0FC01EE0FFF1FE80FF91FEF518E
:101EC000FA4F80818064808380919604909197047A
:101ED0000E94E10210922304109222041092210425
:101EE000109220041092D4031092D30381E08093C7
:101EF000CB031092CC031092CA0360E085E00E94ED
:101F0000570560E086E00E94570560E08CE30E9480
:101F1000570560E087E30E94570560E089E30E946F
:101F200057058AEF90E09093270380932603109241
:101F3000B8066091AC067091AD068091AE069091A6
:101F4000AF060E9477429B01AC0160E070E08AE737
:101F500093E40E94CF416B017C01AC019B01609135
:101F60008E0670918F0680919006909191060E9446
:101F70002E4360938E0670938F0680939006909305
:101F80009106A70196016091920670919306809147
:101F90009406909195060E94CF41609392067093AB
:101FA000930680939406909395068AEF90E0A0E0C4
:101FB000B0E08093AC069093AD06A093AE06B093CC
:101FC000AF0660912D0270912E02072E000C880B37
:101FD000990B0E9479426B017C016091940270918F
:101FE0009502072E000C880B990B0E9479424B0139
:101FF0005C01AC019B01C701B6010E94CA411816E1
:1020000084F48092B0069092B106A092B206B0928B
:10201000B306C092B406D092B506E092B606F0922E
:10202000B7061092290486E997E090930F028093F7
:102030000E0280916A00837F886080936A00ED9A27
:102040008DEB96E090930D0280930C0280916A00D4
:102050008C7F826080936A00EC9A60914402709158
:10206000450280914602909147026093BA067093B0
:10207000BB068093BC069093BD0620914002309130
:10208000410240914202509143022093BE06309398
:10209000BF064093C0065093C106E0903C02F0900A
:1020A0003D0200913E0210913F02E092C206F09282
:1020B000C3060093C4061093C5060E949E010F90AC
:1020C0000F90DF91CF911F910F91FF90EF90DF90D4
:1020D000CF90BF90AF909F908F9008958EEE92E03A
:1020E00034CB1092E3036ACD109224047ECD10927B
:1020F00025048DCD1092E40397CD1092E503A1CD78
:102100001092160410921504ADCD1092180410927E
:102110001704B9CD823061F4109290008093910041
:10212000109295001092940088BB80937100BECEEF
:10213000833069F41092A00082E08093A100109295
:10214000A5001092A40089BB80937200AFCE8111CC
:10215000ADCE1092200182E08093210110922501E2
:10216000109224018ABB80937300A0CE1F920F921D
:102170000FB60F9211240BB60F922F933F934F93EC
:102180005F936F937F938F939F93AF93BF93EF93DF
:10219000FF938EE994E00E94DB03FF91EF91BF91E2
:1021A000AF919F918F917F916F915F914F913F91EF
:1021B0002F910F900BBE0F900FBE0F901F90189590
:1021C0001F920F920FB60F9211240BB60F922F93FE
:1021D0008F939F93EF93FF93E091AE04F091AF0440
:1021E0008081E091B404F091B50482FD1DC090811E
:1021F0008091B7048F5F8F732091B804821741F0EC
:10220000E091B704F0E0E256FB4F958F8093B7045E
:10221000FF91EF919F918F912F910F900BBE0F9097
:102220000FBE0F901F9018958081F2CF1F920F92D2
:102230000FB60F9211240BB60F922F933F934F932B
:102240005F936F937F938F939F93AF93BF93EF931E
:10225000FF938BE395E00E94DB03FF91EF91BF9129
:10226000AF919F918F917F916F915F914F913F912E
:102270002F910F900BBE0F900FBE0F901F901895CF
:102280001F920F920FB60F9211240BB60F922F933D
:102290008F939F93EF93FF93E0914B05F0914C0543
:1022A0008081E0915105F091520582FD1DC0908121
:1022B000809154058F5F8F7320915505821741F0EF
:1022C000E0915405F0E0E55CFA4F958F809354055A
:1022D000FF91EF919F918F912F910F900BBE0F90D7
:1022E0000FBE0F901F9018958081F2CF1F920F9212
:1022F0000FB60F9211242F933F938F939F93AF9319
:10230000BF938091420390914303A0914403B09105
:1023100045033091410323E0230F2D3758F50196F3
:10232000A11DB11D20934103809342039093430369
:10233000A0934403B09345038091460390914703D3
:10234000A0914803B09149030196A11DB11D80934E
:10235000460390934703A0934803B0934903BF916A
:10236000AF919F918F913F912F910F900FBE0F9042
:102370001F90189526E8230F0296A11DB11DD2CFFC
:102380001F920F920FB60F9211240BB60F922F933C
:102390003F934F935F936F937F938F939F93AF93ED
:1023A000BF93EF93FF93E0911A02F0911B021995EE
:1023B000FF91EF91BF91AF919F918F917F916F911D
:1023C0005F914F913F912F910F900BBE0F900FBED9
:1023D0000F901F9018951F920F920FB60F92112415
:1023E0000BB60F922F933F934F935F936F937F930F
:1023F0008F939F93AF93BF93EF93FF93E091180256
:10240000F09119021995FF91EF91BF91AF919F91B2
:102410008F917F916F915F914F913F912F910F908D
:102420000BBE0F900FBE0F901F9018951F920F922A
:102430000FB60F9211240BB60F922F933F934F9329
:102440005F936F937F938F939F93AF93BF93EF931C
:10245000FF93E0910E02F0910F021995FF91EF9119
:10246000BF91AF919F918F917F916F915F914F91AC
:102470003F912F910F900BBE0F900FBE0F901F90AA
:1024800018951F920F920FB60F9211240BB60F9250
:102490002F933F934F935F936F937F938F939F936C
:1024A000AF93BF93EF93FF93E0910C02F0910D0275
:1024B0001995FF91EF91BF91AF919F918F917F916E
:1024C0006F915F914F913F912F910F900BBE0F90A5
:1024D0000FBE0F901F9018951F920F920FB60F927C
:1024E00011240BB60F922F933F934F935F936F93EB
:1024F0007F938F939F93AF93BF93EF93FF93E0915D
:102500001602F09117021995FF91EF91BF91AF91CB
:102510009F918F917F916F915F914F913F912F91FB
:102520000F900BBE0F900FBE0F901F9018951F922B
:102530000F920FB60F9211240BB60F922F933F9369
:102540004F935F936F937F938F939F93AF93BF93BB
:10255000EF93FF93E0911402F09115021995FF910A
:10256000EF91BF91AF919F918F917F916F915F910B
:102570004F913F912F910F900BBE0F900FBE0F9078
:102580001F9018951F920F920FB60F9211240BB641
:102590000F922F933F934F935F936F937F938F93FC
:1025A0009F93AF93BF93EF93FF93E0911202F0914B
:1025B00013021995FF91EF91BF91AF919F918F9168
:1025C0007F916F915F914F913F912F910F900BBE33
:1025D0000F900FBE0F901F9018951F920F920FB67D
:1025E0000F9211240BB60F922F933F934F935F934B
:1025F0006F937F938F939F93AF93BF93EF93FF93CB
:10260000E0911002F09111021995FF91EF91BF91A5
:10261000AF919F918F917F916F915F914F913F917A
:102620002F910F900BBE0F900FBE0F901F9018951B
:102630001F920F920FB60F9211240BB60F922F9389
:102640003F934F935F936F937F938F939F93AF933A
:10265000BF93EF93FF9348E251E064E271E090E0B2
:1026600080E00E940306FF91EF91BF91AF919F918F
:102670008F917F916F915F914F913F912F910F902B
:102680000BBE0F900FBE0F901F9018951F920F92C8
:102690000FB60F9211240BB60F922F933F934F93C7
:1026A0005F936F937F938F939F93AF93BF93EF93BA
:1026B000FF9348EA50E064EA70E083E090E00E9413
:1026C0000306FF91EF91BF91AF919F918F917F9101
:1026D0006F915F914F913F912F910F900BBE0F9093
:1026E0000FBE0F901F9018951F920F920FB60F926A
:1026F00011240BB60F922F933F934F935F936F93D9
:102700007F938F939F93AF93BF93EF93FF9348E98A
:1027100050E064E970E082E090E00E940306FF91DF
:10272000EF91BF91AF919F918F917F916F915F9149
:102730004F913F912F910F900BBE0F900FBE0F90B6
:102740001F9018951F920F920FB60F9211240BB67F
:102750000F922F933F934F935F936F937F938F933A
:102760009F93AF93BF93EF93FF9348E850E064E8E3
:1027700070E081E090E00E940306FF91EF91BF912D
:10278000AF919F918F917F916F915F914F913F9109
:102790002F910F900BBE0F900FBE0F901F901895AA
:1027A0004F925F926F927F928F929F92AF92BF9261
:1027B000CF92DF92EF92FF921092A1041092A004A8
:1027C00048EE53E060E070E04093A2045093A3040D
:1027D0006093A4047093A50483EC92E090939F040B
:1027E00080939E042DEC30E03093AB042093AA0438
:1027F0002CEC30E03093AD042093AC0428EC30E0B6
:102800003093AF042093AE0429EC30E03093B10450
:102810002093B0042AEC30E03093B3042093B20448
:102820002EEC30E03093B5042093B4041092B7043A
:102830001092B8041092B9041092BA0410923E0596
:1028400010923D0540933F0550934005609341052C
:102850007093420590933C0580933B0585EC90E096
:10286000909348058093470584EC90E090934A0547
:102870008093490580EC90E090934C0580934B0544
:1028800081EC90E090934E0580934D0582EC90E0B2
:102890009093500580934F0586EC90E090935205FD
:1028A00080935105109254051092550510925605CB
:1028B00010925705A8EDB5E090E080E041E2FC0100
:1028C0003E9621E030E08630910510F430E020E0C3
:1028D000E20FF31F40935700E491ED930196893086
:1028E000910569F780917106803308F016C191E077
:1028F000980F909371068093DA0690E0FC01EE0F3A
:10290000FF1FE80FF91FEF51FA4F88EB9BE092830E
:1029100081838091D6069091D706A091D806B09178
:10292000D9068093D2069093D306A093D406B09391
:10293000D5068091CE069091CF06A091D006B09199
:10294000D1068093CA069093CB06A093CC06B09391
:10295000CD060E949F050E949F050E94F605609388
:10296000C6067093C7068093C8069093C906C090A8
:10297000C206D090C306E090C406F090C5068090D1
:10298000BE069090BF06A090C006B090C1064090D1
:10299000BA065090BB066090BC067090BD0686E7F4
:1029A00096E090939D0680939C068AE796E090932C
:1029B0009B0680939A0682E796E090939F06809309
:1029C0009E061092B8061092B0061092B1061092B0
:1029D000B2061092B30680E090E0AFE7B3E48093D4
:1029E000B4069093B506A093B606B093B70684E6F6
:1029F00090E0A0E0B0E08093AC069093AD06A09389
:102A0000AE06B093AF06109297061092960620E09D
:102A100030E0A901C301B2010E94CA4187FD5AC03A
:102A200020E030E0A901C501B4010E94CA4187FD40
:102A300051C020E030E0A901C701B6010E94CA419F
:102A400087FD48C081E090E09093990680939806B6
:102A50008093B90640927E0650927F06609280066F
:102A6000709281068092820690928306A0928406DC
:102A7000B0928506C0928606D0928706E0928806BC
:102A8000F092890640928A0650928B0660928C06DC
:102A900070928D062DEC3CEC4CEC5DE3C501B4016D
:102AA0000E942E4360938E0670938F06809390064B
:102AB000909391062DEC3CEC4CEC5DE3C701B60124
:102AC0000E94CF4160939206709393068093940680
:102AD000909395060E94F605C090AC06D090AD0686
:102AE000E090AE06F090AF066C197D098E099F0943
:102AF0006093A0067093A1068093A2069093A3060C
:102B0000FF90EF90DF90CF90BF90AF909F908F900D
:102B10007F906F905F904F9008958FEF8093DA06CB
:102B2000F8CECF93DF93CDB7DEB769970FB6F894A1
:102B3000DEBF0FBECDBF789484B5826084BD84B5FE
:102B4000816084BD85B5826085BD85B5816085BDA8
:102B500080916E00816080936E0010928100809160
:102B600081008260809381008091810081608093E8
:102B70008100809180008160809380008091B1000D
:102B800084608093B1008091B00081608093B00038
:102B9000809191008260809391008091910081608A
:102BA000809391008091900081608093900080914B
:102BB000A10082608093A1008091A1008160809338
:102BC000A1008091A00081608093A00080912101EC
:102BD0008260809321018091210181608093210195
:102BE0008091200181608093200180917A0084602F
:102BF00080937A0080917A00826080937A0080913D
:102C00007A00816080937A0080917A008068809356
:102C10007A001092C1000E94E70A80919604909178
:102C200097040E94E102C090CE06D090CF06E090BB
:102C3000D006F090D106C092CA06D092CB06E092A0
:102C4000CC06F092CD060E949F052B013C014C144E
:102C50005D046E047F0440F44092CA065092CB0695
:102C60006092CC067092CD060091B2021091B30230
:102C70002091B4023091B50258016901E12CF12C88
:102C800000E010E020E034EE4BE054E562E070E05C
:102C900080E090E00E94D14320939204309393040B
:102CA00040939404509395048091900490919104E2
:102CB00020EAC22E26E8D22EEE24E394F12CC81A84
:102CC000D90AE108F108D701C6014091AE0250913E
:102CD000AF026091B0027091B10284179507A60708
:102CE000B70708F4B0C34091CA065091CB06609173
:102CF000CC067091CD06441A550A660A770A8415E7
:102D00009505A605B70508F49EC31092910410928C
:102D10009004609192047091930480919404909136
:102D2000950428E130E040E050E00E942C41ACE303
:102D3000B0E00E94194120E137E240E050E00E94FB
:102D40002C41C0908804D0908904E0908A04F090CF
:102D50008B04F601EE0FFF1FEE0FFF1FE458FB4F31
:102D600060918C0470918D0480918E0490918F04F9
:102D700080809180A280B380681979098A099B09B3
:102D80002083318342835383620F731F841F951FF7
:102D900060938C0470938D0480938E0490938F04C1
:102DA0000FEFC01AD00AE00AF00A13E0C116D104EE
:102DB000E104F10408F058C3C0928804D092890459
:102DC000E0928A04F0928B0423E030E040E050E08F
:102DD0000E942C412B833C834D835E832093780497
:102DE0003093790440937A0450937B04C090D606C4
:102DF000D090D706E090D806F090D906C092D206BF
:102E0000D092D306E092D406F092D5060E949F0598
:102E10002B013C014C145D046E047F0440F440928D
:102E2000D2065092D3066092D4067092D5060091D5
:102E3000AA021091AB022091AC023091AD02580170
:102E40006901E12CF12C00E010E020E034EE4BE0D1
:102E500054E562E070E080E090E00E94D14320936E
:102E600074043093750440937604509377048091F2
:102E700072049091730420EA36E841E050E0281B88
:102E8000390B41095109DA01C9014091A60250915B
:102E9000A7026091A8027091A90284179507A6075E
:102EA000B70708F4EAC24091D2065091D306609168
:102EB000D4067091D506441A550A660A770A841515
:102EC0009505A605B70508F4D8C2109273041092B0
:102ED00072042091A50230E050E040E0609174045B
:102EE0007091750480917604909177040E942C4132
:102EF000A0E1BEE00E94194120E137E240E050E04D
:102F00000E942C4180916A0490916B04A0916C0402
:102F1000B0916D04FC01EE0FFF1FEE0FFF1FE25A90
:102F2000FB4FC0906E04D0906F04E0907004F0905E
:102F3000710480809180A280B380C818D908EA0803
:102F4000FB082083318342835383C20ED31EE41EC9
:102F5000F51EC0926E04D0926F04E0927004F0925D
:102F600071040196A11DB11D83309105A105B10524
:102F700008F092C280936A0490936B04A0936C044F
:102F8000B0936D04C701B60123E030E040E050E0AB
:102F90000E942C4149015A0180925A0490925B048C
:102FA000A0925C04B0925D046B817C818D819E81D6
:102FB0000E9477422B013C01C701B60124EB30E0AF
:102FC00040E050E00E942C41CA01B9010E947742C2
:102FD0009B01AC01C301B2010E94CF411B012C0136
:102FE000209256043092570440925804509259044B
:102FF0000E94F6056093C6067093C7068093C806C4
:103000009093C906009152041091530420915404E6
:10301000309155046B017C01C01AD10AE20AF30A0F
:1030200097018601023311052105310508F42BC4EF
:103030006093520470935304809354049093550406
:10304000603E73498440910530F080915104813095
:1030500011F48093500489E30E9488053C01909309
:103060004F0480934E0487E30E94880540914604F4
:10307000509147046091480470914904FA01EE0FA1
:10308000FF1FEE0FFF1FEE5CFB4F00914A041091F3
:103090004B0420914C0430914D04C080D180E280DB
:1030A000F3800C191D092E093F09092E000CAA0BEB
:1030B000BB0B80839183A283B383800F911FA21FD8
:1030C000B31F80934A0490934B04A0934C04B09395
:1030D0004D044F5F5F4F6F4F7F4F45305105610586
:1030E000710508F0E2C14093460450934704609391
:1030F000480470934904BC01CD0125E030E040E074
:1031000050E00E942C4169017A01C0922E04D092B5
:103110002F04E0923004F0923104AFEFB0E00E944F
:1031200019412FEF33E040E050E00E94FA40209335
:103130002D048AE30E9488052FEF30E0DC010E9415
:10314000C8432FEF33E040E050E00E94FA40209364
:103150002C0490912B0410912A04273508F4AEC159
:10316000911109C0111107C060E080E20E94290599
:1031700081E080932B04209129042111B9C1809111
:1031800028048F5F8093280411112EC08091A4021F
:103190004091260450912704840F952F911D092EEC
:1031A000000CAA0BBB0BC816D906EA06FB06E0F01A
:1031B000809125048130C1F4211116C0809124042E
:1031C000813091F42091220430912304232B61F467
:1031D0002091200430912104232B31F49091280474
:1031E0009A3010F080932A0480912A04813021F4CF
:1031F00060E080E20E94290580911F0481117EC158
:10320000C501B4010E94774228E437E847E05BE358
:103210000E942E4360931B0470931C0480931D0432
:1032200090931E04C0901B04D0901C04E0901D04D9
:10323000F0901E0420E030E040E650E4C701B60103
:103240000E942E4360937A0670937B0680937C06DF
:1032500090937D062B813C8130931A0420931904AE
:103260008090150490901604092C000CAA08BB0845
:103270009301770C440B550B281939094A095B094E
:10328000A4E6B0E00E94194120911704309118047F
:10329000032E000C440B550B281939094A095B0908
:1032A0000E94FA402536310514F024E630E037FF5D
:1032B00002C030E020E030931404209313042093E4
:1032C000120410911104113059F580900D04909062
:1032D0000E04A0900F04B09010042DEC3CEC4CE4D4
:1032E0005FE3C501B4010E942E439B01AC01C20102
:1032F000B1010E94294387FD13C12AE939E949E94F
:103300005FE3C501B4010E942E439B01AC01C201E1
:10331000B1010E94CA4118160CF402C110930C04AA
:103320006091F703693108F0D4C11092F60310924E
:10333000F5030091F6031091F50370E090E080E052
:103340000E9477424B015C0169E1610F70E090E0FF
:1033500080E00E947742A50194010E945D4120E037
:1033600030E048EC51E40E94CF416B837C838D8335
:103370009E83E02FF0E0EE0FFF1FE551FC4F6081D0
:103380007181072E000C880B990B0E9479429B01DA
:10339000AC016B817C818D819E810E942E436B8369
:1033A0007C838D839E83612F70E090E080E00E949B
:1033B00077429B01AC01C501B4010E945D4120E050
:1033C00030E048EC51E40E94CF414B015C010F5FBB
:1033D000E02FF0E0EE0FFF1FE551FC4F608171819F
:1033E000072E000C880B990B0E9479429B01AC01BF
:1033F000C501B4010E942E439B01AC016B817C810D
:103400008D819E810E945E410E9441427093EA0339
:103410006093E9031091A302612F70E090E080E0D7
:103420000E9479424B015C01AC019B01C701B601CE
:103430000E94CA4187FF66C11092E8031092E70319
:103440001093E60384C11092920410929304109298
:1034500094041092950480EDE82E87E0F82EF09207
:103460009104E092900455CC109288041092890443
:1034700010928A0410928B04A7CC109274041092BC
:103480007504109276041092770440ED57E0509343
:103490007304409372041DCD10926A0410926B0461
:1034A00010926C0410926D046DCD1092460410922F
:1034B000470410924804109249041DCE913061F4E3
:1034C000223508F058CE111156CE61E080E20E94FC
:1034D000290510922B044FCE91114DCE223508F0C4
:1034E0004ACE111148CE61E080E20E94290543CE08
:1034F000213009F049CE1092280446CE813009F0DF
:1035000091CE8091190490911A0468E270E00E94B3
:10351000AC43072E000C880B990B0E9479427ACE9F
:103520008090080490900904A0900A04B0900B04C5
:103530002AE939E949E55FE3C501B4010E942E4358
:103540009B01AC01C201B1010E94294387FD14C057
:1035500023E333E343E95FE3C501B4010E942E4353
:103560009B01AC01C201B1010E94CA41181624F0AE
:1035700082E080930C04D4CE8090040490900504E3
:10358000A0900604B090070426E636E646E65FE320
:10359000C501B4010E942E439B01AC01C201B101DF
:1035A0000E94294387FD12C02DEC3CEC4CE85FE300
:1035B000C501B4010E942E439B01AC01C201B101BF
:1035C0000E94CA41181614F083E0D3CF8090000403
:1035D00090900104A0900204B09003042BE734E122
:1035E0004EE65FE3C501B4010E942E439B01AC018E
:1035F000C201B1010E94294387FD12C023EC35EFBF
:1036000048E85FE3C501B4010E942E439B01AC0171
:10361000C201B1010E94CA41181614F084E0A9CF7A
:103620008090FC039090FD03A090FE03B090FF03F8
:1036300023E333E343E75FE3C501B4010E942E4374
:103640009B01AC01C201B1010E94294387FD12C058
:1036500026E636E646E85FE3C501B4010E942E4344
:103660009B01AC01C201B1010E94CA41181614F0BD
:1036700085E07FCF8090F8039090F903A090FA0343
:10368000B090FB0323E333E343E75FE3C501B401F9
:103690000E942E439B01AC01C201B1010E9429434B
:1036A00087FD14C026E636E646E85FE3C501B401AF
:1036B0000E942E439B01AC01C201B1010E94CA418C
:1036C000181624F036E030930C042ACE10920C0425
:1036D00027CE87EE860F893138F481E08093F60398
:1036E00089E18093F50325CE8EEC860F893128F48D
:1036F00082E08093F60382E3F4CF83E08093F603C5
:103700008BE4EFCF0091A202602F70E090E080E0A8
:103710000E9479426B837C838D839E83A5019401F3
:10372000C701B6010E94294387FDB5C22B813C81A8
:103730004D815E81C701B6010E94CA4187FFABC2BD
:1037400081E08093E8031093E7030093E603009180
:10375000E8031091E60320E030E048EC52E4C701B2
:10376000B6010E942E434B015C017090E703412F8C
:103770004719550BBA01072E000C880B990B0E94B4
:1037800079426B017C0154E6759EB0011124072E2D
:10379000000C880B990B0E9479429B01AC01C5017A
:1037A000B4010E945D41A70196010E94CF416B8345
:1037B0007C838D839E83E1E0E00FF0E0EE0FFF1F3E
:1037C000EA56FD4F608170E090E080E00E9479420F
:1037D0009B01AC016B817C818D819E810E942E4377
:1037E00020E030E048EC52E40E94CF416B837C83C0
:1037F0008D839E8384E6189FB0011124072E000C50
:10380000880B990B0E947942A50194010E945D41A9
:10381000A70196010E94CF416B017C01E02FF0E0EF
:10382000EE0FFF1FEA56FD4F608170E090E080E0F0
:103830000E9479429B01AC01C701B6010E942E4350
:1038400020E030E048EC52E40E94CF419B01AC0103
:103850006B817C818D819E810E945E410E944842E5
:10386000653608F064E66093F7038091E5038130E4
:1038700051F48091E403813031F48091E30381308D
:1038800011F48093E2030E94F6056093C6067093DC
:10389000C7068093C8069093C9060091DE03109175
:1038A000DF032091E0033091E1036B017C01C01A3A
:1038B000D10AE20AF30A97018601043F114021056B
:1038C000310508F41DC16093DE037093DF0380931C
:1038D000E0039093E103C0901B04D0901C04E0909F
:1038E0001D04F0901E042091DA033091DB03409117
:1038F000DC035091DD03C701B6010E945D414B011D
:103900005C018092D6039092D703A092D803B09224
:10391000D903C092DA03D092DB03E092DC03F09289
:10392000DD0320E030E040E85FE30E94CA4187FF0A
:10393000E7C18091D503813049F48091D303909100
:10394000D40305969093D4038093D30320E030E012
:1039500040EF51ECC501B4010E94CA4187FF23C06A
:103960001092B8061092D5031092D20360E084E062
:103970000E9429050091940210919502B801012E30
:10398000000C880B990B0E94794260937606709325
:103990007706809378069093790610922904109305
:1039A0009704009396048091D203813099F420E02B
:1039B00030E040E050ECC501B4010E94CA4187FFED
:1039C000B5C18091D3039091D40305969093D4030D
:1039D0008093D30320E030E040E752E4C701B60112
:1039E0000E94CA4187FFB3C18091900290919102D9
:1039F000A0919202B09193028093CE039093CF0353
:103A0000A093D003B093D10380911104813009F0C9
:103A1000D3C180910C04813009F0C9C18093CD03DA
:103A20008091190490911A04883B5BE095070CF093
:103A3000C8C1E091CD0364E1E69FF0011124E45B8D
:103A4000FD4F80819181A281B38180934802909340
:103A50004902A0934A02B0934B0220E030E040E7D5
:103A600052E4C701B6010E94CA4187FFF4C18091A8
:103A7000CC03813009F0EFC18093CB031092CC03CB
:103A80008093CA038091CB03813009F0F9C1809102
:103A9000CA03813009F0F4C160914402709145027B
:103AA00080914602909147026093BA067093BB06DC
:103AB0008093BC069093BD06209140023091410254
:103AC00040914202509143022093BE063093BF06BC
:103AD0004093C0065093C106E0903C02F0903D0236
:103AE00000913E0210913F02E092C206F092C3069E
:103AF0000093C4061093C5060E949E011092CA034B
:103B00000E94F6056B017C01C092C606D092C706E2
:103B1000E092C806F092C9060091C5038091C603E1
:103B20009091C703A091C803B091C903B701A60142
:103B3000481B590B6A0B7B0BDB01CA0184369105CC
:103B4000A105B10518F1011121C020E030E048ECD9
:103B500052E460917A0670917B0680917C06909188
:103B60007D060E94294318168CF48091C30390911E
:103B7000C40301969093C4038093C303C092C60309
:103B8000D092C703E092C803F092C9037090C203B9
:103B900080907A0690907B06A0907C06B0907D067F
:103BA0008091C6039091C703A091C803B091C90347
:103BB000A7019601281B390B4A0B5B0BDA01C901DF
:103BC00084369105A105B105E8F071101BC020E015
:103BD00030E048EC52E4C501B4010E9429431816B4
:103BE0008CF48091C0039091C10301969093C1031E
:103BF0008093C003C092C603D092C703E092C8036B
:103C0000F092C903013009F06EC18091C303909115
:103C1000C4039C01215031092830310508F070C1DE
:103C20000093BF031092C4031092C3031091B80312
:103C300031E0731271C18091C0039091C1039C0166
:103C4000215031092830310508F01DC67092BC039F
:103C50001092C1031092C00320E030E048EC52E41F
:103C6000C501B4010E94CA4187FF7FC11092BC0305
:103C70001092BF031092BB031092BE031092BA03BE
:103C80001092BD031092C1031092C0031092C4039E
:103C90001092C30372C11091A102612F70E090E0F5
:103CA00080E00E9479424B015C012B813C814D8177
:103CB0005E81C701B6010E94294387FD0EC0A501A0
:103CC0009401C701B6010E94CA4187FF06C082E085
:103CD0008093E8030093E703B3CBA5019401C701E8
:103CE000B6010E94294318160CF031CD83E0809371
:103CF000E8031093E7038091A0028093E60327CDA9
:103D000020E030E040E050E4C501B4010E942943C6
:103D100018160CF01BCE8091D503813009F016CE19
:103D20008091D3039091D40305970CCE20E030E02E
:103D300040E85FEBC501B4010E94294318160CF05E
:103D400049CE8091D3039091D40305973FCE20E0D4
:103D500030E040E752E4C701B6010E94294387FDE5
:103D600013C020E030E042ED52E4C701B6010E94EA
:103D7000CA4187FF09C080918C0290918D02A09169
:103D80008E02B0918F0238CE20E030E042ED52E456
:103D9000C701B6010E94294387FD36CE8091880273
:103DA00090918902A0918A02B0918B0225CE823037
:103DB00008F436CE82E032CE811132CE1092CD039D
:103DC0002FCE9C01285B3B40283B3B4068F4E091B0
:103DD000CD0384E1E89FF0011124E45BFD4F848171
:103DE0009581A681B78131CE9C0120573741283B70
:103DF0003B4068F4E091CD03B4E1EB9FF001112466
:103E0000E45BFD4F80859185A285B3851ECE9C0124
:103E100028523342283B3B4068F4E091CD0304E153
:103E2000E09FF0011124E45BFD4F84859585A68514
:103E3000B7850BCE803E9E4209F40FCEE091CD03B4
:103E400024E1E29FF0011124E45BFD4F8089918918
:103E5000A289B389FACD20E030E042E852E4C701FC
:103E6000B6010E94294318160CF00CCE8091CB03AA
:103E7000813009F007CE1092CB038093CC0300CEA3
:103E80008091CC03813009F03BCE8091CA03813010
:103E900009F036CE609138027091390280913A0271
:103EA00090913B026093BA067093BB068093BC0668
:103EB0009093BD0620913402309135024091360234
:103EC000509137022093BE063093BF064093C00640
:103ED0005093C106E0903002F0903102009132021E
:103EE0001091330201CE0111A1CE8091C3039091B4
:103EF000C403099708F49ACE81E08093BE0396CE5E
:103F0000099708F493CE1092BE031092C403109246
:103F1000C3030093BD038ACE711009C08091C00312
:103F20009091C103099718F081E08093BB0320E0D2
:103F300030E048EC52E4C501B4010E94CA4187FF59
:103F400014C08091BC03813009F490CE8091BF03EE
:103F5000813009F48BCE8091BB03813009F486CE89
:103F60008091BE03813009F481CE8091B903813004
:103F700009F47CCE113009F479CE113079F5109323
:103F8000B7038091B3039091B403A091B503B091AE
:103F9000B603B701A601481B590B6A0B7B0BDB016B
:103FA000CA018C3B9240A105B105C0F0011116C0B9
:103FB000C092B303D092B403E092B503F092B6037B
:103FC0008091B20381116BC420920D0430920E04D3
:103FD00040920F04509210041093B2038091B903E1
:103FE000813009F051C08091E303813009F04CC069
:103FF0000091E403013009F047C060911B04709107
:104000001C0480911D0490911E040093B703C0907E
:10401000C606D090C706E090C806F090C90680900A
:10402000B3039090B403A090B503B090B603A7017A
:104030009601281939094A095B0949015A013CEBE3
:10404000831632E09306A104B104F0F02091C50379
:1040500021111AC0C092B303D092B403E092B50309
:10406000F092B6031091AC031111BCC40E944842F7
:104070006093A30280911304909114049093990289
:10408000809398020093AC0385E00E9400058F871F
:104090008093C50386E00E9400058B838093C20352
:1040A00087E00E9400058D8B8093A9038CE00E941D
:1040B00000058093A8038091B806882309F41EC1E7
:1040C0000E94F6056F83788789879A878091A0067A
:1040D0009091A106A091A206B091A3064F815885A8
:1040E00069857A85481B590B6A0B7B0B8091AC065E
:1040F0009091AD06A091AE06B091AF064817590752
:104100006A077B0708F4FAC0E0919A06F0919B06D3
:104110004080518062807380E0919E06F0919F06FE
:10412000A301920160817181828193810E945D412E
:104130006B017C012091A8063091A9064091AA0646
:104140005091AB06C301B2010E945D416B877C8731
:104150008D879E8720918E0630918F064091900624
:1041600050919106C701B6010E942E432091A406EA
:104170003091A5064091A6065091A7060E945E4187
:104180004B015C018092A4069092A506A092A6061F
:10419000B092A7060091B9060B8B01111CC02091AB
:1041A0008A0630918B0640918C0650918D066B8566
:1041B0007C858D859E850E942E439B01AC01C501A7
:1041C000B4010E945D416093A4067093A50680939C
:1041D000A6069093A7062091A4063091A5064091CB
:1041E000A6065091A7062E8B3F8B488F598F2090A3
:1041F000B4063090B5060091B6061091B70691014D
:10420000A8016E897F89888D998D0E94294318168F
:104210000CF072C4C101D8018093A4069093A50646
:10422000A093A606B093A7063B89332309F47FC465
:1042300020918A0630918B0640918C0650918D0614
:10424000C701B6010E942E436B017C0120919206AA
:104250003091930640919406509195066B857C852C
:104260008D859E850E942E439B01AC016091A40622
:104270007091A5068091A6069091A7060E945D41C7
:10428000A70196010E945E416B017C019B01AC017C
:10429000B101C8010E94CA4187FD12C02090B0063A
:1042A0003090B1060091B2061091B3069101A801B9
:1042B000B601C7010E94CA4187FD02C016018701ED
:1042C000E0919C06F0919D06C101D8018083918305
:1042D000A283B3834092A8065092A9066092AA06D0
:1042E0007092AB06CF80D884E984FA84C092A0068D
:1042F000D092A106E092A206F092A3060E94F605D3
:104300000E94F6052B013C014092C6065092C7065A
:104310006092C8067092C9060091960410919704A5
:1043200080919402909195021801281A390A3092CE
:10433000A7032092A603C0907606D0907706E0905F
:104340007806F0907906B801012E000C880B990BC5
:104350000E947942A70196010E94CA4187FF22C0AC
:104360008091A2039091A303A091A403B091A5030F
:10437000A3019201281B390B4A0B5B0BDA01C9011F
:104380000397A105B10570F00F5F1F4F10939704BD
:10439000009396044092A2035092A3036092A40358
:1043A0007092A5030091960410919704B801012E14
:1043B000000C880B990B0E9479429B01AC01C7014C
:1043C000B6010E94CA4187FF22C08091A20390914A
:1043D000A303A091A403B091A503B301A201481BBC
:1043E000590B6A0B7B0BDB01CA010397A105B105D1
:1043F00070F00150110910939704009396044092B5
:10440000A2035092A3036092A4037092A50380912B
:104410005004813059F51092B8061092D5031092CD
:10442000D20360E084E00E9429050091940210917B
:104430009502B801012E000C880B990B0E9479425D
:10444000609376067093770680937806909379064A
:104450001092290410939704009396041092720608
:10446000109273061092740610927506C090BE03E7
:10447000CF82C0907A06D0907B06E0907C06F090C8
:104480007D06009129041F81113071F420E030E095
:1044900048EC52E4C701B6010E942943181624F4DF
:1044A000011102C01093BF031091BB031130F1F44E
:1044B00020E030E048EC52E4C701B6010E942943F5
:1044C0001816A4F4011112C020E030E048EC52E4C8
:1044D00060917206709173068091740690917506D2
:1044E0000E942943181614F41093BC038091BC0356
:1044F000813041F520E030E048EC52E4C701B601DC
:104500000E94CA4187FD1AC020E030E048EC52E426
:10451000C701B6010E9429431816A4F420E030E038
:1045200048EC52E4609172067091730680917406B3
:10453000909175060E94CA41181624F0011102C01C
:104540001092BC038091BF03813009F076C020E057
:1045500030E048EC52E4C701B6010E94CA4187FD31
:1045600002C00C94AE40011146C01092BC0320E082
:1045700030E048EC52E4C701B6010E942943181606
:10458000A4F58091B803811130C08091B9038111E5
:104590002CC0C0927206D0927306E0927406F0921C
:1045A00075061092BF038091E203813009F0C3C207
:1045B0006091E9037091EA03072E000C880B990BB8
:1045C0000E9479426093760670937706809378060E
:1045D0009093790681E090E00E947A0261E084E0A5
:1045E0000E94290581E0809329040091290480918B
:1045F000BF03813011F5013001F58091B8038111BD
:104600001CC08091B903811118C020E030E040E85F
:1046100050E46091720670917306809174069091D7
:1046200075060E945D4160937206709373068093D5
:104630007406909375061092BF038091BC0381307D
:1046400011F5013001F58091B80381111CC08091F2
:10465000B903811118C020E030E040E850E46091D7
:1046600072067091730680917406909175060E948F
:104670005E41609372067093730680937406909304
:1046800075061092BC038091BC03813009F050C0C4
:1046900001114EC0C0907A06D0907B06E0907C0657
:1046A000F0907D0620E030E048EC52E4C701B6010E
:1046B0000E9429431816E4F520E030E048EC52E46B
:1046C00060917206709173068091740690917506E0
:1046D0000E942943181664F58091B803811128C0FF
:1046E0008091B903811124C08091E203813009F0E7
:1046F00041C26091E9037091EA03072E000C880B18
:10470000990B0E94794260937606709377068093A6
:1047100078069093790681E090E00E947A0261E049
:1047200084E00E94290581E0809329041092BC0353
:10473000C0902904CB860C2D013009F05CC3009198
:10474000D203C0907A06D0907B06E0907C06F09071
:104750007D068091D50381113EC001113CC0A701A7
:104760009601609172067091730680917406909123
:1047700075060E945D4120E030E040EF51E40E9468
:104780002943181614F0113031F51092B80681E063
:104790008093D5032091D3033091D4033C8B2B8B92
:1047A0008091E203813009F004C26091E9037091C5
:1047B000EA0366557F4F620F731F072E000C880BAC
:1047C000990B0E94794260937606709377068093E6
:1047D0007806909379068091D503882309F41AC24C
:1047E000813009F054C2A701960160917206709160
:1047F000730680917406909175060E945D4120E0D9
:1048000030E048E851E40E94CA4118160CF4CCC2CA
:1048100011113DC28091BA03882329F08091BA0317
:10482000813009F034C21092D5038091BA038130EF
:1048300051F41092BA03C0927206D0927306E092BD
:104840007406F09275068091E203813009F0B0C2DF
:104850006091E9037091EA03072E000C880B990B15
:104860000E9479426093760670937706809378066B
:104870009093790681E090E00E947A021092D4032E
:104880001092D30304C2099708F451CB1092BB03D2
:104890001092C1031092C0037092BA0348CB8130CA
:1048A00009F09CCB8091B10381110BC020920804C8
:1048B0003092090440920A0450920B041093B10301
:1048C0008DCB813009F08ACB8091B00381110BC070
:1048D000209204043092050440920604509207048A
:1048E0001093B0037BCB813019F58091AF03811118
:1048F0000CC02092000430920104409202045092B5
:10490000030481E08093AF0369CB8091AF038130D2
:1049100091F49091AE0391110EC02092FC0330925D
:10492000FD034092FE035092FF038093AE0356CBEB
:10493000813009F053CB8091AF03813009F04ECB29
:104940008091AE03813009F049CB9091AD03911174
:1049500045CB2092F8033092F9034092FA0350922B
:10496000FB031092B8038093110460E084E00E947E
:1049700029056DE074E086E290E00E943E0A68E05E
:1049800074E08AE290E00E943E0A64E074E08FE204
:1049900090E00E943E0A60E074E083E390E00E94B1
:1049A0003E0A6CEF73E087E390E00E943E0A68EFF6
:1049B00073E08BE390E00E943E0A61E174E080E4E2
:1049C00090E00E94A60A1092B7031092B2031092D0
:1049D000B1031092B0031092AF031092AE03109285
:1049E000AD03FCCA113009F04FCB2091AB0321116C
:1049F0000FC00E9448426093A202809113049091DC
:104A0000140490939B0280939A021093AB033CCBC7
:104A1000213009F039CB2091AA03211110C00E9446
:104A200048426093A10280911304909114049093E2
:104A30009D0280939C0281E08093AA0325CB2130C4
:104A400009F022CB0E9448426093A0028091130497
:104A50009091140490939F0280939E021092B90348
:104A60001092AC031092AB031092AA0306E912E075
:104A700080EAE82E82E0F82E80912F02B80190E0C3
:104A80000E94BF0A80912F028E5F80932F0263EAFB
:104A900072E081EE90E00E94A60A62EA72E082EE85
:104AA00090E00E94A60A61EA72E083EE90E00E9424
:104AB000A60A60EA72E084EE90E00E94A60A0E5F09
:104AC0001F4FE016F106C1F61092B7038AEB8093F0
:104AD0002F0260E084E00E94290581E08093E503D5
:104AE00081E090E09A838983BE016F5F7F4F89EBFD
:104AF00090E00E94BF0AC8CA8090B0069090B106AC
:104B0000A090B206B090B306A50194016E897F898A
:104B1000888D998D0E94CA4187FF86CB8092A4061A
:104B20009092A506A092A606B092A7067DCBC12CB6
:104B3000D12C76018BCB2091CE033091CF034091C5
:104B4000D0035091D103C701B6010E942E436B01DF
:104B50007C016091940270919502072E000C880BE5
:104B6000990B0E9479429B01AC01C701B6010E94DA
:104B70005E4128CD2091CE033091CF034091D003E8
:104B80005091D103C701B6010E942E436B017C01F5
:104B90006091940270919502072E000C880B990B7E
:104BA0000E9479429B01AC01C701B6010E945E419F
:104BB000AACD6091940270919502072E000C880B8B
:104BC000990B0E9479424B015C012DEC3CEC4CE0CE
:104BD0005FE3C701B6010E942E439B01AC01C501F2
:104BE000B4010E945E4120E030E04AE253E40E94BA
:104BF0005E414B015C014B895C89BA01550F880B02
:104C0000990B0E9479429B01AC01C501B4010E943D
:104C10005E41D9CD01113BC02091720630917306DF
:104C20004091740650917506C701B6010E945D411E
:104C300020E030E040EF51E40E94294318161CF0B8
:104C40000F81013021F51092B80681E08093D203E4
:104C50000091D3031091D4038091E203813009F0D5
:104C600074C06091E9037091EA0366547109600FA2
:104C7000711F072E000C880B990B0E9479426093DC
:104C800076067093770680937806909379068091E4
:104C9000D203813009F0AFC0C0907A06D0907B0675
:104CA000E0907C06F0907D062091720630917306AC
:104CB0004091740650917506C701B6010E945D418E
:104CC00020E030E048E851E40E94CA4118160CF494
:104CD0008EC01F8111118FC08091BD03882329F0E0
:104CE0008091BD03813009F086C01092D20380917B
:104CF000BD03813051F41092BD03C0927206D09270
:104D00007306E0927406F09275068091E20381309A
:104D100009F0A1C26091E9037091EA03072E000C2B
:104D2000880B990B0E947942609376067093770600
:104D3000809378069093790681E090E00E947A0251
:104D40001092D4031092D30356C0609194027091D4
:104D50009502072E000C880B990B0E9479424B019B
:104D60005C012DEC3CEC4CE05FE3C701B6010E9416
:104D70002E439B01AC01C501B4010E945E4120E0BD
:104D800030E04CE852E40E945D416B017C01B801C7
:104D9000110F880B990B0E9479429B01AC01C7014E
:104DA000B6010E945E416BCF112309F437CD6FCF5E
:104DB0002091CE033091CF034091D0035091D10385
:104DC000C701B6010E942E436B017C0160919402E1
:104DD00070919502072E000C880B990B0E94794266
:104DE0009B01AC01C701B6010E945E413BCD0F8122
:104DF000002309F475CFC0907A06D0907B06E0902E
:104E00007C06F0907D068091D5038130F9F4009105
:104E1000D3031091D4038091E203813009F03AC2A8
:104E20006091E9037091EA0366557F4F600F711F2F
:104E3000072E000C880B990B0E947942609376062E
:104E40007093770680937806909379068091D203C9
:104E50008130F9F40091D3031091D4038091E203DF
:104E6000813009F046C26091E9037091EA0366540B
:104E70007109600F711F072E000C880B990B0E949F
:104E800079426093760670937706809378069093C4
:104E9000790620E030E048EC52E4C701B6010E94F8
:104EA000CA4187FD0AC020E030E04CE054E4C7016D
:104EB000B6010E94294318161CF41B85113031F1EC
:104EC0008091A4022091260430912704820F932F11
:104ED000911D092E000CAA0BBB0B40912E04509182
:104EE0002F046091300470913104481759076A0704
:104EF0007B0708F442C0809125048130F1F50B85D1
:104F00000130D9F5809124048130B9F51092B806AA
:104F10001092D5031092D20360E084E00E9429052C
:104F20000091940210919502B801012E000C880B9B
:104F3000990B0E947942609376067093770680936E
:104F400078069093790610922904109397040093A1
:104F500096041092BC031092BF031092BB031092F0
:104F6000BE031092BA031092BD031092C1031092B7
:104F7000C0031092C4031092C3031D89111137C0DE
:104F80001092B8061092D5031092D20360E084E02C
:104F90000E9429050091940210919502B801012EFA
:104FA000000C880B990B0E947942609376067093EF
:104FB00077068093780690937906109229041093CF
:104FC0009704009396041092BC031092BF031092B2
:104FD000BB031092BE031092BA031092BD0310924D
:104FE000C1031092C0031092C4031092C303A09097
:104FF0002D02B0902E02C0909402D0909502C5016F
:105000008C199D096BE070E00E94AC439B01621516
:1050100073050CF49DC11092A1031092A00310928D
:105020009F0310929E03E091A003F091A103E090F2
:105030009E03F0909F03A9014E0D5F1D74E6749FBF
:10504000C001759F900D11244CE9942E492D8101CA
:105050004003B001419F700D1124860F971FB901C5
:105060000E94AC43DF01AA0FBB1FAA57BC4F0D9093
:10507000BC91A02D6A9FC0016B9F900D7A9F900DEF
:10508000112464E670E00E94AC438B0154E6529D0B
:10509000C001539D900D1124B7014603D001479FD5
:1050A000B00D11248A0F9B1FB9010E94AC43EE0F73
:1050B000FF1FE857FC4F20813181629FC001639F31
:1050C000900D729F900D112464E670E00E94AC4335
:1050D000060F171F109327040093260420E030E0EA
:1050E0004CE054E4609172067091730680917406EE
:1050F000909175060E942943181664F480E090E0B0
:10510000ACE0B4E48093720690937306A0937406A7
:10511000B093750680919604909197048C159D0527
:1051200024F4D0929704C0929604809196049091B2
:105130009704A816B90624F4B0929704A092960496
:105140001091B703113039F5809182039091830358
:10515000A0918403B091850373016201C81AD90A32
:10516000EA0AFB0AD701C601843F9140A105B105B7
:1051700090F0409282035092830360928403709275
:1051800085038091810381116DC161E084E00E94FB
:10519000290510938103C0901B04D0901C04E0905B
:1051A0001D04F0901E0420E030E0A901C701B60103
:1051B0000E942943181694F48091290481110EC08D
:1051C0001092800310927F0310927E0310927D0351
:1051D00010927C0310927B0310927A0380917603E5
:1051E00090917703A0917803B0917903A301920184
:1051F000281B390B4A0B5B0BDA01C901883C91056E
:10520000A105B10508F479C18091B903811175C177
:105210008091B803811171C10F8501112DC120E06A
:1052200030E0A901C701B6010E94CA4181110C9466
:10523000DD40809180038F5F809380031B8111117B
:105240003FC180917F038F5F80937F031F85113063
:1052500009F04BC122C12091CE033091CF03409180
:10526000D0035091D103C701B6010E942E436B01B8
:105270007C016091940270919502072E000C880BBE
:10528000990B0E9479429B01AC01C701B6010E94B3
:105290005E414ACD6091940270919502072E000CF8
:1052A000880B990B0E9479424B015C012DEC3CEC80
:1052B0004CE05FE3C701B6010E942E439B01AC01A5
:1052C000C501B4010E945E4120E030E04AE253E4AF
:1052D0000E945E414B015C01B801110F880B990BD4
:1052E0000E9479429B01AC01C501B4010E945E415C
:1052F000A5CD6091940270919502072E000C880B49
:10530000990B0E9479424B015C012DEC3CEC4CE086
:105310005FE3C701B6010E942E439B01AC01C501AA
:10532000B4010E945E4120E030E04CE852E40E946B
:105330005D414B015C01B801110F880B990B0E9474
:1053400079429B01AC01C501B4010E945E4199CD37
:10535000CB01880F991F281639065CF481E090E094
:105360009093A1038093A00370939F0360939E0387
:105370005ACEAC01460F571F241635065CF442E0A6
:1053800050E05093A1034093A00390939F03809318
:105390009E0349CECB01880F991F880F991F2816AD
:1053A00039065CF483E090E09093A1038093A0031E
:1053B00050939F0340939E0336CE65E0629FA00109
:1053C000639F500D1124241635061CF444E050E070
:1053D000D8CF66E0629FC001639F900D112428160C
:1053E00039061CF485E090E0DFCF67E0629FA00102
:1053F000639F500D1124241635061CF446E050E03E
:10540000C0CFC901B3E0880F991FBA95E1F72816FC
:1054100039061CF487E090E0C7CF69E0629FA001E5
:10542000639F500D11242816390634F024163506D2
:105430001CF448E050E0A5CF6AE0629FC001639F82
:10544000900D11242416350634F0281639061CF464
:1054500089E090E0A9CF821593050CF0E4CD4AE0F5
:1054600050E08FCF813009F096CE60E084E00E945A
:105470002905109281038FCE0B8101110BC020E012
:1054800030E0A901C701B6010E94CA41882309F48E
:10549000D8CEDCCE1F85113099F4809180038150E5
:1054A000853028F481E080937E0310928003809100
:1054B0008003863028F081E080937C031092800383
:1054C0000B81013091F480917F038150853020F46D
:1054D00000937D0310927F0380917F03863028F034
:1054E00081E080937B0310927F0340927603509279
:1054F0007703609278037092790380917A03811127
:105500001DC080917E03813021F080917D03813028
:1055100021F410927E0310927D0380917C038130F0
:1055200011F00C94DB3380917B03813039F48AE0F5
:1055300080937A0310927C0310927B0380917A030C
:105540008A3009F08CC080917D03813049F48091CC
:1055500074038F5F8093740310927E0310927D0317
:1055600080917E03813049F480917403815080934F
:10557000740310927E0310927D0380917403982F20
:105580008D3008F09CE090937403811113C08091DA
:105590007C03813021F080917B03813059F484E1D8
:1055A00080937A031092730310927C0310927B0312
:1055B00010927403809174038130A1F480917C0374
:1055C000813021F080917B03813061F484E180930C
:1055D0007A0381E08093730310927C0310927B0323
:1055E0001092740380917403823011F00C94F7339D
:1055F00080917C03813021F080917B03813039F4EC
:1056000082E380937A0310927C0310927B03809153
:105610007403863011F00C94523480917C038130F5
:1056200021F080917B03813039F410927C03109239
:105630007B038AE580937A03809174038F3079F439
:1056400080917C03813021F080917B03813039F49B
:1056500010927C0310927B038FEB80937A038091EE
:105660007A038F3B09F03EC08091710381110C9445
:10567000DA3480917D03813049F4809170038F5F2B
:105680008093700310927E0310927D0380917E03BD
:10569000813049F48091700381508093700310929F
:1056A0007E0310927D0380917003682F843008F090
:1056B00063E06093700390917C03913029F09091A6
:1056C0007B03913009F04EC010927C0310927B0353
:1056D000833010F00C94D53489ED90E00E94230AB9
:1056E00010927A0380917A03893B11F00C94B336BF
:1056F00080917E03813039F4809167038F5F8093BE
:10570000670310927E0380917D03813039F480918C
:10571000670381508093670310927D0380917C031F
:10572000813029F080917B03813009F069C01092AB
:105730007C0310927B0380917E03813039F4809149
:1057400066038F5F8093660310927E0380917D03D2
:10575000813009F055C080916603815080936603C3
:1057600010927D0380917A03843B09F049C08091B7
:105770007B03813021F080917C03813069F41092A9
:105780007C0310927B036DE272E086ED90E00E9454
:10579000BF0A8AE080937A0380917E03813069F4A6
:1057A00080912D0290912E0210927E0310927D0323
:1057B000019690932E0280932D0280917D0381307B
:1057C00069F480912D0290912E0210927E03109226
:1057D0007D03019790932E0280932D0260912D02FC
:1057E00070912E02072E000C880B990B0E947942B3
:1057F0006093760670937706809378069093790687
:1058000080917A038A35D9F480917B03813021F02D
:1058100080917C03813039F410927C0310927B03D9
:105820008AE080937A0380917E03813021F0809119
:105830007D03813021F410927E0310927D038091CC
:105840007A03883C09F048C080916503811181E0AA
:105850008093650390917E03913039F410927E031A
:1058600010927D038F5F8093650380917D0381306B
:1058700049F410927E0310927D038091650381505C
:105880008093650390917C039130D9F410927C034E
:1058900010927B038091650381110C940C378091E9
:1058A000240481110C9402379093240481E090E049
:1058B0009A838983BE016F5F7F4F87EB90E00E94E0
:1058C000BF0A80917B03813039F410927C031092DF
:1058D0007B038AE080937A0380917A03893C81F587
:1058E00080917E03813049F410927E0310927D03F3
:1058F0008091A4028F5F8093A40280917D03813008
:1059000049F410927E0310927D038091A40281508D
:105910008093A40280917C03813029F080917B03E5
:10592000813009F05BC010927C0310927B03609180
:10593000A4028AEA90E00E94230A8EE180937A030F
:1059400080917A038C3D09F049C0809164038330D3
:1059500008F082E08093640390917E03913039F4E3
:1059600010927E0310927D038F5F80936403809179
:105970007D03813049F410927E0310927D03809163
:10598000640381508093640390917C039130D9F437
:1059900010927C0310927B038091640381110C941C
:1059A0001F378091E30381110C9415379093E30323
:1059B00081E090E09A838983BE016F5F7F4F86EB21
:1059C00090E00E94BF0A80917B03813039F41092ED
:1059D0007C0310927B038AE080937A0380917A03A0
:1059E0008D3DA9F580916303833008F082E08093B8
:1059F000630390917E03913039F410927E031092EC
:105A00007D038F5F8093630380917D03813049F430
:105A100010927E0310927D038091630381508093E6
:105A2000630380917C03813039F410927C031092DF
:105A30007B038EED80937A0380917B03813039F470
:105A400010927C0310927B038CED80937A038091FB
:105A50007A038E3D09F060C080917E038130F9F4B5
:105A600010927E0310927D038091630381110C9448
:105A700034372AE037ED43E25CE3609190027091A5
:105A8000910280919202909193020E945E416093F4
:105A9000900270939102809392029093930280916E
:105AA0007D038130F9F410927E0310927D03809182
:105AB000630381110C946A372AE037ED43E25CE31B
:105AC0006091900270919102809192029091930264
:105AD0000E945D41609390027093910280939202C4
